80        0000000001      L400000000                                                    0         1                                 EU                         A  0         122900234 CRUMPLER RD         MALCOLM D. WOODARD                              00000000                                                                                                                                                                                        8045023401               8950  1                                 
80        0000001001      L400000000                                                    0         1                                 EU                         A  0         122900253 CRUMPLER RD         CURTIS & JOYCE OVERMAN                          00000000                                                                                                                                                                                        8045025301               8951  1                                 
80        0000002001      L400000000                                                    0         1                                 EU                         A  0         122900441 CRUMPLER RD         ALICE BATTEN                                    00000000                                                                                                                                                                                        8045044101               8952  1                                 
80        0000003001      L41410014392   1410014392                 0000000013          10125     9001                            47EUZ090403100808            A 09000      080903237 RICHARDSON BASS RD. JAMES T. MITCHUM                                1410014392                                                                                                                                                                                      8047023701               20421 1                                 
80        0000004001      L41410013196                                                  146483    144001                            EUZ                        A  144000    0809031607 RICHARDSON BASS RD.MARION EDWARD FRAZIER                           1410013196                                                                                                                                                                                      8047160701               10529 1                                 
80        0000005001      L41410014538                                                  49833     46001                             EUZ                        A  46000     0809031644 RICHARDSON BASS RD.PEDRO CORRAL            03Q04023C               1410014538              03Q04023C                                                                                                                                                               8047164401               19647 1                                 
80        0000006001      L400000000                                                    0         1                                 EU                         A  0         0308011715 RICHARDSON BASS RD.WILLIE B. STONE                                 00000000                                                                                                                                                                                        8047171501               10530 1                                 
80        0000007001      L41410014458   1410014458                 0000000162          157672    155001                          47EUZ090303150142            A 1155000    0809031801 RICHARDSON-BASS RD.PEARL W. STONE                                  1410014458                                                                                                                                                                                      8047180101               10162 1                                 
80        0000008001      L400000000                                                    0         1                                 EU                         A  0         0308011816 RICHARD BASS RD.   LEON & CAROLYN STONE                            00000000                                                                                                                                                                                        8047181601               10531 1                                 
80        0000009001      L41410014282   1410014282                 0000000151          149534    147001                          47EUZ090303142319            A 1147000    0809032063 RICHARDSON BASS RD.GEORGE & WANDA DANIELS                          1410014282                                                                                                                                                                                      8047206301               10532 1                                 
80        0000010001      L400000000                                                    0         1                                 EU                         A  0         0308012086 RICHARDSON BASS RD.JAMES FREDDY WORLEY                             00000000                                                                                                                                                                                        8047208601               10533 1                                 
80        0000011001      L400000000                                                    0         1                                 EU                         A  0         0308012174 RICHARDSON BASS RD.HOWARD HEAGNEY LIFE ESTA                        00000000                                                                                                                                                                                        8047217401               10515 1                                 
80        0000012001      L400000000                                                    0         1                                 EU                         A  0         0308012417 RICHARDSON BASS RD.RONALD M. BOYETTE                               00000000                                                                                                                                                                                        8047241701               10534 1                                 
80        0000013001      L41410023106   1410023106                 0000000017          12207     12001                           47EUZ090303142309            A 112000     0809032533 RICHARDSON-BASS RD.TONEY & SANDRA WALSTON                          1410023106                                                                                                                                                                                      8047253301               10535 1                                 
80        0000014001      L41410014430   1410014430                 0000000012          11688     11001                           47EUZ090403103015            A 111000     081103552 FELLOWSHIP CH RD.   THOMAS SIDNEY SMITH     04Q06027D               1410014430              04Q06027D                                                                                                                                                               8049055201               18478 1                                 
80        0000015001      L400000000                                                    0         1                                 EU                         A  0         010203646 FELLOWSHIP CH RD.   CAROLYN EASON           04Q06027G               00000000                04Q06027G                                                                                                                                                               8049064601               18479 1                                 
80        0000016001      L41410014574   1410014574                 0000000004          1500      1                               47EUZ090403103020            A 00         081103116 PEACH ROCK RD.      DANNY & JULIE STEWART                           1410014574                                                                                                                                                                                      8049911601               20873 1                                 
80        0000017001      L41410014600   1410014600                 0000000009          7875      7001                            47EUZ090403103029            A 17000      081103128 PEACH ROCK RD/CRESTMPHYLLIS & JERRY CURRIN                          1410014600                                                                                                                                                                                      8049912801               20417 1                                 
80        0000018001      L41410011434   1410011434                 0000000016          14625     13001                           47EUZ090403103023            A 113000     081103132 PEACH ROCK RD/40CRESROBIN & BEVERLY CRAFT                           1410011434                                                                                                                                                                                      8049913201               20420 1                                 
80        0000019001      L400000000                                                    0         1                                 EU                         I  0         052901???? HICKORY CROSSROADS KERMIT WAYNE AYCOCK     03Q03002                00000000                03Q03002                                                                                                                                                                8050000001               11601 1                                 
80        0000020001      L41410011376   1410011376                 0000000032          30882     30001                           47EUZ090403103220            A 130000     0808031766 RAINS MILL RD      RICKY T AYCOCK                                  1410011376                                                                                                                                                                                      8050000101               11602 1                                 
80        0000021001      L400000000                                                    0         1                                 EU                         A  0         052901PRINCETON-KENLY RD(1OF2)RUPERT HESTER                                   00000000                                                                                                                                                                                        8050000201               11609 1                                 
80        0000022001      L400000000                                                    0         1                                 EU                         A  0         052901???? PRINCETON-KENLY RD GEORGE C MCLAMB                                 00000000                                                                                                                                                                                        8050000301               11610 1                                 
80        0000023001      L400000000                                                    -1073741821                                 EU                         I  0         051302???? PRINCETON-KENLY RD(RUPERT HESTER                                   00000000                                                                                                                                                                                        8050000501               14916 1                                 
80        0000024001      L41410011374   1410011374                 0000000010          6150      6001                            47EUZ090403101720            A 16000      0811035338 PRINCETON-KENLY/14MKEN & SUSAN AVENT                               1410011374                                                                                                                                                                                      8050000601               20658 1                                 
80        0000025001      L41410014528   1410014528                 000000::::          139075    137001                          47EUZ090303141027            A 1137000    080903924 PRINCETON KENLY RD  BOB K. & MELISSA C. WHIT                        1410014528                                                                                                                                                                                      8050092401               9085  1                                 
80        0000026001      L41410013162   1410013162                 0000000162          161408    159001                          47EUZ090303141016            A 1159000    080903950 PRINCETON KENLY RD  TOMMY E. STRICKLAND                             1410013162                                                                                                                                                                                      8050095001               9068  1                                 
80        0000027001      L41410013094   1410013094                 0000000121          117757    116001                          47EUZ090303141025            A 1116000    080903974 PRINCETON KENLY RD. HILTON V. RENFROW                               1410013094                                                                                                                                                                                      8050097401               8787  1                                 
80        0000028001      L41410013086   1410013086                 0000000058          56874     56001                           47EUZ090303140909            A 156000     0809031006 PRINCETON KENLY RD LULA B. FITZGERALD                              1410013086                                                                                                                                                                                      8050100601               9069  1                                 
80        0000029001      L41410013160   1410013160                 0000000042          42636     42001                           47EUZ090303140805            A 142000     0809031031 PRINCETON KENLY RD H.C. RAINS                                      1410013160                                                                                                                                                                                      8050103101               9070  1                                 
80        0000030001      L41410017940   1410017940                 0000000204          199629    196001                          47EUZ090303140758            A 1196000    0809031094 PRINCETON KENLY RD.TIMOTHY STEPHENSON                              1410017940                                                                                                                                                                                      8050109401               11070 1                                 
80        0000031001      L41410013156   1410013156                 0000000023          22333     22001                           47EUZ090303140845            A 122000     0809031095 PRINCETON KENLY RD RAYMOND SHIRLEY                                 1410013156                                                                                                                                                                                      8050109501               9071  1                                 
80        0000032001      L41410013164   1410013164                 0000000158          155942    153001                          47EUZ090303140803            A 1153000    0809031110 PRINCETON-KENLY RD.ANTHONY & ANN GINN                              1410013164                                                                                                                                                                                      8050111001               11275 1                                 
80        0000033001      L41410013070   1410013070                 0000000106          105575    104001                          47EUZ090303140817            A 1104000    0809031111 PRINCETON KENLY RD JOHN & CRECIA MORRIS                            1410013070                                                                                                                                                                                      8050111101               9072  1                                 
80        0000034001      L41410013092   1410013092                 0000000064          62939     62001                           47EUZ090303140751            A 162000     0809031115 PRINCETON KENLY RD DOROTHY W. CREECH                               1410013092                                                                                                                                                                                      8050111501               9073  1                                 
80        0000035001      L41410013142   1410013142                 0000000203          199985    197001                          47EUZ090303140857            A 1197000    0809031120 PRINCETON KENLY RD BERRY WAYNE NARRON                              1410013142                                                                                                                                                                                      8050112001               9074  1                                 
80        0000036001      L41410014594   1410014594                 0000000230          227393    224001                          47EUZ090303140826            A 1224000    0809031137 PRINCETON KENLY RD DENNIS FOSTER                                   1410014594                                                                                                                                                                                      8050113701               9075  1                                 
80        0000037001      L41410014578   1410014578                 0000000106          104560    103001                          47EUZ090303140728            A 1103000    0809031139 PRINCETON KENLY RD JAMES WHITTED BALLANCE                          1410014578                                                                                                                                                                                      8050113901               9076  1                                 
80        0000038001      L41410010164   1410010164                 0000000066          65985     65001                           47EUZ090303140730            A 165000     0809031146 PRINCETON KENLY RD IRMA ETHERIDGE                                  1410010164                                                                                                                                                                                      8050114601               9077  1                                 
80        0000039001      L41410010182   1410010182                 0000000130          128868    127001                          47EUZ090303140727            A 1127000    0809031166 PRINCETON-KENLY RD.HAROLD G. MCRAE                                 1410010182                                                                                                                                                                                      8050116601               8786  1                                 
80        0000040001      L41410014566   1410014566                 0000000074          73058     72001                           47EUZ090303140719            A 172000     0809031192 PRINCETON-KENLY RD.MIRIAM LAMM                                     1410014566                                                                                                                                                                                      8050119201               8781  1                                 
80        0000041001      L41410014602   1410014602                 0000000177          179682    177001                          47EUZ090303140721            A 1177000    0809031207 PRINCETON KENLY RD JACKIE & ALLEN KYLE     03Q03011A               1410014602              03Q03011A                                                                                                                                                               8050120701               17423 1                                 
80        0000042001      L400000000                                                    0         1                                 EU                         A  0         0116011229 PRINCETON KENLY RD NANNETTE L. COATES                              00000000                                                                                                                                                                                        8050122901               9079  1                                 
80        0000043001      L400000000                                                    0         1                                 EU                         A  0         0116011229 PRINCETON KENLY RD NANNETTE L. COATES                              00000000                                                                                                                                                                                        8050123001               9080  1                                 
80        0000044001      L41410014590   1410014590                 0000000155          154302    152001                          47EUZ090303140717            A 1152000    0809031253 PRINCETON KENLY RD K. SHERRIL & JOYCE DAWSO                        1410014590                                                                                                                                                                                      8050125301               9081  1                                 
80        0000045001      L400000000                                                    0         1                                 EU                         A  0         0116011281 PRINCETON KENLY RD JIMMY R. WHITLEY                                00000000                                                                                                                                                                                        8050128101               9082  1                                 
80        0000046001      L400000000                                                    0         1                                 EU                         A  0         0116011290 PRINCETON KENLY RD CAROL AVERA                                     00000000                                                                                                                                                                                        8050129001               9083  1                                 
80        0000047001      L41410014618   1410014618                 0000000192          188818    186001                          47EUZ090303140324            A 1186000    0809031371 PRINCETON KENLY RD LEE DOUG PARNELL                                1410014618                                                                                                                                                                                      8050137101               9084  1                                 
80        0000048001      L4000000000                                                   0         1                                 EU                         A  0         1008011453 PRINCETON KENLY RD.JOANNE MOORE                                    000000000                                                                                                                                                                                       8050145301               12883 1                                 
80        0000049001      L41410014494   1410014494                 0000000131          130286    128001                          47EUZ090303140310            A 1128000    0809031761 PRINCETON KENLY(A)1LEE FAMILY PARTNERSHIP                          1410014494                                                                                                                                                                                      8050176101               10727 1                                 
80        0000050001      L41410014522   1410014522                 0000000135          137411    135001                          47EUZ090303140155            A 1135000    0809031761 PRINCETON KENLY(B)1LEE FAMILY PARTNERSHIP                          1410014522                                                                                                                                                                                      8050176201               10728 1                                 
80        0000051001      L400000000                                                    0         1                                 EU                         A  0         010203PRINCETON-KENLY RD.     MARY ALICE RICHARDSON                           00000000                                                                                                                                                                                        8050221701               8771  1                                 
80        0000052001      L400000000                                                    0         1                                 EU                         A  0         1008012406 PRINCETON KENLY RD.W.C.MASSENGILL                                  00000000                                                                                                                                                                                        8050240601               12884 1                                 
80        0000053001      L41410023056   1410023056                 0000000086          82557     81001                           47EUZ090403100717            A 181000     0809033082 PRINCETON-KENLY/2  MARGARET SHOULARS                               1410023056                                                                                                                                                                                      8050308201               12262 1                                 
80        0000054001      L41410022950   1410022950                 0000000116          118900    116001                          47EUZ090403100716            A 1116000    0809033083 PRINCETON-KENLY/3  HEATHER PARROTT                                 1410022950                                                                                                                                                                                      8050308301               20729 1                                 
80        0000055001      L41410022912   1410022912                 0000000096          93769     92001                           47EUZ090403100708            A 192000     0809033091 PRINCETON KENLY/1  PATSY DELGADO                                   1410022912                                                                                                                                                                                      8050309101               20372 1                                 
80        0000056001      L400000000                                                    -1073741821                                 EU                         I  0         0921003181 PRINCETON-KENLY RD C.G. HOLT HEIRS                                 00000000                                                                                                                                                                                        8050318101               8308  1                                 
80        0000057001      L41410023154   1410023154                 000000::::          205985    203001                          47EUZ090403100644            A 1203000    0809033447 PRINCETON-KENLY RD DONALD & DEBORAH HUDSON                         1410023154                                                                                                                                                                                      8050344701               8309  1                                 
80        0000058001      L41410023072   1410023072                 0000000242          239470    236001                          47EUZ090403100632            A 1236000    0809033458 PRINCETON-KENLY RD GREGORY B. HINNANT                              1410023072                                                                                                                                                                                      8050345801               8310  1                                 
80        0000059001      L41410023518   1410023518                 0000000082          82190     81001                           47EUZ090403100625            A 181000     0809033480 PRINCETON-KENLY RD.MARVIN S. EDWARDS                               1410023518                                                                                                                                                                                      8050348001               8311  1                                 
80        0000060001      L41410023306   1410023306                 0000000070          70014     69001                           47EUZ090403100603            A 169000     0809033500 PRINCETON-KENLY RD.CHARLES RAY PROCTOR                             1410023306                                                                                                                                                                                      8050350001               8312  1                                 
80        0000061001      L41410023188   1410023188                 0000000070          69000     68001                           47EUZ090403100626            A 168000     0809033524 PRINCETON-KENLY RD JUANITA EDWARDS AYCOCK                          1410023188                                                                                                                                                                                      8050352401               8313  1                                 
80        0000062001      L41410017742   1410017742                 0000000092          91323     90001                           47EUZ090403100612            A 190000     0809033527 PRINCETON-KENLY RD NATHAN C. HALES                                 1410017742                                                                                                                                                                                      8050352701               8314  1                                 
80        0000063001      L41410023322   1410023322                 0000000194          239470    236001                          47EUZ090403100621            A 1236000    0809033530 PRINCETON-KENLY RD RODNEY & BEVERLY WARD                           1410023322                                                                                                                                                                                      8050353001               8315  1                                 
80        0000064001      L41410023276   1410023276                 0000000015          14778     14001                           47EUZ090403100511            A 114000     0811033620 PRINCETON-KENLY RD STANLEY BRYANT                                  1410023276                                                                                                                                                                                      8050362001               17778 1                                 
80        0000065001      L41410023128   1410023128                 0000000047          46697     46001                           47EUZ090403100607            A 146000     0811033782 PRINCETON KENLY RD GERTRUDE W. WHEELER                             1410023128                                                                                                                                                                                      8050378201               9134  1                                 
80        0000066001      L41410023126   1410023126                 0000000125          123848    122001                          47EUZ090403100633            A 1122000    0811033902 PRINCETON KENLY RD JIMMY AYCOCK                                    1410023126                                                                                                                                                                                      8050390201               12293 1                                 
80        0000067001      L41410023886   1410023886                 0000000090          89332     88001                           47EUZ090403100643            A 188000     0811033950 PRINCETON KENLY RD ROBERT & MARGARET EDGERT                        1410023886                                                                                                                                                                                      8050395001               9136  1                                 
80        0000068001      L41410023922   1410023922                 0000000028          28424     28001                           47EUZ090403100628            A 128000     0811033994 PRINCETON KENLY RD ALBERTA R. MOZINGO                              1410023922                                                                                                                                                                                      8050399401               9137  1                                 
80        0000069001      L41410023852   1410023852                 0000000057          55833     55001                           47EUZ090403100624            A 155000     0811034011 PRINCETON KENLY RD RICHARD & ERNESTINE GODF                        1410023852                                                                                                                                                                                      8050401101               9138  1                                 
80        0000070001      L41410023764   1410023764                 0000000008          8307      8001                            47EUZ090403101433            A 18000      0811034133 PRINCETON KENLY RD EDWARDS SUMMERLIN       03Q05035D               1410023764              03Q05035D                                                                                                                                                               8050413301               20651 1                                 
80        0000071001      L41410023890   1410023890                 0000000021          19731     19001                           47EUZ090403101442            A 119000     0811034135 PRINCETON-KENLY RD JAY HOUSE               03Q05035D DUPLEX        1410023890              03Q05035D DUPLEX                                                                                                                                                        8050413501               20371 1                                 
80        0000072001      L41410023800   1410023800                 0000000037          35530     35001                           47EUZ090403101430            A 135000     0811034159 PRINCETON KENLY RD DOROTHY C. EDWARDS                              1410023800                                                                                                                                                                                      8050415901               9139  1                                 
80        0000073001      L41410023766   1410023766                 0000000082          79182     78001                           47EUZ090403101435            A 178000     0811034181 PRINCETON KENLY RD ROBERT C. JONES JR.                             1410023766                                                                                                                                                                                      8050418101               10726 1                                 
80        0000074001      L400000000                                                    0         1                                 EU                         A  0         0122014270 PRINCETON KENLY RD AUBREY RADFORD                                  00000000                                                                                                                                                                                        8050427001               9140  1                                 
80        0000075001      L400000000                                                    0         1                                 EU                         A  0         0122014355 PRINCETON KENLY RD WILTON E. RADFORD                               00000000                                                                                                                                                                                        8050435501               9141  1                                 
80        0000076001      L41410022982   1410022982                 0000000212          212166    209001                          47EUZ090403101446            A 1209000    0811034384 PRINCETON KENLY RD RONEY E. PATE                                   1410022982                                                                                                                                                                                      8050438401               9142  1                                 
80        0000077001      L41410023746   1410023746                 000000::::          31470     31001                           47EUZ090403101447            A 131000     0811034406 PRINCETON KENLY RD DOROTHY STRICKLAND                              1410023746                                                                                                                                                                                      8050440601               9143  1                                 
80        0000078001      L41410023772   1410023772                 0000000000          0         1                               47EUZ090403101501            A 00         0811034440 PRINCETON-KENLY RD DAVID & DEBRA MALARCHIK                         1410023772                                                                                                                                                                                      8050444001               15578 1                                 
80        0000079001      L41410022966   1410022966                 0000000076          75276     74001                           47EUZ090403101529            A 174000     0811034460 PRINCETON-KENLY RD.JENNIFER LYNN GRACE BUSE                        1410022966                                                                                                                                                                                      8050446001               15007 1                                 
80        0000080001      L400000000                                                    0         1                                 EU                         A  0         0122014478? PRINCETON KENLY RDELBERT W. GOWER                                 00000000                                                                                                                                                                                        8050447801               9145  1                                 
80        0000081001      L41410023050   1410023050                 0000000076          75120     74001                           47EUZ090403101527            A 174000     0811034479 PRINCETON KENLY RD ELBERT W. GOWER                                 1410023050                                                                                                                                                                                      8050447901               9144  1                                 
80        0000082001      L41410022922   1410022922                 0000000112          118222    112001                          47EUZ090403101534            A 1112000    0811034480 PRINCETON-KENLY RD STEPHEN POOLE                                   1410022922                                                                                                                                                                                      8050448001               17428 1                                 
80        0000083001      L41410022884   1410022884                 0000000026          24364     24001                           47EUZ090403101539            A 124000     0811034609 PRINCETON KENLY RD ELBERT W. GOWER                                 1410022884                                                                                                                                                                                      8050448101               9146  1                                 
80        0000084001      L400000000                                                    0         1                                 EU                         A  0         0122014749 PRINCETON KENLY RD CLYDE B. SASSER                                 00000000                                                                                                                                                                                        8050454901               9149  1                                 
80        0000085001      L400000000                                                    0         1                                 EU                         A  0         0122014550 PRINCETON KENLY RD EDWARD & BECKY WILOUGHBY                        00000000                                                                                                                                                                                        8050455001               9147  1                                 
80        0000086001      L400000000                                                    0         1                                 EU                         A  0         0122014578 PRINCETON KENLY RD ELLA R. WILLOUGHBY                              00000000                                                                                                                                                                                        8050457801               9148  1                                 
80        0000087001      L41410022872   1410022872                 0000000038          35795     35001                           47EUZ090403101526            A 135000     0811034608 PRINCETON KENLY RD.DUNCAN W. TAYLOR JR.                            1410022872                                                                                                                                                                                      8050457901               12885 1                                 
80        0000088001      L400000000                                                    0         1                                 EU                         A  0         100801PRINCETON KENLY RD.     RAYMOND WILLIAMSON                              00000000                                                                                                                                                                                        8050458001               12886 1                                 
80        0000089001      L400000000                                                    0         1                                 EU                         A  0         100801PRINCETON KENLY RD.     RAYMOND WILLIAMSON                              00000000                                                                                                                                                                                        8050458101               12888 1                                 
80        0000090001      L41410022984   1410022984                 0000000500          494380    486001                          47EUZ090403101539            A 1486000    0811034680 PRINCETON KENLY-1"TKENNETH ROWE                                    1410022984                                                                                                                                                                                      8050468001               10508 1                                 
80        0000091001      L41410022930   1410022930                 0000000045          45681     45001                           47EUZ090403101611            A 145000     0811034851 PRINCETON KENLY RD LORENE B. WIGGS                                 1410022930                                                                                                                                                                                      8050485101               9150  1                                 
80        0000092001      L41410022862   1410022862                 0000000208          206075    203001                          47EUZ090403101624            A 1203000    0811034875 PRINCETON KENLY RD MARK & VICKI SHORE                              1410022862                                                                                                                                                                                      8050487501               9151  1                                 
80        0000093001      L41410014604   1410014604                 0000000046          45703     45001                           47EUZ090403101618            A 145000     0811034900 PRINCETON KENLY RD PAUL & GWENDOLYN BENJAMI                        1410014604                                                                                                                                                                                      8050490001               16051 1                                 
80        0000094001      L41410022864   1410022864                 0000000013          10152     10001                           47EUZ090403101628            A 110000     0811034981 PRINCETON KENLY RD BARRY MOORE             04Q06001D               1410022864              04Q06001D                                                                                                                                                               8050498101               19651 1                                 
80        0000095001      L41410011368   1410011368                 0000000050          48566     47001                           47EUZ090403101630            A 147000     0811034990 PRINCETON KENLY RD.CHRIS SULLIVAN                                  1410011368                                                                                                                                                                                      8050499001               15543 1                                 
80        0000096001      L41410011350   1410011350                 0000000135          137045    135001                          47EUZ090403101547            A 1135000    0811034995 PRINCETON KENLY RD RAINS CROSSRDS CHURCH PA                        1410011350                                                                                                                                                                                      8050499501               9155  1                                 
80        0000097001      L41410014620   1410014620                 0000000065          63954     63001                           47EUZ090403101632            A 163000     0811035031 PRINCETON KENLY/PARFELLOWSHIP UNITED METHOD                        1410014620                                                                                                                                                                                      8050503101               9154  1                                 
80        0000098001      L400000000                                                    0         1                                 EU                         A  0         0122015045 PRINCETON KENLY RD TIMOTHY B. DEAN                                 00000000                                                                                                                                                                                        8050504501               9156  1                                 
80        0000099001      L41410011300   1410011300                 0000000048          46697     46001                           47EUZ090403101635            A 146000     0811035077 PRINCETON KENLY RD D.P. ROWE                                       1410011300                                                                                                                                                                                      8050507701               9157  1                                 
80        0000100001      L41410011316   1410011316                 0000000006          6091      6001                            47EUZ090403101630            A 16000      0811035196 PRINCETON KENLY RD JONNIE MAE ROWE                                 1410011316                                                                                                                                                                                      8050519601               9158  1                                 
80        0000101001      L41410011330   1410011330                 0000000030          26591     26001                           47EUZ090403101641            A 126000     0811035266 PRINCETON KENLY RD.DOUGLAS A. FRYAR                                1410011330                                                                                                                                                                                      8050526601               16856 1                                 
80        0000102001      L41410011194   1410011194                 0000000074          71400     70001                           47EUZ090403101702            A 170000     0811035314 PRINCETON KENLY RD.STACEY BASS                                     1410011194                                                                                                                                                                                      8050531401               15633 1                                 
80        0000103001      L400000000                                                    0         1                                 EU                         A  0         0308015429 PRINCETON-KENLY RD.KENNETH G. PEEDIN                               00000000                                                                                                                                                                                        8050542901               10543 1                                 
80        0000104001      L41410023024   1410023024                 0000000035          34587     34001                           47EUZ090403101649            A 134000     0808035430 PRINCETON-KENLY RD.RAINS CROSSROADS FWB CH.                        1410023024                                                                                                                                                                                      8050543001               10544 1                                 
80        0000105001      L400000000                                                    0         1                                 EU                         A  0         0308015441 PRINCETON-KENLY RD.KENNETH G. PEEDIN                               00000000                                                                                                                                                                                        8050544101               10545 1                                 
80        0000106001      L400000000                                                    0         1                                 EU                         I  0         0308016261 PRINCETON-KENLY RD.JIMMY WAYNE MITCHELL                            00000000                                                                                                                                                                                        8050626101               10546 1                                 
80        0000107001      L400000000                                                    0         1                                 EU                         A  0         0308016262 PRINCETON-KENLY RD.MICHAEL DENNIS WILLIAMS                         00000000                                                                                                                                                                                        8050626201               10547 1                                 
80        0000108001      L41410023914   1410023914                 0000000022          22916     22001                           47EUZ090403102859            A 122000     0811036577 PRINCETON KENLY RD.JOHN E. HARVEY                                  1410023914                                                                                                                                                                                      8050657701               10510 1                                 
80        0000109001      L41410023812   1410023812                 000000::::          105793    104001                          47EUZ090403102900            A 1104000    0811036695 PRINCETON KENLY RD.ALTON R. GOWER                                  1410023812                                                                                                                                                                                      8050669501               10179 1                                 
80        0000110001      L41410018586   1410018586                 0000000005          4069      4001                            47EUZ090403102855            A 14000      0811036715 PRINCETON-KENLY RD.MELBA & DONALD RENFROW                          1410018586                                                                                                                                                                                      8050671501               10548 1                                 
80        0000111001      L41410023854   1410023854                 0000000060          59000     58001                           47EUZ090403102905            A 158000     0811036739 PRINCETON KENLY RD.EDDIE J. ROWE                                   1410023854                                                                                                                                                                                      8050673901               10152 1                                 
80        0000112001      L41410023856   1410023856                 0000000104          102741    101001                          47EUZ090403102912            A 1101000    0811036851 PRINCETON-KENLY RD.MELVIN GERALD POPLIN                            1410023856                                                                                                                                                                                      8050685101               10542 1                                 
80        0000113001      L41410011322   1410011322                 0000000022          16297     16001                           47EUZ090403102858            A 116000     0811037034 PRINCETON KENLY RD.KENNETH ROWE                                    1410011322                                                                                                                                                                                      8050700201               10511 1                                 
80        0000114001      L41410023832   1410023832                 0000000036          36600     36001                           47EUZ090403103252            A 136000     0811037255 PRINCETON KENLY RD.HAZEL T. STOKES                                 1410023832                                                                                                                                                                                      8050725501               9751  1                                 
80        0000115001      L400000000                                                    0         1                                 EU                         A  0         100801102MAPLE/1RIVERDELLESTATCHARLES E. HESTER, SR.                          00000000                                                                                                                                                                                        8050800101               11322 1                                 
80        0000116001      L41410014446   1410014446                 0000000154          153516    151001                          47EUZ090403103250            A 1151000    081103103 MAPLE/7RIVERDELLESTASCOTTY & DENISE PEARCE                          1410014446                                                                                                                                                                                      8050800201               9749  1                                 
80        0000117001      L41410011302   1410011302                 0000000136          134276    132001                          47EUZ090403103247            A 1132000    081103108 MAPLE/RIVERDR8      TONY W. TART            RIVER DRIVE ESTATES     1410011302              RIVER DRIVE ESTATES     LOT 8                                                                                                                                           8050800401               10602 1                                 
80        0000118001      L400000000                                                    0         1                                 EU                         A  0         103100121 CAMILLE DR.         WILLARD & JOY MOORE                             00000000                                                                                                                                                                                        8050801301               8307  1                                 
80        0000119001      L400000000                                                    0         1                                 EU                         A  0         03080149 CAMILE DR.           BILL & SHERRIE STANLEY                          00000000                                                                                                                                                                                        8050801501               11447 1                                 
80        0000120001      L41410022934   1410022934                 0000000000          0         1                               47EUZ090303140350            I 00         0807031344 PRINCETON KENLY/1COVACANT                                          1410022934                                                                                                                                                                                      8052000101               19645 1                                 
80        0000121001      L41410022946   1410022946                 0000000043          43278     41001                           47EUZ090303140706            A 141000     0811031344 PRINCETON KENLY RD/APRIL HARPER                                    1410022946                                                                                                                                                                                      8052000201               9353  1                                 
80        0000122001      L41410011304   1410011304                 0000000123          122934    121001                          47EUZ090303140724            A 1121000    0807031344 PRINCETON KENLY/3COMARGARET PETERS                                 1410011304                                                                                                                                                                                      8052000301               16058 1                                 
80        0000123001      L41410023844   1410023844                 0000000132          128935    127001                          47EUZ090303140721            A 1127000    0807031344 PRINCETON KENLY/4CODAVID P. SPELLEN JR.                            1410023844                                                                                                                                                                                      8052000401               21093 1                                 
80        0000124001      L41410011346   1410011346                 0000000038          33550     33001                           47EUZ090303140325            A 133000     0807031344 PRINCETON KENLY/5COTERESA PEREZ                                    1410011346                                                                                                                                                                                      8052000501               19924 1                                 
80        0000125001      L41410023884   1410023884                 0000000085          85322     84001                           47EUZ090303140325            A 184000     0807031344 PRINCETON KENLY RD/ROBIN E. HANSEN                                 1410023884                                                                                                                                                                                      8052000601               17461 1                                 
80        0000126001      L41410023788   1410023788                 0000000076          75193     74001                           47EUZ090303140328            A 174000     0807031344 PRINC-KENLY/CS7    TONYA LASSITER                                  1410023788                                                                                                                                                                                      8052000701               9358  1                                 
80        0000127001      L41410011320   1410011320                 0000000069          68048     67001                           47EUZ090303140629            A 167000     0807031344 PRINC-KENLY/CS8    RUTH BRISCOE                                    1410011320                                                                                                                                                                                      8052000801               9360  1                                 
80        0000128001      L41410023834   1410023834                 0000000176          176185    173001                          47EUZ090303140658            I 1173000    0807031344 PRINCETON KENLY/10CVACANT                                          1410023834                                                                                                                                                                                      8052001001               20792 1                                 
80        0000129001      L41410022892   1410022892                 0000000089          89554     88001                           47EUZ090303140329            A 188000     0807031344 PRINCETON KENLY/11CFAYE EVANS                                      1410022892                                                                                                                                                                                      8052001101               21072 1                                 
80        0000130001      L41410022960   1410022960                 0000000034          33639     33001                           47EUZ090303140333            A 133000     0807031344 PRINCETON KENLY RD/KATHERINE BASDEN                                1410022960                                                                                                                                                                                      8052001201               17426 1                                 
80        0000131001      L41410022940   1410022940                 0000000103          104668    103001                          47EUZ090303140658            A 1103000    0807031344 PRINCETON KENLY/13CREBECCA COKER                                   1410022940                                                                                                                                                                                      8052001301               19912 1                                 
80        0000132001      L41410022886   1410022886                 0000000000          1000      1001                            47EUZ090303140714            A 01000      0807031344 PRINCETON KENLY/16CMARY W. CARROLL                                 1410022886                                                                                                                                                                                      8052001601               16059 1                                 
80        0000133001      L41410022962   1410022962                 0000000054          52822     52001                           47EUZ090303140357            A 152000     0807031344 PRINC-KNLY/CS17    ALTON A. PRICE                                  1410022962                                                                                                                                                                                      8052001701               9368  1                                 
80        0000134001      L41410023022   1410023022                 0000000056          56020     55001                           47EUZ090303140709            A 155000     0807031344 PRINCETON-KENLY/18CDONALD R RAINS                                  1410023022                                                                                                                                                                                      8052001801               19917 1                                 
80        0000135001      L41410022876   1410022876                 0000000092          90371     89001                           47EUZ090303140721            A 189000     0807031344 PRINCETON-KENLY/19CGABRIEL MUNIZ                                   1410022876                                                                                                                                                                                      8052001901               21069 1                                 
80        0000136001      L41410020076   1410020076                 0000000134          135098    133001                          47EUZ090303140728            A 1133000    0807031344 PRINCETON KENLY/20CMERLIN CHAVIS                                   1410020076                                                                                                                                                                                      8052002001               19992 1                                 
80        0000137001      L41410020062   1410020062                 0000000078          76321     75001                           47EUZ090303140731            A 175000     0807031344 PRINCETON-KENLY/21CJENNIFER HALL                                   1410020062                                                                                                                                                                                      8052002101               19913 1                                 
80        0000138001      L41410023178   1410023178                 0000000128          126104    124001                          47EUZ090303140727            A 1124000    0807031344 PRINCETON KENLY/22CLINDA MILLS                                     1410023178                                                                                                                                                                                      8052002201               18735 1                                 
80        0000139001      L41410023440   1410023440                 0000000087          85555     84001                           47EUZ090303140702            A 184000     0807031344 PRINC-KNLY/CS23    RICHARD A. TOWERS                               1410023440                                                                                                                                                                                      8052002301               9374  1                                 
80        0000140001      L41410023190   1410023190                 0000000070          71360     70001                           47EUZ090303140653            I 170000     0807031344 PRINC-KNLY/CS24    VACANT                                          1410023190                                                                                                                                                                                      8052002401               18875 1                                 
80        0000141001      L41410023112   1410023112                 0000000073          74064     73001                           47EUZ090303140727            A 173000     0807031344 PRINC-KNLY/CS25    WARNER HUGH MURPHY                              1410023112                                                                                                                                                                                      8052002501               9376  1                                 
80        0000142001      L41410023132   1410023132                 0000000129          131032    129001                          47EUZ090303140733            I 1129000    0807031344 PRINC-KNLY/CS26    VACANT                                          1410023132                                                                                                                                                                                      8052002601               21605 1                                 
80        0000143001      L41410017944   1410017944                 0000000177          176693    174001                          47EUZ090303140728            A 1174000    0807031344 PRINCETON KENLY/27CMARY BLACKMAN                                   1410017944                                                                                                                                                                                      8052002701               18090 1                                 
80        0000144001      L41410023168   1410023168                 0000000084          84183     83001                           47EUZ090303140720            A 183000     0807031344 PRINCETON KENLY/28CJIMMY & ELOISE KEENE                            1410023168                                                                                                                                                                                      8052002801               20378 1                                 
80        0000145001      L41410017946   1410017946                 0000000080          78209     77001                           47EUZ090303140721            A 177000     0807031344 PRINC-KNLY/CS29    ANN HALL                                        1410017946                                                                                                                                                                                      8052002901               9385  1                                 
80        0000146001      L41410023130   1410023130                 0000000091          89290     88001                           47EUZ090303140722            A 188000     0807031344 PRINC-KNLY/CS30    SHIRLEY SCOTT                                   1410023130                                                                                                                                                                                      8052003001               9387  1                                 
80        0000147001      L41410022944   1410022944                 0000000277          272968    269001                          47EUZ090303140721            A 1269000    0807031344 PRINC-KNLY/CS31    SHIRLEY LEE                                     1410022944                                                                                                                                                                                      8052003101               9388  1                                 
80        0000148001      L41410022942   1410022942                 0000000114          111759    110001                          47EUZ090303140734            A 1110000    0807031344 PRINCETON KENLY/32CEDITH ANN MOORE                                 1410022942                                                                                                                                                                                      8052003201               19616 1                                 
80        0000149001      L41410022898   1410022898                 0000000047          45726     45001                           47EUZ090303140726            A 145000     0807031344 PRINC-KNLY/CS33    SHIRLEY B. MEDLIN                               1410022898                                                                                                                                                                                      8052003301               9390  1                                 
80        0000150001      L41410022958   1410022958                 0000000163          163451    161001                          47EUZ090303140733            A 1161000    0807031344 PRINC-KNLY/CS34    TERRY RAY BAKER                                 1410022958                                                                                                                                                                                      8052003401               9391  1                                 
80        0000151001      L41410023028   1410023028                 0000000044          43683     43001                           47EUZ090303140738            A 143000     0807031344 PRINCETON KENLY/35CCAROLYN GODWIN                                  1410023028                                                                                                                                                                                      8052003501               20466 1                                 
80        0000152001      L41410024264   1410024264                 0000000105          104645    103001                          47EUZ090303140724            A 1103000    0807031344 PRINC-KNLY/CS36    ROBERT M. WEEKS                                 1410024264                                                                                                                                                                                      8052003601               9394  1                                 
80        0000153001      L41410011306   1410011306                 0000000000          -1073741821                               47EUZ090303140331            I 10         0807031344 PRINCETON KENLY RD/VACANT                                          1410011306                                                                                                                                                                                      8052003701               9402  1                                 
80        0000154001      L41410012986   1410012986                 0000000000          -1073741821                               47EUZ090303140726            I 10         0807031344 PRINCETON KENLY RD/VACANT                                          1410012986                                                                                                                                                                                      8052003801               9403  1                                 
80        0000155001      L41410012990   1410012990                 0000000255          250904    247001                          47EUZ090303140716            A 1247000    0807031344 PRINCETON KENLY/44CJEFFREY V. COOPER                               1410012990                                                                                                                                                                                      8052004401               9395  1                                 
80        0000156001      L41410012994   1410012994                 0000000045          44928     44001                           47EUZ090303140722            A 144000     0807031344 PRINC-KNLY/CS45    OLIVIA GAY                                      1410012994                                                                                                                                                                                      8052004501               10668 1                                 
80        0000157001      L41410013008   1410013008                 0000000135          130172    128001                          47EUZ090303140715            A 1128000    0807031344 PRINCETON KENLY/46CNICOLAS ZAMUDIO                                 1410013008                                                                                                                                                                                      8052004601               20736 1                                 
80        0000158001      L41410013048   1410013048                 0000000172          169280    166001                          47EUZ090303140332            A 1166000    0807031344 PRINC-KNLY/CS47    KIMBERLY DAWN PINEDA                            1410013048                                                                                                                                                                                      8052004701               12247 1                                 
80        0000159001      L41410014750   1410014750                 0000000148          145258    143001                          47EUZ090303140728            A 1143000    0807031344 PRINC-KNLY/CS48    JEROME ALLEN ROSE                               1410014750                                                                                                                                                                                      8052004801               9405  1                                 
80        0000160001      L41410012950   1410012950                 0000000068          65066     64001                           47EUZ090303140659            A 164000     0807031344 PRINCETON KENLY/49CJUAN JUAREZ GARCIA                              1410012950                                                                                                                                                                                      8052004901               17698 1                                 
80        0000161001      L41410012956   1410012956                 0000000102          100532    99001                           47EUZ090303140713            A 099000     0807031344 PRINC-KNLY/CS51    REBECCA A VANIER                                1410012956                                                                                                                                                                                      8052005101               9407  1                                 
80        0000162001      L41410014424   1410014424                 0000000092          89387     88001                           47EUZ090303140332            A 188000     0807031344 PRINC-KNLY/CS53    NICOLE AYERS                                    1410014424                                                                                                                                                                                      8052005301               9408  1                                 
80        0000163001      L41410011380   1410011380                 0000000048          47742     47001                           47EUZ090303140333            A 147000     0807031344 PRINC-KNLY/CS54    WILLIAM B. WEAVER                               1410011380                                                                                                                                                                                      8052005401               9409  1                                 
80        0000164001      L41410011384   1410011384                 0000000127          125935    124001                          47EUZ090303140412            A 1124000    0807031344 PRINC-KNLY/CS55    BOBBY SPIVEY                                    1410011384                                                                                                                                                                                      8052005501               9410  1                                 
80        0000165001      L41410023094   1410023094                 0000000152          151273    149001                          47EUZ090303140725            A 1149000    0805031344 PRINCETON KENLY/56CPEGGY HOLLIFIELD                                1410023094                                                                                                                                                                                      8052005601               21540 1                                 
80        0000166001      L41410022976   1410022976                 0000000131          131032    129001                          47EUZ090303140336            A 1129000    0807031344 PRINCETON-KENLY/57CNORMAN G. TOLER                                 1410022976                                                                                                                                                                                      8052005701               17388 1                                 
80        0000167001      L41410023060   1410023060                 0000000124          126523    124001                          47EUZ090303140716            A 1124000    0807031344 PRINC-KNLY/CS58    SUSAN BAILEY                                    1410023060                                                                                                                                                                                      8052005801               13952 1                                 
80        0000168001      L41410022926   1410022926                 0000000038          28452     28001                           47EUZ090303140724            A 128000     0807031344 PRINC-KNLY/CS59    LINDA WELSH BARBOUR                             1410022926                                                                                                                                                                                      8052005901               9414  1                                 
80        0000169001      L41410022968   1410022968                 0000000108          107694    106001                          47EUZ090303140732            A 1106000    0807031344 PRINC-KNLY/CS60    JONATHAN LEE JACKSON                            1410022968                                                                                                                                                                                      8052006001               12266 1                                 
80        0000170001      L41410022980   1410022980                 0000000139          138501    136001                          47EUZ090303140657            A 1136000    0807031344 PRINCETON KENLY/61CJESSE C. JERNIGAN                               1410022980                                                                                                                                                                                      8052006101               19414 1                                 
80        0000171001      L41410022932   1410022932                 0000000121          120758    119001                          47EUZ090303140728            A 1119000    0814031344 PRINCETON KENLY/62CNICOLAS ZAMUDIO                                 1410022932                                                                                                                                                                                      8052006201               21541 1                                 
80        0000172001      L41410023044   1410023044                 0000000102          103613    102001                          47EUZ090303140725            A 1102000    0807031344 PRINCETON KENLY/63CPAUL M. KITCHEN JR.                             1410023044                                                                                                                                                                                      8052006301               12261 1                                 
80        0000173001      L41410019046   1410019046                 0000000085          84290     83001                           47EUZ090303140714            A 183000     0807031344 PRINC-KNLY/CS64    WILLIAM BRAXTON WEAVER I                        1410019046                                                                                                                                                                                      8052006401               9419  1                                 
80        0000174001      L41410016426   1410016426                 0000000186          187982    185001                          47EUZ090303140724            A 1185000    0807031344 PRINCETON KENLY/CS6KATIE CORBETT                                   1410016426                                                                                                                                                                                      8052006501               15233 1                                 
80        0000175001      L41410023090   1410023090                 0000000156          152400    150001                          47EUZ090303140331            A 1150000    0807031344 PRINC-KNLY/CS66    ANNIE R. HOLLYFIELD                             1410023090                                                                                                                                                                                      8052006601               13947 1                                 
80        0000176001      L41410013040   1410013040                 0000000021          20322     20001                           47EUZ090303140730            A 120000     0807031344 PRINC-KNLY/CS67    HELEN EVANS                                     1410013040                                                                                                                                                                                      8052006701               9422  1                                 
80        0000177001      L41410014626   1410014626                 0000000201          200144    197001                          47EUZ090303140719            A 1197000    0807031344 PRINC-KNLY/CS68    JAIME MALDONADO                                 1410014626                                                                                                                                                                                      8052006801               9423  1                                 
80        0000178001      L41410011328   1410011328                 0000000020          19125     18001                           47EUZ090403100318            A 118000     080903762 LITTLE RD.          JERRY CRAIG WILKERSON   03Q05006B               1410011328              03Q05006B                                                                                                                                                               8054076201               18475 1                                 
80        0000179001      L41410011372   1410011372                 0000000028          25500     24001                           47EUZ090403100213            A 124000     080903799 LITTLE RD.          ADA ANNETTE JOHNSON     03Q04035                1410011372              03Q04035                                                                                                                                                                8054079901               18727 1                                 
80        0000180001      L41410011312   1410011312                 0000000000          0         1                               47EUZ090403100248            A 00         080903851 LITTLE RD.          JAMES E. LITTLE         03Q04029                1410011312              03Q04029                                                                                                                                                                8054085101               18477 1                                 
80        0000181001      L454486853                                                    -1073741821                                 EU                         A  0         0815031095 LITTLE RD          JAMES E LITTLE                                  54486853                                                                                                                                                                                        8054109501               21562 1                                 
80        0000182001      L400000000                                                    0         1                                 EU                         A  0         100201???? HINNANT EDGERTON RDLARRY CAPPS                                     00000000                                                                                                                                                                                        8055099801               12828 1                                 
80        0000183001      L41410011340   1410011340                 0000000066          65185     64001                           47EUZ090403101131            A 164000     0809036686 HINNANT EDGERTON RDRACHEL & DELMER EVANS                           1410011340                                                                                                                                                                                      8055668601               11238 1                                 
80        0000184001      L41410011336   1410011336                 0000000042          41759     41001                           47EUZ090403101144            A 141000     0809036743 HINNANT EDGERTON RDRACHEL MORGAN                                   1410011336                                                                                                                                                                                      8055674301               11018 1                                 
80        0000185001      L400000000                                                    0         1                                 EU                         A  0         0529016755 HINNANT EDGERTON RDDANIEL REDYS                                    00000000                                                                                                                                                                                        8055675501               11239 1                                 
80        0000186001      L41410014332   1410014332                 0000000167          163981    161001                          47EUZ090403101141            A 1161000    0809036781 HINNANT EDGERTON RDHARVEY D. MITCHELL                              1410014332                                                                                                                                                                                      8055678101               11019 1                                 
80        0000187001      L41410011378   1410011378                 0000000056          55000     54001                           47EUZ090403100624            A 154000     0809036843 HINNANT EDGERTON RDMITCHEL E. HENRY                                1410011378                                                                                                                                                                                      8055684301               10973 1                                 
80        0000188001      L41410014386   1410014386                 0000000127          125277    123001                          47EUZ090403100631            A 1123000    0809036871 HINNANT EDGERTON RDELMON GERRELL                                   1410014386                                                                                                                                                                                      8055687101               10972 1                                 
80        0000189001      L41410014280   1410014280                 0000000110          110000    108001                          47EUZ090403100610            A 1108000    0809036897 HINNANT EDGERTON RDREGINALD K. BIZZELL                             1410014280                                                                                                                                                                                      8055689701               11240 1                                 
80        0000190001      L41410014540   1410014540                 0000000062          58056     57001                           47EUZ090403100540            A 157000     0809036951 HINNANT EDGERTON RDCARL A. PITTMAN, JR.                            1410014540                                                                                                                                                                                      8055695101               11241 1                                 
80        0000191001      L41410014416   1410014416                 0000000049          47870     47001                           47EUZ090403100607            A 147000     0809036975 HINNANT EDGERTON RDDEE J. POWELL                                   1410014416                                                                                                                                                                                      8055697501               10936 1                                 
80        0000192001      L400000000                                                    0         1                                 EU                         A  0         0529016979 HINNANT EDGERTON RDMARK & JACQUELINE BUTLER                        00000000                                                                                                                                                                                        8055697901               11242 1                                 
80        0000193001      L41410014382   1410014382                 0000000079          78426     77001                           47EUZ090403100636            A 177000     0809037008 HINNANT EDGERTON   ELSIE G. TAYLOR                                 1410014382                                                                                                                                                                                      8055700801               11017 1                                 
80        0000194001      L41410014384   1410014384                 0000000124          118900    116001                          47EUZ090403100553            A 1116000    0809037032 HINNANT EDGERTON RDKENNETH BUNCH                                   1410014384                                                                                                                                                                                      8055703201               15917 1                                 
80        0000195001      L41410020600   1410020600                 0000000061          60093     59001                           47EUZ090403100602            A 159000     0809037053 HINNANT EDGERTON RDRONALD & DEBRA HOUSE                            1410020600                                                                                                                                                                                      8055705301               11243 1                                 
