101 053100300 0531003000010241504A094101FIRST CITIZENS BANK    FIRST CITIZENS BANK            
5200NORTH LENOIR WAT                    1560946914PPDUTIL BILL 001024001024   1053100300000001
8200      00000000000000000000000000000000001560946914                         053100300000001
9000001000001000000000000000000000000000000000000000000                                       
9999999999999999999999999999999999999999999999999999999999999999999999999999999999999999999999
9999999999999999999999999999999999999999999999999999999999999999999999999999999999999999999999
9999999999999999999999999999999999999999999999999999999999999999999999999999999999999999999999
9999999999999999999999999999999999999999999999999999999999999999999999999999999999999999999999
9999999999999999999999999999999999999999999999999999999999999999999999999999999999999999999999
9999999999999999999999999999999999999999999999999999999999999999999999999999999999999999999999
