FHDNNYN002001214001214001214N                                                                                           003752
RHD01000001NN00000607000005550000005206070607001678NY0607060706070000005000000607000000000000      04242008NN000000 N         
CUS010000010011                   POPLAR RUN CHURCH   405 BELVIDERE RD                        000N     WS                     
MTR01000001001000000000000000CA              94085724    000100008020000080200000000000NN  NNWL000                            
RDG01000001WATRL000000000K00000000000003475000104282008090146N000000000000UDP       000000700K 00000000010000003471           
CUS010000010012                   WILHELMIN BOSTON    406 BELVIDERE ROAD                      000N     WS                     
MTR01000001001000000000000000CA              88109928    000100008030000080300000000000NN  NNWL000                            
RDG01000001WATRL000000000K00000000000000000000204282008090149S005000000000UDP       000030700K 00000000010000000000           
CUS010000010013                   JOHNNY SESSOMS      410 BELVIDERE ROAD                      000N     WS                     
MTR01000001001000000000000000CA              87085009    000100008040000080400000000000NN  NNWL000                            
RDG01000001WATRL000000000K00000000000000000000304282008090151S005000000000UDP       000020700K 00000000010000000000           
CUS010000010014                   SANDRA LOWDER       515 BELVIDERE ROAD                      000N     WS                     
MTR01000001001000000000000000CA              10872029    000100008050000080500000000000NN  NNWL000                            
RDG01000001WATRL000000000K00000000000004822000404282008090325N000000000000UDP       000940700K 00000000010000004746           
CUS010000010015                   HARRY SPELLMAN      525 BELVIDERE ROAD                      000N     WS                     
MTR01000001001000000000000000CA              88067615    000100008060000080600000000000NN  NNWL000                            
RDG01000001WATRL000000000K00000000000003295000504282008090329N000100000010UDP       000040700K 00000000010000003295           
CUS010000010016                   RUFUS SPELLMAN      529 BELVIDERE ROAD                      000N     WS                     
MTR01000001001000000000000000CA              22684476    000100008070000080700000000000NN  NNWL000                            
RDG01000001WATRL000000000K00000000000014844000604282008090334N000100000010UDP       000050700K 00000000010000014844           
CUS010000010017                   LARRY HAYES         533 BELVIDERE RD                        000N     WS                     
MTR01000001001000000000000000CA              22685267    000100008080000080800000000000NN  NNWL000                            
RDG01000001WATRL000000000K00000000000016976000704282008090414N000000000000UDP       000400700K 00000000010000016934           
CUS010000010018                   DARWIN HEDGEPETH    547 BELVIDERE RD                        000N     WS                     
MTR01000001001000000000000000CA              22684070    000100008090000080900000000000NN  NNWL000                            
RDG01000001WATRL000000000K00000000000010331000804282008090453N000000000000UDP       000390700K 00000000010000010285           
CUS010000010019                   DONALD R MODLIN     562 BELVIDERE RD                        000N     WS                     
MTR01000001001000000000000000CA              95121756    000100008100000081000000000000NN  NNWL000                            
RDG01000001WATRL000000000K00000000000002788000904282008090538N000000000000UDP       000450700K 00000000010000002777           
CUS010000010015550                CARSON LIGHTFOOT    564 BELVIDERE ROAD                      000N     WS                     
MTR01000001001000000000000000CA              16353498    000100008110000081100000000000NN  NNWL000                            
RDG01000001WATRL000000000K00000000000000625001004282008090549N000000000000UDP       000110700K 00000000010000000598           
CUS010000010013467                SARAH SMITH         105 LONGS LOOP ROAD                     000N     WS                     
MTR01000001001000000000000000CA              96412569    000100008120000081200000000000NN  NNWL000                            
RDG01000001WATRL000000000K00000000000011612001104282008090642N000000000000UDP       000530700K 00000000010000011517           
CUS0100000100110                  GEORGE LIGHTFOOT, JR578 BELVIDERE ROAD                      000N     WS                     
MTR01000001001000000000000000CA              86092272    000100008130000081300000000000NN  NNWL000                            
RDG01000001WATRL000000000K00000000000009832001204282008090713N000000000000UDP       000310700K 00000000010000009802           
CUS0100000100111                  GEORGE LIGHTFOOT, SR580 BELVIDERE ROAD                      000N     WS                     
MTR01000001001000000000000000CA              91079978    000100008140000081400000000000NN  NNWL000                            
RDG01000001WATRL000000000K00000000000005573001304282008090722N000000000000UDP       000090700K 00000000010000005562           
CUS010000010015551                THERESA CARNES      584 BELVIDERE ROAD                      000N     WS                     
MTR01000001001000000000000000CA              16353301    000100008150000081500000000000NN  NNWL000                            
RDG01000001WATRL000000000K00000000000002165001404282008090814N000000000000UDP       000520700K 00000000010000002059           
CUS010000010015724                LARRY RIGGENS       590 BELVIDERE ROAD                      000N     WS                     
MTR01000001001000000000000000CA              17319586    000100008160000081600000000000NN  NNWL000                            
RDG01000001WATRL000000000K00000000000000232001504282008090858N000000000000UDP       000440700K 00000000010000000211           
CUS0100000100112                  MELTON KNIGHT       609 BELVIDERE ROAD                      000N     WS                     
MTR01000001001000000000000000CA              22683985    000100008170000081700000000000NN  NNWL000                            
RDG01000001WATRL000000000K00000000000010632001604282008090956N000000000000UDP       000580700K 00000000010000010626           
CUS0100000100113                  H. FRED SIMONS      612 BELVIDERE ROAD                      000N     WS                     
MTR01000001001000000000000000CA              22685649    000100008180000081800000000000NN  NNWL000                            
RDG01000001WATRL000000000K00000000000008207001704282008091058N000300000010UDP       000620700K 00000000010000008173           
CUS0100000100114                  ETHEL RIDDICK       623 BELVIDERE ROAD                      000N     WS                     
MTR01000001001000000000000000CA              716121      000100008190000081900000000000NN  NNWL000                            
RDG01000001WATRL000000000K00000000000014963001804282008091133N000000000000UDP       000350700K 00000000010000014950           
CUS0100000100115                  BETTY CARROLL       626 BELVIDERE ROAD                      000N     WS                     
MTR01000001001000000000000000CA              95116544    000100008200000082000000000000NN  NNWL000                            
RDG01000001WATRL000000000K00000000000003510001904282008091218N000300000010UDP       000450700K 00000000010000003469           
CUS0100000100116                  EUGENE KNIGHT       138 LONGS LOOP ROAD                     000N     WS                     
MTR01000001001000000000000000CA              RR15665925  000100008210000082100000000000NN  NNWL000                            
RDG01000001WATRL000000000R00000000000000388002404282008092220N000300000021UDP       000750700R 00000000010000001204           
RFF0100000157988411      ERT      0000  956.4437500007000004282008092213000000038860 W    0000N                               
CUS0100000100117                  MELTON L. KNIGHT    134 LONGS LOOP ROAD                     000N     WS                     
MTR01000001001000000000000000CA              RR15665924  000100008220000082200000000000NN  NNWL000                            
RDG01000001WATRL000000000R00000000000000002002004282008091318N000300000010UDP       000600700R 00000000010000007074           
RFF0100000157988398      ERT      0000  956.4437500007000004282008091317000000000260 W    0000N                               
CUS0100000100118                  LUTHER HASKETT      133 LONGS LOOP ROAD                     000N     WS                     
MTR01000001001000000000000000CA              RR15665926  000100008230000082300000000000NN  NNWL000                            
RDG01000001WATRL000000000R00000000000000050002104282008091318N000300000010UDP       000000700R 00000000010000000401           
RFF0100000157988405      ERT      0000  956.4437500007000004282008091317000000005060 W    0000N                               
CUS0100000100119                  ASHLEY BENGE        137 LONGS LOOP ROAD                     000N     WS                     
MTR01000001001000000000000000CA              RR15665927  000100008240000082400000000000NN  NNWL000                            
RDG01000001WATRL000000000R00000000000000095002204282008091318N000300000010UDP       000000700R 00000000010000001426           
RFF0100000157988430      ERT      0000  956.4437500007000004282008091317000000009560 W    0000N                               
CUS010000010015372                TIMOTHY BLOUNT      109 SMITH ACRES RD/#                    000N     WS                     
MTR01000001001000000000000000CA              RR15665928  000100008250000082500000000000NN  NNWL000                            
RDG01000001WATRL000000000R00000000000000175002304282008091318N000300000010UDP       000000700R 00000000010000000807           
RFF0100000157988274      ERT      0000  956.4437500007000004282008091317000000017560 W    0000N                               
CUS0100000100136                  JOHN HARRIS         113 SMITH ACRES ROAD                    000N     WS                     
MTR01000001001000000000000000CA              RR15665929  000100008260000082600000000000NN  NNWL000                            
RDG01000001WATRL000000000R00000000000000169002804282008091759N000300000010UDP       001270700R 00000000010000000827           
RFF0100000157988259      ERT      0000  956.4437500007000004282008091756000000016960 W    0001N                               
CUS010000010015501                BRIAN JONES         117 SMITH ACRES RD/#                    000N     WS                     
MTR01000001001000000000000000CA              RR15665930  000100008270000082700000000000NN  NNWL000                            
RDG01000001WATRL000000000R00000000000000273002504282008091552N000300000010UDP       000900700R 00000000010000001112           
RFF0100000157988305      ERT      0000  956.4437500007000004282008091339000000027360 W    0000N                               
CUS010000010015421                JOHN LANGUELL       LT#6/121 SMITH ACRES                    000N     WS                     
MTR01000001001000000000000000CA              RR15665931  000100008280000082800000000000NN  NNWL000                            
RDG01000001WATRL000000000R00000000000000136002904282008091948N000300000010UDP       001090700R 00000000010000000526           
RFF0100000157988412      ERT      0000  956.4437500007000204282008091946000000013660 W    0000N                               
CUS010000010015420                RICKY EADS          LT#7/125 SMITH ACRES                    000N     WS                     
MTR01000001001000000000000000CA              RR15665932  000100008290000082900000000000NN  NNWL000                            
RDG01000001WATRL000000000R00000000000000323003004282008092011N000300000010UDP       000230700R 00000000010000001219           
RFF0100000157988431      ERT      0000  956.4437500007000004282008091756000000032360 W    0000N                               
CUS010000010015435                SYLVIA HARE         131 SMITH ACRES RD/#                    000N     WS                     
MTR01000001001000000000000000CA              RR15665933  000100008300000083000000000000NN  NNWL000                            
RDG01000001WATRL000000000R00000000000000151003104282008092011N000300000010UDP       000000700R 00000000010000000341           
RFF0100000157988426      ERT      0000  956.4437500007000004282008092010000000015160 W    0000N                               
CUS0100000100121                  JOHN W. RODGERS, JR.137 SMITH ACRES ROAD                    000N     WS                     
MTR01000001001000000000000000CA              RR15665934  000100008310000083100000000000NN  NNWL000                            
RDG01000001WATRL000000000R00000000000000224003204282008092011N000300000010UDP       000000700R 00000000010000002256           
RFF0100000157988429      ERT      0000  956.4437500007000004282008092010000000022460 W    0000N                               
CUS0100000100122                  ANTHONY & GWEN WALTO136 SMITH ACRES ROAD                    000N     WS                     
MTR01000001001000000000000000CA              RR15665935  000100008320000083200000000000NN  NNWL000                            
RDG01000001WATRL000000000R00000000000000160003304282008092011N000300000010UDP       000000700R 00000000010000001200           
RFF0100000157988302      ERT      0000  956.4437500007000004282008092010000000016060 W    0000N                               
CUS0100000100123                  KRISTEN RIVERA      115 MULLEN COURT                        000N     WS                     
MTR01000001001000000000000000CA              RR15665942  000100008330000083300000000000NN  NNWL000                            
RDG01000001WATRL000000000R00000000000000003004004282008092056N000000000000UDP       000440700R 00000000010000000000           
RFF0100000157988163      ERT      0000  956.4437500007000004282008092055000000000360 W    0000N                               
CUS0100000100124                  KEITH BURNETT       117 MULLEN COURT                        000N     WS                     
MTR01000001001000000000000000CA              RR15665943  000100008340000083400000000000NN  NNWL000                            
RDG01000001WATRL000000000R00000000000000296003404282008092011N000300000010UDP       000000700R 00000000010000004640           
RFF0100000157988732      ERT      0000  956.4437500007000804282008092010000000029660 W    0000N                               
CUS0100000100125                  BEVERLY RATHBUN     112 MULLEN COURT                        000N     WS                     
MTR01000001001000000000000000CA              RR15665944  000100008350000083500000000000NN  NNWL000                            
RDG01000001WATRL000000000R00000000000000216003504282008092011N000300000010UDP       000000700R 00000000010000000997           
RFF0100000157988164      ERT      0000  956.4437500007000004282008092010000000021660 W    0000N                               
CUS0100000100126                  VICKY AYERS         106 MULLEN COURT                        000N     WS                     
MTR01000001001000000000000000CA              RR15665945  000100008360000083600000000000NN  NNWL000                            
RDG01000001WATRL000000000R00000000000000219002604282008091552N000300000010UDP       000000700R 00000000010000001145           
RFF0100000157988183      ERT      0000  956.4437500007000104282008092010000000021960 W    0000N                               
CUS0100000100127                  JONATHAN CHRISTIAN  120 SMITH ACRES ROAD                    000N     WS                     
MTR01000001001000000000000000CA              RR15665946  000100008370000083700000000000NN  NNWL000                            
RDG01000001WATRL000000000R00000000000000396003604282008092011N000300000010UDP       000000700R 00000000010000001813           
RFF0100000157988776      ERT      0000  956.4437500007000004282008092010000000039660 W    0000N                               
CUS0100000100128                  JAMES G. BRINN      116 SMITH ACRES ROAD                    000N     WS                     
MTR01000001001000000000000000CA              RR15665947  000100008380000083800000000000NN  NNWL000                            
RDG01000001WATRL000000000R00000000000000303003704282008092011N000300000010UDP       000000700R 00000000010000002098           
RFF0100000157988428      ERT      0000  956.4437500007000004282008091946000000030360 W    0000N                               
CUS0100000100129                  SHERRI PRICE        112 SMITH ACRES ROAD                    000N     WS                     
MTR01000001001000000000000000CA              RR15665954  000100008390000083900000000000NN  NNWL000                            
RDG01000001WATRL000000000R00000000000000124002704282008091552N000300000010UDP       000000700R 00000000010000000651           
RFF0100000157988248      ERT      0000  956.4437500007000004282008091946000000012460 W    0000N                               
CUS0100000100130                  LEONARD A. LABUONO  108 SMITH ACRES ROAD                    000N     WS                     
MTR01000001001000000000000000CA              RR15665955  000100008400000084000000000000NN  NNWL000                            
RDG01000001WATRL000000000R00000000000000071003804282008092012N000300000010UDP       000010700R 00000000010000000486           
RFF0100000157988267      ERT      0000  956.4437500007000004282008091756000000007160 W    0000N                               
CUS010000010015294                CRYSTAL STRATHEARN  102 SMITH ACRES RD/#                    000N     WS                     
MTR01000001001000000000000000CA              RR15665956  000100008410000084100000000000NN  NNWL000                            
RDG01000001WATRL000000000R00000000000000313003904282008092012N000300000010UDP       000000700R 00000000010000001629           
RFF0100000157988762      ERT      0000  956.4437500007000004282008091756000000031360 W    0000N                               
CUS0100000100120                                      125 SMITH ACRES ROAD                    000N     WS                     
MTR01000001001000000000000000CA              14362247    000100008420000084200000000000NN  NNWL000                            
RDG01000001WATRL000000000K00000000000000000004104282008092105S005000000000UDP       000090700K 00000000010000000000           
CUS0100000100131                  JAMES GORDON        646 BELVIDERE ROAD                      000N     WS                     
MTR01000001001000000000000000CA              22683884    000100008430000084300000000000NN  NNWL000                            
RDG01000001WATRL000000000K00000000000013377004204282008092345N000000000000UDP       000850700K 00000000010000013335           
CUS0100000100132                  HENRY GORDON        650 BELVIDERE ROAD                      000N     WS                     
MTR01000001001000000000000000CA              94402113    000100008440000084400000000000NN  NNWL000                            
RDG01000001WATRL000000000K00000000000005054004304282008092421N000300000010UDP       000360700K 00000000010000004959           
CUS010000010013468                JOHN SOWDEN         672 BELVIDERE ROAD                      000N     WS                     
MTR01000001001000000000000000CA              14442187    000100008450000084500000000000NN  NNWL000                            
RDG01000001WATRL000000000K00000000000000000004404282008092424S005000000000UDP       000030700K 00000000010000000000           
CUS0100000100133                  FLOYD LONG          772 BELVIDERE ROAD                      000N     WS                     
MTR01000001001000000000000000CA              17651972    000100008460000084600000000000NN  NNWL000                            
RDG01000001WATRL000000000K00000000000002847004604282008092623N000300000010UDP       000610700K 00000000010000001873           
CUS0100000100134                  MARY ANN NORMAN     713 BELVIDERE ROAD                      000N     WS                     
MTR01000001001000000000000000CA              90117315    000100008470000084700000000000NN  NNWL000                            
RDG01000001WATRL000000000K00000000000010743004504282008092522N000000000000UDP       000580700K 00000000010000010684           
CUS0100000100135                  UNITED HOLINESS CHUR800 BELVIDERE ROAD                      000N     WS                     
MTR01000001001000000000000000CA              98845942    000100008480000084800000000000NN  NNWL000                            
RDG01000001WATRL000000000K00000000000001727004804282008092932N000000000000UDP       000940700K 00000000010000001721           
CUS010000010011631                BAGLEY'S CHAPEL     816 BELVIDERE ROAD                      000N     WS                     
MTR01000001001000000000000000CA              22684186    000100008490000084900000000000NN  NNWL000                            
RDG01000001WATRL000000000K00000000000005264004704282008092758N000300000010UDP       000950700K 00000000010000005233           
CUS010000010011695                BELINDA W. JACKSON  556 BAGLEY SWAMP ROA                    000N     WS                     
MTR01000001001000000000000000CA              97522666    000100008500000085000000000000NN  NNWL000                            
RDG01000001WATRL000000000K00000000000005221004904282008093043N000000000000UDP       000710700K 00000000010000005186           
CUS010000010011717                GERALD CHRISTIAN    495 BAGLEY SWAMP ROA                    000N     WS                     
MTR01000001001000000000000000CA              22685265    000100008510000085100000000000NN  NNWL000                            
RDG01000001WATRL000000000K00000000000020436005104282008093256N000000000000UDP       000620700K 00000000010000020401           
CUS010000010011721                DANIEL SWINNEY      503 BAGLEY SWAMP ROA                    000N     WS                     
MTR01000001001000000000000000CA              12750962    000100008520000085200000000000NN  NNWL000                            
RDG01000001WATRL000000000K00000000000001807005004282008093154N000000000000UDP       000710700K 00000000010000001778           
CUS010000010011722                BAGLEY SWAMP PARSONA484 BAGLEY SWAMP ROA                    000N     WS                     
MTR01000001001000000000000000CA              17337258    000100008530000085300000000000NN  NNWL000                            
RDG01000001WATRL000000000K00000000000000494005204282008093328N000000000000UDP       000320700K 00000000010000000442           
CUS010000010011724                TROY JACKSON        466 BAGLEY SWAMP ROA                    000N     WS                     
MTR01000001001000000000000000CA              89070784    000100008540000085400000000000NN  NNWL000                            
RDG01000001WATRL000000000K00000000000010415005304282008093405N000000000000UDP       000370700K 00000000010000010374           
CUS010000010011726                ELWOOD WHITE        451 BAGLEY SWAMP ROA                    000N     WS                     
MTR01000001001000000000000000CA              22684090    000100008550000085500000000000NN  NNWL000                            
RDG01000001WATRL000000000K00000000000008956005404282008093437N000000000000UDP       000320700K 00000000010000008949           
CUS010000010013137                MINDY R MEADS       450 BAGLEY SWAMP ROA                    000N     WS                     
MTR01000001001000000000000000CA              22685101    000100008560000085600000000000NN  NNWL000                            
RDG01000001WATRL000000000K00000000000017186005504282008093520N000000000000UDP       000430700K 00000000010000017168           
CUS010000010013138                WINFRED SMITH       445 BAGLEY SWAMP ROA                    000N     WS                     
MTR01000001001000000000000000CA              22684419    000100008570000085700000000000NN  NNWL000                            
RDG01000001WATRL000000000K00000000000020265005604282008093559N000000000000UDP       000390700K 00000000010000020245           
CUS010000010013145                EULA SMITH          436 BAGLEY SWAMP ROA                    000N     WS                     
MTR01000001001000000000000000CA              96412850    000100008580000085800000000000NN  NNWL000                            
RDG01000001WATRL000000000K00000000000085287005704282008093633N000000000000UDP       000340700K 00000000010000085170           
CUS010000010013146                BAGLEY SWAMP WESLEYA411 BAGLEY SWAMP ROA                    000N     WS                     
MTR01000001001000000000000000CA              22685070    000100008590000085900000000000NN  NNWL000                            
RDG01000001WATRL000000000K00000000000005799005904282008093824N000300000010UDP       000410700K 00000000010000005781           
CUS010000010013148                DENNIS WINSLOW      415 BAGLEY SWAMP ROA                    000N     WS                     
MTR01000001001000000000000000CA              14442193    000100008600000086000000000000NN  NNWL000                            
RDG01000001WATRL000000000K00000000000002454005804282008093743N000100000010UDP       000700700K 00000000010000002454           
CUS010000010013150                BAGLEY SWAMP WESLEYA411 BAGLEY SWAMP ROA                    000N     WS                     
MTR01000001001000000000000000CA              22685066    000100008610000086100000000000NN  NNWL000                            
RDG01000001WATRL000000000K00000000000007215006004282008093916N000000000001UDP       000520700K 00000000010000007213           
CUS010000010013151                VIVIAN B. WINSLOW   384 BAGLEY SWAMP ROA                    000N     WS                     
MTR01000001001000000000000000CA              22685808    000100008620000086200000000000NN  NNWL000                            
RDG01000001WATRL000000000K00000000000005936006104282008094005N000000000000UDP       000490700K 00000000010000005893           
CUS010000010013153                PAULINE V. COMPTON  364 BAGLEY SWAMP ROA                    000N     WS                     
MTR01000001001000000000000000CA              99835394    000100008630000086300000000000NN  NNWL000                            
RDG01000001WATRL000000000K00000000000003167006204282008094049N000000000000UDP       000440700K 00000000010000003129           
CUS010000010013155                JASON P. SMITH      332 BAGLEY SWAMP ROA                    000N     WS                     
MTR01000001001000000000000000CA              15267429    000100008640000086400000000000NN  NNWL000                            
RDG01000001WATRL000000000K00000000000001143006304282008094133N000000000000UDP       000440700K 00000000010000001118           
CUS010000010013472                EARL PINEGAR        124 DOLL HARRELL ROA                    000N     WS                     
MTR01000001001000000000000000CA              17337139    000100008650000086500000000000NN  NNWL000                            
RDG01000001WATRL000000000K00000000000000216006404282008094223N000000000000UDP       000500700K 00000000010000000198           
CUS010000010013474                EVA MACK            126 DOLL HARRELL ROA                    000N     WS                     
MTR01000001001000000000000000CA              15332445    000100008660000086600000000000NN  NNWL000                            
RDG01000001WATRL000000000K00000000000000938006504282008094256N000000000000UDP       000330700K 00000000010000000918           
CUS010000010013157                DARRELL SWINNEY     128 DOLL HARRELL ROA                    000N     WS                     
MTR01000001001000000000000000CA              87533458    000100008670000086700000000000NN  NNWL000                            
RDG01000001WATRL000000000K00000000000001822006604282008094334N000300000010UDP       000380700K 00000000010000001809           
CUS010000010013475                SHANE G. CHRISTIAN  132 DOLL HARRELL ROA                    000N     WS                     
MTR01000001001000000000000000CA              97332128    000100008680000086800000000000NN  NNWL000                            
RDG01000001WATRL000000000K00000000000003674006704282008094354N000300000010UDP       000200700K 00000000010000003627           
CUS010000010013158                JAMIE M. HUDSON     129 DOLL HARRELL ROA                    000N     WS                     
MTR01000001001000000000000000CA              14282831    000100008690000086900000000000NN  NNWL000                            
RDG01000001WATRL000000000K00000000000001806006804282008094449N000000000000UDP       000550700K 00000000010000001769           
CUS010000010013159                RALPH HOLLOWELL, JR.150 DOLL HARRELL ROA                    000N     WS                     
MTR01000001001000000000000000CA              90108618    000100008700000087000000000000NN  NNWL000                            
RDG01000001WATRL000000000K00000000000010968006904282008094730N000000000000UDP       001610700K 00000000010000010910           
CUS010000010013166                WAYNE HURDLE        164 DOLL HARRELL ROA                    000N     WS                     
MTR01000001001000000000000000CA              16655222    000100008710000087100000000000NN  NNWL000                            
RDG01000001WATRL000000000K00000000000006752007004282008094810N000000000000UDP       000400700K 00000000010000006461           
CUS010000010015295                BILL/GAIL BANTON    172 DOLL HARRELL RD                     000N     WS                     
MTR01000001001000000000000000CA              14282834    000100008720000087200000000000NN  NNWL000                            
RDG01000001WATRL000000000K00000000000000578007204282008094931N000300000010UDP       000500700K 00000000010000000557           
CUS010000010013167                ELDORA EASON        167 DOLL HARRELL ROA                    000N     WS                     
MTR01000001001000000000000000CA              12812546    000100008730000087300000000000NN  NNWL000                            
RDG01000001WATRL000000000K00000000000011954007104282008094841N000000000000UDP       000310700K 00000000010000011939           
CUS010000010013168                JAMES PARKER        189 DOLL HARRELL ROA                    000N     WS                     
MTR01000001001000000000000000CA              89090972    000100008740000087400000000000NN  NNWL000                            
RDG01000001WATRL000000000K00000000000006866007304282008095015N000300000010UDP       000440700K 00000000010000006801           
CUS010000010013169                LOUISE SCOTT        193 DOLL HARRELL ROA                    000N     WS                     
MTR01000001001000000000000000CA              22685256    000100008750000087500000000000NN  NNWL000                            
RDG01000001WATRL000000000K00000000000007133007404282008095043N000300000010UDP       000280700K 00000000010000007126           
CUS010000010013170                FIRST GOSPEL TABERNA199 DOLL HARRELL ROA                    000N     WS                     
MTR01000001001000000000000000CA              91007809    000100008760000087600000000000NN  NNWL000                            
RDG01000001WATRL000000000K00000000000003121007504282008095129N000300000010UDP       000460700K 00000000010000003108           
CUS010000010013171                SUSIE STEWARD       203 DOLL HARRELL ROA                    000N     WS                     
MTR01000001001000000000000000CA              13435636    000100008770000087700000000000NN  NNWL000                            
RDG01000001WATRL000000000K00000000000003673007604282008095202N000000000000UDP       000330700K 00000000010000003639           
CUS010000010013172                RALLETON HODNETT    215 DOLL HARRELL ROA                    000N     WS                     
MTR01000001001000000000000000CA              98420814    000100008780000087800000000000NN  NNWL000                            
RDG01000001WATRL000000000K00000000000003677007704282008095238N000000000000UDP       000360700K 00000000010000003652           
CUS010000010013174                NEIL TRUEBLOOD      243 DOLL HARRELL ROA                    000N     WS                     
MTR01000001001000000000000000CA              22684158    000100008790000087900000000000NN  NNWL000                            
RDG01000001WATRL000000000K00000000000007070007804282008095329N000000000000UDP       000510700K 00000000010000007028           
CUS010000010013207                LEROY MEADS         324 BAGLEY SWAMP ROA                    000N     WS                     
MTR01000001001000000000000000CA              22684416    000100008800000088000000000000NN  NNWL000                            
RDG01000001WATRL000000000K00000000000023134007904282008095552N000000000000UDP       001430700K 00000000010000023085           
CUS010000010013252                KATHRYN R. SMITH    303 BAGLEY SWAMP ROA                    000N     WS                     
MTR01000001001000000000000000CA              22685806    000100008810000088100000000000NN  NNWL000                            
RDG01000001WATRL000000000K00000000000015790008104282008095748N000000000000UDP       000520700K 00000000010000015772           
CUS010000010013253                WILLIAM NIXON       296 BAGLEY SWAMP ROA                    000N     WS                     
MTR01000001001000000000000000CA              34355798    000100008820000088200000000000NN  NNWL000                            
RDG01000001WATRL000000000K00000000000008496008204282008095826N000000000000UDP       000380700K 00000000010000008456           
CUS010000010013255                CYNTHIA MARTINEZ    315 BAGLEY SWAMP ROA                    000N     WS                     
MTR01000001001000000000000000CA              12879530    000100008830000088300000000000NN  NNWL000                            
RDG01000001WATRL000000000K00000000000002173008004282008095656N000000000000UDP       000640700K 00000000010000002149           
CUS010000010013257                SHARON NIXON        286 BAGLEY SWAMP ROA                    000N     WS                     
MTR01000001001000000000000000CA              88079271    000100008840000088400000000000NN  NNWL000                            
RDG01000001WATRL000000000K00000000000018700008304282008095908N000000000000UDP       000420700K 00000000010000018609           
CUS010000010013258                MICHELLE MESSICK    263 BAGLEY SWAMP ROA                    000N     WS                     
MTR01000001001000000000000000CA              92125344    000100008850000088500000000000NN  NNWL000                            
RDG01000001WATRL000000000K00000000000009579008404282008100008N000300000010UDP       000600700K 00000000010000009489           
CUS010000010013259                THOMAS NIXON        240 BAGLEY SWAMP ROA                    000N     WS                     
MTR01000001001000000000000000CA              22684415    000100008860000088600000000000NN  NNWL000                            
RDG01000001WATRL000000000K00000000000012048008504282008100055N000000000000UDP       000470700K 00000000010000012035           
CUS010000010013260                PAUL SMITH, SR.     241 BAGLEY SWAMP ROA                    000N     WS                     
MTR01000001001000000000000000CA              14257934    000100008870000088700000000000NN  NNWL000                            
RDG01000001WATRL000000000K00000000000000886008604282008100117N000000000000UDP       000220700K 00000000010000000877           
CUS010000010013262                PAUL SMITH, JR.     221 BAGLEY SWAMP ROA                    000N     WS                     
MTR01000001001000000000000000CA              22685830    000100008880000088800000000000NN  NNWL000                            
RDG01000001WATRL000000000K00000000000017895008704282008100222N000300000010UDP       000650700K 00000000010000017864           
CUS010000010013264                ALFRED WHITE        192 BAGLEY SWAMP ROA                    000N     WS                     
MTR01000001001000000000000000CA              22683932    000100008890000088900000000000NN  NNWL000                            
RDG01000001WATRL000000000K00000000000010090008904282008100400N000000000000UDP       000410700K 00000000010000010063           
CUS010000010013266                WENDY JEWETT        200 BAGLEY SWAMP ROA                    000N     WS                     
MTR01000001001000000000000000CA              94415138    000100008900000089000000000000NN  NNWL000                            
RDG01000001WATRL000000000K00000000000003356008804282008100319N000000000000UDP       000570700K 00000000010000003346           
CUS010000010015296                JERRY DILLARD       180 BAGLEY SWP RD                       000N     WS                     
MTR01000001001000000000000000CA              96247118    000100008910000089100000000000NN  NNWL000                            
RDG01000001WATRL000000000K00000000000006364009104282008100505N000000000000UDP       000200700K 00000000010000006329           
CUS010000010013267                JESSIE WHITE        188 BAGLEY SWAMP ROA                    000N     WS                     
MTR01000001001000000000000000CA              14442192    000100008920000089200000000000NN  NNWL000                            
RDG01000001WATRL000000000K00000000000000079009004282008100445N000100000010UDP       000450700K 00000000010000000079           
CUS010000010013477                IRENE APPLEWHITE    182 BAGLEY SWAMP ROA                    000N     WS                     
MTR01000001001000000000000000CA              91079843    000100008930000089300000000000NN  NNWL000                            
RDG01000001WATRL000000000K00000000000004813009204282008100600N000000000000UDP       000550700K 00000000010000004805           
CUS010000010013269                MATTHEW PEELER      179 BAGLEY SWAMP ROA                    000N     WS                     
MTR01000001001000000000000000CA              C014088     000100008940000089400000000000NN  NNWL000                            
RDG01000001WATRL000000000K00000000000008952009304282008100654N000000000000UDP       000540700K 00000000010000008942           
CUS010000010013271                THOMAS MOORE        171 BAGLEY SWAMP ROA                    000N     WS                     
MTR01000001001000000000000000CA              22684413    000100008950000089500000000000NN  NNWL000                            
RDG01000001WATRL000000000K00000000000009927009404282008100740N000000000000UDP       000460700K 00000000010000009876           
CUS010000010013273                JAMES INGRAM        163 BAGLEY SWAMP ROA                    000N     WS                     
MTR01000001001000000000000000CA              95426089    000100008960000089600000000000NN  NNWL000                            
RDG01000001WATRL000000000K00000000000010626009504282008100825N000000000000UDP       000450700K 00000000010000010590           
CUS010000010013274                BARBARA CARTER      159 BAGLEY SWAMP ROA                    000N     WS                     
MTR01000001001000000000000000CA              97625458    000100008970000089700000000000NN  NNWL000                            
RDG01000001WATRL000000000K00000000000012072009604282008100903N000100000010UDP       000380700K 00000000010000012072           
CUS010000010013276                CATHEY LINTON       151 BAGLEY SWAMP ROA                    000N     WS                     
MTR01000001001000000000000000CA              22684011    000100008980000089800000000000NN  NNWL000                            
RDG01000001WATRL000000000K00000000000016036009704282008100947N000000000000UDP       000440700K 00000000010000015993           
CUS010000010013277                C.R. NIXON          143 BAGLEY SWAMP ROA                    000N     WS                     
MTR01000001001000000000000000CA              22683758    000100008990000089900000000000NN  NNWL000                            
RDG01000001WATRL000000000K00000000000009377009804282008100951N000100000010UDP       000040700K 00000000010000009377           
CUS010000010015297                H. A. SMITH         135 BAGLEY SWP RD                       000N     WS                     
MTR01000001001000000000000000CA              22684216    000100009000000090000000000000NN  NNWL000                            
RDG01000001WATRL000000000K00000000000012140009904282008101040N000000000000UDP       000490700K 00000000010000012132           
CUS010000010013278                JEAN JENKINS        499 BELVIDERE ROAD                      000N     WS                     
MTR01000001001000000000000000CA              17319718    000100009010000090100000000000NN  NNWL000                            
RDG01000001WATRL000000000K00000000000000087010004282008101131N000000000000UDP       000510700K 00000000010000000083           
CUS010000010013279                BETTY T. PLACE      133 HAYWOOD SMITH RO                    000N     WS                     
MTR01000001001000000000000000CA              23738246    000100009020000090200000000000NN  NNWL000                            
RDG01000001WATRL000000000K00000000000006088010104282008101214N000000000000UDP       000430700K 00000000010000006076           
CUS010000010013280                WINFALL MANOR       131 HAYWOOD SMITH RO                    000N     WS                     
MTR01000001001000000000000000CA              23738241    000100009030000090300000000000NN  NNWL000                            
RDG01000001WATRL000000000K00000000000031341010204282008101238N000000000000UDP       000240700K 00000000010000031229           
CUS010000010013281                NICOLE BROWN        124 HAYWOOD SMITH RO                    000N     WS                     
MTR01000001001000000000000000CA              98420661    000100009040000090400000000000NN  NNWL000                            
RDG01000001WATRL000000000K00000000000003797011604282008102131N000300000010UDP       000360700K 00000000010000003734           
CUS010000010013282                PAUL BRYANT         110 HAYWOOD SMITH RO                    000N     WS                     
MTR01000001001000000000000000CA              98845944    000100009050000090500000000000NN  NNWL000                            
RDG01000001WATRL000000000K00000000000004060011904282008102247N000000000000UDP       000200700K 00000000010000004031           
CUS010000010015709                STANFORD DANTZLER   114 HAYWOOD SMITH RO                    000N     WS                     
MTR01000001001000000000000000CA              16464556    000100009060000090600000000000NN  NNWL000                            
RDG01000001WATRL000000000K00000000000000961011804282008102227N000000000000UDP       000270700K 00000000010000000873           
CUS010000010013283                GLORIA FAIN         118 HAYWOOD SMITH RO                    000N     WS                     
MTR01000001001000000000000000CA              97833039    000100009070000090700000000000NN  NNWL000                            
RDG01000001WATRL000000000K00000000000004688011704282008102200N000000000000UDP       000290700K 00000000010000004653           
CUS010000010013284                ISAAC J. JORDAN, JR.130 HAYWOOD SMITH RO                    000N     WS                     
MTR01000001001000000000000000CA              95116603    000100009080000090800000000000NN  NNWL000                            
RDG01000001WATRL000000000K00000000000009852011504282008102055N000000000000UDP       000260700K 00000000010000009820           
CUS010000010013286                VALERIE JACKSON     144 HAYWOOD SMITH RO                    000N     WS                     
MTR01000001001000000000000000CA              98722709    000100009090000090900000000000NN  NNWL000                            
RDG01000001WATRL000000000K00000000000003915011204282008101938N000000000000UDP       000330700K 00000000010000003886           
CUS010000010013287                YVETTE FREEMAN      134 HAYWOOD SMITH RO                    000N     WS                     
MTR01000001001000000000000000CA              98622600    000100009100000091000000000000NN  NNWL000                            
RDG01000001WATRL000000000K00000000000008846011404282008102029N000000000000UDP       000220700K 00000000010000008813           
CUS010000010013403                LOUVENIA WOODARD    140 HAYWOOD SMITH RO                    000N     WS                     
MTR01000001001000000000000000CA              12750992    000100009110000091100000000000NN  NNWL000                            
RDG01000001WATRL000000000K00000000000002222011304282008102007N000000000000UDP       000290700K 00000000010000002207           
CUS010000010013406                JENNIFER CLARK      152 HAYWOOD SMITH RO                    000N     WS                     
MTR01000001001000000000000000CA              93030844    000100009120000091200000000000NN  NNWL000                            
RDG01000001WATRL000000000K00000000000003663011104282008101905N000300000010UDP       000370700K 00000000010000003524           
CUS010000010013407                EUGENE KNIGHT       156 HAYWOOD SMITH RO                    000N     WS                     
MTR01000001001000000000000000CA              90069515    000100009130000091300000000000NN  NNWL000                            
RDG01000001WATRL000000000K00000000000008194011004282008101828N000000000000UDP       000310700K 00000000010000008156           
CUS010000010013408                RODNEY D. LYONS     162 HAYWOOD SMITH RO                    000N     WS                     
MTR01000001001000000000000000CA              88109924    000100009140000091400000000000NN  NNWL000                            
RDG01000001WATRL000000000K00000000000010542010904282008101757N000000000000UDP       000270700K 00000000010000010491           
CUS010000010013409                ARTHUR MITCHELL     166 HAYWOOD SMITH RO                    000N     WS                     
MTR01000001001000000000000000CA              99786082    000100009150000091500000000000NN  NNWL000                            
RDG01000001WATRL000000000K00000000000005518010804282008101730N000000000000UDP       000340700K 00000000010000005492           
CUS010000010013411                BARRY PRICE         170 HAYWOOD SMITH RO                    000N     WS                     
MTR01000001001000000000000000CA              C017252     000100009160000091600000000000NN  NNWL000                            
RDG01000001WATRL000000000K00000000000019387010704282008101656N000000000000UDP       000220700K 00000000010000019322           
CUS010000010013412                WALTER RODGERS      174 HAYWOOD SMITH RO                    000N     WS                     
MTR01000001001000000000000000CA              91007850    000100009170000091700000000000NN  NNWL000                            
RDG01000001WATRL000000000K00000000000000256010604282008101634N000000000000UDP       000270700K 00000000010000000249           
CUS010000010013414                ROBERT ELLIOTT      178 HAYWOOD SMITH RO                    000N     WS                     
MTR01000001001000000000000000CA              23738245    000100009180000091800000000000NN  NNWL000                            
RDG01000001WATRL000000000K00000000000009888010504282008101607N000000000000UDP       000780700K 00000000010000009878           
CUS010000010015248                WILLIAM BROWN, JR.  227 HAYWOOD SMITH RO                    000N     WS                     
MTR01000001001000000000000000CA              14381565    000100009190000091900000000000NN  NNWL000                            
RDG01000001WATRL000000000K00000000000000786010304282008101352N000300000010UDP       000740700K 00000000010000000735           
CUS010000010015839                RONALD & KATHLEEN BU259 HAYWOOD SMITH RO                    000N     WS                     
MTR01000001001000000000000000CA              18178696    000100009200000092000000000000NN  NNWL000                            
RDG01000001WATRL000000000K00000000000000005010404282008101449N000000000000UDP       000570700K 00000000010000000004           
CUS010000010013416                CEDAR ROW FARM      900 BELVIDERE ROAD                      000N     WS                     
MTR01000001001000000000000000CA              40503525    000100009210000092100000000000NN  NNWL000                            
RDG01000001WATRL000000000K00000000000215729012004282008102619N000300000010UDP       002120700K 00000000010000214285           
CUS010000010013418                JAMES NEWBY, JR.    905 BELVIDERE ROAD                      000N     WS                     
MTR01000001001000000000000000CA              22683740    000100009220000092200000000000NN  NNWL000                            
RDG01000001WATRL000000000K00000000000003176012104282008102747N000000000000UDP       000880700K 00000000010000003175           
CUS010000010013421                ARTHUR NEWBY        907 BELVIDERE ROAD                      000N     WS                     
MTR01000001001000000000000000CA              99888034    000100009230000092300000000000NN  NNWL000                            
RDG01000001WATRL000000000K00000000000001590012204282008102758N000000000000UDP       000110700K 00000000010000001583           
CUS010000010013424                                    911 BELVIDERE ROAD                      000N     WS                     
MTR01000001001000000000000000CA              22684500    000100009240000092400000000000NN  NNWL000                            
RDG01000001WATRL000000000K00000000000000000012304282008102800S005000000000UDP       000020700K 00000000010000000000           
CUS010000010013425                GEORGE L. NORMAN    917 BELVIDERE ROAD                      000N     WS                     
MTR01000001001000000000000000CA              C010874     000100009250000092500000000000NN  NNWL000                            
RDG01000001WATRL000000000K00000000000007473012404282008102848N000000000000UDP       000480700K 00000000010000007448           
CUS010000010013427                CAPTOLIA NEWBY      929 BELVIDERE ROAD                      000N     WS                     
MTR01000001001000000000000000CA              22685106    000100009260000092600000000000NN  NNWL000                            
RDG01000001WATRL000000000K00000000000007570012504282008102852N000100000010UDP       000040700K 00000000010000007570           
CUS010000010013429                JOHN WINSLOW, SR.   949 BELVIDERE ROAD                      000N     WS                     
MTR01000001001000000000000000CA              22683915    000100009270000092700000000000NN  NNWL000                            
RDG01000001WATRL000000000K00000000000092432012604282008102937N000000000000UDP       000450700K 00000000010000092405           
CUS010000010013430                JOHN WINSLOW, SR.   949 BELVIDERE ROAD-C                    000N     WS                     
MTR01000001001000000000000000CA              90001750    000100009280000092800000000000NN  NNWL000                            
RDG01000001WATRL000000000K00000000000131996012704282008103152N000300000010UDP       001350700K 00000000010000131325           
CUS010000010013431                LILLIAN H. WINSLOW  973 BELVIDERE ROAD                      000N     WS                     
MTR01000001001000000000000000CA              22685086    000100009290000092900000000000NN  NNWL000                            
RDG01000001WATRL000000000K00000000000007848012804282008103241N000000000000UDP       000490700K 00000000010000007839           
CUS010000010013432                LINDSEY BUNCH       980 BELVIDERE ROAD                      000N     WS                     
MTR01000001001000000000000000CA              22685639    000100009300000093000000000000NN  NNWL000                            
RDG01000001WATRL000000000K00000000000007785012904282008103338N000000000000UDP       000570700K 00000000010000007782           
CUS010000010013506                BRENDA WOODARD      991 BELVIDERE ROAD                      000N     WS                     
MTR01000001001000000000000000CA              85004253    000100009310000093100000000000NN  NNWL000                            
RDG01000001WATRL000000000K00000000000011145013004282008103438N000300000010UDP       000600700K 00000000010000011128           
CUS010000010015298                ISAIAH BOONE        997 BELVIDERE RD                        000N     WS                     
MTR01000001001000000000000000CA              95718894    000100009320000093200000000000NN  NNWL000                            
RDG01000001WATRL000000000K00000000000006202013104282008103514N000300000010UDP       000360700K 00000000010000006107           
CUS010000010013433                                    1002 BELVIDERE ROAD                     000N     WS                     
MTR01000001001000000000000000CA              32865886    000100009330000093300000000000NN  NNWL000                            
RDG01000001WATRL000000000K00000000000000000013204282008103516S005000000000UDP       000020700K 00000000010000000000           
CUS010000010013508                ERNEST BERRY        1023 BELVIDERE ROAD                     000N     WS                     
MTR01000001001000000000000000CA              22683750    000100009340000093400000000000NN  NNWL000                            
RDG01000001WATRL000000000K00000000000017329013304282008103647N000000000000UDP       000910700K 00000000010000017208           
CUS010000010013434                RAYMOND ANDERSON    1023 BELVIDERE ROAD                     000N     WS                     
MTR01000001001000000000000000CA              22683750    000100009350000093500000000000NN  NNWL000                            
RDG01000001WATRL000000000K00000000000000000013404282008103649S005000000000UDP       000020700K 00000000010000000000           
CUS010000010013435                THURMAN ONLEY       1028 BELVIDERE ROAD                     000N     WS                     
MTR01000001001000000000000000CA              10904065    000100009360000093600000000000NN  NNWL000                            
RDG01000001WATRL000000000K00000000000002017013504282008103727N000000000000UDP       000380700K 00000000010000001976           
CUS010000010013436                                    1036 BELVIDERE ROAD                     000N     WS                     
MTR01000001001000000000000000CA              C007327     000100009370000093700000000000NN  NNWL000                            
RDG01000001WATRL000000000K00000000000000000013604282008103729S005000000000UDP       000020700K 00000000010000000000           
CUS010000010013437                OSCAR WILDER        1040 BELVIDERE ROAD                     000N     WS                     
MTR01000001001000000000000000CA              15384221    000100009380000093800000000000NN  NNWL000                            
RDG01000001WATRL000000000K00000000000001107013704282008103808N000000000000UDP       000390700K 00000000010000001079           
CUS010000010013439                W.T. NOWELL, SR.    1048 BELVIDERE ROAD                     000N     WS                     
MTR01000001001000000000000000CA              92028125    000100009390000093900000000000NN  NNWL000                            
RDG01000001WATRL000000000K00000000000012162013804282008103849N000300000010UDP       000410700K 00000000010000012091           
CUS010000010013440                RONNIE PIPPEN       1055 BELVIDERE ROAD                     000N     WS                     
MTR01000001001000000000000000CA              22683809    000100009400000094000000000000NN  NNWL000                            
RDG01000001WATRL000000000K00000000000010190013904282008103919N000000000000UDP       000300700K 00000000010000010170           
CUS010000010013442                TOMMY NOWELL        1054 BELVIDERE ROAD                     000N     WS                     
MTR01000001001000000000000000CA              22683744    000100009410000094100000000000NN  NNWL000                            
RDG01000001WATRL000000000K00000000000008309014004282008103955N000300000010UDP       000360700K 00000000010000008305           
CUS010000010013443                BRAD KIME           1068 BELVIDERE ROAD                     000N     WS                     
MTR01000001001000000000000000CA              22683993    000100009420000094200000000000NN  NNWL000                            
RDG01000001WATRL000000000K00000000000032406014104282008104033N000000000000UDP       000380700K 00000000010000032330           
CUS010000010013444                JACK NOWELL         1080 BELVIDERE ROAD                     000N     WS                     
MTR01000001001000000000000000CA              89090974    000100009430000094300000000000NN  NNWL000                            
RDG01000001WATRL000000000K00000000000009360014204282008104130N000000000000UDP       000570700K 00000000010000009329           
CUS010000010013445                THOMAS L. RIDDICK   1077 BELVIDERE ROAD                     000N     WS                     
MTR01000001001000000000000000CA              14257926    000100009440000094400000000000NN  NNWL000                            
RDG01000001WATRL000000000K00000000000001174014304282008104153N000000000000UDP       000230700K 00000000010000001147           
CUS010000010013446                ARCHIE W. & KATHRYN 1089 BELVIDERE ROAD                     000N     WS                     
MTR01000001001000000000000000CA              22685105    000100009450000094500000000000NN  NNWL000                            
RDG01000001WATRL000000000K00000000000026113014404282008104207N000000000000UDP       000140700K 00000000010000026063           
CUS010000010013447                DOUGLAS GUINN       1106 BELVIDERE ROAD                     000N     WS                     
MTR01000001001000000000000000CA              22684462    000100009460000094600000000000NN  NNWL000                            
RDG01000001WATRL000000000K00000000000020883014504282008104258N000000000000UDP       000510700K 00000000010000020873           
CUS010000010013448                MITCHELL FRIAR      1110 BELVIDERE ROAD                     000N     WS                     
MTR01000001001000000000000000CA              92041587    000100009470000094700000000000NN  NNWL000                            
RDG01000001WATRL000000000K00000000000005557014604282008104337N000000000000UDP       000390700K 00000000010000005520           
CUS010000010013449                JOHN MINTON         1110B BELVIDERE ROAD                    000N     WS                     
MTR01000001001000000000000000CA              12750995    000100009480000094800000000000NN  NNWL000                            
RDG01000001WATRL000000000K00000000000001782014704282008104401N000000000000UDP       000240700K 00000000010000001764           
CUS010000010013450                JOHN MINTON         1110A BELVIDERE ROAD                    000N     WS                     
MTR01000001001000000000000000CA              98845943    000100009490000094900000000000NN  NNWL000                            
RDG01000001WATRL000000000K00000000000003231014804282008104418N000000000000UDP       000170700K 00000000010000003208           
CUS010000010013451                                    1113 BELVIDERE ROAD                     000N     WS                     
MTR01000001001000000000000000CA              4010473     000100009500000095000000000000NN  NNWL000                            
RDG01000001WATRL000000000K00000000000000000014904282008104420S005000000000UDP       000020700K 00000000010000000000           
CUS010000010013452                FLOYD LAYDEN        1118 BELVIDERE ROAD                     000N     WS                     
MTR01000001001000000000000000CA              22685104    000100009510000095100000000000NN  NNWL000                            
RDG01000001WATRL000000000K00000000000009057015004282008104425N000100000010UDP       000050700K 00000000010000009057           
CUS010000010013453                                    1123 BELVIDERE ROAD                     000N     WS                     
MTR01000001001000000000000000CA              86105760    000100009520000095200000000000NN  NNWL000                            
RDG01000001WATRL000000000K00000000000000000015104282008104429S005000000000UDP       000040700K 00000000010000000000           
CUS010000010013509                MONAE RALPH         1123 BELVIDERE ROAD                     000N     WS                     
MTR01000001001000000000000000CA              86105760    000100009530000095300000000000NN  NNWL000                            
RDG01000001WATRL000000000K00000000000012785015204282008104505N000000000000UDP       000360700K 00000000010000012730           
CUS010000010013454                                    1136 BELVIDERE ROAD                     000N     WS                     
MTR01000001001000000000000000CA              92028173    000100009540000095400000000000NN  NNWL000                            
RDG01000001WATRL000000000K00000000000000000015304282008104507S005000000000UDP       000020700K 00000000010000000000           
CUS010000010015422                VERONICA ORMOND     1129 BELVEDERE RD                       000N     WS                     
MTR01000001001000000000000000CA              16353533    000100009550000095500000000000NN  NNWL000                            
RDG01000001WATRL000000000K00000000000001586015404282008104534N000000000000UDP       000270700K 00000000010000001532           
CUS010000010013455                DEAN LANE           1147 BELVIDERE ROAD                     000N     WS                     
MTR01000001001000000000000000CA              22684423    000100009560000095600000000000NN  NNWL000                            
RDG01000001WATRL000000000K00000000000023046015504282008104607N000000000000UDP       000330700K 00000000010000022990           
CUS010000010013456                WILLIAM BYRUM       1166 BELVIDERE ROAD                     000N     WS                     
MTR01000001001000000000000000CA              85074471    000100009570000095700000000000NN  NNWL000                            
RDG01000001WATRL000000000K00000000000014458015604282008104704N000000000000UDP       000570700K 00000000010000014425           
CUS010000010013457                NELSON LANE         1173 BELVIDERE ROAD                     000N     WS                     
MTR01000001001000000000000000CA              94093629    000100009580000095800000000000NN  NNWL000                            
RDG01000001WATRL000000000K00000000000002562015704282008104735N000000000000UDP       000310700K 00000000010000002549           
CUS010000010013458                TIM BYRUM           1170 BELVIDERE ROAD                     000N     WS                     
MTR01000001001000000000000000CA              3305511     000100009590000095900000000000NN  NNWL000                            
RDG01000001WATRL000000000K00000000000006131015804282008104743N000100000010UDP       000080700K 00000000010000006131           
CUS010000010015623                TIM BYRUM           1180 BELVIDERE ROAD                     000N     WS                     
MTR01000001001000000000000000CA              16663217    000100009600000096000000000000NN  NNWL000                            
RDG01000001WATRL000000000K00000000000000475015904282008104844N000000000000UDP       000610700K 00000000010000000430           
CUS010000010013459                                    1176 BELVIDERE ROAD                     000N     WS                     
MTR01000001001000000000000000CA              85108136    000100009610000096100000000000NN  NNWL000                            
RDG01000001WATRL000000000K00000000000000000016004282008104846S005000000000UDP       000020700K 00000000010000000000           
CUS010000010013460                JAMES HOLLOWELL     1188 BELVIDERE ROAD                     000N     WS                     
MTR01000001001000000000000000CA              98722681    000100009620000096200000000000NN  NNWL000                            
RDG01000001WATRL000000000K00000000000000248016104282008104928N000000000000UDP       000420700K 00000000010000000247           
CUS010000010013510                LYNWOOD WINSLOW     104 SANDY CROSS ROAD                    000N     WS                     
MTR01000001001000000000000000CA              22683837    000100009630000096300000000000NN  NNWL000                            
RDG01000001WATRL000000000K00000000000020549016204282008104932N000100000010UDP       000040700K 00000000010000020549           
CUS010000010013461                CLAUDE WINSLOW      1234 BELVIDERE ROAD                     000N     WS                     
MTR01000001001000000000000000CA              22685232    000100009640000096400000000000NN  NNWL000                            
RDG01000001WATRL000000000K00000000000002770016404282008105125N000100000010UDP       000500700K 00000000010000002770           
CUS010000010013462                LYNWOOD WINSLOW     1209 BELVIDERE ROAD                     000N     WS                     
MTR01000001001000000000000000CA              22683984    000100009650000096500000000000NN  NNWL000                            
RDG01000001WATRL000000000K00000000000005746016304282008105035N000300000010UDP       000630700K 00000000010000005730           
CUS010000010013603                DAVID S. WHITEHURST 1247 BELVIDERE ROAD                     000N     WS                     
MTR01000001001000000000000000CA              15384227    000100009660000096600000000000NN  NNWL000                            
RDG01000001WATRL000000000K00000000000001282016504282008105200N000000000000UDP       000350700K 00000000010000001264           
CUS010000010013604                STEVE & BRENDA HOLLE1256 BELVIDERE ROAD                     000N     WS                     
MTR01000001001000000000000000CA              11870867    000100009670000096700000000000NN  NNWL000                            
RDG01000001WATRL000000000K00000000000002439016604282008105234N000000000000UDP       000340700K 00000000010000002405           
CUS010000010015624                GEORGE R. WHITEHURST1267 BELVIDERE ROAD                     000N     WS                     
MTR01000001001000000000000000CA              16437944    000100009680000096800000000000NN  NNWL000                            
RDG01000001WATRL000000000K00000000000000000016704282008105242S005000000000UDP       000080700K 00000000010000000000           
CUS010000010013605                DONALD HURDLE       1287 BELVIDERE ROAD                     000N     WS                     
MTR01000001001000000000000000CA              92009223    000100009690000096900000000000NN  NNWL000                            
RDG01000001WATRL000000000K00000000000012899016804282008105324N000000000000UDP       000420700K 00000000010000012854           
CUS010000010013606                JOHN MONNSERATT     1315 BELVIDERE ROAD                     000N     WS                     
MTR01000001001000000000000000CA              11870837    000100009700000097000000000000NN  NNWL000                            
RDG01000001WATRL000000000K00000000000004953017204282008105559N000000000000UDP       000570700K 00000000010000004866           
CUS010000010015437                RAYMOND L. SAWYER   1331 BELVIDERE ROAD                     000N     WS                     
MTR01000001001000000000000000CA              14357604    000100009710000097100000000000NN  NNWL000                            
RDG01000001WATRL000000000K00000000000000663017304282008105631N000300000010UDP       000320700K 00000000010000000604           
CUS010000010013607                CALVARY PENTECOSTAL 1339 BELVIDERE ROAD                     000N     WS                     
MTR01000001001000000000000000CA              22683892    000100009720000097200000000000NN  NNWL000                            
RDG01000001WATRL000000000K00000000000004734017404282008105700N000000000000UDP       000290700K 00000000010000004712           
CUS010000010013608                ANDY WHITE          1309 BELVIDERE ROAD                     000N     WS                     
MTR01000001001000000000000000CA              920208141   000100009730000097300000000000NN  NNWL000                            
RDG01000001WATRL000000000K00000000000010786017104282008105502N000000000000UDP       000270700K 00000000010000010749           
CUS010000010015782                JASON GRIFFIN       1302 BELVIDERE ROAD                     000N     WS                     
MTR01000001001000000000000000CA              17533478    000100009740000097400000000000NN  NNWL000                            
RDG01000001WATRL000000000K00000000000000081016904282008105413N000300000010UDP       000490700K 00000000010000000056           
CUS010000010013609                CLARK M. WHITE      1303 BELVIDERE ROAD                     000N     WS                     
MTR01000001001000000000000000CA              99888028    000100009750000097500000000000NN  NNWL000                            
RDG01000001WATRL000000000K00000000000004560017004282008105435N000000000000UDP       000220700K 00000000010000004525           
CUS010000010013610                LOUISE BYRUM        1340 BELVIDERE ROAD                     000N     WS                     
MTR01000001001000000000000000CA              99898579    000100009760000097600000000000NN  NNWL000                            
RDG01000001WATRL000000000K00000000000017027017504282008105731N000300000010UDP       000310700K 00000000010000016819           
CUS010000010013611                MCKAY RIDDICK       1357 BELVIDERE ROAD                     000N     WS                     
MTR01000001001000000000000000CA              22685103    000100009770000097700000000000NN  NNWL000                            
RDG01000001WATRL000000000K00000000000017243017604282008105824N000000000000UDP       000530700K 00000000010000017215           
CUS010000010015737                SAM & ALICE MONCLA  1398 BELVIDERE ROAD                     000N     WS                     
MTR01000001001000000000000000CA              17319590    000100009780000097800000000000NN  NNWL000                            
RDG01000001WATRL000000000K00000000000000128017704282008105927N000000000000UDP       000630700K 00000000010000000127           
CUS010000010013612                ROBERT STALLINGS    1415 BELVIDERE ROAD                     000N     WS                     
MTR01000001001000000000000000CA              22684464    000100009790000097900000000000NN  NNWL000                            
RDG01000001WATRL000000000K00000000000016814017804282008110012N000000000000UDP       000450700K 00000000010000016777           
CUS010000010015299                WILLIAM T. WINSLOW  1441 BELVIDERE ROAD                     000N     WS                     
MTR01000001001000000000000000CA              22685783    000100009800000098000000000000NN  NNWL000                            
RDG01000001WATRL000000000K00000000000004350017904282008110144N000100000010UDP       000920700K 00000000010000004350           
CUS010000010013512                BUDDY BELCH         1439 BELVIDERE ROAD                     000N     WS                     
MTR01000001001000000000000000CA              22683845    000100009810000098100000000000NN  NNWL000                            
RDG01000001WATRL000000000K00000000000017044018004282008110214N000300000010UDP       000300700K 00000000010000017015           
CUS010000010013613                CHARLES WHITE       1471 BELVIDERE ROAD                     000N     WS                     
MTR01000001001000000000000000CA              90144426    000100009820000098200000000000NN  NNWL000                            
RDG01000001WATRL000000000K00000000000015306018104282008110415N000000000000UDP       001210700K 00000000010000015277           
CUS010000010013614                ZENOVAH C. WHITE    1483 BELVIDERE ROAD                     000N     WS                     
MTR01000001001000000000000000CA              B03876      000100009830000098300000000000NN  NNWL000                            
RDG01000001WATRL000000000K00000000000010962018204282008110512N000000000000UDP       000570700K 00000000010000010940           
CUS010000010013513                WAYNE MEADE         107 PERRY BRIDGE ROA                    000N     WS                     
MTR01000001001000000000000000CA              22684994    000100009840000098400000000000NN  NNWL000                            
RDG01000001WATRL000000000K00000000000008642018304282008110613N000000000000UDP       000610700K 00000000010000008632           
CUS010000010013615                DAWN LEWIS          1499 BELVIDERE ROAD                     000N     WS                     
MTR01000001001000000000000000CA              16464757    000100009850000098500000000000NN  NNWL000                            
RDG01000001WATRL000000000K00000000000000821018404282008110709N000300000010UDP       000560700K 00000000010000000746           
CUS010000010015300                THOMAS DALE         1501 BELVIDERE RD                       000N     WS                     
MTR01000001001000000000000000CA              90144018    000100009860000098600000000000NN  NNWL000                            
RDG01000001WATRL000000000K00000000000007318018504282008110716N000000000000UDP       000070700K 00000000010000007293           
CUS010000010013616                THE NICHOLSON HOUSE 1500 BELVIDERE ROAD                     000N     WS                     
MTR01000001001000000000000000CA              98846009    000100009870000098700000000000NN  NNWL000                            
RDG01000001WATRL000000000K00000000000005559018604282008110800N000000000000UDP       000440700K 00000000010000005463           
CUS010000010013617                BELVIDERE COMMUNITY 1504 BELVIDERE ROAD                     000N     WS                     
MTR01000001001000000000000000CA              22684996    000100009880000098800000000000NN  NNWL000                            
RDG01000001WATRL000000000K00000000000004624018704282008110842N000100000010UDP       000420700K 00000000010000004624           
CUS010000010013514                KELLIE JENSVOLD     1507 BELVIDERE ROAD                     000N     WS                     
MTR01000001001000000000000000CA              716238      000100009890000098900000000000NN  NNWL000                            
RDG01000001WATRL000000000K00000000000015685018804282008111008N000300000010UDP       000860700K 00000000010000015561           
CUS010000010013618                                    1507 BELVIDERE ROAD                     000N     WS                     
MTR01000001001000000000000000CA              716238      000100009900000099000000000000NN  NNWL000                            
RDG01000001WATRL000000000K00000000000000000018904282008111010S005000000000UDP       000020700K 00000000010000000000           
CUS010000010013619                EDWIN WHITE         1514 BELVIDERE ROAD                     000N     WS                     
MTR01000001001000000000000000CA              96822687    000100009910000099100000000000NN  NNWL000                            
RDG01000001WATRL000000000K00000000000002737019004282008111056N000300000010UDP       000460700K 00000000010000002711           
CUS010000010013620                U.S. POST OFFICE    1517 BELVIDERE ROAD                     000N     WS                     
MTR01000001001000000000000000CA              89022259    000100009920000099200000000000NN  NNWL000                            
RDG01000001WATRL000000000K00000000000001518019104282008111127N000300000010UDP       000310700K 00000000010000001511           
CUS010000010013621                JAMES LAYDEN, JR.   1537 BELVIDERE ROAD                     000N     WS                     
MTR01000001001000000000000000CA              22686817    000100009930000099300000000000NN  NNWL000                            
RDG01000001WATRL000000000K00000000000009214019204282008111208N000000000000UDP       000410700K 00000000010000009203           
CUS010000010013622                PINEY WOOD PARSONAGE1540 BELVIDERE ROAD                     000N     WS                     
MTR01000001001000000000000000CA              22684179    000100009940000099400000000000NN  NNWL000                            
RDG01000001WATRL000000000K00000000000016952019304282008111303N000300000010UDP       000550700K 00000000010000016930           
CUS010000010013623                CLINTON WINSLOW, JR.1543 BELVIDERE ROAD                     000N     WS                     
MTR01000001001000000000000000CA              C010878     000100009950000099500000000000NN  NNWL000                            
RDG01000001WATRL000000000K00000000000013071019404282008111343N000000000000UDP       000400700K 00000000010000013046           
CUS010000010013624                LESLIE JORDAN       1546 BELVIDERE ROAD                     000N     WS                     
MTR01000001001000000000000000CA              22686865    000100009960000099600000000000NN  NNWL000                            
RDG01000001WATRL000000000K00000000000026539019504282008111415N000000000000UDP       000320700K 00000000010000026521           
CUS010000010013521                SCOTT MAXWELL       1601 BELVIDERE ROAD                     000N     WS                     
MTR01000001001000000000000000CA              90184174    000100009970000099700000000000NN  NNWL000                            
RDG01000001WATRL000000000K00000000000010300019604282008111511N000300000010UDP       000560700K 00000000010000010277           
CUS010000010013625                ESTES COPELAND      1607 BELVIDERE ROAD                     000N     WS                     
MTR01000001001000000000000000CA              10760179    000100009980000099800000000000NN  NNWL000                            
RDG01000001WATRL000000000K00000000000001564019704282008111533N000000000000UDP       000220700K 00000000010000001551           
CUS010000010013626                MRS. LOU SMITH      1602 BELVIDERE ROAD                     000N     WS                     
MTR01000001001000000000000000CA              15267596    000100009990000099900000000000NN  NNWL000                            
RDG01000001WATRL000000000K00000000000005599019804282008111618N000000000000UDP       000450700K 00000000010000005555           
CUS010000010013627                EUGENE BAKER        1615 BELVIDERE ROAD                     000N     WS                     
MTR01000001001000000000000000CA              E003966     000100010000000100000000000000NN  NNWL000                            
RDG01000001WATRL000000000K00000000000005717019904282008111638N000000000000UDP       000200700K 00000000010000005707           
CUS010000010013628                ALVIN COPELAND      1620 BELVIDERE ROAD                     000N     WS                     
MTR01000001001000000000000000CA              87087473    000100010010000100100000000000NN  NNWL000                            
RDG01000001WATRL000000000K00000000000012023020004282008111719N000000000000UDP       000410700K 00000000010000011997           
CUS010000010013629                STEPHEN HAMMER      1621 BELVIDERE ROAD                     000N     WS                     
MTR01000001001000000000000000CA              22686808    000100010020000100200000000000NN  NNWL000                            
RDG01000001WATRL000000000K00000000000014948020104282008111739N000000000000UDP       000200700K 00000000010000014926           
CUS010000010013630                CARLA MAINE         1625 BELVIDERE ROAD                     000N     WS                     
MTR01000001001000000000000000CA              90184171    000100010030000100300000000000NN  NNWL000                            
RDG01000001WATRL000000000K00000000000008117020204282008111756N000000000000UDP       000170700K 00000000010000008103           
CUS010000010015301                CHARLES FOWLER, JR                                          000N     WS                     
MTR01000001001000000000000000CA              4006368     000100010040000100400000000000NN  NNWL000                            
RDG01000001WATRL000000000K00000000000014755020304282008111905N000000000000UDP       000690700K 00000000010000014718           
CUS010000010015302                BELVIDERE EXCHANGE, DRINKING HOLE RD/GRA                    000N     WS                     
MTR01000001001000000000000000CA              91069460    000100010050000100500000000000NN  NNWL000                            
RDG01000001WATRL000000000K00000000000004579020404282008111950N000300000010UDP       000450700K 00000000010000004528           
CUS010000010015303                BELVIDERE EXCHANGE, 129 DRINKING HOLE RO                    000N     WS                     
MTR01000001001000000000000000CA              93030846    000100010060000100600000000000NN  NNWL000                            
RDG01000001WATRL000000000K00000000000005948020504282008112025N000000000000UDP       000350700K 00000000010000005930           
CUS010000010015304                BELVIDERE EXCHANGE, DRINKING HOLE RD/SHO                    000N     WS                     
MTR01000001001000000000000000CA              94418415    000100010070000100700000000000NN  NNWL000                            
RDG01000001WATRL000000000K00000000000001052020704282008112154N000000000001UDP       000320700K 00000000010000001046           
CUS010000010013631                THOMAS W. SAWYER, JR124 DRINKING HOLE RO                    000N     WS                     
MTR01000001001000000000000000CA              87074822    000100010080000100800000000000NN  NNWL000                            
RDG01000001WATRL000000000K00000000000010904020604282008112122N000000000000UDP       000570700K 00000000010000010867           
CUS010000010015305                WILLIAM FOWLER      502 GOODWIN MILL RD/                    000N     WS                     
MTR01000001001000000000000000CA              93028818    000100010090000100900000000000NN  NNWL000                            
RDG01000001WATRL000000000K00000000000001987020804282008112255N000300000010UDP       000610700K 00000000010000001912           
CUS010000010013632                PINEY WOODS CHURCH  118 PINEY WOODS ROAD                    000N     WS                     
MTR01000001001000000000000000CA              16291609    000100010100000101000000000000NN  NNWL000                            
RDG01000001WATRL000000000K00000000000000309020904282008112358N000000000000UDP       000630700K 00000000010000000304           
CUS010000010013633                JIMMY CHAPPELL      199 PINEY WOODS ROAD                    000N     WS                     
MTR01000001001000000000000000CA              22686786    000100010110000101100000000000NN  NNWL000                            
RDG01000001WATRL000000000K00000000000036178021004282008112503N000000000000UDP       000650700K 00000000010000036155           
CUS010000010013634                LADONNA DAVIS       204 PINEY WOODS ROAD                    000N     WS                     
MTR01000001001000000000000000CA              99153098    000100010120000101200000000000NN  NNWL000                            
RDG01000001WATRL000000000K00000000000006381021104282008112539N000000000000UDP       000360700K 00000000010000006330           
CUS010000010013636                JOHN WILBURN        1637 BELVIDERE ROAD                     000N     WS                     
MTR01000001001000000000000000CA              B001163     000100010130000101300000000000NN  NNWL000                            
RDG01000001WATRL000000000K00000000000003607021204282008112848N000000000000UDP       001890700K 00000000010000003574           
CUS010000010013637                JUANITA CHAPPELL    1645 BELVIDERE ROAD                     000N     WS                     
MTR01000001001000000000000000CA              707896      000100010140000101400000000000NN  NNWL000                            
RDG01000001WATRL000000000K00000000000013322021304282008112903N000000000000UDP       000150700K 00000000010000013300           
CUS010000010013638                C.W. OVERTON, JR.   1651 BELVIDERE ROAD                     000N     WS                     
MTR01000001001000000000000000CA              D005405     000100010150000101500000000000NN  NNWL000                            
RDG01000001WATRL000000000K00000000000017119021404282008112947N000300000010UDP       000440700K 00000000010000017027           
CUS010000010013639                RONALD CHAULK       1691 BELVIDERE ROAD                     000N     WS                     
MTR01000001001000000000000000CA              11890935    000100010160000101600000000000NN  NNWL000                            
RDG01000001WATRL000000000K00000000000002400021504282008113046N000000000000UDP       000590700K 00000000010000002366           
CUS010000010013640                KENNETH CHAULK      1695 BELVIDERE ROAD                     000N     WS                     
MTR01000001001000000000000000CA              22686878    000100010170000101700000000000NN  NNWL000                            
RDG01000001WATRL000000000K00000000000007113021604282008113121N000000000000UDP       000350700K 00000000010000007073           
CUS010000010013935                DOUGLAS K. BYRD, JR.1701 BELVIDERE ROAD                     000N     WS                     
MTR01000001001000000000000000CA              95040440    000100010180000101800000000000NN  NNWL000                            
RDG01000001WATRL000000000K00000000000004164021804282008113235N000300000010UDP       000480700K 00000000010000004097           
CUS010000010013939                DOROTHY B. CHAPPELL 1694 BELVIDERE ROAD                     000N     WS                     
MTR01000001001000000000000000CA              88132377    000100010190000101900000000000NN  NNWL000                            
RDG01000001WATRL000000000K00000000000003899021704282008113147N000300000010UDP       000260700K 00000000010000003879           
CUS010000010013940                AMBROSE LAYDEN      1713 BELVIDERE ROAD                     000N     WS                     
MTR01000001001000000000000000CA              97221662    000100010200000102000000000000NN  NNWL000                            
RDG01000001WATRL000000000K00000000000005066021904282008113304N000000000000UDP       000290700K 00000000010000005034           
CUS010000010013941                FLOYD LAYDEN        1725 BELVIDERE ROAD                     000N     WS                     
MTR01000001001000000000000000CA              99898625    000100010210000102100000000000NN  NNWL000                            
RDG01000001WATRL000000000K00000000000004388022404282008113604N000000000000UDP       000760700K 00000000010000004343           
CUS010000010013943                WILLIAM CARTWRIGHT  108 PUZZLETOWN ROAD                     000N     WS                     
MTR01000001001000000000000000CA              D005382     000100010220000102200000000000NN  NNWL000                            
RDG01000001WATRL000000000K00000000000012672022004282008113347N000000000000UDP       000430700K 00000000010000012636           
CUS010000010015319                JAMES CARTWRIGHT    1733 BELVIDERE RD/ ?                    000N     WS                     
MTR01000001001000000000000000CA              16464570    000100010230000102300000000000NN  NNWL000                            
RDG01000001WATRL000000000K00000000000000000022104282008113349N000100000010UDP       000020700K 00000000010000000000           
CUS010000010013944                                                                            000N     WS                     
MTR01000001001000000000000000CA              90117223    000100010240000102400000000000NN  NNWL000                            
RDG01000001WATRL000000000K00000000000000000022204282008113351S005000000000UDP       000020700K 00000000010000000000           
CUS010000010013524                ASHLEY M. BROWN     1735 BELVIDERE ROAD                     000N     WS                     
MTR01000001001000000000000000CA              90117223    000100010250000102500000000000NN  NNWL000                            
RDG01000001WATRL000000000K00000000000006539022704282008113736N000000000000UDP       000360700K 00000000010000006506           
CUS010000010015320                WILLIAM CARTWRIGHT  129 PUZZLETOWN RD                       000N     WS                     
MTR01000001001000000000000000CA              12865891    000100010260000102600000000000NN  NNWL000                            
RDG01000001WATRL000000000K00000000000001975022604282008113700N000000000000UDP       000180700K 00000000010000001953           
CUS010000010013945                MYRTLE CARTWRIGHT   141 PUZZLETOWN ROAD                     000N     WS                     
MTR01000001001000000000000000CA              36373532    000100010270000102700000000000NN  NNWL000                            
RDG01000001WATRL000000000K00000000000003604022304282008113448N000000000000UDP       000570700K 00000000010000003598           
CUS010000010013946                JIMMY TURNER        1732 BELVIDERE ROAD                     000N     WS                     
MTR01000001001000000000000000CA              88031537    000100010280000102800000000000NN  NNWL000                            
RDG01000001WATRL000000000K00000000000008437022504282008113642N000000000000UDP       000380700K 00000000010000008411           
CUS010000010013947                LINDA CARTWRIGHT    1736 BELVIDERE ROAD                     000N     WS                     
MTR01000001001000000000000000CA              13415631    000100010290000102900000000000NN  NNWL000                            
RDG01000001WATRL000000000K00000000000001177022804282008113831N000000000000UDP       000550700K 00000000010000001166           
CUS010000010013948                KENNETH BANKS       1741 BELVIDERE ROAD                     000N     WS                     
MTR01000001001000000000000000CA              13754814    000100010300000103000000000000NN  NNWL000                            
RDG01000001WATRL000000000K00000000000003636022904282008113914N000000000000UDP       000430700K 00000000010000003577           
CUS010000010013949                B.A. SMITH          1743 BELVIDERE ROAD                     000N     WS                     
MTR01000001001000000000000000CA              10904068    000100010310000103100000000000NN  NNWL000                            
RDG01000001WATRL000000000K00000000000002842023004282008113939N000000000000UDP       000250700K 00000000010000002816           
CUS010000010013950                WILLIAM EARL WARD, J1744 BELVIDERE ROAD                     000N     WS                     
MTR01000001001000000000000000CA              16464302    000100010320000103200000000000NN  NNWL000                            
RDG01000001WATRL000000000K00000000000000809023104282008114002N000000000000UDP       000230700K 00000000010000000763           
CUS010000010013951                LAWRENCE LAYDEN     1753 BELVIDERE ROAD                     000N     WS                     
MTR01000001001000000000000000CA              22686726    000100010330000103300000000000NN  NNWL000                            
RDG01000001WATRL000000000K00000000000013851023204282008114044N000000000000UDP       000420700K 00000000010000013830           
CUS010000010013952                MARTY BUNCH         1752 BELVIDERE ROAD                     000N     WS                     
MTR01000001001000000000000000CA              32664239    000100010340000103400000000000NN  NNWL000                            
RDG01000001WATRL000000000K00000000000002008023304282008114124N000300000010UDP       000400700K 00000000010000001981           
CUS010000010013953                PATTI HITE          1760 BELVIDERE ROAD                     000N     WS                     
MTR01000001001000000000000000CA              22686854    000100010350000103500000000000NN  NNWL000                            
RDG01000001WATRL000000000K00000000000019447023404282008114153N000000000000UDP       000290700K 00000000010000019359           
CUS010000010013954                ROGER TURNER        1766 BELVIDERE ROAD                     000N     WS                     
MTR01000001001000000000000000CA              22686828    000100010360000103600000000000NN  NNWL000                            
RDG01000001WATRL000000000K00000000000009992023504282008114226N000000000000UDP       000330700K 00000000010000009970           
CUS010000010013955                RUDY TURNER         1772 BELVIDERE ROAD                     000N     WS                     
MTR01000001001000000000000000CA              23117397    000100010370000103700000000000NN  NNWL000                            
RDG01000001WATRL000000000K00000000000006155023604282008114307N000000000000UDP       000410700K 00000000010000006150           
CUS010000010013526                LANCE WARD          1773 BELVIDERE ROAD                     000N     WS                     
MTR01000001001000000000000000CA              22686753    000100010380000103800000000000NN  NNWL000                            
RDG01000001WATRL000000000K00000000000010001023704282008114338N000000000000UDP       000310700K 00000000010000009998           
CUS010000010013956                                    1778 BELVIDERE ROAD                     000N     WS                     
MTR01000001001000000000000000CA              89022008    000100010390000103900000000000NN  NNWL000                            
RDG01000001WATRL000000000K00000000000000000023804282008114340S005000000000UDP       000020700K 00000000010000000000           
CUS010000010013959                JOHN CHAPPELL       1797 BELVIDERE ROAD                     000N     WS                     
MTR01000001001000000000000000CA              16464265    000100010400000104000000000000NN  NNWL000                            
RDG01000001WATRL000000000K00000000000000231024004282008114446N000000000000UDP       000290700K 00000000010000000213           
CUS010000010013529                WILLIE WADE CHAPPELL1788 BELVIDERE ROAD                     000N     WS                     
MTR01000001001000000000000000CA              93011291    000100010410000104100000000000NN  NNWL000                            
RDG01000001WATRL000000000K00000000000003860023904282008114417N000000000000UDP       000370700K 00000000010000003850           
CUS010000010013961                WILMER 'RED' CHAPPEL1803 BELVIDERE ROAD                     000N     WS                     
MTR01000001001000000000000000CA              95718896    000100010420000104200000000000NN  NNWL000                            
RDG01000001WATRL000000000K00000000000008600024104282008114516N000000000000UDP       000300700K 00000000010000008564           
CUS010000010013972                TRACY STOKELY       1816 BELVIDERE ROAD                     000N     WS                     
MTR01000001001000000000000000CA              96544709    000100010430000104300000000000NN  NNWL000                            
RDG01000001WATRL000000000K00000000000004217024204282008114636N000300000010UDP       000800700K 00000000010000004150           
CUS010000010013976                PHILLIP WINSLOW     1823 BELVIDERE ROAD                     000N     WS                     
MTR01000001001000000000000000CA              37107440    000100010440000104400000000000NN  NNWL000                            
RDG01000001WATRL000000000K00000000000009852024304282008114721N000300000010UDP       000450700K 00000000010000009819           
CUS010000010013982                GARLAND JENNINGS    1824 BELVIDERE ROAD                     000N     WS                     
MTR01000001001000000000000000CA              22686818    000100010450000104500000000000NN  NNWL000                            
RDG01000001WATRL000000000K00000000000017913024404282008114740N000000000000UDP       000190700K 00000000010000017880           
CUS010000010013983                CHARLES E. WHARTON, 1865 BELVIDERE ROAD                     000N     WS                     
MTR01000001001000000000000000CA              23117398    000100010460000104600000000000NN  NNWL000                            
RDG01000001WATRL000000000K00000000000016868024504282008114840N000000000000UDP       000600700K 00000000010000016867           
CUS010000010013984                ALAN CHAPPELL       1872 BELVIDERE ROAD                     000N     WS                     
MTR01000001001000000000000000CA              91002968    000100010470000104700000000000NN  NNWL000                            
RDG01000001WATRL000000000K00000000000021422024604282008114924N000000000000UDP       000440700K 00000000010000021370           
CUS010000010013985                HELEN PRIVOTT       1887 BELVIDERE ROAD                     000N     WS                     
MTR01000001001000000000000000CA              33055144    000100010480000104800000000000NN  NNWL000                            
RDG01000001WATRL000000000K00000000000000725024804282008115057N000000000000UDP       000500700K 00000000010000000695           
CUS010000010013986                NOAH ADAMS, JR.     1900 BELVIDERE ROAD                     000N     WS                     
MTR01000001001000000000000000CA              E003911     000100010490000104900000000000NN  NNWL000                            
RDG01000001WATRL000000000K00000000000008545024904282008115135N000000000000UDP       000380700K 00000000010000008520           
CUS010000010015843                WENDY LEVESQUE      1878 BELVIDERE ROAD                     000N     WS                     
MTR01000001001000000000000000CA              97625535    000100010500000105000000000000NN  NNWL000                            
RDG01000001WATRL000000000K00000000000002363024704282008115007N000000000000UDP       000430700K 00000000010000002362           
CUS010000010013987                BILLY NOELL         1914 BELVIDERE ROAD                     000N     WS                     
MTR01000001001000000000000000CA              E003909     000100010510000105100000000000NN  NNWL000                            
RDG01000001WATRL000000000K00000000000019917025004282008115225N000000000000UDP       000500700K 00000000010000019882           
CUS010000010013988                WILLIAM CHAPPELL    1939 BELVIDERE ROAD                     000N     WS                     
MTR01000001001000000000000000CA              92125306    000100010520000105200000000000NN  NNWL000                            
RDG01000001WATRL000000000K00000000000009551025104282008115312N000000000000UDP       000470700K 00000000010000009524           
CUS010000010013989                EDWARD CHAPPELL     1950 BELVIDERE ROAD                     000N     WS                     
MTR01000001001000000000000000CA              13435943    000100010530000105300000000000NN  NNWL000                            
RDG01000001WATRL000000000K00000000000005971025204282008115358N000000000000UDP       000460700K 00000000010000005880           
CUS010000010015321                JEFFREY CHAPPELL    1804 BELVIDERE RD                       000N     WS                     
MTR01000001001000000000000000CA              91002969    000100010540000105400000000000NN  NNWL000                            
RDG01000001WATRL000000000K00000000000007218025304282008115403N000000000000UDP       000050700K 00000000010000007194           
CUS010000010013531                EDWARD CHAPPELL, JR.1966 BELVIDERE ROAD                     000N     WS                     
MTR01000001001000000000000000CA              89022238    000100010550000105500000000000NN  NNWL000                            
RDG01000001WATRL000000000K00000000000005494025404282008115407N000100000010UDP       000040700K 00000000010000005494           
CUS010000010015793                CHARLES PARRISH, JR.1976 BELVIDERE ROAD                     000N     WS                     
MTR01000001001000000000000000CA              88117639    000100010560000105600000000000NN  NNWL000                            
