FHDNY01.00   01YYN                                                                                                            
CHD01000104292008                                                                                                             
RHD01000002NN0000035200000352000000000352035200000000000352000000000000          0000                                         
CUS0100000200137                  LAYDEN'S SUPERMARKET1478 BELVIDERE ROAD                                            N    WS  
MTR01000002001000000000000000CA              91079848    000100 14080                    00000 00000NWL000                    
RDG01000002WATRYL000000 000700K0000020439000000011700000000010000000000001000100000000000000001                               
CUS0100000200138                  RUTH LAYDEN         146 PERRYS BRIDGE RO                                           N    WS  
MTR01000002001000000000000000CA              87120334    000100 14090                    00000 00000NWL000                    
RDG01000002WATRYL000000 000700K0000004382000000000400000000010000000000001000100000000000000001                               
CUS0100000200139                  CARL YOW            149 PERRYS BRIDGE RO                                           N    WS  
MTR01000002001000000000000000CA              17337250    000100 14100                    00000 00000NWL000                    
RDG01000002WATRYL000000 000700K0000000165000000002200000000010000000000001000100000000000000001                               
CUS0100000200140                  DIANNE M. LAYDEN    177 PERRYS BRIDGE RO                                           N    WS  
MTR01000002001000000000000000CA              97528535    000100 14110                    00000 00000NWL000                    
RDG01000002WATRYL000000 000700K0000003435000000001500000000010000000000001000100000000000000001                               
CUS0100000200141                  ALLEN PERRY         215 PERRYS BRIDGE RO                                           N    WS  
MTR01000002001000000000000000CA              98722806    000100 14120                    00000 00000NWL000                    
RDG01000002WATRYL000000 000700K0000005075000000002400000000010000000000001000100000000000000001                               
CUS0100000200142                  DOUGLAS LAYDEN      105 BAY BRANCH ROAD                                            N    WS  
MTR01000002001000000000000000CA              22684997    000100 14130                    00000 00000NWL000                    
RDG01000002WATRYL000000 000700K0000031273000000007300000000010000000000001000100000000000000001                               
CUS0100000200143                  DANIEL & BRANDY LAVO131 BAY BRANCH ROAD                                            N    WS  
MTR01000002001000000000000000CA              14442221    000100 14140                    00000 00000NWL000                    
RDG01000002WATRYL000000 000700K0000004088000000004200000000010000000000001000100000000000000001                               
CUS0100000200144                  SHEILA RUSSELL      140 BAY BRANCH ROAD                                            N    WS  
MTR01000002001000000000000000CA              22684021    000100 14150                    00000 00000NWL000                    
RDG01000002WATRYL000000 000700K0000016348000000005100000000010000000000001000100000000000000001                               
CUS010000020013562                GEORGE C. MAINZER   146 BAY BRANCH ROAD                                            N    WS  
MTR01000002001000000000000000CA              22684399    000100 14160                    00000 00000NWL000                    
RDG01000002WATRYL000000 000700K0000008573000000000600000000010000000000001000100000000000000001                               
CUS010000020013564                JAMES A. MILLER, JR.172 BAY BRANCH ROAD                                            N    WS  
MTR01000002001000000000000000CA              12865871    000100 14170                    00000 00000NWL000                    
RDG01000002WATRYL000000 000700K0000002081000000002700000000010000000000001000100000000000000001                               
CUS010000020013565                WILLIAM E HURDLE    276 BAY BRANCH ROAD                                            N    WS  
MTR01000002001000000000000000CA              90069472    000100 14180                    00000 00000NWL000                    
RDG01000002WATRYL000000 000700K0000004654000000003000000000010000000000001000100000000000000001                               
CUS0100000200146                  GLENN EASTER        283 BAY BRANCH ROAD                                            N    WS  
MTR01000002001000000000000000CA              91079941    000100 14190                    00000 00000NWL000                    
RDG01000002WATRYL000000 000700K0000004706000000002700000000010000000000001000100000000000000001                               
CUS0100000200147                  REOLIA RIDDICK      270 BAY BRANCH ROAD                                            N    WS  
MTR01000002001000000000000000CA              98722809    000100 14200                    00000 00000NWL000                    
RDG01000002WATRYL000000 000700K0000001914000000002400000000010000000000001000100000000000000001                               
CUS0100000200148                  ALMA WOODARD        288 BAY BRANCH ROAD                                            N    WS  
MTR01000002001000000000000000CA              94418353    000100 14210                    00000 00000NWL000                    
RDG01000002WATRYL000000 000700K0000008396000000004900000000010000000000001000100000000000000001                               
CUS0100000200149                  BRENDA WALTON       297 BAY BRANCH ROAD                                            N    WS  
MTR01000002001000000000000000CA              95054114    000100 14220                    00000 00000NWL000                    
RDG01000002WATRYL000000 000700K0000004863000000004200000000010000000000001000100000000000000001                               
CUS0100000200150                  RODNEY AND DAWN SMIT311 BAY BRANCH ROAD                                            N    WS  
MTR01000002001000000000000000CA              12795117    000100 14230                    00000 00000NWL000                    
RDG01000002WATRYL000000 000700K0000004079000000006100000000010000000000001000100000000000000001                               
CUS0100000200151                  BAY BRANCH CHURCH   308 BAY BRANCH ROAD                                            N    WS  
MTR01000002001000000000000000CA              14282829    000100 14240                    00000 00000NWL000                    
RDG01000002WATRYL000000 000700K0000001225000000003900000000010000000000001000100000000000000001                               
CUS0100000200153                  REBA HURDLE         315 BAY BRANCH ROAD                                            N    WS  
MTR01000002001000000000000000CA              10871924    000100 14250                    00000 00000NWL000                    
RDG01000002WATRYL000000 000700K0000002287000000000600000000010000000000001000100000000000000001                               
CUS0100000200154                  HOWARD LIGHTFOOT    318 BAY BRANCH ROAD                                            N    WS  
MTR01000002001000000000000000CA              22685064    000100 14260                    00000 00000NWL000                    
RDG01000002WATRYL000000 000700K0000011048000000000400000000010000000000001000100000000000000001                               
CUS0100000200155                  ADLAY HURDLE        315 BAY BRANCH ROAD                                            N    WS  
MTR01000002001000000000000000CA              10881881    000100 14270                    00000 00000NWL000                    
RDG01000002WATRYL000000 000700K0000001078000000001200000000010000000000001000100000000000000001                               
CUS010000020013566                FRANCIS OVERTON     322 BAY BRANCH ROAD                                            N    WS  
MTR01000002001000000000000000CA              86050167    000100 14280                    00000 00000NWL000                    
RDG01000002WATRYL000000 000700K0000008983000000005500000000010000000000001000100000000000000001                               
CUS0100000200156                  HARVEY WINSLOW      327 BAY BRANCH ROAD                                            N    WS  
MTR01000002001000000000000000CA              87050635    000100 14290                    00000 00000NWL000                    
RDG01000002WATRYL000000 000700K0000000000000000069700000000010000000000001000100000000000000001                               
CUS0100000200157                  BRADFORD FRIERSON   331 BAY BRANCH ROAD                                            N    WS  
MTR01000002001000000000000000CA              95718903    000100 14300                    00000 00000NWL000                    
RDG01000002WATRYL000000 000700K0000007248000000005800000000010000000000001000100000000000000001                               
CUS0100000200158                  JOHNNIE FRIERSON    330 BAY BRANCH ROAD                                            N    WS  
MTR01000002001000000000000000CA              22684398    000100 14310                    00000 00000NWL000                    
RDG01000002WATRYL000000 000700K0000011853000000000600000000010000000000001000100000000000000001                               
CUS0100000200159                  ANITA MERCER        339 BAY BRANCH ROAD                                            N    WS  
MTR01000002001000000000000000CA              22685381    000100 14320                    00000 00000NWL000                    
RDG01000002WATRYL000000 000700K0000005061000000002800000000010000000000001000100000000000000001                               
CUS0100000200160                                      343 BAY BRANCH ROAD                                            N    WS  
MTR01000002001000000000000000CA              22685177    000100 14330                    00000 00000NWL000                    
RDG01000002WATRYL000000 000700K0000000000000000000100000000010000000000001000100000000000000001                               
CUS0100000200161                  MURRAY PARKER       348 BAY BRANCH ROAD                                            N    WS  
MTR01000002001000000000000000CA              22685637    000100 14340                    00000 00000NWL000                    
RDG01000002WATRYL000000 000700K0000018128000000003100000000010000000000001000100000000000000001                               
CUS0100000200162                  WILLIE PARKER       350 BAY BRANCH ROAD                                            N    WS  
MTR01000002001000000000000000CA              22684234    000100 14350                    00000 00000NWL000                    
RDG01000002WATRYL000000 000700K0000013627000000005200000000010000000000001000100000000000000001                               
CUS0100000200163                  THERESA WELCH       369 BAY BRANCH ROAD                                            N    WS  
MTR01000002001000000000000000CA              22684092    000100 14360                    00000 00000NWL000                    
RDG01000002WATRYL000000 000700K0000014105000000005800000000010000000000001000100000000000000001                               
CUS0100000200164                  LEAMOND CARVER, JR. 122 LOUIS SPIVEY ROA                                           N    WS  
MTR01000002001000000000000000CA              10760176    000100 14370                    00000 00000NWL000                    
RDG01000002WATRYL000000 000700K0000002189000000002500000000010000000000001000100000000000000001                               
CUS0100000200165                  LILLIA SESSOMS      125 LOUIS SPIVEY ROA                                           N    WS  
MTR01000002001000000000000000CA              93031624    000100 14380                    00000 00000NWL000                    
RDG01000002WATRYL000000 000700K0000010001000000006300000000010000000000001000100000000000000001                               
CUS0100000200166                  MAURICE BRINKLEY    131 LOUIS SPIVEY ROA                                           N    WS  
MTR01000002001000000000000000CA              95054115    000100 14390                    00000 00000NWL000                    
RDG01000002WATRYL000000 000700K0000005096000000003700000000010000000000001000100000000000000001                               
CUS0100000200167                  VIRGIE WHITEHURST   144 LOUIS SPIVEY ROA                                           N    WS  
MTR01000002001000000000000000CA              23734750    000100 14400                    00000 00000NWL000                    
RDG01000002WATRYL000000 000700K0000001399000000002200000000010000000000001000100000000000000001                               
CUS0100000200168                  WILLIAM E. WHITE    145 LOUIS SPIVEY ROA                                           N    WS  
MTR01000002001000000000000000CA              10881896    000100 14410                    00000 00000NWL000                    
RDG01000002WATRYL000000 000700K0000002742000000005400000000010000000000001000100000000000000001                               
CUS0100000200169                  L. VICTOR SPIVEY    199 LOUIS SPIVEY ROA                                           N    WS  
MTR01000002001000000000000000CA              95054265    000100 14420                    00000 00000NWL000                    
RDG01000002WATRYL000000 000700K0000003085000000001200000000010000000000001000100000000000000001                               
CUS0100000200170                  IDA JORDAN          215 LOUIS SPIVEY ROA                                           N    WS  
MTR01000002001000000000000000CA              23734753    000100 14430                    00000 00000NWL000                    
RDG01000002WATRYL000000 000700K0000012234000000002700000000010000000000001000100000000000000001                               
CUS0100000200171                  TAVONDA JORDON      219 LOUIS SPIVEY ROA                                           N    WS  
MTR01000002001000000000000000CA              91102569    000100 14440                    00000 00000NWL000                    
RDG01000002WATRYL000000 000700K0000010906000000004600000000010000000000001000100000000000000001                               
CUS0100000200172                  RONNIE BROTHERS     280 LOUIS SPIVEY ROA                                           N    WS  
MTR01000002001000000000000000CA              G063059     000100 14450                    00000 00000NWL000                    
RDG01000002WATRYL000000 000700K0000002832000000000600000000010000000000001000100000000000000001                               
CUS0100000200173                  MARY BILLUPS        290 LOUIS SPIVEY ROA                                           N    WS  
MTR01000002001000000000000000CA              23734751    000100 14460                    00000 00000NWL000                    
RDG01000002WATRYL000000 000700K0000010012000000001500000000010000000000001000100000000000000001                               
CUS010000020013814                EDUARDO SCHICK      300 PERRY'S BRIDGE R                                           N    WS  
MTR01000002001000000000000000CA              94093631    000100 14470                    00000 00000NWL000                    
RDG01000002WATRYL000000 000700K0000003048000000001900000000010000000000001000100000000000000001                               
CUS0100000200174                  WHITEVILLE CHURCH   373 PERRYS BRIDGE RO                                           N    WS  
MTR01000002001000000000000000CA              90184173    000100 14480                    00000 00000NWL000                    
RDG01000002WATRYL000000 000700K0000000783000000001800000000010000000000001000100000000000000001                               
CUS0100000200175                  RODNEY WHITE        831 SANDY CROSS ROAD                                           N    WS  
MTR01000002001000000000000000CA              22684177    000100 14490                    00000 00000NWL000                    
RDG01000002WATRYL000000 000700K0000008557000000003000000000010000000000001000100000000000000001                               
CUS0100000200176                  COREY JONES         454 PERRYS BRIDGE RO                                           N    WS  
MTR01000002001000000000000000CA              11844616    000100 14500                    00000 00000NWL000                    
RDG01000002WATRYL000000 000700K0000003717000000005400000000010000000000001000100000000000000001                               
CUS010000020013817                EDWARD J. GILBERT   479 PERRYS BRIDGE RO                                           N    WS  
MTR01000002001000000000000000CA              89126101    000100 14510                    00000 00000NWL000                    
RDG01000002WATRYL000000 000700K0000020712000000006300000000010000000000001000100000000000000001                               
CUS010000020013819                HENRY C. STOKES, III499 PERRYS BRIDGE RO                                           N    WS  
MTR01000002001000000000000000CA              34846267    000100 14520                    00000 00000NWL000                    
RDG01000002WATRYL000000 000700K0000004817000000002500000000010000000000001000100000000000000001                               
CUS0100000200177                  WYATT HUNTER        502 PERRYS BRIDGE RO                                           N    WS  
MTR01000002001000000000000000CA              35442953    000100 14530                    00000 00000NWL000                    
RDG01000002WATRYL000000 000700K0000009668000000002700000000010000000000001000100000000000000001                               
CUS0100000200178                  WILBUR R. BERRY     544 PERRYS BRIDGE RO                                           N    WS  
MTR01000002001000000000000000CA              12865683    000100 14540                    00000 00000NWL000                    
RDG01000002WATRYL000000 000700K0000002845000000006900000000010000000000001000100000000000000001                               
CUS010000020015675                WADE WEATHERLY      548 PERRY BRIDGE ROA                                           N    WS  
MTR01000002001000000000000000CA              14362174    000100 14550                    00000 00000NWL000                    
RDG01000002WATRYL000000 000700K0000000253000000002400000000010000000000001000100000000000000001                               
CUS0100000200179                  PHYLLIS GORDON      554 PERRYS BRIDGE RO                                           N    WS  
MTR01000002001000000000000000CA              12726467    000100 14560                    00000 00000NWL000                    
RDG01000002WATRYL000000 000700K0000002350000000003000000000010000000000001000100000000000000001                               
CUS0100000200180                  ELMER S. VANANDEN   580 PERRYS BRIDGE RO                                           N    WS  
MTR01000002001000000000000000CA              12766391    000100 14570                    00000 00000NWL000                    
RDG01000002WATRYL000000 000700K0000003163000000003600000000010000000000001000100000000000000001                               
CUS0100000200181                  NELSON JORDAN, JR.  602 PERRYS BRIDGE RO                                           N    WS  
MTR01000002001000000000000000CA              11870869    000100 14580                    00000 00000NWL000                    
RDG01000002WATRYL000000 000700K0000002100000000002700000000010000000000001000100000000000000001                               
CUS0100000200182                  RIDDICK GROVE BAPTIS222 RIDDICK GROVE RO                                           N    WS  
MTR01000002001000000000000000CA              93029421    000100 14590                    00000 00000NWL000                    
RDG01000002WATRYL000000 000700K0000005209000000003900000000010000000000001000100000000000000001                               
CUS010000020013826                BOWEN CO., INC.     761 PERRYS BRIDGE RO                                           N    WS  
MTR01000002001000000000000000CA              93030848    000100 14600                    00000 00000NWL000                    
RDG01000002WATRYL000000 000700K0000000716000000000300000000010000000000001000100000000000000001                               
CUS0100000200183                  CLARENCE RIDDICK    786 PERRYS BRIDGE RO                                           N    WS  
MTR01000002001000000000000000CA              88117718    000100 14610                    00000 00000NWL000                    
RDG01000002WATRYL000000 000700K0000002721000000001800000000010000000000001000100000000000000001                               
CUS010000020013569                PATRICK RAWLINS     795 PERRY'S BRIDGE R                                           N    WS  
MTR01000002001000000000000000CA              99786090    000100 14620                    00000 00000NWL000                    
RDG01000002WATRYL000000 000700K0000004630000000003700000000010000000000001000100000000000000001                               
CUS0100000200184                  TONYA COLLIER       792 PERRYS BRIDGE RO                                           N    WS  
MTR01000002001000000000000000CA              22684376    000100 14630                    00000 00000NWL000                    
RDG01000002WATRYL000000 000700K0000016901000000008700000000010000000000001000100000000000000001                               
CUS0100000200185                  WINSLOW GROVE AME ZI855 PERRYS BRIDGE RO                                           N    WS  
MTR01000002001000000000000000CA              96735397    000100 14640                    00000 00000NWL000                    
RDG01000002WATRYL000000 000700K0000001872000000000900000000010000000000001000100000000000000001                               
CUS010000020013834                WINSLOW BROTHERS    904 PERRYS BRIDGE RO                                           N    WS  
MTR01000002001000000000000000CA              42222114    000100 14650                    00000 00000NWL000                    
RDG01000002WATRYL000000 000700K0000025295000000067500000000010000000000001000100000000000000001                               
CUS010000020015599                SAM BAKER           721 HICKORY CROSS RO                                           N    WS  
MTR01000002001000000000000000CA              10871923    000100 14660                    00000 00000NWL000                    
RDG01000002WATRYL000000 000700K0000000677000000004300000000010000000000001000100000000000000001                               
CUS0100000200186                  JAMES A. WINSLOW    724 HICKORY CROSS RO                                           N    WS  
MTR01000002001000000000000000CA              17337259    000100 14670                    00000 00000NWL000                    
RDG01000002WATRYL000000 000700K0000000318000000003600000000010000000000001000100000000000000001                               
CUS0100000200187                  ASHLEY WILLIAMS     757 HICKORY CROSS RO                                           N    WS  
MTR01000002001000000000000000CA              13435640    000100 14680                    00000 00000NWL000                    
RDG01000002WATRYL000000 000700K0000003417000000009400000000010000000000001000100000000000000001                               
CUS0100000200188                  SCOTTIE WINSLOW     786 HICKORY CROSS RO                                           N    WS  
MTR01000002001000000000000000CA              85059474    000100 14690                    00000 00000NWL000                    
RDG01000002WATRYL000000 000700K0000022162000000005100000000010000000000001000100000000000000001                               
CUS0100000200189                  WINSLOW BROTHERS    904 HICKORY CROSS RO                                           N    WS  
MTR01000002001000000000000000CA              22686717    000100 14700                    00000 00000NWL000                    
RDG01000002WATRYL000000 000700K0000015695000000010800000000010000000000001000100000000000000001                               
CUS0100000200190                  WILLIAM WINSLOW     822 HICKORY CROSS RO                                           N    WS  
MTR01000002001000000000000000CA              22686739    000100 14710                    00000 00000NWL000                    
RDG01000002WATRYL000000 000700K0000019483000000004200000000010000000000001000100000000000000001                               
CUS010000020013835                J. L. WINSLOW & SONS856 HICKORY CROSS RO                                           N    WS  
MTR01000002001000000000000000CA              C020004     000100 14720                    00000 00000NWL000                    
RDG01000002WATRYL000000 000700K0000086764000000000300000000010000000000001000100000000000000001                               
CUS0100000200191                  KENNETH WINSLOW     866 HICKORY CROSS RO                                           N    WS  
MTR01000002001000000000000000CA              22686833    000100 14730                    00000 00000NWL000                    
RDG01000002WATRYL000000 000700K0000023384000000003400000000010000000000001000100000000000000001                               
CUS0100000200192                  BERNIE WINSLOW      858 HICKORY CROSS RO                                           N    WS  
MTR01000002001000000000000000CA              92028144    000100 14740                    00000 00000NWL000                    
RDG01000002WATRYL000000 000700K0000006369000000005200000000010000000000001000100000000000000001                               
CUS0100000200193                  JARVIS WINSLOW, JR. 904 HICKORY CROSS RO                                           N    WS  
MTR01000002001000000000000000CA              91079672    000100 14750                    00000 00000NWL000                    
RDG01000002WATRYL000000 000700K0000020165000000008200000000010000000000001000100000000000000001                               
CUS010000020013836                EMBARQ              915 HICKORY CROSS RO                                           N    WS  
MTR01000002001000000000000000CA              96630740    000100 14760                    00000 00000NWL000                    
RDG01000002WATRYL000000 000700K0000001034000000003000000000010000000000001000100000000000000001                               
CUS010000020013837                VAN HARRIS          654 HICKORY CROSS RO                                           N    WS  
MTR01000002001000000000000000CA              90144423    000100 14770                    00000 00000NWL000                    
RDG01000002WATRYL000000 000700K0000011323000000003600000000010000000000001000100000000000000001                               
CUS010000020013838                VAN HARRIS          972 PERRYS BRIDGE RO                                           N    WS  
MTR01000002001000000000000000CA              1265169     000100 14780                    00000 00000NWL000                    
RDG01000002WATRYL000000 000700K0000270666000000121600000000010000000000001000100000000000000001                               
CUS010000020015241                PAUL TRUEBLOOD      983 PERRYS BRIDGE RO                                           N    WS  
MTR01000002001000000000000000CA              14420834    000100 14790                    00000 00000NWL000                    
RDG01000002WATRYL000000 000700K0000001663000000006300000000010000000000001000100000000000000001                               
CUS0100000200194                  ROBERT BENTON       636 HICKORY CROSS RO                                           N    WS  
MTR01000002001000000000000000CA              15651130    000100 14800                    00000 00000NWL000                    
RDG01000002WATRYL000000 000700K0000001002000000004000000000010000000000001000100000000000000001                               
CUS0100000200195                  MARK TWINE          594 HICKORY CROSS RO                                           N    WS  
MTR01000002001000000000000000CA              87100070    000100 14810                    00000 00000NWL000                    
RDG01000002WATRYL000000 000700K0000007545000000002800000000010000000000001000100000000000000001                               
CUS0100000200196                  GLEN TWINE          571 HICKORY CROSS RO                                           N    WS  
MTR01000002001000000000000000CA              16437948    000100 14820                    00000 00000NWL000                    
RDG01000002WATRYL000000 000700K0000000803000000005500000000010000000000001000100000000000000001                               
CUS0100000200198                  ROUNTREE STALLINGS  1023 PERRYS BRIDGE R                                           N    WS  
MTR01000002001000000000000000CA              14257929    000100 14830                    00000 00000NWL000                    
RDG01000002WATRYL000000 000700K0000002108000000007900000000010000000000001000100000000000000001                               
CUS0100000200199                  JAMES TWINE         1024 PERRYS BRIDGE R                                           N    WS  
MTR01000002001000000000000000CA              22686743    000100 14840                    00000 00000NWL000                    
RDG01000002WATRYL000000 000700K0000013619000000001600000000010000000000001000100000000000000001                               
CUS01000002001100                 JIMMY TWINE         1038 PERRYS BRIDGE R                                           N    WS  
MTR01000002001000000000000000CA              17470315    000100 14850                    00000 00000NWL000                    
RDG01000002WATRYL000000 000700K0000000121000000002700000000010000000000001000100000000000000001                               
CUS01000002001101                 CRAIG HORTON        1056 PERRYS BRIDGE R                                           N    WS  
MTR01000002001000000000000000CA              22686845    000100 14860                    00000 00000NWL000                    
RDG01000002WATRYL000000 000700K0000015259000000005100000000010000000000001000100000000000000001                               
CUS01000002001102                 DANIEL L. WEISS     1078 PERRYS BRIDGE R                                           N    WS  
MTR01000002001000000000000000CA              13435437    000100 14870                    00000 00000NWL000                    
RDG01000002WATRYL000000 000700K0000001255000000002800000000010000000000001000100000000000000001                               
CUS01000002001103                 DONALD SANDERS      1083 PERRYS BRIDGE R                                           N    WS  
MTR01000002001000000000000000CA              89090973    000100 14880                    00000 00000NWL000                    
RDG01000002WATRYL000000 000700K0000015572000000006400000000010000000000001000100000000000000001                               
CUS01000002001104                 DIANNE OWENS        131 WHITEHOUSE ROAD                                            N    WS  
MTR01000002001000000000000000CA              95054261    000100 14890                    00000 00000NWL000                    
RDG01000002WATRYL000000 000700K0000005264000000001800000000010000000000001000100000000000000001                               
CUS01000002001105                 JANICE PEEDE        186 WHITEHOUSE ROAD                                            N    WS  
MTR01000002001000000000000000CA              22686834    000100 14900                    00000 00000NWL000                    
RDG01000002WATRYL000000 000700K0000010668000000004000000000010000000000001000100000000000000001                               
CUS010000020013840                MAYWOOD STALLINGS   194 WHITEHOUSE ROAD                                            N    WS  
MTR01000002001000000000000000CA              22686841    000100 14910                    00000 00000NWL000                    
RDG01000002WATRYL000000 000700K0000011466000000002100000000010000000000001000100000000000000001                               
CUS010000020013841                GARLAND STALLINGS   205 WHITEHOUSE ROAD                                            N    WS  
MTR01000002001000000000000000CA              36373504    000100 14920                    00000 00000NWL000                    
RDG01000002WATRYL000000 000700K0000007625000000000600000000010000000000001000100000000000000001                               
CUS01000002001106                                     1131 PERRYS BRIDGE R                                           N    WS  
MTR01000002001000000000000000CA              94085721    000100 14930                    00000 00000NWL000                    
RDG01000002WATRYL000000 000700K0000000000000000000100000000010000000000001000100000000000000001                               
CUS01000002001107                 ALONZIA HINTON      1147 PERRYS BRIDGE R                                           N    WS  
MTR01000002001000000000000000CA              12865682    000100 14940                    00000 00000NWL000                    
RDG01000002WATRYL000000 000700K0000001593000000003900000000010000000000001000100000000000000001                               
CUS01000002001108                 KENNETH STALLINGS   1090 PERRYS BRIDGE R                                           N    WS  
MTR01000002001000000000000000CA              96247104    000100 14950                    00000 00000NWL000                    
RDG01000002WATRYL000000 000700K0000011192000000008400000000010000000000001000100000000000000001                               
CUS01000002001110                 BERNICE JAMES       1192 PERRYS BRIDGE R                                           N    WS  
MTR01000002001000000000000000CA              98845985    000100 14960                    00000 00000NWL000                    
RDG01000002WATRYL000000 000700K0000001025000000003400000000010000000000001000100000000000000001                               
CUS01000002001121                 DOROTHY WELCH       1198 PERRYS BRIDGE R                                           N    WS  
MTR01000002001000000000000000CA              10904146    000100 14970                    00000 00000NWL000                    
RDG01000002WATRYL000000 000700K0000000686000000000100000000010000000000001000100000000000000001                               
CUS01000002001123                 CAMILLA LILLEY      1202 PERRYS BRIDGE R                                           N    WS  
MTR01000002001000000000000000CA              22685031    000100 14980                    00000 00000NWL000                    
RDG01000002WATRYL000000 000700K0000003054000000000300000000010000000000001000100000000000000001                               
CUS01000002001125                 HERMAN AUSTIN       1224 PERRYS BRIDGE R                                           N    WS  
MTR01000002001000000000000000CA              C010886     000100 14990                    00000 00000NWL000                    
RDG01000002WATRYL000000 000700K0000012394000000000300000000010000000000001000100000000000000001                               
CUS01000002001126                 BENNIE RIDDICK      1262 PERRYS BRIDGE R                                           N    WS  
MTR01000002001000000000000000CA              90184176    000100 15000                    00000 00000NWL000                    
RDG01000002WATRYL000000 000700K0000002433000000000900000000010000000000001000100000000000000001                               
CUS01000002001127                 BERNICE JAMES       1266 PERRYS BRIDGE R                                           N    WS  
MTR01000002001000000000000000CA              32865297    000100 15010                    00000 00000NWL000                    
RDG01000002WATRYL000000 000700K0000001203000000000300000000010000000000001000100000000000000001                               
CUS01000002001129                 HOWARD RANKINS      1291 PERRYS BRIDGE R                                           N    WS  
MTR01000002001000000000000000CA              34355789    000100 15020                    00000 00000NWL000                    
RDG01000002WATRYL000000 000700K0000001597000000002200000000010000000000001000100000000000000001                               
CUS010000020013572                CHARLIE BURRUS, JR. 1297 PERRY'S BRIDGE                                            N    WS  
MTR01000002001000000000000000CA              22684174    000100 15030                    00000 00000NWL000                    
RDG01000002WATRYL000000 000700K0000011296000000001200000000010000000000001000100000000000000001                               
CUS010000020013573                LEON PACE           1333 PERRY'S BRIDGE                                            N    WS  
MTR01000002001000000000000000CA              85027154    000100 15040                    00000 00000NWL000                    
RDG01000002WATRYL000000 000700K0000019479000000002500000000010000000000001000100000000000000001                               
CUS01000002001130                 MARY GOODMAN        1338 PERRYS BRIDGE R                                           N    WS  
MTR01000002001000000000000000CA              89154554    000100 15050                    00000 00000NWL000                    
RDG01000002WATRYL000000 000700K0000005242000000000700000000010000000000001000100000000000000001                               
CUS01000002001131                 GUY SALVATORE       1358 PERRYS BRIDGE R                                           N    WS  
MTR01000002001000000000000000CA              C017253     000100 15060                    00000 00000NWL000                    
RDG01000002WATRYL000000 000700K0000012953000000005200000000010000000000001000100000000000000001                               
CUS01000002001133                 ELIZABETH R. HURDLE 1369 PERRYS BRIDGE R                                           N    WS  
MTR01000002001000000000000000CA              22686806    000100 15070                    00000 00000NWL000                    
RDG01000002WATRYL000000 000700K0000010346000000001600000000010000000000001000100000000000000001                               
CUS01000002001139                 VERNON CASPER       1375 PERRYS BRIDGE R                                           N    WS  
MTR01000002001000000000000000CA              90168211    000100 15080                    00000 00000NWL000                    
RDG01000002WATRYL000000 000700K0000003834000000001600000000010000000000001000100000000000000001                               
CUS010000020013574                JOSEPH D. O'BANION  1382 PERRYS BRIDGE R                                           N    WS  
MTR01000002001000000000000000CA              15384255    000100 15090                    00000 00000NWL000                    
RDG01000002WATRYL000000 000700K0000000838000000003100000000010000000000001000100000000000000001                               
CUS01000002001140                 BRENDA T. HURDLE    1372 PERRYS BRIDGE R                                           N    WS  
MTR01000002001000000000000000CA              95121758    000100 15100                    00000 00000NWL000                    
RDG01000002WATRYL000000 000700K0000005392000000001200000000010000000000001000100000000000000001                               
CUS01000002001141                 DARLENE ESBRANDT    225 JOPPA ROAD                                                 N    WS  
MTR01000002001000000000000000CA              15332378    000100 15110                    00000 00000NWL000                    
RDG01000002WATRYL000000 000700K0000000564000000001500000000010000000000001000100000000000000001                               
CUS01000002001142                 JOE WAYNE GARDINER  231 JOPPA ROAD                                                 N    WS  
MTR01000002001000000000000000CA              15332379    000100 15120                    00000 00000NWL000                    
RDG01000002WATRYL000000 000700K0000000868000000004800000000010000000000001000100000000000000001                               
CUS01000002001143                 RICHARD D. DAVIS    237 JOPPA ROAD                                                 N    WS  
MTR01000002001000000000000000CA              15332382    000100 15130                    00000 00000NWL000                    
RDG01000002WATRYL000000 000700K0000000181000000000600000000010000000000001000100000000000000001                               
CUS01000002001144                 SKYTECH SATELLITE SE232 JOPPA ROAD                                                 N    WS  
MTR01000002001000000000000000CA              89073713    000100 15140                    00000 00000NWL000                    
RDG01000002WATRYL000000 000700K0000000000000000007300000000010000000000001000100000000000000001                               
CUS01000002001145                 GEORGIE PEELER      241 JOPPA ROAD                                                 N    WS  
MTR01000002001000000000000000CA              13405909    000100 15150                    00000 00000NWL000                    
RDG01000002WATRYL000000 000700K0000000764000000001600000000010000000000001000100000000000000001                               
CUS010000020013839                NOAH RIDDICK        341 JOPPA ROAD                                                 N    WS  
MTR01000002001000000000000000CA              81629422    000100 15160                    00000 00000NWL000                    
RDG01000002WATRYL000000 000700K0000009905000000002400000000010000000000001000100000000000000001                               
CUS010000020015747                TRAVIS GREEN        23 HINTON ROAD                                                 N    WS  
MTR01000002001000000000000000CA              17319645    000100 15170                    00000 00000NWL000                    
RDG01000002WATRYL000000 000700K0000000040000000000900000000010000000000001000100000000000000001                               
CUS01000002001147                 JEAN FEREBEE        208 JOPPA ROAD                                                 N    WS  
MTR01000002001000000000000000CA              88115721    000100 15180                    00000 00000NWL000                    
RDG01000002WATRYL000000 000700K0000005942000000001500000000010000000000001000100000000000000001                               
CUS01000002001148                 TED RIDDICK         196 JOPPA ROAD                                                 N    WS  
MTR01000002001000000000000000CA              10871984    000100 15190                    00000 00000NWL000                    
RDG01000002WATRYL000000 000700K0000001367000000003600000000010000000000001000100000000000000001                               
CUS01000002001149                 CHARLIE WALTON      185 JOPPA ROAD                                                 N    WS  
MTR01000002001000000000000000CA              12812507    000100 15200                    00000 00000NWL000                    
RDG01000002WATRYL000000 000700K0000000654000000003600000000010000000000001000100000000000000001                               
CUS01000002001150                 TED RIDDICK         180 JOPPA ROAD                                                 N    WS  
MTR01000002001000000000000000CA              91012641    000100 15210                    00000 00000NWL000                    
RDG01000002WATRYL000000 000700K0000005239000000000600000000010000000000001000100000000000000001                               
CUS01000002001151                 ROBERT HICKSON      183 JOPPA ROAD                                                 N    WS  
MTR01000002001000000000000000CA              87120335    000100 15220                    00000 00000NWL000                    
RDG01000002WATRYL000000 000700K0000007019000000001900000000010000000000001000100000000000000001                               
CUS01000002001152                 MALINDA RIDDICK     177 JOPPA ROAD                                                 N    WS  
MTR01000002001000000000000000CA              22684176    000100 15230                    00000 00000NWL000                    
RDG01000002WATRYL000000 000700K0000001450000000000400000000010000000000001000100000000000000001                               
CUS01000002001153                 VANZY PARKER        159 JOPPA ROAD                                                 N    WS  
MTR01000002001000000000000000CA              35443069    000100 15240                    00000 00000NWL000                    
RDG01000002WATRYL000000 000700K0000004413000000001300000000010000000000001000100000000000000001                               
CUS01000002001154                 CAROLYN MODLIN      155 JOPPA ROAD                                                 N    WS  
MTR01000002001000000000000000CA              D021742     000100 15250                    00000 00000NWL000                    
RDG01000002WATRYL000000 000700K0000002319000000000400000000010000000000001000100000000000000001                               
CUS01000002001155                 JOSEPH JORDAN       146 JOPPA ROAD                                                 N    WS  
MTR01000002001000000000000000CA              22683764    000100 15260                    00000 00000NWL000                    
RDG01000002WATRYL000000 000700K0000005663000000001300000000010000000000001000100000000000000001                               
CUS01000002001156                 WRIGHT DEMERY       145 JOPPA ROAD                                                 N    WS  
MTR01000002001000000000000000CA              22686705    000100 15270                    00000 00000NWL000                    
RDG01000002WATRYL000000 000700K0000006161000000003100000000010000000000001000100000000000000001                               
CUS010000020013577                ELIZABETH MARTIN    128 JOPPA ROAD                                                 N    WS  
MTR01000002001000000000000000CA              14442165    000100 15280                    00000 00000NWL000                    
RDG01000002WATRYL000000 000700K0000002314000000009300000000010000000000001000100000000000000001                               
CUS010000020013843                WILLIAM KEE         1903 SANDY CROSS ROA                                           N    WS  
MTR01000002001000000000000000CA              11890938    000100 15290                    00000 00000NWL000                    
RDG01000002WATRYL000000 000700K0000003782000000006400000000010000000000001000100000000000000001                               
CUS01000002001158                 BETTY DAVIS         105 JOPPA ROAD                                                 N    WS  
MTR01000002001000000000000000CA              16515672    000100 15300                    00000 00000NWL000                    
RDG01000002WATRYL000000 000700K0000007052000000050700000000010000000000001000100000000000000001                               
CUS01000002001159                 WILLIE MAY G. FELTON1812 SANDY CROSS ROA                                           N    WS  
MTR01000002001000000000000000CA              99831444    000100 15310                    00000 00000NWL000                    
RDG01000002WATRYL000000 000700K0000002401000000002400000000010000000000001000100000000000000001                               
CUS010000020013844                SIDNEY STALLINGS    1782 SANDY CROSS ROA                                           N    WS  
MTR01000002001000000000000000CA              37675113    000100 15320                    00000 00000NWL000                    
RDG01000002WATRYL000000 000700K0000070359000000048600000000010000000000001000100000000000000001                               
CUS01000002001160                 SIDNEY STALLINGS    1800 SANDY CROSS ROA                                           N    WS  
MTR01000002001000000000000000CA              22686898    000100 15330                    00000 00000NWL000                    
RDG01000002WATRYL000000 000700K0000041522000000001900000000010000000000001000100000000000000001                               
CUS010000020013845                S. STALLINGS        1786 SANDY CROSS ROA                                           N    WS  
MTR01000002001000000000000000CA              22686842    000100 15340                    00000 00000NWL000                    
RDG01000002WATRYL000000 000700K0000013433000000002500000000010000000000001000100000000000000001                               
CUS01000002001161                 WILLIE WALKER, JR.  1769 SANDY CROSS ROA                                           N    WS  
MTR01000002001000000000000000CA              32865296    000100 15350                    00000 00000NWL000                    
RDG01000002WATRYL000000 000700K0000005008000000002800000000010000000000001000100000000000000001                               
CUS01000002001162                 BOB STALLINGS       1745 SANDY CROSS ROA                                           N    WS  
MTR01000002001000000000000000CA              22685142    000100 15360                    00000 00000NWL000                    
RDG01000002WATRYL000000 000700K0000005786000000003600000000010000000000001000100000000000000001                               
CUS01000002001163                 FAYE STALLINGS      1710 SANDY CROSS ROA                                           N    WS  
MTR01000002001000000000000000CA              84120145    000100 15370                    00000 00000NWL000                    
RDG01000002WATRYL000000 000700K0000010581000000001800000000010000000000001000100000000000000001                               
CUS01000002001164                 BOB STALLINGS       1745 SANDY CROSS ROA                                           N    WS  
MTR01000002001000000000000000CA              13884134    000100 15380                    00000 00000NWL000                    
RDG01000002WATRYL000000 000700K0000049938000000126900000000010000000000001000100000000000000001                               
CUS01000002001165                 DOUGLAS BAKER       1571 SANDY CROSS ROA                                           N    WS  
MTR01000002001000000000000000CA              22684379    000100 15390                    00000 00000NWL000                    
RDG01000002WATRYL000000 000700K0000019697000000010300000000010000000000001000100000000000000001                               
CUS01000002001166                 MILDRED JORDAN      1546 SANDY CROSS ROA                                           N    WS  
MTR01000002001000000000000000CA              15267619    000100 15400                    00000 00000NWL000                    
RDG01000002WATRYL000000 000700K0000000622000000001800000000010000000000001000100000000000000001                               
CUS01000002001167                 LUKE BURKE          1542 SANDY CROSS ROA                                           N    WS  
MTR01000002001000000000000000CA              14442198    000100 15410                    00000 00000NWL000                    
RDG01000002WATRYL000000 000700K0000001798000000005700000000010000000000001000100000000000000001                               
CUS01000002001168                 ANN RIDDICK         196 JOPPA ROAD                                                 N    WS  
MTR01000002001000000000000000CA              22684306    000100 15420                    00000 00000NWL000                    
RDG01000002WATRYL000000 000700K0000005322000000000300000000010000000000001000100000000000000001                               
CUS010000020015628                DOUGLAS WHITE       1455 SANDY CROSS ROA                                           N    WS  
MTR01000002001000000000000000CA              16464511    000100 15430                    00000 00000NWL000                    
RDG01000002WATRYL000000 000700K0000000817000000005700000000010000000000001000100000000000000001                               
CUS01000002001169                 BRINDA WHITE        1402 SANDY CROSS ROA                                           N    WS  
MTR01000002001000000000000000CA              22684513    000100 15440                    00000 00000NWL000                    
RDG01000002WATRYL000000 000700K0000034429000000001900000000010000000000001000100000000000000001                               
CUS01000002001170                 JOSEPH SMITH        1379 SANDY CROSS ROA                                           N    WS  
MTR01000002001000000000000000CA              C14063      000100 15450                    00000 00000NWL000                    
RDG01000002WATRYL000000 000700K0000009848000000002400000000010000000000001000100000000000000001                               
CUS01000002001171                 MELVIN L. PERRY     1374 SANDY CROSS ROA                                           N    WS  
MTR01000002001000000000000000CA              92125343    000100 15460                    00000 00000NWL000                    
RDG01000002WATRYL000000 000700K0000000000000000000300000000010000000000001000100000000000000001                               
CUS01000002001172                 LESSIE BILLUPS      1356 SANDY CROSS ROA                                           N    WS  
MTR01000002001000000000000000CA              95054266    000100 15470                    00000 00000NWL000                    
RDG01000002WATRYL000000 000700K0000002756000000001500000000010000000000001000100000000000000001                               
CUS01000002001173                 WILLIE RIDDICK      1320 SANDY CROSS ROA                                           N    WS  
MTR01000002001000000000000000CA              10760171    000100 15480                    00000 00000NWL000                    
RDG01000002WATRYL000000 000700K0000002506000000002200000000010000000000001000100000000000000001                               
CUS01000002001174                 QUINCY RIDDICK      115 HICKORY CROSS RO                                           N    WS  
MTR01000002001000000000000000CA              96425639    000100 15490                    00000 00000NWL000                    
RDG01000002WATRYL000000 000700K0000005513000000003700000000010000000000001000100000000000000001                               
CUS01000002001175                 W. RIDDICK          138 HICKORY CROSS RO                                           N    WS  
MTR01000002001000000000000000CA              90184177    000100 15500                    00000 00000NWL000                    
RDG01000002WATRYL000000 000700K0000002707000000001000000000010000000000001000100000000000000001                               
CUS01000002001176                 JOHN WHITE          189 HICKORY CROSS RO                                           N    WS  
MTR01000002001000000000000000CA              9892446     000100 15510                    00000 00000NWL000                    
RDG01000002WATRYL000000 000700K0000003477000000003900000000010000000000001000100000000000000001                               
CUS01000002001177                 LOUIS STALLINGS     247 HICKORY CROSS RO                                           N    WS  
MTR01000002001000000000000000CA              99875946    000100 15520                    00000 00000NWL000                    
RDG01000002WATRYL000000 000700K0000002521000000004200000000010000000000001000100000000000000001                               
CUS01000002001178                 BOBBY UPTON         268 HICKORY CROSS RO                                           N    WS  
MTR01000002001000000000000000CA              86082589    000100 15530                    00000 00000NWL000                    
RDG01000002WATRYL000000 000700K0000011896000000005700000000010000000000001000100000000000000001                               
CUS01000002001179                 DAVID WILLIAMS      295 HICKORY CROSS RO                                           N    WS  
MTR01000002001000000000000000CA              12865721    000100 15540                    00000 00000NWL000                    
RDG01000002WATRYL000000 000700K0000002580000000004900000000010000000000001000100000000000000001                               
CUS01000002001180                 WILBUR STALLINGS, JR298 HICKORY CROSS RO                                           N    WS  
MTR01000002001000000000000000CA              13385971    000100 15550                    00000 00000NWL000                    
RDG01000002WATRYL000000 000700K0000001484000000003000000000010000000000001000100000000000000001                               
CUS01000002001181                 WRIGHT DIXON        1318 SANDY CROSS ROA                                           N    WS  
MTR01000002001000000000000000CA              15651133    000100 15560                    00000 00000NWL000                    
RDG01000002WATRYL000000 000700K0000000060000000000400000000010000000000001000100000000000000001                               
CUS01000002001182                 ALICE L. RIDDICK    1317 SANDY CROSS ROA                                           N    WS  
MTR01000002001000000000000000CA              22686715    000100 15570                    00000 00000NWL000                    
RDG01000002WATRYL000000 000700K0000009104000000000900000000010000000000001000100000000000000001                               
CUS01000002001183                 NICANOR GROCERY     1225 SANDY CROSS ROA                                           N    WS  
MTR01000002001000000000000000CA              22684998    000100 15580                    00000 00000NWL000                    
RDG01000002WATRYL000000 000700K0000004006000000001000000000010000000000001000100000000000000001                               
CUS01000002001184                 PERCY L. WINSLOW, SR1225 SANDY CROSS ROA                                           N    WS  
MTR01000002001000000000000000CA              94418349    000100 15590                    00000 00000NWL000                    
RDG01000002WATRYL000000 000700K0000004091000000001600000000010000000000001000100000000000000001                               
CUS010000020015360                JANICE HUNTER       550 TURNPIKE ROAD                                              N    WS  
MTR01000002001000000000000000CA              15405154    000100 15600                    00000 00000NWL000                    
RDG01000002WATRYL000000 000700K0000000923000000004200000000010000000000001000100000000000000001                               
CUS010000020013853                JESSE ROUNTREE      107 TURNPIKE ROAD                                              N    WS  
MTR01000002001000000000000000CA              22685034    000100 15610                    00000 00000NWL000                    
RDG01000002WATRYL000000 000700K0000007919000000000400000000010000000000001000100000000000000001                               
CUS010000020013846                AISHA PARKS         109 TURNPIKE ROAD                                              N    WS  
MTR01000002001000000000000000CA              95040443    000100 15620                    00000 00000NWL000                    
RDG01000002WATRYL000000 000700K0000003308000000001200000000010000000000001000100000000000000001                               
CUS010000020013847                WALLACE BAKER       560 TURNPIKE ROAD                                              N    WS  
MTR01000002001000000000000000CA              22686903    000100 15630                    00000 00000NWL000                    
RDG01000002WATRYL000000 000700K0000013672000000001800000000010000000000001000100000000000000001                               
CUS01000002001185                 DAN & CARRIE BAKER  132 TURNPIKE ROAD                                              N    WS  
MTR01000002001000000000000000CA              22685033    000100 15640                    00000 00000NWL000                    
RDG01000002WATRYL000000 000700K0000009569000000004900000000010000000000001000100000000000000001                               
CUS01000002001186                 JAMES BAKER         163 TURNPIKE ROAD                                              N    WS  
MTR01000002001000000000000000CA              88067559    000100 15650                    00000 00000NWL000                    
RDG01000002WATRYL000000 000700K0000010735000000002800000000010000000000001000100000000000000001                               
CUS010000020013848                RICK PRONTO         296 TURNEPIKE ROAD                                             N    WS  
MTR01000002001000000000000000CA              4032893     000100 15660                    00000 00000NWL000                    
RDG01000002WATRYL000000 000700K0000011329000000006300000000010000000000001000100000000000000001                               
CUS010000020015827                TIM PHELPS          280 TURNPIKE ROAD                                              N    WS  
MTR01000002001000000000000000CA              17470324    000100 15670                    00000 00000NWL000                    
RDG01000002WATRYL000000 000700K0000000009000000001500000000010000000000001000100000000000000001                               
CUS01000002001187                 DIANNE WINSLOW      304 TURNPIKE ROAD                                              N    WS  
MTR01000002001000000000000000CA              92070651    000100 15680                    00000 00000NWL000                    
RDG01000002WATRYL000000 000700K0000009012000000004000000000010000000000001000100000000000000001                               
CUS01000002001188                 STAN WINSLOW        307 TURNPIKE ROAD                                              N    WS  
MTR01000002001000000000000000CA              G063063     000100 15690                    00000 00000NWL000                    
RDG01000002WATRYL000000 000700K0000040603000000014800000000010000000000001000100000000000000001                               
CUS01000002001189                 RONALD BOYCE        314 TURNPIKE ROAD                                              N    WS  
MTR01000002001000000000000000CA              22686795    000100 15700                    00000 00000NWL000                    
RDG01000002WATRYL000000 000700K0000012475000000002700000000010000000000001000100000000000000001                               
CUS010000020013849                CLAUDE ROUNTREE     313 TURNPIKE ROAD                                              N    WS  
MTR01000002001000000000000000CA              14257822    000100 15710                    00000 00000NWL000                    
RDG01000002WATRYL000000 000700K0000000088000000000700000000010000000000001000100000000000000001                               
CUS010000020013850                THOMAS WINSLOW      327 TURNPIKE ROAD                                              N    WS  
MTR01000002001000000000000000CA              22686797    000100 15720                    00000 00000NWL000                    
RDG01000002WATRYL000000 000700K0000001342000000000700000000010000000000001000100000000000000001                               
CUS01000002001190                 TERRY GODFREY       339 TURNPIKE ROAD                                              N    WS  
MTR01000002001000000000000000CA              92041551    000100 15730                    00000 00000NWL000                    
RDG01000002WATRYL000000 000700K0000010636000000003900000000010000000000001000100000000000000001                               
CUS010000020013578                JOCK MIDGETT        371 TURNPIKE ROAD                                              N    WS  
MTR01000002001000000000000000CA              22684509    000100 15740                    00000 00000NWL000                    
RDG01000002WATRYL000000 000700K0000005527000000001300000000010000000000001000100000000000000001                               
CUS010000020013851                DOROTHY R CREED     380 TURNPIKE ROAD                                              N    WS  
MTR01000002001000000000000000CA              86092317    000100 15750                    00000 00000NWL000                    
RDG01000002WATRYL000000 000700K0000005376000000001500000000010000000000001000100000000000000001                               
CUS010000020013852                DOROTHY CREED       418 TURNPIKE ROAD                                              N    WS  
MTR01000002001000000000000000CA              99831428    000100 15760                    00000 00000NWL000                    
RDG01000002WATRYL000000 000700K0000004095000000006000000000010000000000001000100000000000000001                               
CUS01000002001191                 DAVID RIDDICK       438 TURNPIKE ROAD                                              N    WS  
MTR01000002001000000000000000CA              22684512    000100 15770                    00000 00000NWL000                    
RDG01000002WATRYL000000 000700K0000016224000000004200000000010000000000001000100000000000000001                               
CUS010000020015560                MARK LAWRENCE       639 TURNPIKE ROAD                                              N    WS  
MTR01000002001000000000000000CA              16353299    000100 15780                    00000 00000NWL000                    
RDG01000002WATRYL000000 000700K0000000553000000003600000000010000000000001000100000000000000001                               
CUS010000020015559                KATHLEEN SHAMBO     645 TURNPIKE RD LOT#                                           N    WS  
MTR01000002001000000000000000CA              16353297    000100 15790                    00000 00000NWL000                    
RDG01000002WATRYL000000 000700K0000000505000000003300000000010000000000001000100000000000000001                               
CUS010000020015561                MELODYE R SURFACE   649 TURNPIKE RD  LOT                                           N    WS  
MTR01000002001000000000000000CA              16353298    000100 15800                    00000 00000NWL000                    
RDG01000002WATRYL000000 000700K0000000000000000000300000000010000000000001000100000000000000001                               
CUS010000020013579                ELIZABETH HARRELL   140 CRANEY ISLAND                                              N    WS  
MTR01000002001000000000000000CA              33055110    000100 15810                    00000 00000NWL000                    
RDG01000002WATRYL000000 000700K0000005398000000000300000000010000000000001000100000000000000001                               
CUS010000020013580                WILLIAM BOBLIT      144 CRANEY ISLAND RO                                           N    WS  
MTR01000002001000000000000000CA              11881489    000100 15820                    00000 00000NWL000                    
RDG01000002WATRYL000000 000700K0000003770000000004000000000010000000000001000100000000000000001                               
CUS01000002001192                 PHILIP RIDDICK      172 CRANEY ISLAND RO                                           N    WS  
MTR01000002001000000000000000CA              22683878    000100 15830                    00000 00000NWL000                    
RDG01000002WATRYL000000 000700K0000001018000000004300000000010000000000001000100000000000000001                               
CUS01000002001193                 WILFORD FORBES      216 CRANEY ISLAND RO                                           N    WS  
MTR01000002001000000000000000CA              22684156    000100 15840                    00000 00000NWL000                    
RDG01000002WATRYL000000 000700K0000011492000000007800000000010000000000001000100000000000000001                               
CUS01000002001194                 JANIE HILL          292 CRANEY ISLAND RO                                           N    WS  
MTR01000002001000000000000000CA              96531652    000100 15850                    00000 00000NWL000                    
RDG01000002WATRYL000000 000700K0000002809000000000600000000010000000000001000100000000000000001                               
CUS01000002001195                 STEVE CASPER        308 CRANEY ISLAND RO                                           N    WS  
MTR01000002001000000000000000CA              86082586    000100 15860                    00000 00000NWL000                    
RDG01000002WATRYL000000 000700K0000011142000000007900000000010000000000001000100000000000000001                               
CUS01000002001196                 JOE STALLINGS       367 CRANEY ISLAND RO                                           N    WS  
MTR01000002001000000000000000CA              28782636    000100 15870                    00000 00000NWL000                    
RDG01000002WATRYL000000 000700K0000000000000000000100000000010000000000001000100000000000000001                               
CUS01000002001197                 JOHN T. STALLINGS   114 CRANEY ISLAND RO                                           N    WS  
MTR01000002001000000000000000CA              95041914    000100 15880                    00000 00000NWL000                    
RDG01000002WATRYL000000 000700K0000003786000000001800000000010000000000001000100000000000000001                               
CUS01000002001198                 JESSE ROUNTREE      553 TURNPIKE ROAD                                              N    WS  
MTR01000002001000000000000000CA              99831442    000100 15890                    00000 00000NWL000                    
RDG01000002WATRYL000000 000700K0000001870000000001800000000010000000000001000100000000000000001                               
CUS01000002001200                 ELIJAH OVERSTREET   561 TURNPIKE ROAD                                              N    WS  
MTR01000002001000000000000000CA              94418352    000100 15900                    00000 00000NWL000                    
RDG01000002WATRYL000000 000700K0000001806000000003400000000010000000000001000100000000000000001                               
CUS01000002001201                 SELDEN ROUNTREE     575 TURNPIKE ROAD                                              N    WS  
MTR01000002001000000000000000CA              22686798    000100 15910                    00000 00000NWL000                    
RDG01000002WATRYL000000 000700K0000011790000000000900000000010000000000001000100000000000000001                               
CUS01000002001202                 HANK CHAPPELL       579 TURNPIKE ROAD                                              N    WS  
MTR01000002001000000000000000CA              88109927    000100 15920                    00000 00000NWL000                    
RDG01000002WATRYL000000 000700K0000000000000000001300000000010000000000001000100000000000000001                               
CUS01000002001203                 CARLTON W. ROUNTREE 593 TURNPIKE ROAD                                              N    WS  
MTR01000002001000000000000000CA              92128027    000100 15930                    00000 00000NWL000                    
RDG01000002WATRYL000000 000700K0000006092000000003300000000010000000000001000100000000000000001                               
CUS01000002001204                 CALVIN CASPER       599 TURNPIKE ROAD                                              N    WS  
MTR01000002001000000000000000CA              87084908    000100 15940                    00000 00000NWL000                    
RDG01000002WATRYL000000 000700K0000018808000000008800000000010000000000001000100000000000000001                               
CUS01000002001205                 RAY ROUNTREE        605 TURNPIKE ROAD                                              N    WS  
MTR01000002001000000000000000CA              22685302    000100 15950                    00000 00000NWL000                    
RDG01000002WATRYL000000 000700K0000012093000000005200000000010000000000001000100000000000000001                               
CUS010000020013854                WILLIE & JEANETT SHA610 TURNPIKE ROAD                                              N    WS  
MTR01000002001000000000000000CA              32664165    000100 15960                    00000 00000NWL000                    
RDG01000002WATRYL000000 000700K0000004720000000005100000000010000000000001000100000000000000001                               
CUS01000002001206                 DONALD STALLINGS    665 TURNPIKE ROAD                                              N    WS  
MTR01000002001000000000000000CA              17589277    000100 15970                    00000 00000NWL000                    
RDG01000002WATRYL000000 000700K0000000106000000005500000000010000000000001000100000000000000001                               
CUS01000002001207                 ALLEN STALLINGS     729 TURNPIKE ROAD                                              N    WS  
MTR01000002001000000000000000CA              89126098    000100 15980                    00000 00000NWL000                    
RDG01000002WATRYL000000 000700K0000001898000000003000000000010000000000001000100000000000000001                               
CUS01000002001209                 JOSEPH L. STALLINGS 779 TURNPIKE ROAD                                              N    WS  
MTR01000002001000000000000000CA              22685030    000100 15990                    00000 00000NWL000                    
RDG01000002WATRYL000000 000700K0000020865000000003700000000010000000000001000100000000000000001                               
CUS01000002001210                 J. STALLINGS        783 TURNPIKE ROAD                                              N    WS  
MTR01000002001000000000000000CA              273         000100 16000                    00000 00000NWL000                    
RDG01000002WATRYL000000 000700K0000003408000000000400000000010000000000001000100000000000000001                               
CUS01000002001211                 E. TEMPLE           890 TURNPIKE ROAD                                              N    WS  
MTR01000002001000000000000000CA              28782637    000100 16010                    00000 00000NWL000                    
RDG01000002WATRYL000000 000700K0000012105000000003100000000010000000000001000100000000000000001                               
CUS01000002001212                 ARNOLD WINSLOW      615 UP RIVER ROAD                                              N    WS  
MTR01000002001000000000000000CA              90144257    000100 16020                    00000 00000NWL000                    
RDG01000002WATRYL000000 000700K0000009743000000002500000000010000000000001000100000000000000001                               
CUS01000002001213                 ROBERT WINSLOW      609 UP RIVER ROAD                                              N    WS  
MTR01000002001000000000000000CA              96247041    000100 16030                    00000 00000NWL000                    
RDG01000002WATRYL000000 000700K0000003383000000002700000000010000000000001000100000000000000001                               
CUS01000002001214                 ROBERT WINSLOW      603 UP RIVER ROAD                                              N    WS  
MTR01000002001000000000000000CA              91162983    000100 16040                    00000 00000NWL000                    
RDG01000002WATRYL000000 000700K0000006108000000004000000000010000000000001000100000000000000001                               
CUS01000002001216                 SCOTT WINSLOW       579 UP RIVER ROAD                                              N    WS  
MTR01000002001000000000000000CA              4032904     000100 16050                    00000 00000NWL000                    
RDG01000002WATRYL000000 000700K0000027556000000013800000000010000000000001000100000000000000001                               
CUS01000002001217                 ARCHIE RIDDICK      546 UP RIVER ROAD                                              N    WS  
MTR01000002001000000000000000CA              95116575    000100 16060                    00000 00000NWL000                    
RDG01000002WATRYL000000 000700K0000004280000000002100000000010000000000001000100000000000000001                               
CUS01000002001218                 UP RIVER FRIENDS CHU523 UP RIVER ROAD                                              N    WS  
MTR01000002001000000000000000CA              96534679    000100 16070                    00000 00000NWL000                    
RDG01000002WATRYL000000 000700K0000002808000000001500000000010000000000001000100000000000000001                               
CUS01000002001219                 UP RIVER FRIENDS    524 UP RIVER ROAD                                              N    WS  
MTR01000002001000000000000000CA              17470327    000100 16080                    00000 00000NWL000                    
RDG01000002WATRYL000000 000700K0000000000000000001200000000010000000000001000100000000000000001                               
CUS01000002001220                 CLYDE LANE          290 RIDGE ROAD                                                 N    WS  
MTR01000002001000000000000000CA              89146119    000100 16090                    00000 00000NWL000                    
RDG01000002WATRYL000000 000700K0000008383000000019600000000010000000000001000100000000000000001                               
CUS010000020013582                GLORIA WISSMAND     406 RIDGE ROAD                                                 N    WS  
MTR01000002001000000000000000CA              86093222    000100 16100                    00000 00000NWL000                    
RDG01000002WATRYL000000 000700K0000010030000000004200000000010000000000001000100000000000000001                               
CUS01000002001221                 REBY STALLINGS      428 RIDGE ROAD                                                 N    WS  
MTR01000002001000000000000000CA              22684329    000100 16110                    00000 00000NWL000                    
RDG01000002WATRYL000000 000700K0000008961000000000700000000010000000000001000100000000000000001                               
CUS01000002001222                 CHRISTOPHER D. BAKER515 RIDGE ROAD                                                 N    WS  
MTR01000002001000000000000000CA              90184178    000100 16120                    00000 00000NWL000                    
RDG01000002WATRYL000000 000700K0000003548000000000900000000010000000000001000100000000000000001                               
CUS01000002001223                 CHARLES BAKER       528 RIDGE ROAD                                                 N    WS  
MTR01000002001000000000000000CA              14257900    000100 16130                    00000 00000NWL000                    
RDG01000002WATRYL000000 000700K0000002255000000006900000000010000000000001000100000000000000001                               
CUS01000002001224                 ARBA WINSLOW        547 RIDGE ROAD                                                 N    WS  
MTR01000002001000000000000000CA              99851575    000100 16140                    00000 00000NWL000                    
RDG01000002WATRYL000000 000700K0000000988000000001600000000010000000000001000100000000000000001                               
CUS01000002001225                 FAYE'S BEAUTY SHOP  264 RIDGE ROAD                                                 N    WS  
MTR01000002001000000000000000CA              22244397    000100 16150                    00000 00000NWL000                    
RDG01000002WATRYL000000 000700K0000025806000000004900000000010000000000001000100000000000000001                               
CUS01000002001226                 STUART WHITE        507 UP RIVER ROAD                                              N    WS  
MTR01000002001000000000000000CA              94415169    000100 16160                    00000 00000NWL000                    
RDG01000002WATRYL000000 000700K0000007707000000007200000000010000000000001000100000000000000001                               
CUS01000002001228                 VIRGINIA WHITE      258 RIDGE ROAD                                                 N    WS  
MTR01000002001000000000000000CA              22684291    000100 16170                    00000 00000NWL000                    
RDG01000002WATRYL000000 000700K0000007174000000000300000000010000000000001000100000000000000001                               
CUS01000002001227                 LYNDON WHITE        252 RIDGE ROAD                                                 N    WS  
MTR01000002001000000000000000CA              22684291    000100 16180                    00000 00000NWL000                    
RDG01000002WATRYL000000 000700K0000009167000000006600000000010000000000001000100000000000000001                               
CUS01000002001229                 HERBERT WILLIAMS    231 RIDGE ROAD                                                 N    WS  
MTR01000002001000000000000000CA              22683921    000100 16190                    00000 00000NWL000                    
RDG01000002WATRYL000000 000700K0000048357000000013500000000010000000000001000100000000000000001                               
CUS01000002001230                 VIVIAN S. WINSLOW   222 RIDGE ROAD                                                 N    WS  
MTR01000002001000000000000000CA              87050666    000100 16200                    00000 00000NWL000                    
RDG01000002WATRYL000000 000700K0000009036000000001500000000010000000000001000100000000000000001                               
CUS010000020015242                LOUIS Q. STALLINGS  135 RIDGE ROAD                                                 N    WS  
MTR01000002001000000000000000CA              E003969     000100 16210                    00000 00000NWL000                    
RDG01000002WATRYL000000 000700K0000006241000000002200000000010000000000001000100000000000000001                               
CUS01000002001231                 BECKY D. WHITE      135 RIDGE ROAD                                                 N    WS  
MTR01000002001000000000000000CA              92096603    000100 16220                    00000 00000NWL000                    
RDG01000002WATRYL000000 000700K0000003274000000002100000000010000000000001000100000000000000001                               
CUS010000020013584                JOHN BELL           112 RIDGE ROAD                                                 N    WS  
MTR01000002001000000000000000CA              22683889    000100 16230                    00000 00000NWL000                    
RDG01000002WATRYL000000 000700K0000015381000000001900000000010000000000001000100000000000000001                               
CUS010000020015425                JAMES STILLMAN      126 RIDGE ROAD                                                 N    WS  
MTR01000002001000000000000000CA              16291575    000100 16240                    00000 00000NWL000                    
RDG01000002WATRYL000000 000700K0000001056000000006100000000010000000000001000100000000000000001                               
CUS01000002001232                 W.S. WINSLOW, INC.  1208 SANDY CROSS ROA                                           N    WS  
MTR01000002001000000000000000CA              22685379    000100 16250                    00000 00000NWL000                    
RDG01000002WATRYL000000 000700K0000002240000000000400000000010000000000001000100000000000000001                               
CUS01000002001233                 HENRY DAVENPORT     498 UP RIVER ROAD                                              N    WS  
MTR01000002001000000000000000CA              22683923    000100 16260                    00000 00000NWL000                    
RDG01000002WATRYL000000 000700K0000034585000000004500000000010000000000001000100000000000000001                               
CUS01000002001234                 DEREK P. LEVESQUE   482 UP RIVER ROAD                                              N    WS  
MTR01000002001000000000000000CA              22685638    000100 16270                    00000 00000NWL000                    
RDG01000002WATRYL000000 000700K0000007859000000002100000000010000000000001000100000000000000001                               
CUS01000002001235                 DAYLE BIBA          351 UP RIVER ROAD                                              N    WS  
MTR01000002001000000000000000CA              94085704    000100 16280                    00000 00000NWL000                    
RDG01000002WATRYL000000 000700K0000004181000000005200000000010000000000001000100000000000000001                               
CUS010000020013567                LORIA WHITE         345 BAY BRANCH ROAD                                            N    WS  
MTR01000002001000000000000000CA              22685177    000100 16290                    00000 00000NWL000                    
RDG01000002WATRYL000000 000700K0000004365000000003100000000010000000000001000100000000000000001                               
CUS01000002001236                 AFFIE SPIVEY        324 UP RIVER ROAD                                              N    WS  
MTR01000002001000000000000000CA              17319716    000100 16300                    00000 00000NWL000                    
RDG01000002WATRYL000000 000700K0000000185000000001300000000010000000000001000100000000000000001                               
CUS01000002001237                 EDWARD WINSLOW      321 UP RIVER ROAD                                              N    WS  
MTR01000002001000000000000000CA              22684287    000100 16310                    00000 00000NWL000                    
RDG01000002WATRYL000000 000700K0000023408000000008400000000010000000000001000100000000000000001                               
CUS01000002001238                 JEFFREY WINSLOW     296 UP RIVER ROAD                                              N    WS  
MTR01000002001000000000000000CA              22685304    000100 16320                    00000 00000NWL000                    
RDG01000002WATRYL000000 000700K0000008677000000006000000000010000000000001000100000000000000001                               
CUS01000002001239                 JOHN STEVENSON      295 UP RIVER ROAD                                              N    WS  
MTR01000002001000000000000000CA              22684237    000100 16330                    00000 00000NWL000                    
RDG01000002WATRYL000000 000700K0000009436000000002200000000010000000000001000100000000000000001                               
CUS01000002001240                 SAMMY ENNIS         283 UP RIVER ROAD                                              N    WS  
MTR01000002001000000000000000CA              94412903    000100 16340                    00000 00000NWL000                    
RDG01000002WATRYL000000 000700K0000000000000000001800000000010000000000001000100000000000000001                               
CUS010000020013855                JOSEPHINE HUNTER    241 UP RIVER ROAD                                              N    WS  
MTR01000002001000000000000000CA              96436932    000100 16350                    00000 00000NWL000                    
RDG01000002WATRYL000000 000700K0000002469000000000600000000010000000000001000100000000000000001                               
CUS010000020013856                NICHOLAS WINSLOW    852 SANDY CROSS                                                N    WS  
MTR01000002001000000000000000CA              99888031    000100 16360                    00000 00000NWL000                    
RDG01000002WATRYL000000 000700K0000005077000000006000000000010000000000001000100000000000000001                               
CUS010000020015419                MATTHEW R. WHITE    130 UP RIVER ROAD                                              N    WS  
MTR01000002001000000000000000CA              15651223    000100 16370                    00000 00000NWL000                    
RDG01000002WATRYL000000 000700K0000001358000000006600000000010000000000001000100000000000000001                               
CUS01000002001241                 BRIAN PARKS         141 UP RIVER ROAD                                              N    WS  
MTR01000002001000000000000000CA              94412905    000100 16380                    00000 00000NWL000                    
RDG01000002WATRYL000000 000700K0000007721000000004800000000010000000000001000100000000000000001                               
CUS010000020013586                JUDITH S. LOWMAN    117 UP RIVER ROAD                                              N    WS  
MTR01000002001000000000000000CA              11814725    000100 16390                    00000 00000NWL000                    
RDG01000002WATRYL000000 000700K0000002468000000001300000000010000000000001000100000000000000001                               
CUS01000002001243                 WILLIAM LAYNE       113 UP RIVER ROAD                                              N    WS  
MTR01000002001000000000000000CA              13435436    000100 16400                    00000 00000NWL000                    
RDG01000002WATRYL000000 000700K0000002140000000004500000000010000000000001000100000000000000001                               
CUS01000002001244                 WHITESTON CUMMUNITY 217 COMMUNITY BUILDI                                           N    WS  
MTR01000002001000000000000000CA              15384218    000100 16410                    00000 00000NWL000                    
RDG01000002WATRYL000000 000700K0000000003000000000300000000010000000000001000100000000000000001                               
CUS01000002001245                 CLIFFORD WINSLOW    202 COMMUNITY BUILDI                                           N    WS  
MTR01000002001000000000000000CA              35442598    000100 16420                    00000 00000NWL000                    
RDG01000002WATRYL000000 000700K0000011220000000007800000000010000000000001000100000000000000001                               
CUS01000002001246                 LESTER BAKER        164 COMMUNITY BUILDI                                           N    WS  
MTR01000002001000000000000000CA              22683918    000100 16430                    00000 00000NWL000                    
RDG01000002WATRYL000000 000700K0000010716000000002800000000010000000000001000100000000000000001                               
CUS01000002001247                 JULIAN BAKER        154 COMMUNITY BUILDI                                           N    WS  
MTR01000002001000000000000000CA              99809845    000100 16440                    00000 00000NWL000                    
RDG01000002WATRYL000000 000700K0000008361000000007800000000010000000000001000100000000000000001                               
CUS01000002001248                 TODD WINSLOW        165 COMMUNITY BUILDI                                           N    WS  
MTR01000002001000000000000000CA              97331893    000100 16450                    00000 00000NWL000                    
RDG01000002WATRYL000000 000700K0000008147000000006400000000010000000000001000100000000000000001                               
CUS010000020015357                LANCE D. WINSLOW    102 COMMUNITY BLDG R                                           N    WS  
MTR01000002001000000000000000CA              95116547    000100 16460                    00000 00000NWL000                    
RDG01000002WATRYL000000 000700K0000008824000000001800000000010000000000001000100000000000000001                               
CUS01000002001249                 ELMER LASSITER      1140 SANDY CROSS ROA                                           N    WS  
MTR01000002001000000000000000CA              58004069    000100 16470                    00000 00000NWL000                    
RDG01000002WATRYL000000 000700K0000006151000000001000000000010000000000001000100000000000000001                               
CUS010000020013591                DAVID L. LEWIS      1156 SANDY CROSS ROA                                           N    WS  
MTR01000002001000000000000000CA              14442188    000100 16480                    00000 00000NWL000                    
RDG01000002WATRYL000000 000700K0000001590000000004600000000010000000000001000100000000000000001                               
CUS01000002001250                 PERCY WINSLOW, JR.  1069 SANDY CROSS ROA                                           N    WS  
MTR01000002001000000000000000CA              70183933    000100 16490                    00000 00000NWL000                    
RDG01000002WATRYL000000 000700K0000020456000000005400000000010000000000001000100000000000000001                               
CUS01000002001251                 LEWIS STALLINGS     1037 SANDY CROSS ROA                                           N    WS  
MTR01000002001000000000000000CA              22685061    000100 16500                    00000 00000NWL000                    
RDG01000002WATRYL000000 000700K0000008477000000009700000000010000000000001000100000000000000001                               
CUS010000020015261                JANIE OWENS         1019 SANDY CROSS ROA                                           N    WS  
MTR01000002001000000000000000CA              11844733    000100 16510                    00000 00000NWL000                    
RDG01000002WATRYL000000 000700K0000000000000000000300000000010000000000001000100000000000000001                               
CUS010000020013857                H. S. REYNOLDS      612 BETHANY CHURCH R                                           N    WS  
MTR01000002001000000000000000CA              94038861    000100 16520                    00000 00000NWL000                    
RDG01000002WATRYL000000 000700K0000004626000000003100000000010000000000001000100000000000000001                               
CUS01000002001252                 MICHAEL O. WHITE    546 BETHANY CHURCH R                                           N    WS  
MTR01000002001000000000000000CA              90184176    000100 16530                    00000 00000NWL000                    
RDG01000002WATRYL000000 000700K0000015465000000005200000000010000000000001000100000000000000001                               
CUS010000020013592                BRENDA ASHLEY       537 BETHANY CHURCH R                                           N    WS  
MTR01000002001000000000000000CA              93031622    000100 16540                    00000 00000NWL000                    
RDG01000002WATRYL000000 000700K0000000000000000002200000000010000000000001000100000000000000001                               
CUS01000002001253                 CLYDE STALLINGS     483 BETHANY CHURCH R                                           N    WS  
MTR01000002001000000000000000CA              11881416    000100 16550                    00000 00000NWL000                    
RDG01000002WATRYL000000 000700K0000001710000000002800000000010000000000001000100000000000000001                               
CUS01000002001254                 RICKY STALLINGS     446 BETHANY CHURCH R                                           N    WS  
MTR01000002001000000000000000CA              94039103    000100 16560                    00000 00000NWL000                    
RDG01000002WATRYL000000 000700K0000012853000000015600000000010000000000001000100000000000000001                               
CUS01000002001255                 BETHANY METHODIST CH425 BETHANY CHURCH R                                           N    WS  
MTR01000002001000000000000000CA              91079979    000100 16570                    00000 00000NWL000                    
RDG01000002WATRYL000000 000700K0000000933000000000400000000010000000000001000100000000000000001                               
CUS010000020013593                SHERRI MUNDIS       340 BETHANY CHURCH R                                           N    WS  
MTR01000002001000000000000000CA              8808460     000100 16580                    00000 00000NWL000                    
RDG01000002WATRYL000000 000700K0000007151000000004200000000010000000000001000100000000000000001                               
CUS010000020013595                ALTON JORDAN        252 BETHANY CHURCH R                                           N    WS  
MTR01000002001000000000000000CA              14442186    000100 16590                    00000 00000NWL000                    
RDG01000002WATRYL000000 000700K0000000701000000002200000000010000000000001000100000000000000001                               
CUS010000020013596                MABEL JORDAN        234 BETHANY CHURCH R                                           N    WS  
MTR01000002001000000000000000CA              22684073    000100 16600                    00000 00000NWL000                    
RDG01000002WATRYL000000 000700K0000003878000000000900000000010000000000001000100000000000000001                               
CUS01000002001256                 COREY HUNTER        224 BETHANY CHURCH R                                           N    WS  
MTR01000002001000000000000000CA              716694      000100 16610                    00000 00000NWL000                    
RDG01000002WATRYL000000 000700K0000017466000000004200000000010000000000001000100000000000000001                               
CUS010000020013858                MARGARET JORDAN     228 BETHANY CHURCH R                                           N    WS  
MTR01000002001000000000000000CA              16464379    000100 16620                    00000 00000NWL000                    
RDG01000002WATRYL000000 000700K0000000557000000003900000000010000000000001000100000000000000001                               
CUS01000002001257                 CATHERINE FELTON    200 BETHANY CHURCH R                                           N    WS  
MTR01000002001000000000000000CA              22685138    000100 16630                    00000 00000NWL000                    
RDG01000002WATRYL000000 000700K0000011362000000006100000000010000000000001000100000000000000001                               
CUS01000002001258                 MARY JORDAN         194 BETHANY CHURCH R                                           N    WS  
MTR01000002001000000000000000CA              15332380    000100 16640                    00000 00000NWL000                    
RDG01000002WATRYL000000 000700K0000000576000000001600000000010000000000001000100000000000000001                               
CUS01000002001259                 HORACE HURDLE       190 BETHANY CHURCH R                                           N    WS  
MTR01000002001000000000000000CA              97332113    000100 16650                    00000 00000NWL000                    
RDG01000002WATRYL000000 000700K0000006058000000004500000000010000000000001000100000000000000001                               
CUS01000002001260                 LISA STALLINGS      171 BETHANY CHURCH R                                           N    WS  
MTR01000002001000000000000000CA              13415686    000100 16660                    00000 00000NWL000                    
RDG01000002WATRYL000000 000700K0000002484000000005200000000010000000000001000100000000000000001                               
CUS01000002001261                 RACHEL EASON        189 BETHANY CHURCH R                                           N    WS  
MTR01000002001000000000000000CA              13385943    000100 16670                    00000 00000NWL000                    
RDG01000002WATRYL000000 000700K0000001435000000003100000000010000000000001000100000000000000001                               
CUS01000002001262                 MELTON BRYANT, JR.  147 BETHANY CHURCH R                                           N    WS  
MTR01000002001000000000000000CA              90144255    000100 16680                    00000 00000NWL000                    
RDG01000002WATRYL000000 000700K0000014339000000007600000000010000000000001000100000000000000001                               
CUS010000020015262                RONDA L.MILES       960 SANDY CROSS ROAD                                           N    WS  
