101 064102740 0641027402004221248A094101CITIZENS BANK          CITIZENS BANK                  
5200NORTHWEST CLAY                      1000      PPDUTIL BILL 200422200422   1064102740000001
8200      00000000000000000000000000000000001000                               064102740000001
9000001000001000000000000000000000000000000000000000000                                       
9999999999999999999999999999999999999999999999999999999999999999999999999999999999999999999999
9999999999999999999999999999999999999999999999999999999999999999999999999999999999999999999999
9999999999999999999999999999999999999999999999999999999999999999999999999999999999999999999999
9999999999999999999999999999999999999999999999999999999999999999999999999999999999999999999999
9999999999999999999999999999999999999999999999999999999999999999999999999999999999999999999999
9999999999999999999999999999999999999999999999999999999999999999999999999999999999999999999999
