01            000101HH2   L6123456789                               0000000000          1         1         013119020119          JEERM020119071452M           I 00         010219124 EAST WATER STREET   FIRE HYDRANT                                    123456789                                                                                                                                                                                       0100000001               8476  1                                 
01            000201HH2   L61852914703   1852914703                 0000012905000129059012967     12798     013119020119          JEERZ020119072356E           A 012797     010219105 RANKIN LN           LETHA MAE HARRELL                               1852914703                                                                                                                                                                                      0101610001               8807  1                                 
01            000301HH2   L677823443     77823443                   0000018690000001869018680     18681     013119020119          JEERA020119073327A           I 118680     010219118 E WATER ST          RONALD & PAT SAWYER                             77823443                                                                                                                                                                                        0101650001               7605  1                                 
01            000401HH2   L6                                        0000147706          147663    147564    013119020119          JEERM020119072720M           A 1147563    010219206 E WATER ST          A PLUS RESULTS                                                                                                                                                                                                                                  0110050001               6527  1                                 
01            000501HH2   L6                                        0000021601          21599     21600     013119020119          JEERM020119073937M           I 121599     010219302 E WATER ST          PORT OF PLYMOUTH MUESUM                                                                                                                                                                                                                         0110059001               2     1                                 
01            000601HH2   L680167672     80167672                   0000041980000004198041967     41901     013119020119          JEERA020119073007A           A 141900     010219204 B E WATER ST        WASHINGTON COUNTY CRIMAL                        80167672                                                                                                                                                                                        0110080001               7     1                                 
01            000701HH2   L61852629404   1852629404                 000000167200001672431677      1662      013119020119          JEERZ020119073039E           A 01661      010219204 A    E. WATER ST.   WASHINGTON COUNTY CRIMIN                        1852629404                                                                                                                                                                                      0110085001               6555  1                                 
01            000801HH2   L61551463804   1551463804                 00000000420000004269490       1         013119020119          JEERZ020119073008E           A 00         010219128 E WATER ST /ST  BLDGWASHINGTON COUNTY                               1551463804                                                                                                                                                                                      0110090001               8     1                                 
01            000901HH2   L61834637177   1834637177                 000000141700001417061371      1372      013119020119          JEERZ020119073513E           I 11371      010219126 E WATER ST          VACANT                                          1834637177                                                                                                                                                                                      0110100001               9093  1                                 
01            001001HH2   L61834568481   1834568481                 0000044742000447426444130     43883     013119020119          JEERZ020119073505E           A 143882     010219132 E WATER ST          PLYMOUTH POLICE DEPARTME                        1834568481                                                                                                                                                                                      0110101001               7712  1                                 
01            001101HH2   L677823342                                0000005740          6150      5741      013119020119          JEERA020119073647M           A 15740      010219108 E WATER ST          RIVERVIEW CAM LLC                               77823342                                                                                                                                                                                        0110110001               9285  1                                 
01            001201HH2   L677824324     77824324                   0000030615000003061530590     30471     013119020119          JEERA020119073709A           A 130470     010219124 E WATER ST          TOWN OF PLYMOUTH                                77824324                                                                                                                                                                                        0110120001               5496  1                                 
01            001301HH2   L6                                        0000546580          546580    546581    013119020119          JEER 020119073213M           A 1546580    010219130 E WATER ST          OLD FIRE DEPARTMENT                                                                                                                                                                                                                             0110121001               8320  1                                 
01            001401HH2   L61543568864   1543568864                 0000021617000216174621389     21041     013119020119          JEERZ020119073009E           A 121040     010219120 E WATER ST          KEITH & PAT SAWYER                              1543568864                                                                                                                                                                                      0110130001               6204  1                                 
01            001501HH2   L677823342     77823342                   000000578000000057805740      5741      013119020119          JEERA020119073313A           I 15740      010219114 E WATER ST          VACANT                                          77823342                                                                                                                                                                                        0110150001               14    1                                 
01            001601HH2   L677822906     77822906                   000000856000000085608561      8561      013119020119          JEERA020119073319A           A 18560      010219116 A EAST WATER ST     HEATHER DOTSON                                  77822906                                                                                                                                                                                        0110160001               7504  1                                 
01            001701HH2   L61850548691   1850548691                 000000205600002056952034      2017      013119020119          JEERZ020119073734E           A 12016      010219106 E WATER ST          LAW OFFICE OF D. COLE PH                        1850548691                                                                                                                                                                                      0110190001               7645  1                                 
01            001801HH2   L677822937                                0000026056          26056     26057     013119020119          JEERA020119073745M           I 026056     010219101 W WATER ST          VACANT                                          77822937                                                                                                                                                                                        0110230001               7298  1                                 
01            001901HH2   L677822937                                0000026056          26056     26057     013119020119          JEERA020119073752M           I 026056     010219103 W WATER ST          VACANT                                          77822937                                                                                                                                                                                        0110240001               8348  1                                 
01            002001HH2   L61852454837   1852454837                 0000024558000245589324456     24227     013119020119          JEERZ020119073757E           A 124226     010219105 W WATER ST          IVY GARDEN                                      1852454837                                                                                                                                                                                      0110250001               6848  1                                 
01            002101HH2   L61834591443   1834591443                 0000017782000177821517572     17442     013119020119          JEERZ020119073804E           A 117441     010219115 W WATER ST          WENDEL HUTCHINS                                 1834591443                                                                                                                                                                                      0110270001               25    1                                 
01            002201HH2   L61850472467   1850472467                 0000026960000269602426910     26667     013119020119          JEERZ020119073820E           A 126666     010219117 W WATER ST          THOMAS S. STYONS                                1850472467                                                                                                                                                                                      0110271001               5720  1                                 
01            002301HH2   L6                                        0000211958          211336    211091    013119020119          JEERM020119073954M           A 1211090    010219115 E WATER ST          JAMES F BUSTEED                                                                                                                                                                                                                                 0110280001               9154  1                                 
01            002401HH2   L677822944     77822944                   000000951000000095109520      9496      013119020119          JEERA020119074037A           A 09495      010219119 W WATER ST          ROANOKE ELECTRIC                                77822944                                                                                                                                                                                        0110300001               28    1                                 
01            002501HH2   L61852938969   1852938969                 00000009190000091903917       907       013119020119          JEERZ020119073718E           A 1906       010219113 W WATER ST          ALICE'S                                         1852938969                                                                                                                                                                                      0110310001               4382  1                                 
01            002601HH2   L677823445     77823445                   0000040705000004070540606     40511     013119020119          JEERA020119074152A           A 140510     010219125 W WATER ST          SOUNDSIDE                                       77823445                                                                                                                                                                                        0110330001               5067  1                                 
01            002701HH2   L677823390     77823390                   0000016235000001623516083     16016     013119020119          JEERA020119074201A           A 116015     010219123 B W WATER ST        APEX TRANSLATIONS                               77823390                                                                                                                                                                                        0110331001               8534  1                                 
01            002801HH2   L677823396     77823396                   0000031055000003105530996     30911     013119020119          JEERA020119074206A           A 130910     010219125 C. W. WATER ST.     NANCY H HARPER                                  77823396                                                                                                                                                                                        0110334001               8648  1                                 
01            002901HH2   L677823360     77823360                   0000022195000002219521834     21701     013119020119          JEERA020119074018A           A 121700     010219111 W WATER ST          DIVERSIFIED WOOD PRODUCT                        77823360                                                                                                                                                                                        0110340001               4327  1                                 
01            003001HH2   L677823390     77823390                   0000016235000001623516184     16116     013119020119          JEERA020119074209A           A 116115     010219125 D WEST WATER ST     MARK MATTHEW WOODRUFF                           77823390                                                                                                                                                                                        0110346001               7268  1                                 
01            003101HH2   L677823344     77823344                   000000735000000073506805      6771      013119020119          JEERA020119074315A           A 16770      010219201 A W WATER ST        SAMUEL J. STYONS                                77823344                                                                                                                                                                                        0110350001               5243  1                                 
01            003201HH2   L61834589029   1834589029                 000000761000007610017577      7528      013119020119          JEERZ020119074301E           A 17527      010219203 W WATER ST          TIME FINANCE CO.                                1834589029                                                                                                                                                                                      0110360001               34    1                                 
01            003301HH2   L6                                        0000000000          0         1         013119020119          JEER 020119074310M           A 10         010219206 W WATER ST          MARINA BATH                                                                                                                                                                                                                                     0110365001               8322  1                                 
01            003401HH2   L677823783     77823783                   0000048140000004814048120     48071     013119020119          JEERA020119074417A           A 148070     010219315 WEST WATER ST       WILLIAM T COLLINS                               77823783                                                                                                                                                                                        0110390001               9183  1                                 
01            003501HH2   L600121872     00121872                   000000982000000098209826      9821      013119020119          JEERA020119074525A           A 19820      010219306 W WATER ST          PLYMOUTH HOUSING AUTH.                          00121872                                                                                                                                                                                        0110400001               39    1                                 
01            003601HH2   L670121872     70121872                   00006130200000613020610306    607511    013119020119          JEERA020119074529A           A 1607510    010219306 W WATER ST          PLYMOUTH HOUSING AUTH.                          70121872                                                                                                                                                                                        0110400002               39    2                                 
01            003701HH2   L677822936     77822936                   0000013120000001312013071     12976     013119020119          JEERA020119074621A           A 112975     010219210 W WATER ST          BEACON PRINTING & IMAG.                         77822936                                                                                                                                                                                        0110420001               41    1                                 
01            003801HH2   L61850472853   1850472853                 000000551700005517885477      5432      013119020119          JEERZ020119074258E           A 15431      010219122 W WATER ST          DEBORAH BROWN                                   1850472853                                                                                                                                                                                      0110440001               43    1                                 
01            003901HH2   L61546827554   1546827554                 0000000011000000110511        12        013119020119          JEERZ020119073019E           I 011        010219120 W WATER ST          VACANT                                          1546827554                                                                                                                                                                                      0110450001               9244  1                                 
01            004001HH2   L677823384     77823384                   000000303000000030303017      2996      013119020119          JEERA020119074709A           A 12995      010219110 W WATER ST          JEWEL SHOPPE                                    77823384                                                                                                                                                                                        0110470001               4015  1                                 
01            004101HH2   L677824027                                0000079835          79835     79836     013119020119          JEERA020119074725M           I 079835     010219107 W WATER ST          VACANT                                          77824027                                                                                                                                                                                        0110500001               6829  1                                 
01            004201HH2   L6                                        0000132632          132595    132543    013119020119          JEERM020119074843M           A 1132542    010219119 E WATER ST          THEODORE W. NEHRENBERG                                                                                                                                                                                                                          0110520001               8732  1                                 
01            004301HH2   L61852453784   1852453784                 000000107300001073761073      1074      013119020119          JEERZ020119073513E           I 01073      010219121 E WATER ST          VACANT                                          1852453784                                                                                                                                                                                      0110530001               9440  1                                 
01            004401HH2   L660355930                                0000001601          1601      1596      013119020119          JEERA020119074905M           A 01595      010219123 E WATER ST          A PLUS RESULTS                                  60355930                                                                                                                                                                                        0110540001               6549  1                                 
01            004501HH2   L61834394098   1834394098                 0000039150000391508338778     38438     013119020119          JEERZ020119075042E           A 138437     010219409 E MAIN ST           JIE HUANG                                       1834394098                                                                                                                                                                                      0110550001               7898  1                                 
01            004601HH2   L61545875688   1545875688                 000000388400003884133777      3696      013119020119          JEERZ020119072306E           A 13695      010219105 ANDREW JACKSON AVE  CLINTON WILKINS                                 1545875688                                                                                                                                                                                      0110560001               6539  1                                 
01            004701HH2   L61540929840   1540929840                 0000015348000153482715232     15034     013119020119          JEERZ020119071514E           A 115033     010219108 ANDREW JACKSON AVE  MARIE LONG                                      1540929840                                                                                                                                                                                      0110570001               7502  1                                 
01            004801HH2   L677823411     77823411                   0000075460000007546075261     75106     013119020119          JEERA020119075621A           A 175105     010219106 LATHAM LN           SHARON M. JONES                                 77823411                                                                                                                                                                                        0110590001               59    1                                 
01            004901HH2   L677823410     77823410                   0000055670000005567055887     55671     013119020119          JEERA020119075639A           A 155670     010219104 LATHAM LN           RUFFIN  SHERA                                   77823410                                                                                                                                                                                        0110600001               5431  1                                 
01            005001HH2   L677823905     77823905                   0000045065000004506545050     44981     013119020119          JEERA020119080232A           A 144980     010219200 RANKLIN LN          PENTECOSTAL TEMPLE CHURC                        77823905                                                                                                                                                                                        0110620001               62    1                                 
01            005101HH2   L61551469670   1551469670                 000000000000000000026         1         013119020119          JEERZ020119071859E           A 10         010219201 RANKIN LN           MAMIE EVANS                                     1551469670                                                                                                                                                                                      0110630001               63    1                                 
01            005201HH2   L61834628864   1834628864                 0000029214000292141528914     28717     013119020119          JEERZ020119080221E           A 128716     010219206 RANKIN LN           ROBERT/ESSIE HYMAN                              1834628864                                                                                                                                                                                      0110650001               66    1                                 
01            005301HH2   L677823985                                0000002280          2280      2281      013119020119          JEERA020119080259M           I 02280      010219207 RANKIN LN           VACANT                                          77823985                                                                                                                                                                                        0110670001               8711  1                                 
01            005401HH2   L61551471544   1551471544                 000000000000000000160         1         013119020119          JEERZ020119071944E           A 10         010219209 RANKIN LN           ROY E. HYMAN                                    1551471544                                                                                                                                                                                      0110680001               70    1                                 
01            005501HH2   L677823855     77823855                   00001084250000108425108202    107931    013119020119          JEERA020119081712A           A 1107930    010219406 E 3 1/2 ST          JULIUS FORD JR                                  77823855                                                                                                                                                                                        0110720001               5019  1                                 
01            005601HH2   L677823364                                0000002045          2045      2046      013119020119          JEERA020119081724M           I 02045      010219409 3 1/2 ST            VACANT                                          77823364                                                                                                                                                                                        0110750001               8835  1                                 
01            005701HH2   L61550323532   1550323532                 00000007590000075904739       626       013119020119          JEERZ020119071453E           A 1625       010219412 3 1/2 ST #          EVANGELINE WILLIAMS                             1550323532                                                                                                                                                                                      0110770001               5813  1                                 
01            005801HH2   L677823880     77823880                   0000019030000001903019124     19031     013119020119          JEERA020119081753A           A 119030     010219410 E 3 1/2 ST          ZINA RHODES                                     77823880                                                                                                                                                                                        0110771501               6940  1                                 
01            005901HH2   L677823830                                0000042520          42528     42426     013119020119          JEERA020119082314M           A 042425     010219103 CROWELL ST          RONALD L. BROOKS                                77823830                                                                                                                                                                                        0110780001               83    1                                 
01            006001HH2   L677823831                                0000045235          45235     45236     013119020119          JEERA020119082353M           I 045235     010219105 CROWELL ST # A      VACANT                                          77823831                                                                                                                                                                                        0110810001               9300  1                                 
01            006101HH2   L677823834                                0000015795          15795     15796     013119020119          JEERA020119082406M           I 015795     010219105 B CROWELL ST        VACANT                                          77823834                                                                                                                                                                                        0110820001               8998  1                                 
01            006201HH2   L677823832     77823832                   0000020215000002021520215     20216     013119020119          JEERA020119082418A           I 020215     010219106 CROWELL ST A        VACANT                                          77823832                                                                                                                                                                                        0110830001               9424  1                                 
01            006301HH2   L61852938973   1852938973                 000000604200006042336024      5961      013119020119          JEERZ020119081943E           A 15960      010219106 CROWELL ST B        WILLIE JONES                                    1852938973                                                                                                                                                                                      0110840001               6691  1                                 
01            006401HH2   L61850268449   1850268449                 000000893900008939658892      8829      013119020119          JEERZ020119081940E           A 18828      010219107 CROWELL ST          MARY FIELDS                                     1850268449                                                                                                                                                                                      0110850001               90    1                                 
01            006501HH2   L61852454405   1852454405                 0000011389000113894211382     11274     013119020119          JEERZ020119081912E           A 111273     010219109 CROWELL ST          ERNEST L. ARMSTRONG                             1852454405                                                                                                                                                                                      0110860001               6850  1                                 
01            006601HH2   L61545264336   1545264336                 000000128200001282871301      1281      013119020119          JEERZ020119072255E           A 01280      010219315 THOMAS ST           ZION HILL BAPTIST CHURCH                        1545264336                                                                                                                                                                                      0110870001               94    1                                 
01            006701HH2   L61542354038   1542354038                 000000513500005135865082      4992      013119020119          JEERZ020119072017E           A 14991      010219303 THOMAS ST           JOHNNIE ANN BROWN                               1542354038                                                                                                                                                                                      0110880001               95    1                                 
01            006801HH2   L61852453816   1852453816                 0000011929000119294711780     11677     013119020119          JEERZ020119082814E           A 111676     010219209 THOMAS ST           SIMPSON, M. SALLY                               1852453816                                                                                                                                                                                      0110900001               97    1                                 
01            006901HH2   L677823839                                0000000640          640       641       013119020119          JEERA020119082833M           I 0640       010219204 THOMAS ST           VACANT                                          77823839                                                                                                                                                                                        0110910001               8868  1                                 
01            007001HH2   L61834430179   1834430179                 0000020325000203258220235     20106     013119020119          JEERZ020119082422E           A 120105     010219108 BOWSER COURT        JAY & SHARON MCNAIR                             1834430179                                                                                                                                                                                      0110920001               100   1                                 
01            007101HH2   L61544802214   1544802214                 000000274800002748212717      2670      013119020119          JEERZ020119071538E           A 12669      010219205 THOMAS ST           LAWRENCE MCNAIR JR                              1544802214                                                                                                                                                                                      0110930001               101   1                                 
01            007201HH2   L61834580805   1834580805                 0000010220000102209010118     10051     013119020119          JEERZ020119081616E           A 110050     010219202 THOMAS ST           EVELYN W. WHITLEY                               1834580805                                                                                                                                                                                      0110940001               6437  1                                 
01            007301HH2   L677823853     77823853                   0000018685000001868518685     18686     013119020119          JEERA020119081514A           I 018685     010219113 THOMAS ST           VACANT                                          77823853                                                                                                                                                                                        0110950001               8992  1                                 
01            007401HH2   L61550302206   1550302206                 00000010200000102000968       827       013119020119          JEERZ020119071853E           A 1826       010219112 THOMAS ST           GEORGE PUCKETT                                  1550302206                                                                                                                                                                                      0110960001               105   1                                 
01            007501HH2   L677823839                                0000000460          467       461       013119020119          JEERA020119081526M           I 0460       010219204 THOMAS ST           CHARLES SYLVAIN FULLER                          77823839                                                                                                                                                                                        0110970001               8147  1                                 
01            007601HH2   L677823412     77823412                   00000002300000000230233       231       013119020119          JEERA020119081613A           A 1230       010219108 THOMAS ST           JOHN W. STONE                                   77823412                                                                                                                                                                                        0110980001               6030  1                                 
01            007701HH2   L61852609703   1852609703                 000000555300005553985524      5473      013119020119          JEERZ020119081054E           A 15472      010219107 THOMAS ST           EDISON TOWE JR                                  1852609703                                                                                                                                                                                      0110990001               108   1                                 
01            007801HH2   L61852216911   1852216911                 000000469300004693244409      4368      013119020119          JEERZ020119075228E           A 14367      010219108 LITTLE COURT        HUEY LEE BROWN                                  1852216911                                                                                                                                                                                      0111040001               7114  1                                 
01            007901HH2   L61834440884   1834440884                 000000488400004884754489      4488      013119020119          JEERZ020119081058E           A 14487      010219105 LITTLE COURT        JOY WEBB                                        1834440884                                                                                                                                                                                      0111050001               9281  1                                 
01            008001HH2   L61544814202   1544814202                 00000008610000086169802       726       013119020119          JEERZ020119082933E           A 1725       010219103 JOHNSON LN # A      JOHNNIE L WHITE                                 1544814202                                                                                                                                                                                      0111070001               9383  1                                 
01            008101HH2   L61544787650   1544787650                 00000001370000013744144       138       013119020119          JEERZ020119082759E           A 1137       010219103 B JOHNSON LN        SHELTON CHESSON                                 1544787650                                                                                                                                                                                      0111090001               123   1                                 
01            008201HH2   L61544806034   1544806034                 000000460600004606004564      4466      013119020119          JEERZ020119082946E           A 14465      010219111 JOHNSON LN          MARY HYMAN                                      1544806034                                                                                                                                                                                      0111120001               127   1                                 
01            008301HH2   L61544766048   1544766048                 000000723700007237057143      6983      013119020119          JEERZ020119082936E           A 16982      010219111 JOHNSON CT          ROOSEVELT HARVEY                                1544766048                                                                                                                                                                                      0111150001               1861  1                                 
01            008401HH2   L677822885     77822885                   0000023800000002380023791     23691     013119020119          JEERA020119085609A           A 123690     010219103 E MAIN ST           THEODORE J. BRZECZEK                            77822885                                                                                                                                                                                        0111160001               5849  1                                 
01            008501HH2   L677824272     77824272                   0000043965000004396544166     43931     013119020119          JEERA020119085821A           A 043930     010219105 E MAIN ST           UNITED FULL GOSPEL OF PL                        77824272                                                                                                                                                                                        0111170001               132   1                                 
01            008601HH2   L677823941                                0000005505          5505      5506      013119020119          JEERA020119085832M           I 05505      010219107 E MAIN ST           VACANT                                          77823941                                                                                                                                                                                        0111180001               9164  1                                 
01            008701HH2   L677823940     77823940                   00000007050000000705704       701       013119020119          JEERA020119085940A           A 1700       010219109 E MAIN ST           RICHARD MOORE                                   77823940                                                                                                                                                                                        0111190001               134   1                                 
01            008801HH2   L61542112348   1542112348                 0000013530000135303813530     13531     013119020119          JEERZ020119073017E           I 013530     010219111 E MAIN ST           VACANT                                          1542112348                                                                                                                                                                                      0111200001               9373  1                                 
01            008901HH2   L61834851131   1834851131                 0000045902000459027545556     45110     013119020119          JEERZ020119073014E           A 145109     010219203 E MAIN ST           HENRY BARSANTI                                  1834851131                                                                                                                                                                                      0111210001               4232  1                                 
01            009001HH2   L61852094889   1852094889                 0000016779000167798416840     16696     013119020119          JEERZ020119073014E           A 016695     010219205 E MAIN ST           WASHINGTON COUNTY( EMER.                        1852094889                                                                                                                                                                                      0111220001               5604  1                                 
01            009101HH2   L61834770044   1834770044                 0000013418000134181013285     13163     013119020119          JEERZ020119090016E           A 113162     010219305 E MAIN ST           BRENDA L. SENTER                                1834770044                                                                                                                                                                                      0111240001               7274  1                                 
01            009201HH2   L61482378198   1482378198                 0000030590000003059030500     30356     013119020119          JEERZ020119072204R           A 130355     010219311 E MAIN ST           MICHAEL & SHAYLEE WRIGHT                        1482378198                                                                                                                                                                                      0111250001               5814  1                                 
01            009301HH2   L61540944074   1540944074                 0000015018000150183214819     14658     013119020119          JEERZ020119073009E           A 114657     010219403 E MAIN ST           WILLIE WILLIAMS                                 1540944074                                                                                                                                                                                      0111260001               8129  1                                 
01            009401HH2   L61540801344   1540801344                 0000010282000102825510178     10055     013119020119          JEERZ020119071958E           A 110054     010219501 E MAIN ST           LEVANCE MITCHELL                                1540801344                                                                                                                                                                                      0111280001               143   1                                 
01            009501HH2   L677824294     77824294                   0000026035000002603525991     25891     013119020119          JEERA020119075753A           A 125890     010219503 E MAIN ST           ERNEST DOWNING                                  77824294                                                                                                                                                                                        0111290001               5762  1                                 
01            009601HH2   L677824293                                0000042350          42350     42351     013119020119          JEERA020119075806M           I 042350     010219505 E MAIN ST           VACANT                                          77824293                                                                                                                                                                                        0111300001               9267  1                                 
01            009701HH2   L677823351     77823351                   0000019625000001962519495     19176     013119020119          JEERA020119080046A           A 119175     010219513 E MAIN ST           DEJAH M BROWN                                   77823351                                                                                                                                                                                        0111320001               9232  1                                 
01            009801HH2   L677823905     77823905                   0000028240000002824028146     28016     013119020119          JEERA020119080057A           A 128015     010219515 E MAIN ST           SHIRLEY NORMAN                                  77823905                                                                                                                                                                                        0111330001               5288  1                                 
01            009901HH2   L61852631513   1852631513                 000000479900004799174744      4699      013119020119          JEERZ020119072348E           A 14698      010219517 E MAIN ST           JAMES R. BROOKS                                 1852631513                                                                                                                                                                                      0111340001               6433  1                                 
01            010001HH2   L61852217000   1852217000                 0000015995000159952015908     15839     013119020119          JEERZ020119072353E           A 115838     010219519 E MAIN ST           FELISHA DANIELS                                 1852217000                                                                                                                                                                                      0111350001               9349  1                                 
01            010101HH2   L61545861014   1545861014                 0000024662000246624824099     23591     013119020119          JEERZ020119090441E           A 123590     010219705 E MAIN ST           PLUMBLEE COURT                                  1545861014                                                                                                                                                                                      0111380001               154   1                                 
01            010201HH2   L61545886556   1545886556                 00007579180075791802737129    720079    013119020119          JEERZ020119090131E           A 1720078    010219705 E MAIN ST           PLUMBLEE COURT                                  1545886556                                                                                                                                                                                      0111380002               154   2                                 
01            010301HH2   L61834568409   1834568409                 000000758600007586047586      7587      013119020119          JEERZ020119071453E           I 07586      010219901 E MAIN ST           VACANT                                          1834568409                                                                                                                                                                                      0111390001               7742  1                                 
01            010401HH2   L677824374     77824374                   0000071965000007196571843     71691     013119020119          JEERA020119090605A           A 171690     010219903 E MAIN ST           DOUG NORMAN                                     77824374                                                                                                                                                                                        0111410001               158   1                                 
01            010501HH2   L677824371     77824371                   0000017450000001745017462     17306     013119020119          JEERA020119090611A           A 017305     010219905 E MAIN ST           VICTORIA WHITAKER                               77824371                                                                                                                                                                                        0111430001               9009  1                                 
01            010601HH2   L677824365     77824365                   0000047670000004767047631     47526     013119020119          JEERA020119090710A           A 147525     010219911 E MAIN ST           DONALD K MONCUS                                 77824365                                                                                                                                                                                        0111450001               9117  1                                 
01            010701HH2   L61550322616   1550322616                 000000501000005010684466      4081      013119020119          JEERZ020119080118E           A 14080      010219917 E MAIN STREET       LINDALEA SINGLETON                              1550322616                                                                                                                                                                                      0111460001               8937  1                                 
01            010801HH2   L61550185778   1550185778                 000000958800009588278860      7860      013119020119          JEERZ020119073016E           A 17859      010219116 ADAMS ST            WASHINGTON COUNTY#3 (ADM                        1550185778                                                                                                                                                                                      0120010001               3689  1                                 
01            010901HH2   L61548845918   1548845918                 000000371200003712892979      2841      013119020119          JEERZ020119090546E           A 12840      010219916 E MAIN ST           REV DWIGHT PRICE                                1548845918                                                                                                                                                                                      0120020001               8674  1                                 
01            011001HH2   L677824248     77824248                   0000055165000005516555114     55001     013119020119          JEERA020119090737A           A 155000     010219914 E MAIN ST           SANDRA HEWITT                                   77824248                                                                                                                                                                                        0120030001               4074  1                                 
01            011101HH2   L61550315846   1550315846                 000000174800001748281648      1488      013119020119          JEERZ020119080100E           A 11487      010219912 E MAIN ST           DONALD ROTE                                     1550315846                                                                                                                                                                                      0120040001               165   1                                 
01            011201HH2   L61548862338   1548862338                 00000004970000049730509       498       013119020119          JEERZ020119075029E           A 1497       010219910 E MAIN ST           HENRY BRAGG                                     1548862338                                                                                                                                                                                      0120050001               3486  1                                 
01            011301HH2   L677824368                                0000037510          37514     37511     013119020119          JEERA020119090535M           A 137510     010219908 E MAIN ST           MARY FAYE WALLACE                               77824368                                                                                                                                                                                        0120060001               167   1                                 
01            011401HH2   L677824367                                0000022830          22830     22831     013119020119          JEERA020119090544M           I 022830     010219906 E MAIN ST           VACANT                                          77824367                                                                                                                                                                                        0120070001               7870  1                                 
01            011501HH2   L61852938741   1852938741                 000000183900001839141839      1840      013119020119          JEERZ020119090558E           I 01839      010219904 E MAIN ST           VACANT                                          1852938741                                                                                                                                                                                      0120080001               9081  1                                 
01            011601HH2   L61834588104   1834588104                 0000014366000143667214209     14118     013119020119          JEERZ020119090503E           A 114117     010219902 E MAIN ST           CHARLES & SONDRA LEAVELL                        1834588104                                                                                                                                                                                      0120090001               6521  1                                 
01            011701HH2   L670105584                                0000051660          51534     51446     013119020119          JEERA020119090351M           A 151445     010219800 E MAIN ST           BOARD ED./PLY. HIGH                             70105584                                                                                                                                                                                        0120100001               171   1                                 
01            011801HH2   L600105584                                0000590046          588851    587512    013119020119          JEERA020119090412M           A 1587511    010219800 E MAIN ST           BOARD ED./PLY. HIGH                             00105584                                                                                                                                                                                        0120100002               171   2                                 
01            011901HH2   L61548832600   1548832600                 000000187400001874691568      1543      013119020119          JEERZ020119080119E           A 11542      010219909 E MAIN ST           K.K. TETTERTON                                  1548832600                                                                                                                                                                                      0120110001               160   1                                 
01            012001HH2   L61850268264                              0000001545          1545      1546      013119020119          JEERZ020119090248M           I 01545      010219710 E MAIN ST           VACANT                                          1850268264                                                                                                                                                                                      0120130001               8135  1                                 
01            012101HH2   L677823340     77823340                   0000044265000004426543861     43631     013119020119          JEERA020119090142A           A 143630     010219702 E MAIN ST           CAROL'S VARIETY #2                              77823340                                                                                                                                                                                        0120140001               3566  1                                 
01            012201HH2   L61540801294   1540801294                 000000202300002023962046      2024      013119020119          JEERZ020119072328E           A 12023      010219606 E MAIN ST           CAROL TOODLE                                    1540801294                                                                                                                                                                                      0120170001               6288  1                                 
01            012301HH2   L681388264     81388264                   0000093060000009306092824     92576     013119020119          JEERA020119080020A           A 192575     010219514 E MAIN ST           JOYCE L. KOSS                                   81388264                                                                                                                                                                                        0120180001               5603  1                                 
01            012401HH2   L61551465676   1551465676                 00000000930000009328117       1         013119020119          JEERZ020119072250E           A 00         010219510 E MAIN ST           HERBERT W MCCRAY                                1551465676                                                                                                                                                                                      0120190001               9224  1                                 
01            012501HH2   L677824341     77824341                   0000022020000002202022025     21956     013119020119          JEERA020119075857A           A 021955     010219508 E MAIN ST           ST. JOAN OF ARC CATH. CH                        77824341                                                                                                                                                                                        0120200001               181   1                                 
01            012601HH2   L677824339     77824339                   0000065335000006533565639     65296     013119020119          JEERA020119075923A           A 065295     010219506 E MAIN ST           ST. JOAN OF ARC CATH. CH                        77824339                                                                                                                                                                                        0120210001               182   1                                 
01            012701HH2   L61543572858   1543572858                 0000024972000249720225134     24658     013119020119          JEERZ020119072309E           A 024657     010219406 E WATER ST          DAVID ROTH                                      1543572858                                                                                                                                                                                      0120220001               6074  1                                 
01            012801HH2   L677824292                                0000028200          28200     28201     013119020119          JEERA020119075937M           I 028200     010219502 E MAIN ST           VACANT                                          77824292                                                                                                                                                                                        0120230001               7475  1                                 
01            012901HH2   L61834430225   1834430225                 0000019040000190405618957     18852     013119020119          JEERZ020119074954E           A 118851     010219410 E MAIN ST           CURTIS D TOODLLE                                1834430225                                                                                                                                                                                      0120240001               185   1                                 
01            013001HH2   L61834438869   1834438869                 0000020847000208474520738     20559     013119020119          JEERZ020119075216E           A 120558     010219408 E MAIN ST           GRACE FILLED BEGINNING                          1834438869                                                                                                                                                                                      0120250001               7219  1                                 
01            013101HH2   L61852455224   1852455224                 0000010220000102206810234     10156     013119020119          JEERZ020119075426E           A 010155     010219402 E MAIN ST           WILLIAM EARL DOWNING                            1852455224                                                                                                                                                                                      0120260001               187   1                                 
01            013201HH2   L61545838704   1545838704                 000000343200003432053432      3433      013119020119          JEERZ020119071454E           I 03432      010219314 A E MAIN ST         VACANT                                          1545838704                                                                                                                                                                                      0120280001               9057  1                                 
01            013301HH2   L61546706436   1546706436                 000000320800003208483077      2905      013119020119          JEERZ020119075004E           A 12904      010219314 E MAIN ST B         DRUCILLA WHITEHEAD                              1546706436                                                                                                                                                                                      0120290001               6103  1                                 
01            013401HH2   L61544753426   1544753426                 000000790400007904007809      7662      013119020119          JEERZ020119072309E           A 17661      010219308 E MAIN ST           CHRISTOPHER HERR                                1544753426                                                                                                                                                                                      0120310001               8591  1                                 
01            013501HH2   L61545895904   1545895904                 000000787900007879967736      7559      013119020119          JEERZ020119073010E           A 17558      010219206 E MAIN ST           WILLIAM T. HERMAN                               1545895904                                                                                                                                                                                      0120330001               5394  1                                 
01            013601HH2   L61550302222   1550302222                 000000112800001128721099      914       013119020119          JEERZ020119073022E           A 1913       010219114 E MAIN ST           LARRY & NYLA BOYD                               1550302222                                                                                                                                                                                      0120360001               5617  1                                 
01            013701HH2   L61548869138   1548869138                 000000136900001369581327      1232      013119020119          JEERZ020119073011E           A 11231      010219112 E MAIN ST           LESLIE L. JONES                                 1548869138                                                                                                                                                                                      0120370001               8946  1                                 
01            013801HH2   L61551460070   1551460070                 0000000054000000540770        1         013119020119          JEERZ020119073023E           A 00         010219108 E MAIN ST           W.L. WHITLEY                                    1551460070                                                                                                                                                                                      0120380001               204   1                                 
01            013901HH2   L677823942     77823942                   0000020260000002026020175     20161     013119020119          JEERA020119085756A           A 120160     010219104 E MAIN ST           SHARON WATERS                                   77823942                                                                                                                                                                                        0120390001               206   1                                 
01            014001HH2   L677823801     77823801                   0000010160000001016010134     10111     013119020119          JEERA020119085727A           A 110110     010219122 WASHINGTON ST APT A ROBERT D ALTON                                  77823801                                                                                                                                                                                        0120400001               8021  1                                 
01            014101HH2   L6                                        0000005836          5843      5835      013119020119          JEER 020119131229M           A 05834      010219CRESCENT DR             VIKING BOARD ED./VIKING                                                                                                                                                                                                                         0120430001               213   1                                 
01            014201HH2   L61482378164   1482378164                 0000018010000001801017914     17851     013119020119          JEERZ020119072341R           A 117850     010219105 N CRESCENT DR       DENA G. BRYANT                                  1482378164                                                                                                                                                                                      0120440001               9288  1                                 
01            014301HH2   L61482378836   1482378836                 0000022280000002228022380     22281     013119020119          JEERZ020119080029R           A 122280     010219102 WILTS AVE           FRED HUMPHREYS C/O KAREN                        1482378836                                                                                                                                                                                      0120450001               216   1                                 
01            014401HH2   L61834685266   1834685266                 000000861400008614448668      8614      013119020119          JEERZ020119131238E           A 08613      010219105 WILTS AVE           RUBY GURGANUS                                   1834685266                                                                                                                                                                                      0120460001               217   1                                 
01            014501HH2   L61482378378   1482378378                 0000026325000002632526243     26071     013119020119          JEERZ020119090120R           A 126070     010219105 1/2 WILTS AVE       MARIE K. WALLACE                                1482378378                                                                                                                                                                                      0120470001               7303  1                                 
01            014601HH2   L61544711800   1544711800                 000000212900002129252125      2073      013119020119          JEERZ020119090555E           A 12072      010219104 WILTS AVE           ANEKA C GIBSON/NIXON                            1544711800                                                                                                                                                                                      0120480001               9191  1                                 
01            014701HH2   L61482368636   1482368636                 00000005050000000505507       506       013119020119          JEERZ020119090433R           A 1505       010219106 WILTS AVE           PAUL SNOW                                       1482368636                                                                                                                                                                                      0120490001               220   1                                 
01            014801HH2   L61482377814                              0000000100          104       101       013119020119          JEERZ020119131310M           A 1100       010219108 WILTS AVE           GREGORY D. TETTERTON                            1482377814                                                                                                                                                                                      0120500001               5893  1                                 
01            014901HH2   L61483287700   1483287700                 000000729500000072957240      7241      013119020119          JEERZ020119131255R           I 17240      010219107 WILTS AVE           VACANT                                          1483287700                                                                                                                                                                                      0120510001               8824  1                                 
01            015001HH2   L61482378148   1482378148                 000000000000000000000         1         013119020119          JEERZ020119071454R           I 00         010219110 WILTS AVE           VACANT                                          1482378148                                                                                                                                                                                      0120520001               1906  1                                 
01            015101HH2   L61482376674                              0000025875          25875     25876     013119020119          JEERZ020119131334M           I 025875     010219112 WILTS AVE           VACANT                                          1482376674                                                                                                                                                                                      0120530001               8834  1                                 
01            015201HH2   L61482378634   1482378634                 0000023480000002348023414     23336     013119020119          JEERZ020119090443R           A 123335     010219114 WILTS AVE.          STEPHANIE HUDSON                                1482378634                                                                                                                                                                                      0120540001               224   1                                 
01            015301HH2   L61482369202                              0000038806          39021     38818     013119020119          JEERZ020119131459M           A 138817     010219113 WILTS AVE           NINA OWENS                                      1482369202                                                                                                                                                                                      0120550001               5664  1                                 
01            015401HH2   L61551463240   1551463240                 00000001030000010332103       1         013119020119          JEERZ020119080059E           A 00         010219116 WILTS AVE           PANZELLA MOORE                                  1551463240                                                                                                                                                                                      0120560001               6364  1                                 
01            015501HH2   L61482377904   1482377904                 0000029610000002961029610     29611     013119020119          JEERZ020119090440R           I 029610     010219118 WILTS AVE           VACANT                                          1482377904                                                                                                                                                                                      0120570001               9372  1                                 
01            015601HH2   L677824192                                0000014550          14550     14551     013119020119          JEERA020119131517M           I 014550     010219105 ROANOKE AVE         VACANT                                          77824192                                                                                                                                                                                        0120580001               6979  1                                 
01            015701HH2   L677824191                                0000049730          49730     49731     013119020119          JEERA020119131531M           I 049730     010219107 ROANOKE AVE         VACANT                                          77824191                                                                                                                                                                                        0120590001               9352  1                                 
01            015801HH2   L677824190                                0000018085          18085     18086     013119020119          JEERA020119131542M           I 018085     010219109 ROANOKE AVE         VACANT                                          77824190                                                                                                                                                                                        0120600001               7774  1                                 
01            015901HH2   L677824189     77824189                   0000065330000006533065251     65171     013119020119          JEERA020119131640A           A 165170     010219111 ROANOKE AVE         ERICA S WRIGHT                                  77824189                                                                                                                                                                                        0120610001               8741  1                                 
01            016001HH2   L61542408094   1542408094                 000000766900007669327669      7670      013119020119          JEERZ020119090548E           I 07669      010219201 ROANOKE AVE         VACANT                                          1542408094                                                                                                                                                                                      0120620001               9211  1                                 
01            016101HH2   L61834581698   1834581698                 0000016864000168647016678     16572     013119020119          JEERZ020119131342E           A 116571     010219203 ROANOKE AVE         BONNER PEELE                                    1834581698                                                                                                                                                                                      0120630001               5057  1                                 
01            016201HH2   L61543568036   1543568036                 000000780500007805427805      7806      013119020119          JEERZ020119075033E           I 07805      010219205 ROANOKE AVE         VACANT                                          1543568036                                                                                                                                                                                      0120640001               9338  1                                 
01            016301HH2   L677823307     77823307                   0000018070000001807018029     17851     013119020119          JEERA020119131932A           A 117850     010219207 ROANOKE AVE         KAROL FREEMAN                                   77823307                                                                                                                                                                                        0120650001               8668  1                                 
01            016401HH2   L61550310462   1550310462                 000000196500001965431751      1617      013119020119          JEERZ020119090456E           A 11616      010219209 ROANOKE AVE         KEVIN PETTIFORD                                 1550310462                                                                                                                                                                                      0120660001               5703  1                                 
01            016501HH2   L677823299     77823299                   0000077205000007720576914     76656     013119020119          JEERA020119131944A           A 176655     010219210 ROANOKE AVE         ANNLISHA_TYRONE PHELPS                          77823299                                                                                                                                                                                        0120670001               6564  1                                 
01            016601HH2   L677823312     77823312                   0000046190000004619046173     46016     013119020119          JEERA020119132023A           A 146015     010219211 ROANOKE AVE         CHARLIE WILSON                                  77823312                                                                                                                                                                                        0120680001               238   1                                 
01            016701HH2   L61551398334   1551398334                 0000000036000000364364        1         013119020119          JEERZ020119131252E           A 00         010219213 ROANOKE AVE         E.L. MCQUEEN                                    1551398334                                                                                                                                                                                      0120690001               239   1                                 
01            016801HH2   L61548849618   1548849618                 000000591900005919165630      5316      013119020119          JEERZ020119131821E           A 15315      010219301 ROANOKE AVE         KATRINA Y SANDERS                               1548849618                                                                                                                                                                                      0120700001               8471  1                                 
01            016901HH2   L61543645300   1543645300                 0000016056000160564015779     15532     013119020119          JEERZ020119131320E           A 115531     010219305 ROANOKE AVE         JULIA MODLIN LANIER                             1543645300                                                                                                                                                                                      0120710001               7576  1                                 
01            017001HH2   L677823297     77823297                   0000029050000002905029037     28931     013119020119          JEERA020119132116A           A 128930     010219306 ROANOKE AVE         SAMANTHA K. MARSHALL                            77823297                                                                                                                                                                                        0120720001               5611  1                                 
01            017101HH2   L61850473500   1850473500                 0000018792000187929618707     18604     013119020119          JEERZ020119132105E           A 118603     010219309 ROANOKE AVE         WILLIAM P. INGLE                                1850473500                                                                                                                                                                                      0120730001               243   1                                 
01            017201HH2   L61540940124   1540940124                 0000013899000138996414045     13900     013119020119          JEERZ020119131734E           A 113899     010219311 ROANOKE AVE         JUANITA U WASHINGTON                            1540940124                                                                                                                                                                                      0120740001               8691  1                                 
01            017301HH2   L61542445788   1542445788                 0000012316000123169512132     11969     013119020119          JEERZ020119131247E           A 111968     010219312 N CRESCENT DR       JAMES H. FRASHURE                               1542445788                                                                                                                                                                                      0120750001               4278  1                                 
01            017401HH2   L61834582021   1834582021                 0000015093000150939915101     14996     013119020119          JEERZ020119132152E           A 014995     010219404 ROANOKE AVE         ARCH B. BROWNING                                1834582021                                                                                                                                                                                      0120760001               246   1                                 
01            017501HH2   L61852938940   1852938940                 0000018374000183746218354     18103     013119020119          JEERZ020119132140E           A 118102     010219403 ROANOKE AVE         SHANNON S AGYAPONG                              1852938940                                                                                                                                                                                      0120770001               8706  1                                 
01            017601HH2   L61545836476   1545836476                 000000531900005319515143      5024      013119020119          JEERZ020119090800E           A 15023      010219405 ROANOKE AVE         JEAN BASNIGHT                                   1545836476                                                                                                                                                                                      0120780001               248   1                                 
01            017701HH2   L61545874754   1545874754                 0000010258000102580510002     9780      013119020119          JEERZ020119080101E           A 19779      010219408 ROANOKE AVE         ANN E. CODY                                     1545874754                                                                                                                                                                                      0120790001               249   1                                 
01            017801HH2   L61544802216   1544802216                 000000836800008368067121      6985      013119020119          JEERZ020119132107E           A 16984      010219407 ROANOKE AVE         STEVE BASNIGHT                                  1544802216                                                                                                                                                                                      0120800001               6604  1                                 
01            017901HH2   L61852454905   1852454905                 0000020782000207824420637     20449     013119020119          JEERZ020119132148E           A 120448     010219406 ROANOKE AVE         JULIAN & HEATHER CARR                           1852454905                                                                                                                                                                                      0120810001               6516  1                                 
01            018001HH2   L61482379238   1482379238                 0000063800000006380063547     63266     013119020119          JEERZ020119131420R           A 163265     010219102 KIRK AVE            JENNIFER S. NORMAN                              1482379238                                                                                                                                                                                      0120820001               6232  1                                 
01            018101HH2   L61551422844   1551422844                 000000000000000000010         1         013119020119          JEERZ020119131243E           I 00         010219103 KIRK AVE            VACANT                                          1551422844                                                                                                                                                                                      0120830001               9421  1                                 
01            018201HH2   L61542342544   1542342544                 0000011691000116918311596     11427     013119020119          JEERZ020119090754E           A 111426     010219106 KIRK AVE            MIKE BOWEN                                      1542342544                                                                                                                                                                                      0120840001               254   1                                 
01            018301HH2   L61482378150   1482378150                 0000074965000007496574645     74246     013119020119          JEERZ020119131245R           A 174245     010219105 KIRK AVE            JEROME PHELPS                                   1482378150                                                                                                                                                                                      0120850001               4730  1                                 
01            018401HH2   L61482378478   1482378478                 0000038705000003870538728     38581     013119020119          JEERZ020119090751R           A 038580     010219108 KIRK AVE            RICHARD COREY                                   1482378478                                                                                                                                                                                      0120860001               256   1                                 
01            018501HH2   L61483301554   1483301554                 0000032315000003231532030     31871     013119020119          JEERZ020119090809R           A 131870     010219119 LOGAN AVE           CHYVON GALLOWAY                                 1483301554                                                                                                                                                                                      0120870001               6476  1                                 
01            018601HH2   L61483301574   1483301574                 0000014710000001471014720     14656     013119020119          JEERZ020119090754R           A 014655     010219117 LOGAN AVE           GLENDA PHELPS                                   1483301574                                                                                                                                                                                      0120880001               7385  1                                 
01            018701HH2   L61483292758   1483292758                 0000018450000001845018388     18296     013119020119          JEERZ020119131415R           A 118295     010219118 LOGAN AVE           PETER J MEYERS                                  1483292758                                                                                                                                                                                      0120890001               7910  1                                 
01            018801HH2   L61483301580   1483301580                 0000021330000002133021325     21211     013119020119          JEERZ020119090551R           A 121210     010219115 LOGAN AVE           LISA M. NORMAN                                  1483301580                                                                                                                                                                                      0120900001               7048  1                                 
01            018901HH2   L61483292936   1483292936                 0000024595000002459524532     24411     013119020119          JEERZ020119090503R           A 124410     010219113 LOGAN AVE           MARIA BARROW                                    1483292936                                                                                                                                                                                      0120910001               4795  1                                 
01            019001HH2   L61483287472   1483287472                 0000017255000001725517177     17086     013119020119          JEERZ020119090515R           A 117085     010219114 LOGAN AVE           MARIA GARRETT                                   1483287472                                                                                                                                                                                      0120920001               5994  1                                 
01            019101HH2   L61545881198   1545881198                 000000628400006284306178      6028      013119020119          JEERZ020119080101E           A 16027      010219111 LOGAN AVE           MIKE SAWYER                                     1545881198                                                                                                                                                                                      0120930001               263   1                                 
01            019201HH2   L61483295154   1483295154                 0000012890000001289012742     12631     013119020119          JEERZ020119072353R           A 112630     010219109 LOGAN AVE           TIMOTHY D WARD                                  1483295154                                                                                                                                                                                      0120950001               8806  1                                 
01            019301HH2   L61483287700   1483287700                 000000729500000072957276      7241      013119020119          JEERZ020119131713R           A 17240      010219107 LOGAN AVE           CATHERINE CHESSON                               1483287700                                                                                                                                                                                      0120960001               266   1                                 
01            019401HH2   L61483293090   1483293090                 0000027995000002799527838     27676     013119020119          JEERZ020119131240R           A 127675     010219105 LOGAN AVE           SHAQUILLE YOUNG                                 1483293090                                                                                                                                                                                      0120970001               8950  1                                 
01            019501HH2   L61834586547   1834586547                 0000017002000170027316991     16890     013119020119          JEERZ020119131817E           A 116889     010219110 LOGAN AVE           RENATE BARROW                                   1834586547                                                                                                                                                                                      0120980001               268   1                                 
01            019601HH2   L61483301582   1483301582                 0000021370000002137021315     21211     013119020119          JEERZ020119090552R           A 121210     010219103 LOGAN AVE           ANNA I. FREEMAN                                 1483301582                                                                                                                                                                                      0120990001               7049  1                                 
