101 051000033 0531050590205101232A094101FRB RICHMOND           FOUR OAKS BANK & TRUST         
5200TOWN OF FOUR OAK                    5607931800PPDUTIL BILL 020601020601   1053105050000001
6270531050590312445206       000000346124             J.RUSSELL LEE (A)       0053105050000001
6270531050590308411606       000000337532             SAMUEL BOYETTE (A)      0053105050000002
62725317704908606086319      000000540054             JUDY HANSLEY (A)        0053105050000003
62725317704908628609512      000000671671             RALPH PARKER,JR. (A)    0053105050000004
6270531050590300846006       0000003093116            W.J. HILL (A)           0053105050000005
6270531050590300868106       0000003093134            HELEN B. MASSENGILL (A  0053105050000006
6270531050590314032606       0000003375136            MAE ELLEN ALLEN (A)     0053105050000007
6270531050590905334406       0000004446140            KAY WOOD (A)            0053105050000008
6270531050590303034206       0000003093143            ROSA LEE JOHNSON (A)    0053105050000009
6270531008500553117161       0000003375232            JOHN LITTLETON (A)      0053105050000010
6270531050590300476706       0000003093272            H.J. BEEKER (A)         0053105050000011
6270531050590308285706       0000003482283            HORACE KEENE (A)        0053105050000012
6270531050590308285706       0000000625284            HORACE KEENE (EX-A)     0053105050000013
6270531050590300485606       0000003294289            GERTRUD BEAVER (A)      0053105050000014
6270531050590300485606       0000000531290            GERTRUD BEAVER (A)      0053105050000015
6270531050590313972706       0000003905317            MARY LYNN MASSENGILL (  0053105050000016
6270531050590313972706       0000000625318            MARY LYNN MASSENGILL(E  0053105050000017
6270531050590308304706       0000003246328            JUANITA WYNN (A)        0053105050000018
6270531050590308614306       0000006645329            BILLY DEAN JOHNSON (A)  0053105050000019
62725317704908605797338      0000004049330            LARRY RHODES (A)        0053105050000020
62725317704908624458868      0000005574398            GARY JOHNSON (A)        0053105050000021
6270531050590300927006       0000003255410            CHESTER STANLEY (A)     0053105050000022
6270531050590307074306       0000004868442            HELEN STANLEY (A)       0053105050000023
6270531050590307074306       0000000625443            HELEN STANLEY (EX-A)    0053105050000024
6270531050590730556706       0000003093448            JAMES E. MCLAMB (A)     0053105050000025
6270531008500553137525       0000005270461            GARY BLACKMON (A)       0053105050000026
6270531050590730245206       0000004842463            LINWOOD PARKER (A)      0053105050000027
6270531050590730245206       0000000625464            LINWOOD PARKER (EX-A)   0053105050000028
62725317704908628394590      0000004827474            CHAD/AMY MCLAMB (A)     0053105050000029
6270531050590314367806       0000006691651            CLAUDE BOYETTE,JR (A)   0053105050000030
6270531050590308459006       0000003439817            LORETA BEASLEY (A)      0053105050000031
6270531050590301457606       00000011901108           JESSE WADE LASSITER (A  0053105050000032
6270531003003249428759       00000012551128           EDWARD MASSENGILL (A)   0053105050000033
62725317704908604797360      00000033751167           SHIRLEY WALLACE (A)     0053105050000034
6270531050590314230206       00000044051171           PAUL JASON LEE (A)      0053105050000035
6270531050590312134806       00000049011173           KAY CARROLL (A)         0053105050000036
6270531050590650094306       00000036881188           JEFF POPE (A)           0053105050000037
6270531050590307927906       00000055321190           MIKE HINES (A)          0053105050000038
6270531050590600829101       00000057971192           JIM UZZLE (A)           0053105050000039
6270531003003249458624       00000077091197           WAYNE L.BAREFOOT (A)    0053105050000040
6270531003003249712119       00000031501204           JENNIE N. GRIMES (A)    0053105050000041
6270531008500553150631       00000038491287           BRANDON/JENNIFER HOWEL  0053105050000042
62725317704908627061380      00000033751398           DAVID BAREFOOT(A)       0053105050000043
62725317704908627061380      00000006251399           DAVID BAREFOOT(A)       0053105050000044
6270531008500553117161       00000026991735           JOHN LITTLETON          0053105050000045
6270531003003249458624       00000011501751           WAYNE BAREFOOT          0053105050000046
6270531011211103015673       00000075091833           BRUCE EDWARDS           0053105050000047
62725317704908627061380      00000033751903           DAVID BAREFOOT          0053105050000048
622051000033102598801        0000175615               TOWN OF FOUR OAKS       0053105050000049
820000004904400650610000001756150000001756155607931800                         053105050000001
9000001000006000000490440065061000000175615000000175615                                       
9999999999999999999999999999999999999999999999999999999999999999999999999999999999999999999999
9999999999999999999999999999999999999999999999999999999999999999999999999999999999999999999999
9999999999999999999999999999999999999999999999999999999999999999999999999999999999999999999999
9999999999999999999999999999999999999999999999999999999999999999999999999999999999999999999999
9999999999999999999999999999999999999999999999999999999999999999999999999999999999999999999999
9999999999999999999999999999999999999999999999999999999999999999999999999999999999999999999999
9999999999999999999999999999999999999999999999999999999999999999999999999999999999999999999999
