60            001001      L400000000                                                    -1073741821                                 EU                         I  0         021700NC 50N                  JAMES D STEPHENSON                              00000000                                                                                                                                                                                        6000099901               6720  1                                 
60            002001      L412430290                                                    165037    163001                            EU                         A  163000    0916036620 NC 50N             VICTOR BYRD                                     12430290                                                                                                                                                                                        6000662001               5423  1                                 
60            003001      L434151265                                                    142807    141001                            EU                         A  141000    0916036744 NC 50N             ARNOLD J. STROUD                                34151265                                                                                                                                                                                        6000674401               8137  1                                 
60            004001      L400000000                                                    0         1                                 EU                         A  0         1027996827 NC 50N             SHELTON BENSON                                  00000000                                                                                                                                                                                        6000682701               5425  1                                 
60            005001      L451296784                                                    25339     25001                             EU                         A  25000     0916036963 NC 50N/OLDCHURCH   BENSON GROVE BAPTIST CH.                        51296784                                                                                                                                                                                        6000696301               8394  1                                 
60            006001      L412127631                                                    265359    262001                            EU                         A  262000    0916037020 NC 50N/NEW HOUSE   JOE & SHERRY MCINTYRE                           12127631                                                                                                                                                                                        6000702001               5426  1                                 
60            007001      L411196492                                                    247485    244001                            EU                         A  244000    0916037065 NC 50N             JACK'S INC.                                     11196492                                                                                                                                                                                        6000706501               8199  1                                 
60            008001      L412427017                                                    49629     49001                             EU                         A  49000     0916037090 NC 50N             DORIS BARBOUR                                   12427017                                                                                                                                                                                        6000709001               5427  1                                 
60            009001      L434008891                                                    86518     85001                             EU                         A  85000     0916037181 NC 50N             RON & BRENDA BLANCHARD                          34008891                                                                                                                                                                                        6000718101               10794 1                                 
60            010001      L412531501                                                    88115     87001                             EU                         A  87000     0916037311 NC 50N             BRENT WADE WEEKS                                12531501                                                                                                                                                                                        6000731101               7741  1                                 
60            011001      L400000000                                                    0         1                                 EU                         A  0         1027997315 NC 50N             GOLDIE IVEY                                     00000000                                                                                                                                                                                        6000731501               5430  1                                 
60            012001      L400000000                                                    0         1                                 EU                         A  0         1027997351 NC 50N             GARY DUDLEY                                     00000000                                                                                                                                                                                        6000735101               5431  1                                 
60            013001      L412565553                                                    108305    107001                            EU                         A  107000    0916037390 NC 50N             WADE BEASLEY                                    12565553                                                                                                                                                                                        6000739001               5432  1                                 
60            014001      L412543993                                                    38464     38001                             EU                         A  38000     091603BESIDE 7390 NC 50N      WADE ALLEN BEASLEY                              12543993                                                                                                                                                                                        6000739101               7592  1                                 
60            015001      L451296835                                                    46590     46001                             EU                         A  46000     0916037447 NC 50N             JERRY & SUE VANN                                51296835                                                                                                                                                                                        6000744701               16967 1                                 
60            016001      L400000000                                                    0         1                                 EU                         A  0         1027997504 NC 50N             EVA A BENSON                                    00000000                                                                                                                                                                                        6000750401               5434  1                                 
60            017001      L400000000                                                    -1073741821                                 EU                         I  0         0825007583 NC 50N             RANDAL S. BENSON                                00000000                                                                                                                                                                                        6000758301               8164  1                                 
60            018001      L400000000                                                    0         1                                 EU                         I  0         1222997583 NC 50N             SHELTON BENSON                                  00000000                                                                                                                                                                                        6000758401               6001  1                                 
60            019001      L452796414                                                    12154     12001                             EU                         A  12000     0916037713 NC 50N             KATHY LANCASTER                                 52796414                                                                                                                                                                                        6000771301               5436  1                                 
60            020001      L411150149                                                    126602    125001                            EU                         A  125000    0916037756 NC 50N             SUE LANGDON                                     11150149                                                                                                                                                                                        6000775601               5437  1                                 
60            021001      L400000000                                                    0         1                                 EU                         I  0         122299RALEIGH RD/1OF2         JEROME LANGDON                                  00000000                                                                                                                                                                                        6000775701               6002  1                                 
60            022001      L400000000                                                    0         1                                 EU                         I  0         122299RALEIGH RD/2OF2         JEROME LANGDON                                  00000000                                                                                                                                                                                        6000775801               6003  1                                 
60            023001      L400000000                                                    0         1                                 EU                         I  0         122299380 LANGDON RD          JEROME LANGDON                                  00000000                                                                                                                                                                                        6000775901               6004  1                                 
60            024001      L412436475                                                    135675    134001                            EU                         A  134000    0916037782 NC 50N             ROBERT E. LANGDON                               12436475                                                                                                                                                                                        6000778201               5438  1                                 
60            025001      L400000000                                                    0         1                                 EU                         A  0         0725017869 NC 50N             VIOLA K. CLIFTON                                00000000                                                                                                                                                                                        6000786901               12513 1                                 
60            026001      L400000000                                                    0         1                                 EU                         A  0         0606017899 NC 50N             VIOLA K. CLIFTON                                00000000                                                                                                                                                                                        6000789901               11568 1                                 
60            027001      L452796365                                                    47643     46001                             EU                         A  46000     0916037957 NC 50N             JASPER LANGDON                                  52796365                                                                                                                                                                                        6000795701               16349 1                                 
60            028001      L411170162                                                    75961     75001                             EU                         A  75000     0916038011 NC 50N             PAUL LASSITER                                   11170162                                                                                                                                                                                        6000801101               5439  1                                 
60            029001      L434009292                                                    23295     23001                             EU                         A  23000     0916038031 NC 50N             LYDA EASON                                      34009292                                                                                                                                                                                        6000803101               5440  1                                 
60            030001      L411230396                                                    18231     18001                             EU                         A  18000     0916038049 NC 50N             EULA C. GRIMES                                  11230396                                                                                                                                                                                        6000804901               5441  1                                 
60            031001      L412449495                                                    73936     73001                             EU                         A  73000     0916038192 NC 50N             J.R. JOHNSON                                    12449495                                                                                                                                                                                        6000819201               5442  1                                 
60            032001      L400000000                                                    0         1                                 EU                         A  0         022701????? NC 50N            JUDI SMITH                                      00000000                                                                                                                                                                                        6000819301               9508  1                                 
60            033001      L400000000                                                    0         1                                 EU                         A  0         0725018197-A NC 50N           GARLAND JOHNSON                                 00000000                                                                                                                                                                                        6000819701               11972 1                                 
60            034001      L412526641                                                    130613    129001                            EU                         A  129000    0916038280 NC 50N             JOHNSON MEMORIAL CHURCH                         12526641                                                                                                                                                                                        6000828001               5443  1                                 
60            035001      L412421747                                                    65813     65001                             EU                         A  65000     0916038624 NC 50N             THERSA PARRISH                                  12421747                                                                                                                                                                                        6000862401               18805 1                                 
60            036001      L412440206                                                    61762     61001                             EU                         A  61000     0916038656 NC 50N             NETA BYRD                                       12440206                                                                                                                                                                                        6000865601               5445  1                                 
60            037001      L412124210                                                    69885     69001                             EU                         A  69000     0916038739 NC 50N             JAMES L. CLIFTON                                12124210                                                                                                                                                                                        6000873901               13221 1                                 
60            038001      L412218681                                                    0         1                                 EU                         A  0         0916038769 NC 50N             JAMES L. CLIFTON                                12218681                                                                                                                                                                                        6000876901               5447  1                                 
60            039001      L454488683                                                    0         1                                 EU                         A  0         0916038800 NC 50N/1"          DESIGNER HOMES INC.     07E05048C               54488683                07E05048C                                                                                                                                                               6000880001               20655 1                                 
60            040001      L400000000                                                    0         1                                 EU                         A  0         1027998852 NC 50N             GLENN CLIFTON                                   00000000                                                                                                                                                                                        6000885201               5448  1                                 
60            041001      L412453207                                                    124576    123001                            EU                         A  123000    0916038917 NC 50N             WILLIAM LAMBERT                                 12453207                                                                                                                                                                                        6000891701               5449  1                                 
60            042001      L412122019                                                    56718     56001                             EU                         A  56000     0916039039 NC 50N             MARY PARRISH                                    12122019                                                                                                                                                                                        6000903901               5455  1                                 
60            043001      L400000000                                                    0         1                                 EU                         I  0         1028999083 NC 50N             JOSEPH SMITH                                    00000000                                                                                                                                                                                        6000908301               5457  1                                 
60            044001      L413751674                                                    98616     97001                             EU                         A  97000     0916039201-A NC 50N           CHARLES ALBERT GREGORY                          13751674                                                                                                                                                                                        6000920101               10196 1                                 
60            045001      L413705771                                                    195200    192001                            EU                         A  192000    0916039201-B NC 50N           CHARLES ALBERT GREGORY                          13705771                                                                                                                                                                                        6000920301               10197 1                                 
60            046001      L400000000                                                    -1073741821                                 EU                         I  0         0922039573 NC 50 N(1"TAP)     SHAWN & ROBIN NORRIS                            00000000                                                                                                                                                                                        6000957301               21970 1                                 
60            047001      L400000000                                                    0         1                                 EU                         A  0         1028999576 NC 50N             BRUCE FAIRCLOTH                                 00000000                                                                                                                                                                                        6000957601               5458  1                                 
60            048001      L400000000                                                    0         1                                 EU                         A  0         1028999635 NC 50N             RONALD NORRIS                                   00000000                                                                                                                                                                                        6000963501               5459  1                                 
60            049001      L434009083                                                    88060     87001                             EU                         A  87000     0916039638 NC 50N             BILLY R WILKERSON                               34009083                                                                                                                                                                                        6000963801               5460  1                                 
60            050001      L400000000                                                    0         1                                 EU                         A  0         0606019658 NC 50N             WILLIAM MEBANE                                  00000000                                                                                                                                                                                        6000965801               11569 1                                 
60            051001      L400000000                                                    0         1                                 EU                         A  0         0606019682 NC 50N             MELVIN LANGDON                                  00000000                                                                                                                                                                                        6000968201               8409  1                                 
60            052001      L434183727                                                    26501     26001                             EU                         A  26000     0916039983 NC 50N             BILLIE BAREFOOT                                 34183727                                                                                                                                                                                        6000998301               11960 1                                 
60            053001      L434077591                                                    135463    133001                            EU                         A  133000    0916039985 NC 50N             DAVID M BAREFOOT III                            34077591                                                                                                                                                                                        6000998501               11570 1                                 
60            054001      L400000000                                                    0         1                                 EU                         I  0         072501???? NC 50N             FALLON MELVIN                                   00000000                                                                                                                                                                                        6000999901               11973 1                                 
60            055001      L400000000                                                    0         1                                 EU                         A  0         10289910034 NC 50N            MITCHELL BARBOUR                                00000000                                                                                                                                                                                        6001003401               5461  1                                 
60            056001      L412067379                                                    63768     63001                             EU                         A  63000     09160310051 NC 50N            LETTIE JOHNSON                                  12067379                                                                                                                                                                                        6001005101               5463  1                                 
60            057001      L412180446                                                    90086     89001                             EU                         A  89000     09160310075 NC 50N            GERALD BENSON                                   12180446                                                                                                                                                                                        6001007501               5464  1                                 
60            058001      L412583734                                                    71866     71001                             EU                         A  71000     09160310099 NC 50N            PATRICIA KING                                   12583734                                                                                                                                                                                        6001009901               18760 1                                 
60            059001      L4                                                            0         1                                 EU                         I  0         10289910099 NC 50N            BILLY CARTER-DO NOT ACTI                                                                                                                                                                                                                        6001010001               5466  1                                 
60            060001      L411155603                                                    26317     26001                             EU                         A  26000     09160310167 NC 50N            RUBY BARBOUR                                    11155603                                                                                                                                                                                        6001016701               5467  1                                 
60            061001      L400000000                                                    0         1                                 EU                         A  0         10299910176 NC 50N            J H LANGDON                                     00000000                                                                                                                                                                                        6001017601               5468  1                                 
60            062001      L413843234                                                    9110      9001                              EU                         A  9000      09160310178 NC 50N            JAMES H LANGDON, JR                             13843234                                                                                                                                                                                        6001017801               5469  1                                 
60            063001      L413849589                                                    101219    100001                            EU                         A  100000    09160310196 NC 50N            EARL R. HONEYCUTT                               13849589                                                                                                                                                                                        6001019601               5470  1                                 
60            064001      L410743294                                                    65637     65001                             EU                         A  65000     09160310197 NC 50N/RT BX ON GRSTEVEN M. AUTEN                                 10743294                                                                                                                                                                                        6001019701               4513  1                                 
60            065001      L410704653                                                    134330    133001                            EU                         A  133000    09080310321 NC 50N-LFT BOX ON DWAYNE FOWLER                                   10704653                                                                                                                                                                                        6001032101               21984 1                                 
60            066001      L408988765                                                    6350520   6295001                           EU                         A  6295000   09160310330 NC 50N/MCGEESELEMEJOHNSTON COUNTY SCHOOLS MCGEES ELEM (K-5)       08988765                MCGEES ELEM (K-5)                                                                                                                                                       6001033001               2613  1                                 
60            067001      L412459984                                                    100237    99001                             EU                         A  99000     09160310405 NC 50N            MELVIN REVELS                                   12459984                                                                                                                                                                                        6001040501               5471  1                                 
60            068001      L400000000                                                    0         1                                 EU                         A  0         10299910579 NC 50N/1OF6       S.S. SAULS & SONS INC.                          00000000                                                                                                                                                                                        6001057901               5472  1                                 
60            069001      L400000000                                                    0         1                                 EU                         A  0         06130010579 NC 50N/2OF6       S.S. SAULS & SONS INC.                          00000000                                                                                                                                                                                        6001058001               8140  1                                 
60            070001      L400000000                                                    0         1                                 EU                         A  0         06130010579 NC 50N/3OF6       S.S. SAULS & SONS INC.                          00000000                                                                                                                                                                                        6001058101               8141  1                                 
60            071001      L400000000                                                    0         1                                 EU                         A  0         06130010579 NC 50N/4OF6       S.S. SAULS & SONS INC.                          00000000                                                                                                                                                                                        6001058201               8142  1                                 
60            072001      L400000000                                                    0         1                                 EU                         A  0         06130010579 NC 50N/5OF6       S.S. SAULS & SONS INC.                          00000000                                                                                                                                                                                        6001058301               8143  1                                 
60            073001      L400000000                                                    0         1                                 EU                         A  0         06130010579 NC 50N/6OF6       S.S. SAULS & SONS INC.                          00000000                                                                                                                                                                                        6001058401               8144  1                                 
60            074001      L411053886                                                    322189    319001                            EU                         A  319000    09160310620 NC 50N            THE FLOWER PATCH                                11053886                                                                                                                                                                                        6001062001               16879 1                                 
60            075001      L409982233                                                    500592    496001                            EU                         A  496000    09120310754 NC 50N-1"         DAPHNE R. NOLES                                 09982233                                                                                                                                                                                        6001075401               3559  1                                 
60            076001      L400000000                                                    0         1                                 EU                         A  0         10299910755 NC 50N            SID SAULS                                       00000000                                                                                                                                                                                        6001075501               5473  1                                 
60            077001      L400000000                                                    0         1                                 EU                         A  0         10170210781 NC 50N(CHURCH)    FIRSTBORN BAPTIST CHURCH13D04059Z               00000000                13D04059Z                                                                                                                                                               6001078101               11992 1                                 
60            078001      L400000000                                                    0         1                                 EU                         A  0         10170210781 NC 50N(PARSONAGE) FIRSTBORN BAPTIST CHURCH13D04059Z               00000000                13D04059Z                                                                                                                                                               6001078201               11993 1                                 
60            079001      L434008921                                                    66868     66001                             EU                         A  66000     09120310831 NC 50N            AHMAD ALI                                       34008921                                                                                                                                                                                        6001083101               11260 1                                 
60            080001      L400000000                                                    0         1                                 EU                         A  0         06130011062 NC 50N            LARRY ROBERTS                                   00000000                                                                                                                                                                                        6001106201               8130  1                                 
60            081001      L412458452                                                    119512    118001                            EU                         A  118000    09120311234 NC 50N            RENA MOSS                                       12458452                                                                                                                                                                                        6001123401               5478  1                                 
60            082001      L430065564                                                    51981     51001                             EU                         A  51000     09120311265 NC 50N            MAC JONES                                       30065564                                                                                                                                                                                        6001126501               11928 1                                 
60            083001      L410723934                                                    329166    325001                            EU                         A  325000    09120311288 NC 50N            RICHARD A. JONES                                10723934                                                                                                                                                                                        6001128801               5477  1                                 
60            084001      L412420024                                                    247128    244001                            EU                         A  244000    09120311494 NC 50N            CRAIG & ANNETTE CLIFTON                         12420024                                                                                                                                                                                        6001149401               6006  1                                 
60            085001      L412459010                                                    189397    187001                            EU                         A  187000    09120312020 NC 50N            W. PAUL STEPHENSON, JR.                         12459010                                                                                                                                                                                        6001202001               5480  1                                 
60            086001      L400000000                                                    0         1                                 EU                         I  0         06130112020 NC 50N            ANN STEPHENSON                                  00000000                                                                                                                                                                                        6001202101               6007  1                                 
60            087001      L434191558                                                    64218     63001                             EU                         A  63000     09120312100 NC 50N            STEPHENSON'S NURSERY INC                        34191558                                                                                                                                                                                        6001210001               6009  1                                 
60            088001      L412436474                                                    195475    193001                            EU                         A  193000    09120312103 NC 50N            WAYNE T. STEPHENSON                             12436474                                                                                                                                                                                        6001210301               7703  1                                 
60            089001      L400000000                                                    0         1                                 EU                         A  0         10299912171 NC 50N            RANDY BENSON                                    00000000                                                                                                                                                                                        6001217101               5476  1                                 
60            090001      L434009550                                                    143711    141001                            EU                         A  141000    09120312570 NC 50N            FALLON MELVIN                                   34009550                                                                                                                                                                                        6001257001               11534 1                                 
60            091001      L410644914                                                    85235     84001                             EU                         A  84000     09120312591 NC 50N            RICHARD STIRONEK                                10644914                                                                                                                                                                                        6001259101               8918  1                                 
60            092001      L400000000                                                    0         1                                 EU                         A  0         10299912608 NC 50N            MALCOLM MOORE                                   00000000                                                                                                                                                                                        6001260801               5481  1                                 
60            093001      L451297109                                                    23442     23001                             EU                         A  23000     09120312612 NC 50N            JOYCE B. WEEKS                                  51297109                                                                                                                                                                                        6001261201               11961 1                                 
60            094001      L451297396                                                    83051     82001                             EU                         A  82000     09120312740 NC 50N/HOUSE      JOHN HOWELL                                     51297396                                                                                                                                                                                        6001274001               5482  1                                 
60            095001      L451297397                                                    24308     24001                             EU                         A  24000     09120312740 NC 50N/BUSINESS   JOHN HOWELL                                     51297397                                                                                                                                                                                        6001274101               8138  1                                 
60            096001      L432089567                                                    82038     81001                             EU                         A  81000     09120312776A NC 50N           REBECCA TART                                    32089567                                                                                                                                                                                        6001277601               5483  1                                 
60            097001      L410687997                                                    190685    188001                            EU                         A  188000    09120313551 NC 50N            VICTOR PENNY                                    10687997                                                                                                                                                                                        6001355101               5484  1                                 
60            098001      L434009059                                                    370693    366001                            EU                         A  366000    09120313718 NC 50N/PJ'SGROCERYDON LEE INC.                                    34009059                                                                                                                                                                                        6001371801               6210  1                                 
60            099001      L411136741                                                    310937    307001                            EU                         A  307000    09120313818 NC 50N            KIDDIE KOUNTRY DAY CARE                         11136741                                                                                                                                                                                        6001381801               5485  1                                 
60            100001      L413701728                                                    64821     64001                             EU                         A  64000     09120313923 NC 50N            EARL BANKS                                      13701728                                                                                                                                                                                        6001392301               9269  1                                 
60            101001      L400000000                                                    0         1                                 EU                         A  0         06130013954 NC 50N            KATHRYN & JAMES STEPHENS                        00000000                                                                                                                                                                                        6001395401               8037  1                                 
60            102001      L413328790                                                    102294    101001                            EU                         A  101000    09120314026 NC 50N            MICHELLE WALL                                   13328790                                                                                                                                                                                        6001402601               21145 1                                 
60            103001      L413685476                                                    69884     69001                             EU                         A  69000     09120314060 NC 50N            DOROTHY H NESSELRODT                            13685476                                                                                                                                                                                        6001406001               5486  1                                 
60            104001      L452923412                                                    44054     43001                             EU                         A  43000     0916036966 NC 50N/1.5"NEWCHURCBENSON GROVE BAPTIST CH.                        52923412                                                                                                                                                                                        6001696401               8393  1                                 
60            105001      L400000000                                                    0         1                                 EU                         A  0         1027996999 NC 50N             T.G. ENNIS                                      00000000                                                                                                                                                                                        6001699901               5424  1                                 
60            106001      L400000000                                                    0         1                                 EU                         A  0         1117997008 NC 50N/OLD HOUSE   JOE & SHERRY MCINTYRE                           00000000                                                                                                                                                                                        6001700901               5610  1                                 
60            107001      L434113060                                                    7146      7001                              EU                         A  7000      09120362 OLD LEE RD.          PHYLLIS EDWARDS                                 34113060                                                                                                                                                                                        6002006201               12323 1                                 
60            108001      L400000000                                                    -1073741821                                 EU                         I  0         021100432 OLD LEE RD          JAMES GODWIN                                    00000000                                                                                                                                                                                        6002043201               6608  1                                 
60            109001      L453971209                                                    3375      3001                              EU                         A  3000      09120334 CROSS RIDGE DR/1CROSSASHLEY TURNER                                   53971209                                                                                                                                                                                        6003000101               20781 1                                 
60            110001      L432089531                                                    37286     36001                             EU                         A  36000     091203108 CROSS RIDGE DR/3CROSTERRY & EFFIE FIFE                              32089531                                                                                                                                                                                        6003000301               19892 1                                 
60            111001      L453772393                                                    6500      6001                              EU                         A  6000      091203138 CROSS RIDGE DR/4CROSKEVIN & ANNAH CREECH                            53772393                                                                                                                                                                                        6003000401               21158 1                                 
60            112001      L451297157                                                    11393     11001                             EU                         A  11000     091203168 CROSS RIDGE DR/5CROSDENNIS ANTHONY PENDER                           51297157                                                                                                                                                                                        6003000501               20082 1                                 
60            113001      L451297156                                                    29000     28001                             EU                         A  28000     091203198 CROSS RIDGE DR/6CROSMONTY HASSELL                                   51297156                                                                                                                                                                                        6003000601               18091 1                                 
60            114001      L452796158                                                    43750     42001                             EU                         A  42000     091203232 CROSS RIDGE DR/7CROSMARY & JERRY MINTZ                              52796158                                                                                                                                                                                        6003000701               19875 1                                 
60            115001      L453529930                                                    8572      8001                              EU                         A  8000      091203250 CROSS RIDGE DR/8CROSBRENT FRAMPTON                                  53529930                                                                                                                                                                                        6003000801               20685 1                                 
60            116001      L452633501                                                    42708     41001                             EU                         A  41000     091203256 CROSS RIDGE DR/9CROSMATTHEW CARLAN                                  52633501                                                                                                                                                                                        6003000901               18075 1                                 
60            117001      L451297222                                                    17607     17001                             EU                         A  17000     091203255 CROSS RIDGE DR/10CRORONALD & BESS LEE                               51297222                                                                                                                                                                                        6003001001               20705 1                                 
60            118001      L453337791                                                    8286      8001                              EU                         A  8000      091203247 CROSS RIDGE DR/11CROJENNIFER & RICHARD WYATT                        53337791                                                                                                                                                                                        6003001101               19654 1                                 
60            119001      L453572571                                                    1072      1001                              EU                         A  1000      091203215 CROSS RIDGE DR/12CROASHLEY TURNER BLDRS.                            53572571                                                                                                                                                                                        6003001201               19106 1                                 
60            120001      L453337767                                                    21111     20001                             EU                         A  20000     09120342 TALLTREE CT/13CROSSRIKAREN FLETCHER                                  53337767                                                                                                                                                                                        6003001301               19399 1                                 
60            121001      L451297225                                                    30035     29001                             EU                         A  29000     09120343 TALLTREE CT/14CROSSRIJASON AUGUSTINE                                 51297225                                                                                                                                                                                        6003001401               19575 1                                 
60            122001      L453572567                                                    6600      6001                              EU                         A  6000      09120325 TALLTREE CT/15CROSSRISCOTT BUTTERS                                   53572567                                                                                                                                                                                        6003001501               21166 1                                 
60            123001      L453337789                                                    14625     14001                             EU                         A  14000     091203133 CROSS RIDGE DR/16CROJAMES & TAMIKO CHAVIS                           53337789                                                                                                                                                                                        6003001601               19874 1                                 
60            124001      L453696585                                                    0         1                                 EU                         A  0         09120397 CROSS RIDGE DR/17CROSASHLEY TURNER                                   53696585                                                                                                                                                                                        6003001701               21557 1                                 
60            125001      L409561098                                                    1134167   1134001                           EU                         A  1134000   09120376 OLD TREE CT/18CROSSRIDARRELL GIGAC                                   09561098                                                                                                                                                                                        6003001801               22014 1                                 
60            126001      L453337802                                                    10625     10001                             EU                         A  10000     09120385 OLD TREE CT/19CROSSRITHOMAS LEE ALLEN JR.                            53337802                                                                                                                                                                                        6003001901               20766 1                                 
60            127001      L453971083                                                    1125      1001                              EU                         A  1000      09120377 OLD TREE CT/20CROSSRIASHLEY TURNER                                   53971083                                                                                                                                                                                        6003002001               20782 1                                 
60            128001      L453572569                                                    2200      2001                              EU                         A  2000      09120355 OLD TREE CT/21CROSSRIASHLEY TURNER BLDRS.                            53572569                                                                                                                                                                                        6003002101               20256 1                                 
60            129001      L453971161                                                    2200      2001                              EU                         A  2000      09120327 OLD TREE CT/22CROSSRIASHLEY TURNER BLDRS.                            53971161                                                                                                                                                                                        6003002201               20426 1                                 
60            130001      L452761967                                                    17315     17001                             EU                         A  17000     091203104 FOREST RIDGE DR/2FORSEAN & DENISE CUMMINGS                          52761967                                                                                                                                                                                        6005000201               20770 1                                 
60            131001      L413841666                                                    33550     33001                             EU                         A  33000     091203108 FOREST RIDGE DR/3   JUDITH S. MAY                                   13841666                                                                                                                                                                                        6005000301               10411 1                                 
60            132001      L434113011                                                    75233     74001                             EU                         A  74000     091203112 FOREST RIDGE DR/4   J.PHILIP & MARY PETERS                          34113011                                                                                                                                                                                        6005000401               10412 1                                 
60            133001      L413705222                                                    85399     84001                             EU                         A  84000     091203120 FOREST RIDGE DR/6   CHRIS STEPHENSON                                13705222                                                                                                                                                                                        6005000601               10246 1                                 
60            134001      L400000000                                                    0         1                                 EU                         A  0         060601128 FOREST RIDGE DR/8   JIMMY G. STEPHENSON                             00000000                                                                                                                                                                                        6005000801               11556 1                                 
60            135001      L413338546                                                    118887    117001                            EU                         A  117000    091203136 FOREST RIDGE DR/10  STEVEN FULLARD                                  13338546                                                                                                                                                                                        6005001001               9798  1                                 
60            136001      L430012689                                                    83323     82001                             EU                         A  82000     091203131 FOREST RIDGE DR/11FOGINA NAGLER             FOREST RIDGE S/D L11    30012689                FOREST RIDGE S/D L11                                                                                                                                                    6005001101               21119 1                                 
60            137001      L413350445                                                    57920     57001                             EU                         A  57000     091203117 FOREST RIDGE DR/14  THANG PHAN                                      13350445                                                                                                                                                                                        6005001401               9799  1                                 
60            138001      L413112845                                                    123906    122001                            EU                         A  122000    091203115 FOREST RIDGE DR/15  GEORGE T. RILEY                                 13112845                                                                                                                                                                                        6005001501               9498  1                                 
60            139001      L434113036                                                    79625     78001                             EU                         A  78000     091203105 FOREST RIDGE DR/17  IRENE BROOKS                                    34113036                                                                                                                                                                                        6005001701               12944 1                                 
60            140001      L434113077                                                    116478    114001                            EU                         A  114000    091203115 SALEEN/18FORESTRIDGEKAREN F. MCCORD                                 34113077                                                                                                                                                                                        6005001801               13836 1                                 
60            141001      L434009443                                                    92685     91001                             EU                         A  91000     091203119 SALEEN DR/19FORESTRIARTHER LEE MCMILLIAN                            34009443                                                                                                                                                                                        6005001901               13981 1                                 
60            142001      L434009036                                                    114154    112001                            EU                         A  112000    091203123 SALEEN/20FORESTRIDGEJOHN & BRENDA JACKSON                           34009036                                                                                                                                                                                        6005002001               12479 1                                 
60            143001      L434009350                                                    48888     48001                             EU                         A  48000     091203127 SALEEN/21FORESTRIDGEELBERT S. WALKER III                            34009350                                                                                                                                                                                        6005002101               14364 1                                 
60            144001      L453337774                                                    19192     18001                             EU                         A  18000     091203101 KAYLEIGH CT/23FORESTBRIAN HALL                                      53337774                                                                                                                                                                                        6005002301               11125 1                                 
60            145001      L434108607                                                    64500     63001                             EU                         A  63000     091203105 KAYLEIGH CT/24FORESTSCOTT N. RINEHARDT                              34108607                                                                                                                                                                                        6005002401               15181 1                                 
60            146001      L412460779                                                    71000     70001                             EU                         A  70000     091203109 KAYLEIGH CT/25FORESTJUDY M. PHILBROOK                               12460779                                                                                                                                                                                        6005002501               17433 1                                 
60            147001      L412530597                                                    174205    172001                            EU                         A  172000    091203115 KAYLEIGH CT/26FORESTJIMMY & CATHY GRANT                             12530597                                                                                                                                                                                        6005002601               11995 1                                 
60            148001      L413769447                                                    87434     86001                             EU                         A  86000     091203118 KAYLEIGH CT/27FORESTPHILIP W DANIELS        FOREST RIDGE LOT 27     13769447                FOREST RIDGE LOT 27                                                                                                                                                     6005002701               10247 1                                 
60            149001      L412513470                                                    247128    244001                            EU                         A  244000    091203114 KAYLEIGH CT/28FORESTPAUL & PALETTA LEE JR.                          12513470                                                                                                                                                                                        6005002801               9033  1                                 
60            150001      L412583731                                                    215731    213001                            EU                         A  213000    091203110 KAYLEIGH CT/29FORESTJUAN VERASTEGUE                                 12583731                                                                                                                                                                                        6005002901               11774 1                                 
60            151001      L412518002                                                    145846    144001                            EU                         A  144000    091203106 KAYLEIGH CT/30FORESTELIZABETH B EDWARDS                             12518002                                                                                                                                                                                        6005003001               11438 1                                 
60            152001      L434009474                                                    78540     77001                             EU                         A  77000     091203151 SALEEN/31FORESTRIDGEEVERETT R. STANCIL                              34009474                                                                                                                                                                                        6005003101               12677 1                                 
60            153001      L451297037                                                    12400     12001                             EU                         A  12000     091203155 SALEEN DR           MARY B BROWN BARBEE                             51297037                                                                                                                                                                                        6005003201               15836 1                                 
60            154001      L452796440                                                    29952     29001                             EU                         A  29000     091203159 SALEEN DR/33FORESTRICATHERINE S. MILLER                             52796440                                                                                                                                                                                        6005003301               15635 1                                 
60            155001      L453696626                                                    0         1                                 EU                         A  0         091203164 SALEEN DR/36FORESTRIT.G. ENNIS                                      53696626                                                                                                                                                                                        6005003601               20785 1                                 
60            156001      L453696625                                                    0         1                                 EU                         A  0         091203160 SALEEN DR/37FORESTRIT.G. ENNIS                                      53696625                                                                                                                                                                                        6005003701               20784 1                                 
60            157001      L434167615                                                    61428     60001                             EU                         A  60000     091203148 SALEEN/40FORESTRIDGEROQUE REYNA III                                 34167615                                                                                                                                                                                        6005004001               14825 1                                 
60            158001      L434167614                                                    15357     15001                             EU                         A  15000     091203144 SALEEN DR/41FORESTRIBRENDA DOBANDI                                  34167614                                                                                                                                                                                        6005004101               17763 1                                 
60            159001      L434167613                                                    51191     50001                             EU                         A  50000     091203140 SALEEN DR/42FORESTRIPAUL ROY                                        34167613                                                                                                                                                                                        6005004201               19400 1                                 
60            160001      L434167633                                                    40952     40001                             EU                         A  40000     091203136 SALEEN DR/43FORESTRIPHILLIP PITTMAN                                 34167633                                                                                                                                                                                        6005004301               15634 1                                 
60            161001      L434167631                                                    65524     64001                             EU                         A  64000     091203132 SALEEN/44FORESTRIDGECARLOS MIRANDA                                  34167631                                                                                                                                                                                        6005004401               15649 1                                 
60            162001      L410982184                                                    57909     57001                             EU                         A  57000     091203128 SALEEN/45FORESTRIDGELA'VELLE F. PETERKIN                            10982184                                                                                                                                                                                        6005004501               11427 1                                 
60            163001      L411133275                                                    102531    101001                            EU                         A  101000    091203124 SALEEN/46FORESTRIDGEPATRICIA ANN CUMMINGS                           11133275                                                                                                                                                                                        6005004601               11680 1                                 
60            164001      L406715445                                                    59394     58001                             EU                         A  58000     091203120 SALEEN DR/47FORESTRIWYCLIFF MUGUNDA                                 06715445                                                                                                                                                                                        6005004701               16869 1                                 
60            165001      L434167585                                                    103295    101001                            EU                         A  101000    091203110 SALEEN/48FORESTRIDGERODNEY & ANGELA MCGEE                           34167585                                                                                                                                                                                        6005004801               13942 1                                 
60            166001      L451296735                                                    22786     22001                             EU                         A  22000     091203131 SALEEN DR/22FORESTRIHELEN ADAMS JOHNSON                             51296735                                                                                                                                                                                        6005013101               17650 1                                 
60            167001      L442000167                                                    392160    383001                            EU                         A  383000    091203145 POND CIR/1"/ROBERTS ESTATE OF BOBBY G. JOHNS13D03051A               42000167                13D03051A                                                                                                                                                               6007014501               8076  1                                 
60            168001      L400000000                                                    0         1                                 EU                         I  0         061300145-A ROBERTS RD        GERALD JOHNSON                                  00000000                                                                                                                                                                                        6007014601               8077  1                                 
60            169001      L400000000                                                    0         1                                 EU                         I  0         061300145-B ROBERTS RD        GERALD JOHNSON                                  00000000                                                                                                                                                                                        6007014701               8078  1                                 
60            170001      L400000000                                                    0         1                                 EU                         I  0         061300145-C ROBERTS RD        GERALD JOHNSON                                  00000000                                                                                                                                                                                        6007014801               8079  1                                 
60            171001      L400000000                                                    0         1                                 EU                         I  0         061300145-D ROBERTS RD        GERALD JOHNSON                                  00000000                                                                                                                                                                                        6007014901               8080  1                                 
60            172001      L400000000                                                    0         1                                 EU                         A  0         010500273 ROBERTS RD          MICHAEL WAILY                                   00000000                                                                                                                                                                                        6007027301               6156  1                                 
60            173001      L400000000                                                    0         1                                 EU                         A  0         072501ROBERTS RD              WM HARDEE JR                                    00000000                                                                                                                                                                                        6007099901               6713  1                                 
60            174001      L410630548                                                    60910     60001                             EU                         A  60000     09120316 SODAN/1ROBERTSRIDGE  REGINALD & ALISON SOWELL                        10630548                                                                                                                                                                                        6009000101               12675 1                                 
60            175001      L410667608                                                    87302     86001                             EU                         A  86000     09120340 SODAN/2ROBERTSRIDGE  CYNTHIA L SOWDER                                10667608                                                                                                                                                                                        6009000201               11436 1                                 
60            176001      L411061712                                                    48727     48001                             EU                         A  48000     09120364 SODAN/3ROBERTSRIDGE  JACKIE L. AVERY                                 11061712                                                                                                                                                                                        6009000301               12297 1                                 
60            177001      L411016205                                                    79181     78001                             EU                         A  78000     09120384 SODAN/4ROBERTSRIDGE  JASIN & KACEY JOHNSON                           11016205                                                                                                                                                                                        6009000401               12983 1                                 
60            178001      L434075952                                                    100722    98001                             EU                         A  98000     091203112 SODAN DR/5ROBERTSRIDMARIA & MANUEL TAPIA                            34075952                                                                                                                                                                                        6009000501               15839 1                                 
60            179001      L434077548                                                    61428     60001                             EU                         A  60000     091203134 SODAN DR/6ROBERTSRIDJAMES & VICTORIA BOYD                           34077548                                                                                                                                                                                        6009000601               16038 1                                 
60            180001      L452796448                                                    11500     11001                             EU                         A  11000     091203152 SODAN DR/7ROBERTSRIDVALERIE PHILLIPS                                52796448                                                                                                                                                                                        6009000701               18446 1                                 
60            181001      L451297130                                                    23676     23001                             EU                         A  23000     091203168 SODAN DR/8ROBERTSRIDAARON WALTZ                                     51297130                                                                                                                                                                                        6009000801               17672 1                                 
60            182001      L434075951                                                    14389     14001                             EU                         A  14000     091203167 SODAN DR/9ROBERTSRIDWALLACE D. GARNER                               34075951                                                                                                                                                                                        6009000901               18401 1                                 
60            183001      L434008962                                                    35134     34001                             EU                         A  34000     091203153 SODAN DR/10ROBERTSRIJOHNNY GARETT LEE                               34008962                                                                                                                                                                                        6009001001               18746 1                                 
60            184001      L410634318                                                    25378     25001                             EU                         A  25000     09120340 MARIE/11ROBERTSRIDGE TRACY WATSON                                    10634318                                                                                                                                                                                        6009001101               13014 1                                 
60            185001      L412953690                                                    22343     22001                             EU                         A  22000     09120364 MARIE/12ROBERTSRIDGE JEAN BARBOUR                                    12953690                                                                                                                                                                                        6009001201               12002 1                                 
60            186001      L432089517                                                    23766     23001                             EU                         A  23000     09120390 MARIE CT/13ROBERTSRIDJAMIE NICHOLAS                                  32089517                                                                                                                                                                                        6009001301               19612 1                                 
60            187001      L451297082                                                    78111     76001                             EU                         A  76000     091203104 MARIE CT/14ROBERTSRIWILLARD TURNER III                              51297082                                                                                                                                                                                        6009001401               17027 1                                 
60            188001      L451297080                                                    24706     24001                             EU                         A  24000     091203110 MARIE CT/15ROBERTSRIANTHONY & SYBIL FERNICOL                        51297080                                                                                                                                                                                        6009001501               20183 1                                 
60            189001      L451297263                                                    6167      6001                              EU                         P  6000      100203101 MARIE CT/16ROBERTSRIMICHAEL & CHANDA HOLDER                         51297263                                                                                                                                                                                        6009001601               22110 1                                 
60            190001      L451297129                                                    37000     36001                             EU                         A  36000     09120383 MARIE CT/17ROBERTSRIDJOSEPH & MONIQUE COFFEY                         51297129                                                                                                                                                                                        6009001701               17769 1                                 
60            191001      L451297252                                                    20555     20001                             EU                         A  20000     09120357 MARIE CT/18ROBERTSRIDJEREMY S. ANTROBUS                              51297252                                                                                                                                                                                        6009001801               18503 1                                 
60            192001      L451297253                                                    41176     40001                             EU                         A  40000     09120337 MARIE CT/19ROBERTSRIDDANIEL C. NUNNERY                               51297253                                                                                                                                                                                        6009001901               16825 1                                 
60            193001      L410680384                                                    84257     83001                             EU                         A  83000     09120319 MARIE CT/20ROBERTSRIDCAROLYN A. SUMPTER                              10680384                                                                                                                                                                                        6009002001               11671 1                                 
60            194001      L451297012                                                    39187     38001                             EU                         A  38000     09120331 SODAN DR/21ROBERTSRIDBENNETT M. AUSTON                               51297012                                                                                                                                                                                        6009002101               20411 1                                 
60            195001      L413853241                                                    109862    108001                            EU                         A  108000    091203451 ROBERTS RD/22ROBERTSWANDA FAUST                                     13853241                                                                                                                                                                                        6009002201               20397 1                                 
60            196001      L434077545                                                    6150      6001                              EU                         A  6000      091203425 ROBERTS RD/23ROBERTSZANDRA MCKOY                                    34077545                                                                                                                                                                                        6009002301               20184 1                                 
