101 253271916 2532719169912300918A094101FIRST PALMETTO         FIRST PALMETTO                 
5200LUGOFF-ELGIN WAT                    5570481935PPDUTIL BILL 991230991230   1253271910000001
8200      00000000000000000000000000000000005570481935                         253271910000001
9000001000001000000000000000000000000000000000000000000                                       
9999999999999999999999999999999999999999999999999999999999999999999999999999999999999999999999
9999999999999999999999999999999999999999999999999999999999999999999999999999999999999999999999
9999999999999999999999999999999999999999999999999999999999999999999999999999999999999999999999
9999999999999999999999999999999999999999999999999999999999999999999999999999999999999999999999
9999999999999999999999999999999999999999999999999999999999999999999999999999999999999999999999
9999999999999999999999999999999999999999999999999999999999999999999999999999999999999999999999
