101 053100465 5660012620201251321A094101CENTRAL CAROLINA BANK  TOWN OF LANDIS                 
5200TOWN OF LANDIS                      5660012620PPDUTIL BILL 020125020125   1566001260000001
8200      00000000000000000000000000000000005660012620                         566001260000001
9000001000001000000000000000000000000000000000000000000                                       
9999999999999999999999999999999999999999999999999999999999999999999999999999999999999999999999
9999999999999999999999999999999999999999999999999999999999999999999999999999999999999999999999
9999999999999999999999999999999999999999999999999999999999999999999999999999999999999999999999
9999999999999999999999999999999999999999999999999999999999999999999999999999999999999999999999
9999999999999999999999999999999999999999999999999999999999999999999999999999999999999999999999
9999999999999999999999999999999999999999999999999999999999999999999999999999999999999999999999
