C4000001010LEONARD CENTER L T D          RT 1                          LEBANON VA                                                  24266000053D3-A-104A    5.18              BONHAM TR                SHOPPING CENTER          SHOPPING CENTER             000000000000282100000000000000592600000104964331  674 00230700425102598
C4000001011SLAGLE, BERNICE               P O BOX 1297                  CHILHOWIE VA                                                24319000053D3-A-104C    0.75              STEAK HOUSE LOT                                                               000000000000073500000000000000215900000034728420  136 00350300649102598
C4000001012I D A TOWN OF CHILHOWIE       T/A BIG A                     P O BOX 246                   N TAZEWELL VA                 24360000053D3-A-104B    2.50              LEE HWY                  SHOPPING CENTER          SHOPPING CENTER             000000000000179700000000000000957000000136404333  490 00200200363102598
C4000001013BANK OF MARION THE            P O BOX 1067                  MARION VA                                                   24354000053D3-A-104D    0.60              BONHAM TR                SHOPPING CENTER          SHOPPING CENTER             000000000000058800000000000000195300000030492363  515 00010900009102598
C1000001015RATLIFF, DAVID J & MARY C     P O BOX 187                   CHILHOWIE VA                                                24319000053D2-A-13                        ELLER AVENUE             604 SUNSET DR            604 SUNSET DR               000000000000003000000000000000048500000006180408  459 00311000580102598
C1000001023ALDERMAN, ELIZABETH C         C% JAMES R MARTIN             P O BOX AN                    CHILHOWIE VA                  24319000053D2-9-34                        MOUNTAIN ADD             LOT 34 35                LOT 34 35                   000000000000006000000000000000023700000003564         00010200002102598
C1000001040CRESS, ANTHONY L & DEENA H    822 SUNSET DR                 CHILHOWIE VA                                                24319000053D1-3-64                        SUNSET DRIVE             LOT 64 65                LOT 64 65                   000000000000009500000000000000048900000007008483  380 00101800189102598
C1000001058PARRIS, WILLIAM J & S O WRIGHTP O BOX 1386                  CHILHOWIE VA                                                24319000053D3-3C-7A                       AKER ST                  LOT PART 7               LOT PART 7                  000000000000008000000000000000023100000003732501  206 00291500547102598
C4000001066NEWBERRY, ROBERT G & NAOMI U  P O BOX A-B                   CHILHOWIE VA                                                24319000053D2-A-75                        FUNERAL HOME             LOTS 75 19               LOTS 75 19                  000000000000028000000000000000224100000030252337  082 00281600529102598
C1000001074BAUMGARDNER, TEDDY W          P O BOX 272                   CHILHOWIE VA                                                24319000053D3-5-16                        PINE ST                  LOT 16 17                LOT 16 17                   000000000000007000000000000000021600000003432W47  699 00011300013102598
C1000001082BEATTIE, FREDERICK S & VICKI  525 SULPHUR SPRINGS RD        CHILHOWIE VA                                                24319000053D2-(A)-39A                     W LEE HWY                1 LOT                    1 LOT                       000000000000015000000000000000082600000011712029  420 00011500015102598
C4000001091BEATTIE, FREDERICK S & RICHARD525 SULPHUR SPRINGS RD        CHILHOWIE VA                                                24319000053D2-A-47      0.50              W MAIN ST                                                                     000000000000015000000000000000000000000001800029  420 00011400014102598
C1000001104BEATTIE, KATHRYN C            249 W LEE HWY                 CHILHOWIE VA                                                24319000053D2-(0A)-069-02.41              BEATIE AVE                                                                    000000000000048200000000000000000000000005784029  524 00011600016102598
C1000001112BEATTIE, KATHRYN C            249 W LEE HWY                 CHILHOWIE VA                                                24319000053D2-A-39      10.93             WEST LEE HIGHWAY                                                              000000000000032800000010278000000000000001233029  424 00011700017102598
C1000001121BEATTIE, KATHRYN C            249 W LEE HWY                 CHILHOWIE VA                                                24319000053D2-(08)-022-0                  BEATTIE AVE              LOT 22-29                LOT 22-29                   000000000000015000000000000000000000000001800029  424 00011800018102598
C1000001139BEATTIE, KATHRYN C            249 W LEE HWY                 CHILHOWIE VA                                                24319000053D2-(08)-014-0                  WALTON AVE               LOT 14-21                LOT 14-21                   000000000000015000000000000000000000000001800029  424 00011900019102598
C1000001142BEATTIE, RICHARD G & FREDERICK525 SULPHUR SPRINGS           CHILHOWIE  VA                                               24319000053D2-A-39B                       W LEE HWY                TR II                    TR II                       000000000000005000000000000000000000000000600         00020200021102598
C1000001155BISHOP, THOMAS B & KYRA K     P O BOX 405                   CHILHOWIE VA                                                24319000053D2-A-73      2.37              WALTON AVE               OLD STAGE RD             OLD STAGE RD                000000000000059300000000000000000000000007116444  490 00031200050102598
C4000001163MC SPADDEN, WILLIAM B         C% D J PERRY  K-VA-T FOOD     P O BOX 1158                  ABINGDON VA                   24210000053D2-A-49      3.60              LEE HIGHWAY              MARKET                   MARKET                      000000000000090000000000000000709400000095928444  310 00270700501102598
C1000001164BEATTIE, KATHRYN C            249 W LEE HWY                 CHILHOWIE VA                                                24319000053D2-A-48-49   8.84              LEE HWY                                                                       000000000000076800000000000000035800000013512446  075 00020100020102598
C4000001171ROWLAND, ELMER C & PATTY W    535 S FORK RD                 MARION VA                                                   24354000053D2-A-48C     0.49              LEE HIGHWAY                                                                   000000000000002000000000000000000000000000240451  238 00331400622102598
C4000001172NORTHPOINTE PROPERTIES INC    P O BOX 1607                  CHILHOWIE VA                                                24319000053D2-A-48B     1.17              LOT 17                                                                        000000000000063000000000000000382300000053436475  822 00281800531102598
C1000001174JONES, MARGARET T & S J KEGLEYP O BOX 45                    CHILHOWIE VA                                                24319000053D2-A-48D     0.81              ST RD 107                                                                     000000000000015000000000000000000000000001800448  383 00211600396102598
C4000001180TRIPLE T INC                  P O BOX 750                   CLINTWOOD VA                                                24228000053D2-A-67      0.50              LEE HIGHWAY              SINGLESTOP               SINGLESTOP                  000000000000043000000000000000138200000021744478  062 00400300744102598
C9000001199TOWN OF CHILHOWIE             DRAWER M                      CHILHOWIE VA                                                24319000053D3-A-21A     0.16              MAIN ST                                                                       000000000000012000000000000000000000000000000430  073 00000000000102598
C1000001201BECKNER, MARY LOUISE W        P O BOX 218                   CHILHOWIE VA                                                24319000053D2-(A)-84A                     HULL AVENUE              LOT 1                    LOT 1                       000000000000000500000000000000000000000000060226  051 00020600025102598
C4000001210CHILHOWIE MILLING CO          P O BOX 316                   CHILHOWIE VA                                                24319000053D2-(0A)-090-0                  LEE HWY STORE            PT LOTS 35 39 40         PT LOTS 35 39 40            000000000000033000000000000000064000000011640294  136 00071800132102598
C4000001228BERRY ENTERPRISES INC         DRAWER L                      CHILHOWIE VA                                                24319000053D2-6-1                         LOTS W SIDE 107                                                               000000000000043000000000000000186100000027492417  346 00020700026102598
C4000001236BERRY ENTERPRISES INC         DRAWER L                      CHILHOWIE VA                                                24319000053D3-A-40      1                 N & W LAND                                                                    000000000000020000000000000000000000000002400368  121 00020800027102598
C1000001252BERRY ENTERPRISES INC         DRAWER L                      CHILHOWIE VA                                                24319000053D3-(A)-47 49                   LOTS E OF 107                                                                 000000000000050000000000000000021400000008568         00020900028102598
C1000001261BERRY, KELLY WILSON           P O BOX 516                   CHILHOWIE VA                                                24319000053D3-(0A)-019-0                  CHURCH ST                LOT 1                    LOT 1                       000000000000010000000000000000084800000011376         00030300041102598
C1000001279COX, RONALD F                 P O BOX Q                     CHILHOWIE VA                                                24319000053D3-A-18                        CHURCH ST & CHIL AVE     1 LOT + ADDITION         1 LOT + ADDITION            000000000000010000000000000000087200000011664346  612 00101500186102598
C1000001287PATTON, RUTH CORA             213 HULL AVE                  CHILHOWIE VA                                                24319000053D2-7-48                        HULL AVE                 LOTS 48-53               LOTS 48-53                  000000000000010500000000000000071900000009888487  697 00291900551102598
C1000001295LAMIE, JOSEPH R & JOANN B     111 MARTIN AVE                CHILHOWIE VA                                                24319000053D2-(03)-027-00.23              COMBS ADD                LOT 27 PART OF 28        LOT 27 PART OF 28           000000000000009000000000000000060800000008376343  264 00221800417102598
C1000001309RHUDY, BILLY L & OPAL P       P O BOX 626                   CHILHOWIE VA                                                24319000053D2-A-3                         W LEE HWY                3 LOTS                   3 LOTS                      000000000000011000000000000000017600000003432308  613 00320300592102598
C1000001317BILLINGS, BROCK H MRS         1258 W LEE HWY                CHILHOWIE VA                                                24319000053D1-(0A)-012-0                  WEST LEE HIGHWAY         LOT 1                    LOT 1                       000000000000008000000000000000025400000004008         00030600044102598
C1000001325BISHOP, JAMES T               P O BOX 219                   CHILHOWIE VA                                                24319000053D3-(07)-032-0                  SANDERS ADD              LOT 32                   LOT 32                      00000000000000950000000000000003280000000507628   532 00031000048102598
C1000001333BARNES, JASON H & JENNIFER H  P O BOX 1660                  CHILHOWIE VA                                                24319000053D3-7-53                        BONHAM AVE               LOT 53 PT 54             LOT 53 PT 54                000000000000010000000000000000032500000005100474  173 00011100011102598
C1000001341SHUPE, DAVID Y & JANETTA K    P O BOX 1666                  CHILHOWIE VA                                                24319000053D2-A-1                         W LEE HIGHWAY            PT LOT 16-17             PT LOT 16-17                000000000000011000000000000000055600000007992435  544 00341700644102598
C1000001350BLEVINS, ALBERT J & EDITH     109 RECTOR AVE                CHILHOWIE VA                                                24319000053D2-(04)-001-0                  GROVE PARK ADD           LOT 1                    LOT 1                       000000000000009500000000000000038100000005712         00031500053102598
C1000001368BLEVINS, BESSIE FAYE          124 LYONS GAP RD              CHILHOWIE VA                                                24319000053D3-10-29                       POOLE ADD                LOT PART 29-31           LOT PART 29-31              000000000000009000000000000000021100000003612146  592 00031800056102598
C1000001376BLEVINS, CLARENCE P           P O BOX 391                   CHILHOWIE VA                                                24319000053D3-7-51                        BONHAM AVE               LOTS 51 52               LOTS 51 52                  000000000000010500000000000000037300000005736264  730 00031900057102598
C1000001384THOMAS, JAMES L & LINDA L     P O BOX 697                   CHILHOWIE VA                                                24319000053D2-(03)-071-A                  COMBS ADD LOT 72         PT 73 PT 71              PT 73 PT 71                 000000000000010500000000000000049700000007224304  221 00391700739102598
C1000001392SHULER, MILDRED B             P O BOX 393                   CHILHOWIE VA                                                24319000053D3- 3-BK B-4A0.10              AKER ST                  LOT PART 4               LOT PART 4                  000000000000008500000000000000023700000003864352  566 00341200639102598
C1000001406BLEVINS, ANNIE B              719 SUNSET DR                 CHILHOWIE VA                                                24319000053D2-(03)-095-0                  COMBS                    LOTS 95-97               LOTS 95-97                  000000000000012000000000000000050800000007536264  376 00031600054102598
C1000001414TOLBERT, OLIVER S JR & TAMMI RP O BOX 323                   CHILHOWIE VA                                                24319000053D2-9-8                         MIDDLE FORK              LOT 8                    LOT 8                       000000000000001500000000000000000000000000180471  166 00400100742102598
C1000001422MURRAY, FRED R JR & JEAN M    1252 WHITETOP RD              CHILHOWIE VA                                                24319000053D3-A-5       0.83              STAGE ROAD               W PT LOT 5               W PT LOT 5                  000000000000011000000000000000064700000009084472  630 00281100524102598
C1000001431MURRAY, FRED R JR & JEAN M    1252 WHITETOP RD              CHILHOWIE VA                                                24319000053D3-A-5B      1.02              STAGE RD                 LOT 5B                   LOT 5B                      000000000000010000000000000000000000000001200472  630 00281200525102598
C1000001449COLLINS, CHARLES L & PEGGY D  P O BOX 858                   CHILHOWIE VA                                                24319000053D2-9-5                         MOUNTAIN S-D             LOT 5                    LOT 5                       000000000000001500000000000000000000000000180467  786 00091700169102598
C1000001457COLLINS, CHARLES L & PEGGY D  P O BOX 858                   CHILHOWIE VA                                                24319000053D2-9-6                         MOUNTAIN ADD             LOTS 6 7                 LOTS 6 7                    000000000000006000000000000000016300000002676467  786 00091800170102598
C4000001481BERRY ENTERPRISES INC         DRAWER L                      CHILHOWIE VA                                                24319000053D2-A-96                        RAILROAD ST EAST         LOT 1                    LOT 1                       000000000000033000000000000000089600000014712341  219 00021000029102598
C1000001490BUCHANAN, LEAH BONHAM         1122 OAK LANE                 MARION VA                                                   24354000053D3-(0A)-104-05.49              OLD STAGE RD             LEE HIGHWAY              LEE HIGHWAY                 000000000000035500000000000000109700000017424034  323 00051600092102598
C1000001503LOVE, EDNA B ETAL             C% ANN B CATRON               173 ST CLAIR CREEK RD         CHILHOWIE VA                  24319000053D2-A-111     11.73             HOLSTON ST               PT OF FARM               PT OF FARM                  000000000000043700000021777000048300000008409390  775 00240400441102598
C4000001511LOVE, EDNA B                  RT 1 BOX 52                   PULASKI VA                                                  24301000053D2-(0A)-063-0                  MAIN ST                  LOT 4                    LOT 4                       000000000000028000000000000000060300000010596448  215 00240200439102598
C1000001520BONHAM, GENE K & JEAN B       206 MARTIN AVE                CHILHOWIE VA                                                24319000053D2-(03)-053-A                  COMBS ADD                LOTS 54-56               LOTS 54-56                  000000000000011000000000000000064500000009060166  482 00041200069102598
C1000001538FRENCH, KYLE & ELIZABETH      P O BOX 87                    CHILHOWIE  VA                                               24319000053D3-3B-2A                       VIRGINIA AVE             LOT PART 2               LOT PART 2                  000000000000009000000000000000013500000002700321  316 00141200259102598
C1000001554BONHAM, ORA ELENA R           P O BOX 266                   CHILHOWIE VA                                                24319000053D3-(08)-001-0                  COX ADD                  LOTS 1-4 38-42           LOTS 1-4 38-42              000000000000013000000000000000129900000017148291  553 00050300079102598
C4000001571BONHAM, J DAVID               C% MICHAEL E HEATH            P O BOX 125                   CHILHOWIE VA                  24319000053D2-A-36                        W LEE HWY 1 LOT                                                               000000000000018000000000000000040600000007032447  741 00041800075102598
C1000001589FOSTER, J BRENT & CAROLYN A   P O BOX 298                   CHILHOWIE VA                                                24319000053D3-3-B-11-12                   S CHURCH ST              LOT 1                    LOT 1                       000000000000015000000000000000092300000012876415  161 00140500252102598
C1000001597FOSTER, J BRENT & CAROLYN A   P O BOX 298                   CHILHOWIE VA                                                24319000053D3-3-B-12A                     CHURCH ST                EASEMENT                 EASEMENT                    000000000000002500000000000000000000000000300415  161 00140600253102598
C1000001601MC CLURE, JERRY W & ANGELA M  P O BOX 627                   CHILHOWIE VA                                                24319000053D3-A-12      0.88              OLD STAGE RD             LEE HIGHWAY              LEE HIGHWAY                 000000000000012000000000000000240700000030324420  656 00260300478102598
C1000001619FOSTER, J BRENT & CAROLYN A   225 CHURCH AVE                CHILHOWIE VA                                                24319000053D3-3B-11A    0.25              CHURCH ST                                                                     000000000000010000000000000000026900000004428501  216 00140700254102598
C1000001627BONHAM, JOHN DAVID & BETTY M  495 COURT ST                  ABINGDON VA                                                 24210000053D3-3C-1                        CHURCH ST                LOT 1                    LOT 1                       000000000000012000000000000000000000000001440         00050100077102598
C4000001635HEATH, MICHAEL E & JEFFERY G  P O BOX 125                   CHILHOWIE VA                                                24319000053D2-A-51                        LEE HIGHWAY              LOT 1                    LOT 1                       000000000000018000000000000000091100000013092430  417 00190100343102598
C1000001643BONHAM, MARY V ETAL           PO BOX 417                    CHILHOWIE VA                                                24319000053D3-(07)-030-0                  SANDERS ST               LOTS 30 31               LOTS 30 31                  000000000000010500000000000000074200000010164404  018 00050200078102598
C1000001651BONHAM, JAMES B III           P O BOX 922                   CHILHOWIE VA                                                24319000053D3-A-8       2                 1027 OLD STAGE RD                                                             000000000000018000000000000000120500000016620W36  579 00041900076102598
C1000001660BUCHANAN, LEAH BONHAM         1122 OAK LANE                 MARION VA                                                   24354000053D3-(09)-007-0                  SANDERS ADD              LOTS 7-10                LOTS 7-10                   000000000000015000000000000000000000000001800034  323 00051700093102598
C1000001678LOVE, EDNA B & A CATRON ETAL  C% ANNE B CATRON              173 ST CLAIR CREEK RD         CHILHOWIE VA                  24319000053D2-A-112     3.90              WHITE TOP RD                                                                  000000000000016700000000000000037700000006528406  015 00240300440102598
C1000001686SMITH, MAXINE P               P O BOX 1234                  CHILHOWIE VA                                                24319000053D2-A-81      0.21              OLD STAGE ROAD                                                                000000000000009000000000000000045100000006492411  104 00350700653102598
C1000001694WOLFE, PATRICK J & SHERRY B   P O BOX 1714                  CHILHOWIE VA                                                24319000053D3-3-BKB-3A                    AKER ST                  LOT 1                    LOT 1                       000000000000009000000000000000036600000005472458  102 00440600823102598
C1000001708BRANSON, BEULAH               P O BOX 396                   CHILHOWIE VA                                                24319000053D3-7-38                        311 SANDERS AVE          LOTS 38 39               LOTS 38 39                  000000000000010500000000000000041400000006228278  041 00050800084102598
C1000001716BREWSTER, FLETCHER L & GRACE RP O BOX 443                   CHILHOWIE VA                                                24319000053D3-(07)-010-A0.12              SANDERS AVE                                                                   000000000000010000000000000000047300000006876265  390 00051100087102598
C1000001724AKER, ELVA C & THELMA B       P O BOX 248                   CHILHOWIE VA                                                24319000053D3-7-11                        CHILHOWIE AVE            PT LTS 11-13             PT LTS 11-13                000000000000008000000000000000052200000007224265  249 00010100001102598
C1000001725SURBER, DONNIE L & JOLEEN B   111 SOMMERSET DR              CHILHOWIE VA                                                24319000053D3-7-13C     0.03              SW PT LOT 13                                                                  000000000000001000000000000000000000000000120476  714 00381500718102598
C1000001732BROWNING, LILLY BETH          P O BOX 456                   CHILHOWIE VA                                                24319000053D3-(3-BK C-7                   OLD STAGE RD AKER ST     PART LOT 7               PART LOT 7                  000000000000011000000000000000059800000008496W37  764 00051400090102598
C1000001741BUCHANAN, GEORGE W & FRANCES R243 HULL AVE                  CHILHOWIE VA                                                24319000053D2-(0A)-083-0                  HULL AVE                 1 LOT                    1 LOT                       000000000000010500000000000000053300000007656025  384 00051500091102598
C1000001759FENNER, CAROL S ETAL          903 CHESTNUT RIDGE RD         CHILHOWIE VA                                                24319000053D3-12-4      0.50              HAROLD C SANDERS         LOT 4                    LOT 4                       000000000000012000000000000000072000000010080348  402 00131100239102598
C1000001767CHIANG, JAMES C & TERRY H     P O BOX 13103                 HUNTSVILLE AL                                               35802000053D3-(12)-002-0                  HAROLD C SANDERS         LOT 2                    LOT 2                       000000000000008000000000000000000000000000960300  626 00071200126102598
C3000001775CHIANG, JAMES C & TERRY H     P O BOX 13103                 HUNTSVILLE AL                                               35802000053D3-12-1      1.66              HAROLD C SANDERS         LOT 1                    LOT 1                       000000000000033200000000000000277500000037284300  626 00071300127102598
C1000001783COUNTS, ADRIAN & BERNICE      P O BOX 115                   CHILHOWIE VA                                                24319000053D3-12-3      0.55              HAROLD C SANDERS         LOT 3                    LOT 3                       000000000000011000000000000000062500000008820477  055 00101000181102598
C1000001791CAMPBELL, RANDOLPH            P O BOX 428                   CHILHOWIE VA                                                24319000053D3-(05)-020-0                  PINE ST RUTLAND          LOT 20                   LOT 20                      000000000000007000000000000000014600000002592213  312 00061300108102598
C1000001813CAMPBELL, RANDOLPH NOAH       P O BOX 428                   CHILHOWIE VA                                                24319000053D3-(05)-019-0                  PINE ST RUTLAND          LOT 1                    LOT 1                       000000000000001000000000000000000000000000120223  599 00061400109102598
C1000001830CARTER, S R                   P O BOX 91                    CHILHOWIE VA                                                24319000053D3-(7)-10B                     SANDERS AVE              LOT PART LOT 1           LOT PART LOT 1              000000000000010000000000000000058700000008244034  491 00070100115102598
C1000001848WILLIAMS, CURTIS A JR & WANDA P O BOX 1295                  CHILHOWIE VA                                                24319000053D3-9-52                        JOHN L SANDERS ADD       LOTS 52-54               LOTS 52-54                  000000000000009000000000000000050200000007104502  368 00431900817102598
C1000001856DUNCAN, JANET CATRON          P O BOX 92                    CHILHOWIE VA                                                24319000053D2-(0A)-079-0                  OLD STAGE ROAD           LOT 1                    LOT 1                       000000000000011500000000000000077900000010728342  062 00121400223102598
C4000001864BERRY ENTERPRISES INC         DRAWER L                      CHILHOWIE VA                                                24319000053D2-(0A)-094-0                  MAIN ST                  1 LOT                    1 LOT                       000000000000011000000000000000013900000002988389  433 00021100030102598
C4000001872BERRY ENTERPRISES INC         DRAWER L                      CHILHOWIE VA                                                24319000053D2-(0A)-095-00.09              MAIN ST                  LOT 1/2                  LOT 1/2                     000000000000010500000000000000049900000007248389  433 00021200031102598
C4000001881KING, JAMES TODD & MARGARET   P O BOX 532                   CHILHOWIE VA                                                24319000053D2-A-64                        MAIN ST                  PT LOT 24 BLK 3          PT LOT 24 BLK 3             000000000000010000000000000000020700000003684282  264 00221400413102598
C4000001882LOWE, DANNY R & GLENDA K      1149 TOWN SPRINGS RD          CHILHOWIE VA                                                24319000053D2-A-64A                       MAIN ST                  PT LOT 24 BLK 3          PT LOT 24 BLK 3             000000000000008000000000000000042000000006000428  480 00240700444102598
C4000001899CHILHOWIE MILLING COMPANY     P O BOX 316                   CHILHOWIE VA                                                24319000053D3-(04)-001-0                  S LEE HIGHWAY            LOT 1-3                  LOT 1-3                     000000000000028000000000000000051600000009552         00081000143102598
C4000001902CHILHOWIE MILLING COMPANY     P O BOX 316                   CHILHOWIE VA                                                24319000053D3-(07)-059-0                  CHILHOWIE AVE            LOT PART LOT             LOT PART LOT                000000000000010500000000000000029400000004788         00081100144102598
C4000001911CHILHOWIE MILLING COMPANY     P O BOX 316                   CHILHOWIE VA                                                24319000053D3-(04)-004-0                  LEE HIGHWAY              LOT 4-5                  LOT 4-5                     000000000000023000000000000000036200000007104         00081200145102598
C1000001929CHILHOWIE MILLING COMPANY     P O BOX 316                   CHILHOWIE VA                                                24319000053D3-(07)-027-0                  SANDER AVE               LOTS 27-29               LOTS 27-29                  000000000000012000000000000000046800000007056         00081300146102598
C4000001937CHILHOWIE MILLING COMPANY     P O BOX 316                   CHILHOWIE VA                                                24319000053D2-(0A)-089-0                  LEE HIGHWAY              LOT PART 35-39           LOT PART 35-39              000000000000015000000000000000044300000007116215  408 00081400147102598
C4000001945CHILHOWIE MILLING COMPANY     P O BOX 316                   CHILHOWIE VA                                                24319000053D3-(07)-060-0                  LEE HIGHWAY              LOT 60-62                LOT 60-62                   000000000000018000000000000000041400000007128         00081500148102598
C4000001953CHILHOWIE MILLING COMPANY     P O BOX 316                   CHILHOWIE VA                                                24319000053D2-A-57      0.68              MAIN ST & WHITE TOP RD   LOT PART LOT             LOT PART LOT                000000000000043000000000000000214800000030936         00081600149102598
C1000001961CHILHOWIE MILLING COMPANY     P O BOX 316                   CHILHOWIE VA                                                24319000053D3-(0A)-002-01.50              SANDERS LAND                                                                  000000000000018000000000000000049300000008076         00081700150102598
C1000001970CHILHOWIE MILLING COMPANY     P O BOX 316                   CHILHOWIE VA                                                24319000053D2-(0A)-071-0                  TRACT 1                                                                       000000000000011000000000000000031800000005136         00081800151102598
C1000001988CHILHOWIE MILLING COMPANY INC P O BOX 316                   CHILHOWIE VA                                                24319000053D3-7-57                        BONHAM AVE               LOT PART 57-58           LOT PART 57-58              000000000000009500000000000000021600000003732212  527 00090100153102598
C4000001996INDUSTRIAL DEV AUTH OF CHILH  C% CENTRAL FIDELTY-GEN ACCTINGP O BOX 27602                 RICHMOND VA                   23261000053D2-A-68-68A  2.07              BEATTIE AVE                                                                   000000000000062100000000000000651900000085680309  001 00200300364102598
C4000002011CHILHOWIE MILLING CO          P O BOX 316                   CHILHOWIE VA                                                24319000053D3-(0A)-012-A0.69              LEE HWY BONHAM AVE                                                            000000000000067600000000000000018200000010296380  557 00071900133102598
C4000002020LITTLE, EUGENE C & SHIRLEY J  P O BOX 442                   CHILHOWIE VA                                                24319000053D2-(0A)-059-0                  MAIN ST                  LOTS 10-11               LOTS 10-11                  000000000000010000000000000000000000000001200372  584 00231400432102598
C1000002038BERRY, KELLY W & EVELYN S     P O BOX 516                   CHILHOWIE VA                                                24319000053D3-(0A)-027-0                  EAST MAIN ST             LOT 1                    LOT 1                       000000000000015000000000000000000000000001800361  268 00030100039102598
C1000002046MASON, FRED A                 P O BOX 521                   CHILHOWIE VA                                                24319000053D3-(3-BK B-18                  CHESTNUT ST HOOD AVE     LOT PART 17              LOT PART 17                 000000000000009000000000000000015500000002940398  159 00250700463102598
C1000002054MASON, FRED A                 P O BOX 521                   CHILHOWIE VA                                                24319000053D3- 3-B-17A                    AKER ST                  LOT PART 17              LOT PART 17                 000000000000009000000000000000018000000003240398  159 00250800464102598
C1000002062BERRY, KELLY W & EVELYN S     P O BOX 516                   CHILHOWIE VA                                                24319000053D3-(0A)-028-00.12              EAST MAIN ST                                                                  000000000000015000000000000000000000000001800361  268 00030200040102598
C1000002071CLARK, MILDRED B              P O BOX 929                   CHILHOWIE VA                                                24319000053D3-3C-1A                       OLD STAGE ROAD           LOT 2                    LOT 2                       000000000000014000000000000000088200000012264         00090500157102598
C4000002089CLARK, MARY CHILDRESS         P O BOX 1441                  CHILHOWIE VA                                                24319000053D3-7-18A                       HWY 11                   LOT 1 CLARKS PHARMACY    LOT 1 CLARKS PHARMACY       000000000000010000000000000000060500000008460W42  437 00090400156102598
C1000002101SPURGEON, NEOMA               P O BOX 103                   CHILHOWIE VA                                                24319000053D2-(07)-042-0                  HULL AVE                 LOT 42-47                LOT 42-47                   000000000000010500000000000000046100000006792312  706 00360100666102598
C1000002119MC CORMICK, W SCOTT & CLAUDINEP O BOX 243                   CHILHOWIE VA                                                24319000053D2-(07)-003-0                  CHILHOWIE ST             LOTS 3-6                 LOTS 3-6                    000000000000010000000000000000049000000007080390  375 00261100486102598
C1000002127BECK, FREDERICK E SR & LULA B DRAWER 1448                   CHILHOWIE VA                                                24319000053D2-A-74      2.60              209 OLD STAGE RD                                                              000000000000021000000000000000082200000012384470  188 00020300022102598
C1000002135COLE, T FRAZIER               RIDGEFIELD RETIREMENT         DRAWER AM                     CHILHOWIE VA                  24319000053D3-A-6       0.97              OLD STAGE RD                                                                  000000000000013000000000000000067900000009708389  103 00091500167102598
C1000002143STURGILL, ROGER K & JUDY T    P O BOX 551                   CHILHOWIE VA                                                24319000053D3-A-5A      0.77              917 OLD STAGE RD         E PT LOT 5               E PT LOT 5                  000000000000013000000000000000059700000008724489  112 00381000713102598
C1000002151DOANE, LEWIS E & OPAL M       P O BOX 273                   CHILHOWIE VA                                                24319000053D3-(3)-BKC-8                   AKER ST                  PT LOT 8 BLK C           PT LOT 8 BLK C              000000000000005500000000000000002500000000960382  390 00120200211102598
C1000002186KEEN, JAMES "JAY" B & LISA D  P O BOX 1305                  CHILHOWIE VA                                                24319000053D3-(0A)-010-00.69              OLD STAGE RD                                                                  000000000000012000000000000000045100000006852382  364 00220200401102598
C1000002194TRIVETTE, HAROLD W & HOPE S   877 W LEE HWY                 CHILHOWIE VA                                                24319000053D2-A-20      0.48              LEE HIGHWAY                                                                   000000000000013000000000000000038300000006156489  292 00400400745102598
C1000002195SCOTT, FLORA C DEBUSK         P O BOX 158                   CHILHOWIE VA                                                24319000053D2-A-20A     0.17+/-           N LEE HWY                                                                     000000000000000900000000000000000000000000108486  160 00340600633102598
C1000002196COPENHAVER, MARY P & FLORA C DP O BOX 12                    CHILHOWIE VA                                                24319000053D2-A-20B     1.80+/-           N LEE HWY                                                                     000000000000012000000000000000000000000001440032  310 00100800179102598
C1000002208COUNTS, ALAN W                P O BOX 915                   CHILHOWIE VA                                                24319000053D3-3-BKB-10                    CHILHOWIE AVE            LOT 10                   LOT 10                      000000000000012500000000000000045200000006924400  172 00101100182102598
C4000002216COX, HUGH P & BETTY W         P O BOX 797                   CHILHOWIE VA                                                24319000053D3-4-11                        E LEE HIGHWAY            LOT 11-15                LOT 11-15                   000000000000040000000000000000192100000027852         00101200183102598
C4000002224CROUSE, HAROLD F              P O BOX 928                   CHILHOWIE VA                                                24319000053D2-A-58                        MAIN ST                  LOT PART 8 9             LOT PART 8 9                000000000000013000000000000000036600000005952273  689 00110100191102598
C1000002232DEBUSK, FLORA C               P O BOX 158                   CHILHOWIE VA                                                24319000053D2-(0A)-021-00.77              ELLER AVE                                                                     00000000000001100000000000000009840000001312828   503 00110900199102598
C1000002259DEBUSK, FLORA C               P O BOX 158                   CHILHOWIE VA                                                24319000053D2-(0A)-022-0                  COMBS ADD                1 LOT                    1 LOT                       00000000000000250000000000000000000000000030028   503 00111000200102598
C1000002267POLK, DENNIS W & VIVIAN B     P O BOX 1554                  CHILHOWIE VA                                                24319000053D2-(03)-024-0                  COMBS ADD                SOUTHERN PT LTS 24-26    SOUTHERN PT LTS 24-26       000000000000010000000000000000054700000007764407  541 00301500566102598
C1000002268LAMIE, JOSEPH R & JOANN       111 MARTIN AVE                CHILHOWIE VA                                                24319000053D2-3-24A 25A                   COMBS ADD                NORTHERN PT LTS 24-26    NORTHERN PT LTS 24-26       000000000000001500000000000000000000000000180384  517 00221700416102598
C1000002275DELP, THOMAS W & SARAH L      801 SUNSET DR                 CHILHOWIE VA                                                24319000053D2-(03)-092-0                  SUNSET DRIVE             LOTS 92-93               LOTS 92-93                  000000000000011000000000000000073800000010176         00111200202102598
C1000002283FRYE, VIRGINIA ELIZABETH CALL P O BOX 1060                  CHILHOWIE VA                                                24319000053D3-10-13-14                    OLD STAGE ROAD           LOTS 13 14               LOTS 13 14                  000000000000009000000000000000028700000004524392  084 00141900266102598
C1000002291STURGILL, RICHARD F & BARBARA P O BOX 296                   CHILHOWIE VA                                                24319000053D3-3-BK B-7  0.08              CHESTNUT ST              PART LOT 7               PART LOT 7                  000000000000009500000000000000000800000001236350  632 00371600700102598
C3000002305GENTRY, MARK K & SHIRLEY T    P O BOX 1219                  CHILHOWIE VA                                                24319000053D3-3-BK B-6A 0.10              CHESTNUT ST              PT LOT 6-7               PT LOT 6-7                  000000000000010000000000000000063000000008760390  677 00150600272102598
C1000002313DILLARD, JOHN                 P O BOX 625                   CHILHOWIE VA                                                24319000053D3-A-11                        BONHAM AVE               LOT 2                    LOT 2                       000000000000015000000000000000017800000003936     000 00111400204102598
C1000002321MARTIN, JAMES R & JOYCE E     P O BOX AN                    CHILHOWIE VA                                                24319000053D3-3C-14A    0.65              OLD STAGE ROAD           LOT 14                   LOT 14                      000000000000011000000000000000033400000005328479  336 00241500452102598
C1000002330BARKER, RANDALL K             1761 GREENWAY AVE             CHILHOWIE VA                                                24319000053D1-3-40-41                     COMBS ADD                LOTS 40 41               LOTS 40 41                  000000000000009500000000000000034100000005232456  671 00011000010102598
C1000002348DOANE, WALTRAUD               P O BOX 66                    CHILHOWIE VA                                                24319000053D1-3-42                        COMBS ADD                LOTS 42 43               LOTS 42 43                  000000000000009500000000000000057000000007980456  577 00120700216102598
C1000002356GENTRY, KENNETH W & PATRICIA DP O BOX 524                   CHILHOWIE VA                                                24319000053D2-A-38B     0.28              RD 639                   156 SULPHUR SPRING RD    156 SULPHUR SPRING RD       000000000000005000000000000000048200000006384484  171 00150500271102598
C1000002357SNODGRASS, SIDNEY C & BOBBIE WP O BOX 509                   CHILHOWIE VA                                                24319000053D2-A-38G     0.25              RD 639                                                                        000000000000006000000000000000059800000007896453  186 00351000656102598
C1000002364DOANE, LEWIS E & OPAL M       P O BOX 273                   CHILHOWIE VA                                                24319000053D3- 3-BK C-9A                  OLD STAGE RD PT LOT 9                                                         000000000000011000000000000000000500000001380269  592 00120300212102598
C1000002372POE, CHARLES L & BARBARA A    P O BOX 960                   CHILHOWIE VA                                                24319000053D2-(09)-039-0                  OLD STAGE RD             LOTS 39                  LOTS 39                     000000000000009000000000000000001600000001272355  655 00301100562102598
C1000002381SURBER, RICHARD A & TERESA L  P O BOX 85                    CHILHOWIE VA                                                24319000053D2-(10)-3-4                    TERRACE HTS              LOTS 3-4                 LOTS 3-4                    000000000000010500000000000000000400000001308375  546 00381800721102598
C1000002402KING, ANN                     P O BOX 532                   CHILHOWIE VA                                                24319000053D2-A-72                        WALTON AVE               LOT PART                 LOT PART                    000000000000009000000000000000040400000005928W38  724 00221300412102598
C1000002411STURGILL, RICHARD F & BARBARA P O BOX 296                   CHILHOWIE VA                                                24319000053D3-(3-BK B-7B0.16              CHILHOWIE AVE            LOT PART LOT 7           LOT PART LOT 7              000000000000002000000000000000000000000000240350  147 00371700701102598
C4000002429CHILHOWIE INSURANCE AGENCY INCP O BOX 387                   CHILHOWIE VA                                                24319000053D2-A-42                        316 W MAIN ST            LOT 1                    LOT 1                       000000000000015000000000000000042300000006876440  479 00071400128102598
C4000002437CHILHOWIE INSURANCE AGENCY INCP O BOX 387                   CHILHOWIE VA                                                24319000053D2-A-43                        316 W MAIN ST            LOT 1                    LOT 1                       000000000000007000000000000000000000000000840440  479 00071500129102598
C1000002445ECHOLS, W GORDON JR           216 N ST                      MARION VA                                                   24354000053D3-(0A)-025-0                  E MAIN ST                LOT PART LOT             LOT PART LOT                00000000000001300000000000000002010000000397233   408 00121600225102598
C1000002453WILKINSON, JAMES C & LAURA E  P O BOX 347                   CHILHOWIE VA                                                24319000053D3-3B-6                        CHILHOWIE AVE            LOT 6                    LOT 6                       000000000000010500000000000000035200000005484340  181 00431600814102598
C1000002461ECHOLS, W GORDON JR           216 N ST                      MARION VA                                                   24354000053D3-8-33-35                     COX ADD                  LOTS 33-35               LOTS 33-35                  00000000000000700000000000000001490000000262833   408 00121700226102598
C1000002470ECHOLS, W GORDON JR           216 N ST                      MARION VA                                                   24354000053D3-(0A)-024-00.25              E MAIN ST                LOT PART LOT             LOT PART LOT                00000000000001800000000000000002230000000483633   408 00121800227102598
C1000002488JONES, DAISY G                P O BOX 723                   CHILHOWIE VA                                                24319000053D3-7-36                        SANDERS AVE-HOOD ST      LOTS 36 37               LOTS 36 37                  000000000000011500000000000000097200000013044302  284 00201400375102598
C4000002496HEATH, MICHAEL E & JEFFERY G  P O BOX 125                   CHILHOWIE VA                                                24319000053D2-3-12                        COMBS ADD                LOTS 12-16               LOTS 12-16                  000000000000025000000000000000111300000016356496  043 00190200344102598
C1000002500ECHOLS, VIOLA MILLER          P O BOX 587                   CHILHOWIE VA                                                24319000053D3-(07)-034-0                  SANDERS AVE - HOOD ST    LOT 34 35                LOT 34 35                   000000000000010500000000000000084800000011436445  082 00121500224102598
C1000002518EDMISTON, JOHN DOUGLAS        156 HARRIS LANE               MARION VA                                                   24354000053D2-A-10                        W LEE HWY                LOT 1 1/2 OF 2           LOT 1 1/2 OF 2              000000000000011000000000000000039200000006024409  296 00130200230102598
C1000002526CRUTCHFIELD, GEORGIA J        711 SUNSET DR                 CHILHOWIE VA                                                24319000053D2-(03)-098-0                  COMBS ADD                LOT 98 PART 99           LOT 98 PART 99              000000000000010000000000000000046000000006720365  477 00110300193102598
C1000002534TEATERS, WILLIAM B & RUTH V   P O BOX 988                   CHILHOWIE VA                                                24319000053D3-10-51                       POOLE ADD                LOTS 51-55               LOTS 51-55                  000000000000011000000000000000000900000001428338  155 00391100733102598
C1000002542HEATH, BILLY E & MARY T       P O BOX 125                   CHILHOWIE VA                                                24319000053D3-(10)-026-A                  POOLE ADD                PT LOTS 27-28-26         PT LOTS 27-28-26            000000000000007000000000000000025900000003948284  118 00180700330102598
C1000002551ELLIOTT, THELMA J & JOHN JR   P O BOX 96                    CHILHOWIE VA                                                24319000053D3-(07)-044-A                  OLD STAGE ROAD           PARTS LOTS 44-45         PARTS LOTS 44-45            000000000000009500000000000000044100000006432171  591 00130600234102598
C4000002569LESTER, BILL R & JO ANN       PO BOX 1220                   GRUNDY VA                                                   24614000053D2-A-122                       MAIN ST                  1 LOT                    1 LOT                       000000000000063000000000000000149600000025512436  134 00230800426102598
C1000002577WHITLEY, DAVID M & MARILYN K  P O BOX 754                   CHILHOWIE VA                                                24319000053D3-(0A)-106-0                  OLD STAGE RD             LOT 1                    LOT 1                       000000000000015000000000000000082200000011664294  728 00431200810102598
C1000002607BOSWELL, WILLIAM C JR & PAMELAP O BOX 769                   CHILHOWIE VA                                                24319000053D3-(0A)-020-0                  CHURCH ST PARCEL C                                                            000000000000015000000000000000074700000010764290  517 00050700083102598
C1000002615FISHER, WILBUR & MAGGIE ALICE 303 CHILHOWIE ST              CHILHOWIE VA                                                24319000053D2-7-1                         CHURCH ST                LOT 1 LOTS 1-2           LOT 1 LOTS 1-2              000000000000010000000000000000040400000006048         00140400251102598
C1000002623FRENCH, KYLE & WIFE           P O BOX 87                    CHILHOWIE VA                                                24319000053D3-2-1                         VIRGINIA AVE             LOTS 1 2                 LOTS 1 2                    000000000000003000000000000000000700000000444142  383 00141400261102598
C1000002631FRENCH, KYLE & WIFE           P O BOX 87                    CHILHOWIE VA                                                24319000053D3-2-3                         JONES SUB-DIV            LOTS 3 4                 LOTS 3 4                    000000000000009000000000000000028300000004476         00141500262102598
C1000002640FRYE, GLADYS H                P O BOX 171                   CHILHOWIE VA                                                24319000053D2-(0A)-029-00.50              W LEE HIGHWAY                                                                 000000000000010000000000000000061600000008592         00141600263102598
C1000002658FRYE, GLADYS H                P O BOX 171                   CHILHOWIE VA                                                24319000053D2-A-22A                       COMBS ADD                LOT 92' X 57             LOT 92' X 57                000000000000002500000000000000000000000000300249  644 00141700264102598
C1000002682GASS, LOUISE B                C% J M GASS JR                4832 RED FOX DR               ANNADALE VA                   22003000053D2-A-27      0.59              PENDLETON S                                                                   000000000000010000000000000000059800000008376022  383 00150400270102598
C1000002691CHILHOWIE MILLING CO INC      P O BOX 316                   CHILHOWIE VA                                                24319000053D3-(07)-054-A0.38              BONHAM AVE               LOTS 55 56 PT 54         LOTS 55 56 PT 54            000000000000011000000000000000030700000005004393  169 00080800141102598
C1000002704GILLENWATER, JAMES R & WILMA MP O BOX 299                   CHILHOWIE VA                                                24319000053D2-4-7                         GROVE PARK ADD           LOT 7                    LOT 7                       000000000000006000000000000000028100000004092271  643 00151200278102598
C1000002712GILLENWATER, VIRGINIA M       C% VIRGINIA E BOSER           P O BOX 77                    CHILHOWIE VA                  24319000053D2-4-8                         GROVE PARK ADD           LOTS 8 9                 LOTS 8 9                    000000000000010500000000000000053200000007644271  655 00151300279102598
C1000002721GILLESPIE, HAROLD EUGENE ET UX814 SUNSET DR                 CHILHOWIE VA                                                24319000053D2-3-66                        COMBS ADD                LOT 66 67                LOT 66 67                   000000000000010000000000000000034100000005292         00151500281102598
C1000002739GILLESPIE, JACK M             P O BOX 124                   CHILHOWIE VA                                                24319000053D3-10-56                       POOLE ADD                LOT 56 57                LOT 56 57                   000000000000008000000000000000028400000004368         00151600282102598
C1000002747CHILHOWIE MILLING CO          P O BOX 316                   CHILHOWIE VA                                                24319000053D3-7-58A                       ADAMS ST                 LOT PART LOT 58          LOT PART LOT 58             000000000000008500000000000000001800000001236379  014 00080100134102598
C4000002755CLARK, GEORGE JR              P O BOX 944                   CHILHOWIE VA                                                24319000053D2-A-40A                       WEST R R ST              LOT 1                    LOT 1                       000000000000010000000000000000012000000002640329  290 00090300155102598
C1000002763GOFF, JANE MOUNTAIN           P O BOX 557                   CHILHOWIE VA                                                24319000053D2-8-2-5                       BEATTIE SUB-DIV          LOTS 2-5                 LOTS 2-5                    000000000000011500000000000000065100000009192365  679 00160100286102598
C1000002771WEBB, JOHN E JR & NILA H      P O BOX 1148                  CHILHOWIE VA                                                24319000053D2-8-6-9                       WALTON AVE               LOTS 6-9                 LOTS 6-9                    000000000000012500000000000000117400000015588443  281 00421900798102598
C1000002810GOODMAN, CHARLES F & RUBY B   P O BOX 71                    CHILHOWIE VA                                                24319000053D2-(04)-003-0                  GROVE PARK ADD           LOT 3 4                  LOT 3 4                     000000000000010500000000000000073000000010020         00160500290102598
C1000002828STURGILL, ADAM B & REBECCA S  P O BOX 753                   CHILHOWIE VA                                                24319000053D2-A-8       0.32              W LEE HIGHWAY            LOT 75 X 188             LOT 75 X 188                000000000000010000000000000000055000000007800440  057 00360700672102598
C1000002836GOODMAN, RUBY & AGNES JONES   P O BOX 71                    CHILHOWIE VA                                                24319000053D3-3-BK C-13                   OLD STAGE RD             13 PT 14                 13 PT 14                    000000000000011500000000000000047100000007032263  079 00160600291102598
C1000002852POLKE, BALLARD & EVELYN L     P O BOX 164                   CHILHOWIE VA                                                24319000053D3-3-BA-2                      SOUTHERN CLAY MFG CO     PT 2 BL A                PT 2 BL A                   000000000000008000000000000000036500000005340330  392 00301600567102598
C4000002861SOUTHWEST COMMUNITY HEALTH    SERVICES INC                  P O BOX 880                   MARION VA                     24354000053D3-1-2                         CHILHOWIE ST             LOTS 2-7                 LOTS 2-7                    000000000000015000000000000000229500000029340384  300 00351700663102598
C1000002879GRISSOM, W T                  P O BOX 605                   MARION VA                                                   24354000053D3-A-103                       1 LOT                                                                         0000000000000280000000000000000802000000129840        00161500300102598
C1000002887GROSECLOSE, OLIN M & MILDRED  P O BOX 126                   CHILHOWIE VA                                                24319000053D3-8-26                        COX ADD                  LOTS 26 27               LOTS 26 27                  000000000000006000000000000000025300000003756         00161900304102598
C1000002909HALE, PATSY M                 1420 W LEE HWY                CHILHOWIE VA                                                24319000053D1-A-4                         LEE HIGHWAY              LOT 25                   LOT 25                      000000000000009000000000000000023000000003840         00170300307102598
C1000002917HAMM, MAXINE P                P O BOX 117                   CHILHOWIE VA                                                24319000053D3-A-3       0.25              OLD STAGE RD             LOT 1                    LOT 1                       000000000000009000000000000000042300000006156396  545 00170600310102598
C9000002918HAMM, LEE J & MARY P          P O BOX 117                   CHILHOWIE VA                                                24319000053D3-A-3                         OLD STAGE RD             PT LOT 1                 PT LOT 1                    000000000000004000000000000000000000000000000481  498 00000000000102598
C4000002925BERRY ENTERPRISES INC         C% JESSIE & SHARON CARTER     137 WESTOVER DR               BRISTOL TN                    37620000053D2-A-99-97   0.58              R R ST                                                                        000000000000002900000000000000000000000000348417  348 00021300032102598
C4000002941LAUREL GROVE RETIREMENT HOME  C% ROBERT E GILLION           P O BOX 129                   BRISTOL VA                    24203000053D1-3-4-7     0.60              COMBS ADD                LOTS 4-7                 LOTS 4-7                    000000000000026100000000000000670700000083616447  699 00230400422102598
C1000002950FRENCH, KYLE & ELIZABETH      P O BOX 87                    CHILHOWIE VA                                                24319000053D3-(02)-005-0                  JONES SUB-DIV            LOTS 5-6                 LOTS 5-6                    000000000000009000000000000000012400000002568336  636 00141300260102598
C1000002968HEATH, BILLY EUGENE           P O BOX 125                   CHILHOWIE VA                                                24319000053D3-(08)-028-0                  COX ADD                  28-30                    28-30                       000000000000009000000000000000063700000008724         00180900332102598
C4000002976HEATH, BILLY EUGENE & MARY T  P O BOX 125                   CHILHOWIE VA                                                24319000053D3-10-26B                      J B POOLE                PT LOTS 26-28            PT LOTS 26-28               000000000000009000000000000000052400000007368260  201 00181000333102598
C1000002992HEATH, LUCILLE P & SHEILA R   1444 W LEE HWY                CHILHOWIE VA                                                24319000053D1-A-1                         W LEE HIGHWAY            LOT 28-32                LOT 28-32                   000000000000010000000000000000032300000005076463  523 00181800341102598
C1000003085LARIMER, EDWARD L & JANE M    P O BOX 525                   CHILHOWIE VA                                                24319000053D2-(0A)-019-01                 LEE HIGHWAY                                                                   000000000000013000000000000000075500000010620358  467 00230100419102598
C1000003093CHAPMAN, BILLY M & FREDA P    1719 GREENWAY AVE             CHILHOWIE VA                                                24319000053D2-(03)-051-B                  COMBS ADD                LOT 52 PT 51 53          LOT 52 PT 51 53             000000000000010000000000000000038000000005760355  796 00070700121102598
C1000003107WEST, MATTIE BLEVINS          201 CLINTON AVE               MARION VA                                                   24354000053D3-(0A)-004-0                  OLD STAGE RD             1 LOT                    1 LOT                       000000000000015000000000000000024200000004704411  226 00430200800102598
C4000003123CROUSE, HAROLD F & BRENDA S   P O BOX 928                   CHILHOWIE VA                                                24319000053D2-(0A)-058-A                  LOT PART 8 & 9                                                                000000000000013000000000000000043200000006744343  311 00110200192102598
C4000003131HORNE, R E & EVA M            P O BOX 427                   CHILHOWIE VA                                                24319000053D3-(3-BK-B-15                  AKER ST                  LOT 15                   LOT 15                      000000000000010500000000000000002200000001524         00191300355102598
C1000003140HORNE, R E & EVA M            P O BOX 427                   CHILHOWIE VA                                                24319000053D3- 3-BK B-16                  AKER ST                  LOT PT 16                LOT PT 16                   000000000000012000000000000000038400000006048         00191400356102598
C4000003166SURBER, DONNIE L & JOLEEN B   111 SOMMERSET DR              CHILHOWIE VA                                                24319000053D3-7-14      0.34              U S POST OFFICE          LOTS 14 15 PT 13         LOTS 14 15 PT 13            000000000000028000000000000000093900000014628432  202 00381600719102598
C1000003174HUFF, B B JR & DIXIE RAE      816 W LEE HWY                 CHILHOWIE VA                                                24319000053D2-(0A)-032-00.62              LEE HIGHWAY                                                                   000000000000011000000000000000067800000009456230  561 00191800360102598
C1000003191KEITH, HERMAN & MADELINE      P O BOX 1182                  CHILHOWIE VA                                                24319000053D1-(03)-032-0                  COMBS ADD                LOT 32 PT 33             LOT 32 PT 33                000000000000009500000000000000055700000007824305  390 00220900408102598
C4000003204LEA INDUST INC-AMER OF M'VILLE128 CHURCH ST                 MARTINSVILLE VA                                             24115000064-A-1         70                W-END CHILHOWIE                                                               000000000000350000000000000006936500000874380464  797 00230500423102598
C4000003212JONES, CHARLES E & EDITH H    PO BOX 74                     CHILHOWIE VA                                                24319000053D3-10-21                       POOLE SUB-DIV            LOTS 21 22               LOTS 21 22                  000000000000010000000000000000031900000005028192  358 00201300374102598
C1000003221GREER, EVERETT A & GENIEVIEVE P O BOX 1184                  CHILHOWIE VA                                                24319000053D2-(04)-005-0                  GROVE PARK               LOT 5                    LOT 5                       000000000000009500000000000000028300000004536445  645 00160900294102598
C1000003239JONES, HUGH M & MARGARET T    P O BOX 45                    CHILHOWIE VA                                                24319000053D2-A-31                        LEE HIGHWAY              LOT 1                    LOT 1                       000000000000011000000000000000068100000009492         00201700378102598
C1000003247KEGLEY, SARA JONES            P O BOX 1601                  CHILHOWIE VA                                                24319000053D2-A-38      1.51              SULPHUR SPRING RD        LOTS                     LOTS                        000000000000015000000000000000000000000001800461  791 00220500404102598
C1000003250HAYDEN, BLAINE E & REGINA W   863 MIDNIGHT DR               CHILHOWIE VA                                                24319000053D2-A-38F     0.72              SULPHUR SPRINGS          LOT                      LOT                         000000000000011000000000000000000000000001320437  666 00180100324102598
C1000003255JONES, ROBERT H               12 N EASTERLY ST              FRONT ROYAL VA                                              22630000053D2-A-24      3.43              SULPHUR SPRING ROAD                                                           000000000000013700000000000000000000000001644461  788 00211900399102598
C3000003263JONES, MARGARET M             C% FIRST CHURCH OF GOD        PO BOX 198                    CHILHOWIE VA                  24319000053D2-3-17                        COMBS ADD                LOTS 17-19               LOTS 17-19                  000000000000015000000000000000105300000014436225  116 00211000390102598
C1000003271JONES, J RALPH & HELEN J      615 SUNSET ST                 CHILHOWIE VA                                                24319000053D2-(03)-102-0                  COMBS ADD PART 104       LOTS 102-103             LOTS 102-103                000000000000011000000000000000069900000009708         00210700387102598
C1000003280JONES, MARGARET M             P O BOX 227                   CHILHOWIE VA                                                24319000053D2-(04)-010-0                  GROVE PARK ADD           PT LOT 10                PT LOT 10                   000000000000001000000000000000000000000000120379  146 00211100391102598
C1000003298JONES, MARGARET M             P O BOX 227                   CHILHOWIE VA                                                24319000053D2-A-11      1.62              COMBS ADD                                                                     000000000000014900000000000000049800000007764379  146 00211200392102598
C1000003301JONES, MARGARET M             P O BOX 227                   CHILHOWIE VA                                                24319000053D2-A-37      6.65              COMBS ADD                                                                     000000000000035600000000000000126100000019404         00211300393102598
C1000003310JONES, LUTHER G ETAL          P O BOX 64                    CHILHOWIE VA                                                24319000053D3-3-BB-16A  0.14              AKER ST                  LT PT 16 3               LT PT 16 3                  000000000000008500000000000000031300000004776360  541 00210900389102598
C1000003328JONES, ROBERT & BLANCHE       P O BOX 39                    CHILHOWIE VA                                                24319000053D3-10-15                       OLD STAGE ROAD           LOTS 15 16               LOTS 15 16                  000000000000009000000000000000026800000004296         00211700397102598
C1000003336JONES, ROBERT & BLANCHE       P O BOX 39                    CHILHOWIE VA                                                24319000053D3-10-17                       OLD STAGE ROAD           LOTS 17 18               LOTS 17 18                  000000000000009000000000000000000000000001080         00211800398102598
C1000003344HEATH, LARRY W                P O BOX 608                   CHILHOWIE VA                                                24319000053D3-7-50                        BONHAM AVE               LOT 50                   LOT 50                      000000000000010000000000000000069900000009588352  038 00181700340102598
C1000003352WILLIAMS, CURTIS A SR & MARIE P O BOX 883                   CHILHOWIE VA                                                24319000053D2-(09)-031-0                  MOUNTAIN ADD             LOTS 31-33               LOTS 31-33                  000000000000006000000000000000030000000004320393  122 00440100818102598
C1000003361LARIMER, EDWARD L & JANE M    P O BOX 525                   CHILHOWIE VA                                                24319000053D2-A-19A     0.19              ELLER AVE                                                                     000000000000006000000000000000000000000000720404  606 00230200420102598
C1000003379LARMER, WILLIAM W & LINDA C   216 GREEVER AVE               CHILHOWIE VA                                                24319000053D1-(03)-033-A                  COMBS SUB-DIV LT 34-36   LOT PART 33              LOT PART 33                 000000000000011000000000000000064800000009096348  297 00230300421102598
C1000003387KELLY, WILLIAM C & EVA P      P O BOX 181                   CHILHOWIE VA                                                24319000053D2-A-14      0.47              ELLER AVE                LOT 1 & /76              LOT 1 & /76                 000000000000010000000000000000085700000011484503  170 00221100410102598
C1000003395GOLLEHON, CATHIE M & EVELYN A P O BOX 734                   CHILHOWIE VA                                                24319000053D3-7-1A                        OLD STAGE RD             PT LOTS 1 2 3            PT LOTS 1 2 3               000000000000011500000000000000084200000011484458  189 00160300288102598
C1000003409LANDIS, STANLEY E JR ETAL     P O BOX 60                    CHILHOWIE VA                                                24319000053D3-(07)-001-0                  OLD STAGE RD             PT LOTS 1-3              PT LOTS 1-3                 000000000000010000000000000000099100000013092233  073 00221900418102598
C1000003417FIRST NATIONAL BANK OF SALT   DRAWER B                      SALTVILLE VA                                                24370000053D3-7-64                        LEE HIGHWAY              LOTS 64                  LOTS 64                     000000000000009000000000000000000000000001080421  529 00131800246102598
C1000003425MC CLURE, JERRY W & ANGELA M  P O BOX 627                   CHILHOWIE VA                                                24319000053D3-A-9       0.30              OLD STAGE RD                                                                  000000000000007000000000000000000000000000840449  675 00260400479102598
C1000003433HARRIS, W DEAN & SANDRA R     205 GREEVER AVE               CHILHOWIE VA                                                24319000053D1-(03)-037-0                  COMBS S-D                LOTS 37-39               LOTS 37-39                  000000000000010000000000000000042700000006324357  191 00171500319102598
C1000003450LEGARD, JUANITA               P O BOX 202                   CHILHOWIE VA                                                24319000053D3-3-BKB-2                     CHILHOWIE AVE            PART LOT 2               PART LOT 2                  000000000000010500000000000000000300000001296261  195 00230600424102598
C4000003454MC CLURE, JERRY W & ANGELA M  P O BOX 627                   CHILHOWIE VA                                                24319000053D3-A-12B     1.80              BONHAM TR                SHOPPING CENTER          SHOPPING CENTER             000000000000078400000000000000035100000013620442  109 00260500480102598
C1000003468LEWIS, LADY MAUPIN            C% ELIZABETH BEAMER           90 CHERRY LANE                CHRISTIANSBURG VA             24073000053D3-7-41A                       OLD STAGE ROAD           LOT 42 & 1/2 41          LOT 42 & 1/2 41             000000000000010500000000000000035200000005484029  692 00231200430102598
C1000003476MOSER, ELIZABETH S            P O BOX 225                   CHILHOWIE VA                                                24319000053D3-(07)-043-A                  BONHAM AVE               LT 46 PT 43-45           LT 46 PT 43-45              000000000000009500000000000000021500000003720384  781 00280400517102598
C4000003484LITTLE, EUGENE C              P O BOX 442                   CHILHOWIE VA                                                24319000053D2-A-44                        W R R ST                 LOTS 1-24                LOTS 1-24                   000000000000015000000000000000039800000006576         00231300431102598
C1000003492HAGA, TIMOTHY M ETAL          P O BOX 493                   CHILHOWIE VA                                                24319000053D3-A-17      0.75              CHILHOWIE ST             1 LOT                    1 LOT                       000000000000010000000000000000043300000006396414  258 00170100305102598
C1000003494OLINGER, JAMES A              P O BOX 212                   CHILHOWIE VA                                                24319000053D3-A-17B                       CHILHOWIE ST             SMALL LOT                SMALL LOT                   000000000000006500000000000000004000000001260337  232 00290200534102598
C4000003506FOSTER, JOHN E & JEAN C       P O BOX 556                   CHILHOWIE VA                                                24319000053D2-(0A)-060-00.23              MAIN ST                                                                       000000000000028000000000000000120000000017760379  473 00140800255102598
C4000003507LITTLE, EUGENE C & SHIRLEY J  P O BOX 442                   CHILHOWIE VA                                                24319000053D2-A-60A     0.27              MAIN ST                                                                       000000000000028000000000000000069300000011676216  164 00231500433102598
C1000003581LOVE, ROY JACKSON & DELORES J P O BOX 114                   CHILHOWIE VA                                                24319000053D3-(07)-043-0                  OLD STAGE ROAD           PART LOT 43 44           PART LOT 43 44              000000000000009500000000000000046100000006672150  419 00240600443102598
C1000003603LUNDY, SAMUEL P & KAREN G     P O BOX 687                   CHILHOWIE VA                                                24319000053D2-A-35                        W LEE HIGHWAY            1 LOT                    1 LOT                       000000000000010000000000000000043800000006456431  374 00240800445102598
C1000003611MANUEL, GARLAND T & RUTH J    P O BOX 252                   CHILHOWIE VA                                                24319000053D2-(04)-002-0                  GROVE PARK ADD           LOT 2                    LOT 2                       000000000000009500000000000000040400000005988         00241000447102598
C1000003620MARTIN, GEORGIA L             P O BOX 123                   CHILHOWIE VA                                                24319000053D3- 3-BK C-8A                  OLD STAGE ROAD           LOT PART 8 9             LOT PART 8 9                000000000000011000000000000000051500000007500W37  458 00241100448102598
C1000003638MARTIN, GRETCHEN F & WILLIAM  P O BOX 368                   CHILHOWIE VA                                                24319000053D2-(07)-023-0                  CHURCH ST                LOTS 23-25               LOTS 23-25                  000000000000013000000000000000074700000010524235  468 00241200449102598
C1000003639MARTIN, GRETHEL F & WILLIAM E P O BOX 111                   CHILHOWIE VA                                                24319000053D2-7-15-22                     CHURCH ST                LOTS 15-22               LOTS 15-22                  000000000000003000000000000000000000000000360404  327 00241300450102598
C1000003646MARTIN, WILLIAM E SR & GERTHELP O BOX 111                   CHILHOWIE VA                                                24319000053D3-(07)-004-0                  SANDERS ADD              LOTS 4-6                 LOTS 4-6                    000000000000015000000000000000042400000006888390  218 00250300459102598
C1000003654MARTIN, WILLIAM E SR & GRETHELP O BOX 111                   CHILHOWIE VA                                                24319000053D3-(07)-007-0                  SANDERS ADD              LOTS 7-10                LOTS 7-10                   000000000000012000000000000000000000000001440390  218 00250400460102598
C1000003662MARTIN, WILLIAM E SR & GRETHELP O BOX 111                   CHILHOWIE VA                                                24319000053D3- 3-BK B-23                  LOT 23                                                                        000000000000011000000000000000037700000005844390  218 00250500461102598
C1000003671MARTIN, LUCILLE T             P O BOX 742                   CHILHOWIE VA                                                24319000053D3-(07)-025-A                  CHILHOWIE AVE            LOT 1/2 OF 24-26         LOT 1/2 OF 24-26            000000000000010000000000000000056600000007992369  045 00241700454102598
C1000003689DOANE, LEWIS E & OPAL P       P O BOX 273                   CHILHOWIE VA                                                24319000053D3- 3-BK B-17                  AKER ST                  LOT PART 17              LOT PART 17                 000000000000009500000000000000025800000004236391  213 00120500214102598
C1000003697MASON, ELLENORA & FRED        P O BOX 521                   CHILHOWIE VA                                                24319000053D3-3B-18B                      CHESTNUT ST              1 LOT & PART 18          1 LOT & PART 18             000000000000009000000000000000027400000004368         00250600462102598
C1000003701MASON, JOHN D JR              P O BOX 63                    CHILHOWIE VA                                                24319000053D3-3B-5A                       CHESTNUT ST              2 LOTS                   2 LOTS                      000000000000009000000000000000035800000005376         00250900465102598
C1000003719LEWIS, KENNETH M              720 SKYVIEW DR                CHILHOWIE VA                                                24319000053D2-3-51                        COMBS ADD                LT 70-PT LTS             LT 70-PT LTS                000000000000011000000000000000038300000005916W41  679 00231100429102598
C1000003727MC ALLISTER, THOMAS A JR      DOROTHY S                     P O BOX 133                   CHILHOWIE VA                  24319000053D2-A-14                        ELLER AVE 1 LOT                                                               000000000000001500000000000000000000000000180         00251200468102598
C1000003735MC ALLISTER, THOMAS A JR &    DOROTHY S                     P O BOX 133                   CHILHOWIE VA                  24319000053D2-(0A)-015-0                  COMBS ADD                1 LOT                    1 LOT                       000000000000001500000000000000000000000000180186  168 00251300469102598
C1000003743MC ALLISTER, THOMAS A JR &    DOROTHY S                     P O BOX 133                   CHILHOWIE VA                  24319000053D2-3-104A                      COMBS ADD                PART 104 ALL 105         PART 104 ALL 105            000000000000008000000000000000064700000008724         00251400470102598
C1000003760MC CLURE, ANGELA S ETAL       P O BOX 627                   CHILHOWIE VA                                                24319000053D2-3-73A                       COMBS ADD                LOTS 74-76 PT 73         LOTS 74-76 PT 73            000000000000011500000000000000100600000013452463  341 00251800474102598
C1000003778MC CLURE, DOSS & JANIE        P O BOX 374                   CHILHOWIE VA                                                24319000053D2-A-16      0.09              ELLER AVE                1 LOT                    1 LOT                       000000000000001500000000000000000000000000180243  248 00260100476102598
C1000003786MC CLURE, DOSS & JANIE        P O BOX 374                   CHILHOWIE VA                                                24319000053D2-5-8                         ELLER AVE                LOT 8                    LOT 8                       000000000000010000000000000000040400000006048243  248 00260200477102598
C1000003794RUSH, WILLIAM T III & ROBIN D 531 HAYNES AVE                CHILHOWIE VA                                                24319000053D3-3-B-3B    0.43              AKER ST & CHILHOWIE ST   PT LTS 3 15 16           PT LTS 3 15 16              000000000000010500000000000000029300000004776501  519 00340100628102598
C1000003808MC CORMICK, GRACE TAYLOR      P O BOX 56                    CHILHOWIE VA                                                24319000053D3-1-8                         CHILHOWIE ST             LOTS 8-11                LOTS 8-11                   000000000000012000000000000000113800000015096         00260800483102598
C1000003816MC CORMICK, GRACE TAYLOR      P O BOX 56                    CHILHOWIE VA                                                24319000053D3-7-44B                       OLD STAGE ROAD           LOT PART 45              LOT PART 45                 000000000000007000000000000000018900000003108         00260900484102598
C1000003824BARNETT, COLENE E             1404 W LEE HWY                CHILHOWIE VA                                                24319000053D1-(0A)-005-0                  W LEE HIGHWAY            LOT 24                   LOT 24                      000000000000009000000000000000031100000004812446  175 00011200012102598
C1000003832MC CORMICK, WALTER SCOTT      P O BOX 243                   CHILHOWIE VA                                                24319000053D2-(07)-034-0                  HULL AVE                 LOTS 34-41               LOTS 34-41                  000000000000011500000000000000015600000003252225  719 00261200487102598
C1000003841MC GHEE, ROSIE L              1749 GREENWAY AVE             CHILHOWIE VA                                                24319000053D1-3-44                        COMBS ADD                LOTS 44 45               LOTS 44 45                  000000000000009500000000000000038900000005808W43  055 00270300497102598
C1000003859MC NEW, JERRY CECIL SR        P O BOX 435                   CHILHOWIE VA                                                24319000053D2-A-80      0.21              OLD STAGE RD                                                                  000000000000009000000000000000041200000006024439  356 00270500499102598
C1000003867DOANE, LEWIS E & OPAL M       P O BOX 273                   CHILHOWIE VA                                                24319000053D3- 3-B-18A                    CHESTNUT ST              PART LOT 18              PART LOT 18                 000000000000009000000000000000080800000010776314  124 00120400213102598
C1000003875MINNICK, HAROLD               P O BOX 414                   CHILHOWIE VA                                                24319000053D1-3-57-59                     SUNSET DRIVE             LOTS 57-59               LOTS 57-59                  000000000000010000000000000000080000000010800328  582 00271700511102598
C1000003891MOSIER, ELIZABETH S           P O BOX 225                   CHILHOWIE VA                                                24319000053D3-(07)-047-0                  BONHAM AVE-ADAMS ST      LOTS 47-49               LOTS 47-49                  000000000000012000000000000000051600000007632W38  615 00280500518102598
C4000003930MT EMPIRE HEALTH FAC ASSOC    P O BOX 746                   CHILHOWIE VA                                                24319000053D3-13-1      2.11              MT EMPIRE HTH FAC INC    PLAT                     PLAT                        000000000000229800000000000002929800000379152427  402 00280600519102598
C3000003948JONES, THOMAS A & RITA S      688 LONESOME PINE RD          CHILHOWIE VA                                                24319000053D2-A-77      0.20              OLD STAGE ROAD           LOT                      LOT                         000000000000017000000000000000081100000011772485  629 00220100400102598
C1000003950DOANE, AUDREY B               P O BOX 957                   CHILHOWIE VA                                                24319000053D2-A-76      0.41              OLD STAGE RD             PT TR 5                  PT TR 5                     000000000000003500000000000000000000000000420426  635 00111600206102598
C1000003956GOFF, JANE M                  P O BOX 557                   CHILHOWIE VA                                                24319000053D2-(08)-001-00.67              WALTON AVE               BEATTIE 2 LOT 1          BEATTIE 2 LOT 1             000000000000012500000000000000096200000013044372  778 00151900285102598
C3000003964MARTIN, JAMES R & ELAINE M    P O BOX AN                    CHILHOWIE VA                                                24319000053D2-9-1       0.17              MOUNTAIN SUB DIV         PT LOT 1                 PT LOT 1                    000000000000007000000000000000042400000005928469  098 00241400451102598
C1000003965HOUCHINS, LUTHER C III & ANNA P O BOX 821                   CHILHOWIE VA                                                24319000053D2-A-77A     0.44              GOFF                     TR 2                     TR 2                        000000000000011500000000000000074800000010356373  116 00191700359102598
C1000003972GOFF, JANE MOUNTAIN           P O BOX 557                   CHILHOWIE VA                                                24319000053D2-8-41                        BEATTIE SUB-DIV          LOT 41                   LOT 41                      000000000000008500000000000000000000000001020365  679 00160200287102598
C1000003973BURL W & KATHERINE M THOMAS TRDRAWER N                      CHILHOWIE VA                                                24319000053D2-8-38-40                     BEATTIE S D              LOTS 38-40               LOTS 38-40                  000000000000007000000000000000000000000000840457  085 00060200097102598
C1000003981JONES, MARGARET M & M J PUPA  P O BOX 227                   CHILHOWIE VA                                                24319000053D2-A-28      0.50              COMBS ADD                                                                     000000000000010000000000000000059900000008388W46  753 00211400394102598
C1000003999MILLS, CONNIE G               P O BOX 974                   CHILHOWIE VA                                                24319000053D2-10-5                        TERRACE HTS              LOT 5                    LOT 5                       000000000000007000000000000000007800000001776427  394 00271300507102598
C4000004006MURRAY, CARL & DORIS          P O BOX 397                   CHILHOWIE VA                                                24319000053D2-A-52                        MAIN ST 2 LOTS                                                                000000000000018000000000000000041600000007152271  155 00281000523102598
C1000004014MINK, MARY K                  838 SUNSET DR                 CHILHOWIE VA                                                24319000053D1-3-60      0.23              SUNSET DRIVE             LOTS 60-61               LOTS 60-61                  000000000000009500000000000000048900000007008387  241 00271600510102598
C1000004022MURRAY, GEORGE & PAULINE      P O BOX 105                   CHILHOWIE VA                                                24319000053D3-10-1                        OLD STATE ROAD           LOTS 1-6                 LOTS 1-6                    000000000000012000000000000000074400000010368         00281300526102598
C1000004031MURRAY, GEORGE E & PAULINE B  P O BOX 105                   CHILHOWIE VA                                                24319000053D2-(0A)-002-0                  WEST LEE HIGHWAY         LOT 15 PT 14 16-17       LOT 15 PT 14 16-17          000000000000008000000000000000003000000001320217  574 00281400527102598
C1000004032RHUDY, BILLY L & OPAL P       P O BOX 626                   CHILHOWIE VA                                                24319000053D2-A-2A      0.79              WEST LEE HWY             MURRAY TR                MURRAY TR                   000000000000002500000000000000000000000000300343  535 00320400593102598
C1000004057NIEKIRK, ROXIE                P O BOX 662                   CHILHOWIE VA                                                24319000053D3-7-58                        CHILHOWIE ST             PART LOT 57 58           PART LOT 57 58              000000000000008500000000000000010500000002280         00281700530102598
C1000004065ROUSE, DAVID A                P O DRAWER 316                CHILHOWIE VA                                                24319000053D3-(08)-017-0                  COX ADD                  LOTS 17-19               LOTS 17-19                  000000000000010000000000000000038400000005808395  368 00321800607102598
C1000004073TUELL, DAN C & CAROL D        P O BOX 40                    CHILHOWIE VA                                                24319000053D2-4-10A                       GROVE PARK ADD           LOTS 11 12 PT 10         LOTS 11 12 PT 10            000000000000011500000000000000074000000010260342  450 00400800749102598
C1000004090BISHOP, JAMES T               P O BOX 219                   CHILHOWIE VA                                                24319000053D3-7-33                        SANDERS ADD              LOT 33                   LOT 33                      000000000000009500000000000000027100000004392500  423 00031100049102598
C1000004103PALMER, THELMA & GEORGE W     P O BOX 302                   CHILHOWIE VA                                                24319000053D3-(02)-007-0                  CHILHOWIE AVE            LOTS 7-9                 LOTS 7-9                    000000000000010500000000000000050800000007356144  351 00291200544102598
C1000004111CHILHOWIE INSURANCE AGENCY INCP O BOX 387                   CHILHOWIE VA                                                24319000053D2-A-41                        316 W MAIN ST            1 LOT                    1 LOT                       000000000000008500000000000000000000000001020440  479 00071600130102598
C1000004120PATRICK, GEORGE A & EDNA      P O BOX 772                   CHILHOWIE VA                                                24319000053D3-10-58-59                    POOL ADD                 LOTS 58-59               LOTS 58-59                  000000000000008000000000000000034600000005112276  003 00291700549102598
C1000004138BLEVINS, CLAUDE A SR & JULIA LP O BOX 446                   CHILHOWIE VA                                                24319000053D2-A-4A                        W LEE HWY                TRACT 2                  TRACT 2                     000000000000011000000000000000046700000006924447  177 00040100058102598
C1000004154STURGILL, RICHARD F & BARBARA P O BOX 296                   CHILHOWIE VA                                                24319000053D2-(03)-099-A                  SUNSET DRIVE             PART LOT 99 100          PART LOT 99 100             000000000000010000000000000000045800000006696346  267 00371800702102598
C1000004162GARY, LIEU VIA H-TRUSTEE      409 S COLLEGE AVE             NEWTON NC                                                   28658000053D2-A-5                         LEE HIGHWAY              LOTS 7 8                 LOTS 7 8                    000000000000011000000000000000047100000006972407  293 00150300269102598
C1000004201POWERS, DONALD & VERA L TRUST P O BOX 744                   CHILHOWIE VA                                                24319000053D3-(07)-040-00.28              OLD STAGE ROAD           LOT 40 PART 41           LOT 40 PART 41              000000000000010500000000000000051400000007428360  655 00310100571102598
C1000004219POWERS, WOODIE MALONE & JEAN  P O BOX 799                   CHILHOWIE VA                                                24319000053D3-(08)-020-0                  COX ADD                  PT 20 21 & 22            PT 20 21 & 22               000000000000009500000000000000049900000007128242  291 00310700577102598
C1000004243KELLY, THELMA P ETAL          314 SERENA ST                 UPPER MARLBORO MD                                           20772000053D3-(0A)-013-00.50              PINE ST                  LOT 9 11                 LOT 9 11                    000000000000028000000000000000001500000003540403  715 00221000409102598
C1000004251KESTNER, GARNETT F & MARTHA   P O BOX 200                   CHILHOWIE VA                                                24319000053D2-(0A)-026-01.12              PENDLETON ST                                                                  000000000000013000000000000000032100000005412395  358 00221200411102598
C1000004260CLIDOT LLC                    P O BOX 158                   ABINGDON VA                                                 24210000053D3-A-30      0.53              E LEE HWY                                                                     000000000000033000000000000000039200000008664477  229 00090900161102598
C4000004278CHEN, CHANG CHENG             P O BOX 1126                  CHILHOWIE VA                                                24319000053D3-14-1      1.22              RAINBOW AUTEL PLAT                                                            000000000000106300000000000000106700000025560500  342 00071000124102598
C1000004286SMITH, DIANE J                P O BOX 61                    CHILHOWIE VA                                                24319000053D2-A-25                        PENDLETON ST             LOT 1                    LOT 1                       000000000000010000000000000000079900000010788429  196 00350600652102598
C1000004294MT EMPIRE HEALTH FAC ASSOC    P O BOX 746                   CHILHOWIE VA                                                24319000053D3-(0A)-087-00.29              E PINE ST                LOT 1                    LOT 1                       000000000000002500000000000000000000000000300345  749 00280700520102598
C1000004308RATLIFF, HAROLD W & BRENDA M  P O BOX 215                   CHILHOWIE VA                                                24319000053D2-9-36                        MOUNTAIN ADD             36-38                    36-38                       000000000000006000000000000000034300000004836242  298 00311200582102598
C1000004316RECTOR, CARIDINE H            1150 W LEE HWY                CHILHOWIE VA                                                24319000053D2-(0A)-006-0                  W LEE HIGHWAY            LOT PART LOT 6           LOT PART LOT 6              000000000000011000000000000000051800000007536W42  577 00311700587102598
C1000004324RUEMMLER, WALTER P & SHIRLEY SP O BOX 465                   CHILHOWIE VA                                                24319000053D2-(0A)-033A 1.07              LEE HIGHWAY                                                                   000000000000013000000000000000058000000008520377  055 00331700625102598
C1000004325RUEMMLER, WALTER P & SHIRLEY SP O BOX 465                   CHILHOWIE VA                                                24319000053D2-A-33      1                 LEE HWY                  LOT                      LOT                         000000000000010000000000000000000000000001200489  754 00331800626102598
C1000004332RECTOR, HILTON                1150 W LEE HWY                CHILHOWIE VA                                                24319000053D2-(0A)-007-0                  W LEE HIGHWAY            LOTS 4 5 PART 6          LOTS 4 5 PART 6             000000000000004000000000000000000000000000480214  048 00311800588102598
C1000004341REDDIX, ANN & GEORGIA         C% GARDENIA WEBB              P O BOX 143                   MEADOWVIEW VA                 24361000053D3-5-13                        LEE HIGHWAY              LOT 1                    LOT 1                       000000000000007000000000000000005000000001440         00311900589102598
C1000004359REEDY, STEPHEN D ETAL         P O BOX 1954                  CHILHOWIE VA                                                24319000053D1-3-62                        SUNSET DRIVE             LOTS 62 63               LOTS 62 63                  000000000000009500000000000000063200000008724477  292 00320100590102598
C1000004367RHUDY, BILLY L & OPAL P       P O BOX 626                   CHILHOWIE VA                                                24319000053D1-A-11                        LEE HIGHWAY              LOT 1 PART LOT 19        LOT 1 PART LOT 19           000000000000005000000000000000000000000000600427  766 00320500594102598
C1000004375RHUDY, BILLY L & OPAL P       P O BOX 626                   CHILHOWIE VA                                                24319000053D1-A-8                         LEE HWY                  PT LOT 20                PT LOT 20                   000000000000005000000000000000000000000000600274  280 00320600595102598
C4000004383RHUDY, BILLY L & OPAL P       P O BOX 626                   CHILHOWIE VA                                                24319000053D1-A-10                        LEE HIGHWAY              PART LOTS 18 19          PART LOTS 18 19             000000000000008000000000000000061400000008328353  409 00320700596102598
C4000004391HAMMOND, ZENOBIA M ETAL       131 HARMONY DR                SALTVILLE VA                                                24370000053D3-A-29                        S CHURCH ST              TR II                    TR II                       000000000000015000000000000000043200000006984366  026 00170800312102598
C1000004413ROE, MARVIN R & ETHEL T       P O BOX 602                   CHILHOWIE VA                                                24319000053D2-(0A)-023-00.56              PENDLETON ST                                                                  000000000000010000000000000000049700000007164         00321100600102598
C1000004421ROLLINS, PANSY R (STILLMAN)   P O BOX 53                    CHILHOWIE VA                                                24319000053D2-4-6                         GROVE PART ADD           LOT 6                    LOT 6                       000000000000009500000000000000039100000005832         00321500604102598
C1000004430ROSE, CLINTON A & DELLA E     239 STALEY ST                 MARION VA                                                   24354000053D3-(3-B-15A                    AKER ST                  1 LOT                    1 LOT                       000000000000006500000000000000000000000000780246  709 00321700606102598
C4000004448ROUSE, DAVID A                P O BOX 316                   CHILHOWIE VA                                                24319000053D3-(07)-060-A                  CHILHOWIE ST             LOT 1                    LOT 1                       000000000000015000000000000000019200000004104         00321900608102598
