FHDNNNN001000401000401000401N                                                                                           001217
RHD11000011NN00000401000004010000000004010401000354NY0401040104010000000300000401000000000000      08212001NN000000 N         
CUS1100001100118501               WILLIAM EDGAR BARLOW3340 ROCKY ROAD                         000N     WS                     
MTR11000011001000000000000000RA              94327887    000100161970001619700000000000NN  NNWL000                            
RDG11000011WATRL000000000K00000000000000000000108212001135200N000000000000N24/28    000000700K 00000000070000243200           
CUS1100001100114824               PAUL HENDRIX        2936 MORGANTON BLVD                     000N     WS                     
MTR11000011001000000000000000RA              94231008    000100161980001619800000000000NN  NNWL000   L                        
RDG11000011WATRL000000000K00000000000003836000208212001135414N000000000000N24/28    001340700K 00000000070000377900           
CUS1100001100116771               VACANT              3010 ROCKY ROAD                         000N     WS METER OUT           
MTR11000011001000000000000000RA              NO METER    000100161990001619900000000000NN  NNWL000   R                        
RDG11000011WATRL000000000K00000000000003537000308212001135418N000000000000N24/28    000040700K 00000000070000353700           
CUS110000110014512                BILLY RAY ADKINS    3036 ROCKY ROAD                         000N     WS                     
MTR11000011001000000000000000RA                12755644  000100162000001620000000000000NN  NNWL000   R                        
RDG11000011WATRL000000000K00000000000007394000408212001135520N000000000000N24/28    000620700K 00000000070000734900           
CUS110000110013344                H S CLINE           3048 ROCKY RD                           000N     WS                     
MTR11000011001000000000000000RA                90764451  000100162010001620100000000000NN  NNWL000   R                        
RDG11000011WATRL000000000K00000000000003249000508212001135553N000000000000N24/28    000330700K 00000000070000322500           
CUS110000110019654                KENNETH H. COFFEY   3056 ROCKY RD                           000N     WS                     
MTR11000011001000000000000000RA                35894866  000100162020001620200000000000NN  NNWL000   R                        
RDG11000011WATRL000000000K00000000000006102000608212001135625N000000000000N24/28    000320700K 00000000070000605800           
CUS110000110019162                JAMES PHILLIP PORTER3063 ROCKY ROAD                         000N     WS                     
MTR11000011001000000000000000RA              25045068    000100162030001620300000000000NN  NNWL000   L                        
RDG11000011WATRL000000000K00000000000001899000708212001135730N000000000000N24/28    000650700K 00000000070000187100           
CUS110000110013346                DARRELL (PAT) PRITCH3276 GAMEWELL SCHOOL                    000N     WS                     
MTR11000011001000000000000000RA                31199329  000100162040001620400000000000NN  NNWL000   L                        
RDG11000011WATRL000000000K00000000000009583000808212001135915N000000000000N24/28    001050700K 00000000070000953100           
CUS110000110016951                SAMUEL WAYNE SMITH  2490 BIRCHDALE DR                       000N     WS                     
MTR11000011001000000000000000RA                40787548  000100162050001620500000000000NN  NNWL000   R                        
RDG11000011WATRL000000000K00000000000006122000908212001140000N000000000000N24/28    000450700K 00000000070000608000           
CUS110000110016950                LORETTA LONG        2481 BIRCHDALE DR                       000N     WS                     
MTR11000011001000000000000000RA                40787550  000100162060001620600000000000NN  NNWL000   L                        
RDG11000011WATRL000000000K00000000000006451001008212001140054N000000000000N24/28    000540700K 00000000070000642200           
CUS110000110016949                SHIRLEY ROOTS       2482 BIRCHDALE DR                       000N     WS                     
MTR11000011001000000000000000RA                40787552  000100162070001620700000000000NN  NNWL000   R                        
RDG11000011WATRL000000000K00000000000002367001108212001140058N000000000000N24/28    000040700K 00000000070000234400           
CUS110000110016942                J VAN HOLLAND       2468 BIRCHDALE DRIVE                    000N     WS                     
MTR11000011001000000000000000RA                40787577  000100162080001620800000000000NN  NNWL000   R                        
RDG11000011WATRL000000000K00000000000013770001208212001140148N000000000000N24/28    000500700K 00000000070001367000           
CUS1100001100116645               LUTHER BARLOWE      2467 BIRCHDALE DRIVE                    000N     WS                     
MTR11000011001000000000000000RA                40787579  000100162090001620900000000000NN  NNWL000   L                        
RDG11000011WATRL000000000K00000000000014972001308212001140220N000000000000N24/28    000320700K 00000000070001478300           
CUS1100001100114332               JAMES NELSON WOODS  2454 BIRCHDALE DRIVE                    000N     WS                     
MTR11000011001000000000000000RA              40345959    000100162100001621000000000000NN  NNWL000   R                        
RDG11000011WATRL000000000K00000000000006862001408212001140305N000000000000N24/28    000450700K 00000000070000680700           
CUS1100001100111157               SCOTT SMITH         2450 BIRCHDALE DRIVE                    000N     WS                     
MTR11000011001000000000000000RA                40787580  000100162110001621100000000000NN  NNWL000   R                        
RDG11000011WATRL000000000K00000000000007818001508212001140336N000000000000N24/28    000310700K 00000000070000772300           
CUS110000110016941                GRADY A SUMPTER     2444 BIRCHDALE DRIVE                    000N     WS                     
MTR11000011001000000000000000RA                40787582  000100162120001621200000000000NN  NNWL000   R                        
RDG11000011WATRL000000000K00000000000003961001608212001140402N000000000000N24/28    000260700K 00000000070000393500           
CUS110000110016943                WILLIAM HARM TRIPLET2496 BIRCHDALE DRIVE                    000N     WS                     
MTR11000011001000000000000000RA                40345905  000100162130001621300000000000NN  NNWL000   L                        
RDG11000011WATRL000000000K00000000000013040001708212001140535N000000000000N24/28    000930700K 00000000070001297500           
CUS110000110015792                ROBERT J MCCLOUD    2546 COROLLA HILLS                      000N     WS                     
MTR11000011001000000000000000RA                30981038  000100162140001621400000000000NN  NNWL000   R                        
RDG11000011WATRL000000000K00000000000001242001808212001140651N000000000000N24/28    000760700K 00000000070000120700           
CUS110000110013348                FRED L JENKINS JR   101 COROLA HILLS                        000N     WS                     
MTR11000011001000000000000000RA                30981040  000100162150001621500000000000NN  NNWL000   L                        
RDG11000011WATRL000000000K00000000000001712001908212001140741N000000000000N24/28    000500700K 00000000070000166400           
CUS110000110019484                JEFF H DAVIS        2541 COROLLA HILLS S                    000N     WS                     
MTR11000011001000000000000000RA                30981041  000100162160001621600000000000NN  NNWL000   L                        
RDG11000011WATRL000000000K00000000000004167002008212001140806N000000000000N24/28    000250700K 00000000070000409900           
CUS1100001100118447               PATTY LOVINS        2542 COROLLA HILLS                      000N     WS                     
MTR11000011001000000000000000RA              30884212    000100162170001621700000000000NN  NNWL000   R                        
RDG11000011WATRL000000000K00000000000008347002108212001140820N000000000000N24/28    000140700K 00000000070000832900           
CUS110000110013351                ODUS PHIL GOULDS    2533 COROLLA HILLS                      000N     WS                     
MTR11000011001000000000000000RA                31464728  000100162180001621800000000000NN  NNWL000   L                        
RDG11000011WATRL000000000K00000000000007736002208212001140853N000000000000N24/28    000330700K 00000000070000767400           
CUS110000110015420                M R HOPKINS JR      2530 COROLA HILLS                       000N     WS                     
MTR11000011001000000000000000RA                30981039  000100162190001621900000000000NN  NNWL000   R                        
RDG11000011WATRL000000000K00000000000004211002308212001140926N000000000000N24/28    000330700K 00000000070000413600           
CUS110000110013353                STEVE EUGENE CRISP  2524 COROLA HILLS                       000N     WS                     
MTR11000011001000000000000000RA                30884210  000100162200001622000000000000NN  NNWL000   R                        
RDG11000011WATRL000000000K00000000000009385002508212001141017N000000000000N24/28    000040700K 00000000070000933200           
CUS110000110013354                RUTH F NELSON       2525 COROLA HILLS                       000N     WS                     
MTR11000011001000000000000000RA                30981036  000100162210001622100000000000NN  NNWL000   L                        
RDG11000011WATRL000000000K00000000000007605002408212001141013N000000000000N24/28    000470700K 00000000070000758100           
CUS110000110017539                LARRY NELSON        2521 COROLA HILLS                       000N     WS                     
MTR11000011001000000000000000RA                16592869  000100162220001622200000000000NN  NNWL000   L                        
RDG11000011WATRL000000000K00000000000000232002608212001141043N000300000010N24/28    000260700K 00000000070000021300           
CUS1100001100118254               KRISTI W KENDRICK   2517 COROLA HILLS                       000N     WS                     
MTR11000011001000000000000000RA                30884207  000100162230001622300000000000NN  NNWL000   L                        
RDG11000011WATRL000000000K00000000000008845002708212001141110N000000000000N24/28    000270700K 00000000070000879500           
CUS110000110013357                PAUL L WOODS        2503 COROLLA HILLS D                    000N     WS                     
MTR11000011001000000000000000RA                30884209  000100162240001622400000000000NN  NNWL000   L                        
RDG11000011WATRL000000000K00000000000004500002808212001141136N000000000000N24/28    000260700K 00000000070000442300           
CUS110000110013358                NEIL JAMES PARKER   2498 COROLLA HILLS D                    000N     WS                     
MTR11000011001000000000000000RA              96053017    000100162250001622500000000000NN  NNWL000   R                        
RDG11000011WATRL000000000K00000000000000234002908212001141342N000300000010N24/28    001260700K 00000000070000023400           
CUS110000110013826                VERA C MORETZ       2497 COROLLA HILLS D                    000N     WS                     
MTR11000011001000000000000000RA                30884283  000100162260001622600000000000NN  NNWL000   L                        
RDG11000011WATRL000000000K00000000000003556003008212001141349N000000000000N24/28    000070700K 00000000070000355100           
CUS110000110013360                BILL E BENTLEY      2492 COROLLA HILLS D                    000N     WS                     
MTR11000011001000000000000000RA                30884284  000100162270001622700000000000NN  NNWL000   R                        
RDG11000011WATRL000000000K00000000000002265003208212001141446N000000000000N24/28    000110700K 00000000070000220100           
CUS110000110013361                M LORENE WOODRING   2493 COROLLA HILLS D                    000N     WS                     
MTR11000011001000000000000000RA                30884279  000100162280001622800000000000NN  NNWL000   L                        
RDG11000011WATRL000000000K00000000000003805003108212001141435N000000000000N24/28    000460700K 00000000070000378300           
CUS110000110016898                DALE MATHESON       2489 COROLLA HILLS D                    000N     WS                     
MTR11000011001000000000000000RA                30884282  000100162290001622900000000000NN  NNWL000   L                        
RDG11000011WATRL000000000K00000000000001743003308212001141530N000000000000N24/28    000440700K 00000000070000172100           
CUS110000110013363                FRED S SIDES        2488 COROLLA HILLS D                    000N     WS                     
MTR11000011001000000000000000RA                38611289  000100162300001623000000000000NN  NNWL000   R                        
RDG11000011WATRL000000000K00000000000006601003408212001141554N000000000000N24/28    000240700K 00000000070000656800           
CUS1100001100112379               JEFF PREVATT        2482 COROLLA HILLS D                    000N     WS                     
MTR11000011001000000000000000RA              30884281    000100162310001623100000000000NN  NNWL000   R                        
RDG11000011WATRL000000000K00000000000003208003608212001141634N000000000000N24/28    000080700K 00000000070000313600           
CUS110000110013365                R DONNIE GOODALE    2485 COROLLA HILLS D                    000N     WS                     
MTR11000011001000000000000000RA                41239012  000100162320001623200000000000NN  NNWL000   L                        
RDG11000011WATRL000000000K00000000000006556003508212001141626N000000000000N24/28    000320700K 00000000070000652500           
CUS110000110013366                CURTIS M BROWN      2475 COROLLA HILLS D                    000N     WS                     
MTR11000011001000000000000000RA                30884280  000100162330001623300000000000NN  NNWL000   L                        
RDG11000011WATRL000000000K00000000000002862003708212001141720N000000000000N24/28    000460700K 00000000070000277200           
CUS110000110013367                DAVID A ELLER       2478 COROLLA HILLS D                    000N     WS                     
MTR11000011001000000000000000RA                30884355  000100162340001623400000000000NN  NNWL000   R                        
RDG11000011WATRL000000000K00000000000000359003808212001141750N000300000010N24/28    000300700K 00000000070000029600           
CUS1100001100112380               DAVID H HOYLE       2472 COROLLA HILLS D                    000N     WS                     
MTR11000011001000000000000000RA              30884354    000100162350001623500000000000NN  NNWL000   R                        
RDG11000011WATRL000000000K00000000000002122003908212001141809N000000000000N24/28    000190700K 00000000070000192300           
CUS1100001100110982               ROGER L MOORE       3208 MORNINGSIDE LAN                    000N     WS                     
MTR11000011001000000000000000RA                37007789  000100162360001623600000000000NN  NNWL000   R                        
RDG11000011WATRL000000000K00000000000001241004008212001141952N000000000000N24/28    001030700K 00000000070000113600           
CUS1100001100114560               JOHNNY WILLIAM BROOK3204 MORNINGSIDE LAN                    000N     WS                     
MTR11000011001000000000000000CA              2241454     000100162370001623700000000000NN  NNWL000   R                        
RDG11000011WATRL000000000K00000000000001908004108212001142009N000000000000N24/28    000170700K 00000000070000183400           
CUS110000110013369                JOHN W CHESTER      3207 MORNINGSIDE LAN                    000N     WS                     
MTR11000011001000000000000000RA                3002968   000100162380001623800000000000NN  NNWL000   L                        
RDG11000011WATRL000000000K00000000000003276004208212001142046N000000000000N24/28    000370700K 00000000070000319000           
CUS1100001100117094               TRENA HUFFMAN       3200 MORNINGSIDE LAN                    000N     WS                     
MTR11000011001000000000000000RA                31465143  000100162390001623900000000000NN  NNWL000   R                        
RDG11000011WATRL000000000K00000000000008688004308212001142116N000000000000N24/28    000300700K 00000000070000864800           
CUS110000110013372                FRANK R DUCKWORTH   3187 MORNINGSIDE LAN                    000N     WS                     
MTR11000011001000000000000000RA                38052225  000100162400001624000000000000NN  NNWL000   L                        
RDG11000011WATRL000000000K00000000000000106004408212001142205N000300000010N24/28    000490700K 00000000070000005400           
CUS110000110013373                WAYNE E TRIPLETT    3178 MORNINGSIDE LAN                    000N     WS                     
MTR11000011001000000000000000RA                38052228  000100162410001624100000000000NN  NNWL000   R                        
RDG11000011WATRL000000000K00000000000007634004508212001142213N000000000000N24/28    000080700K 00000000070000759400           
CUS110000110013374                RALPH J RICH JR     3174 MORNINGSIDE LAN                    000N     WS                     
MTR11000011001000000000000000RA                38052226  000100162420001624200000000000NN  NNWL000   R                        
RDG11000011WATRL000000000K00000000000004683004608212001142256N000000000000N24/28    000430700K 00000000070000462300           
CUS110000110015957                RICHARD ORR         3157 MORNINGSIDE LAN                    000N     WS                     
MTR11000011001000000000000000RA                35582990  000100162430001624300000000000NN  NNWL000   L                        
RDG11000011WATRL000000000K00000000000000259004708212001142332N000300000010N24/28    000360700K 00000000070000019500           
CUS1100001100112497               KATHERINE CLARK     3164 MORNINGSIDE LAN                    000N     WS                     
MTR11000011001000000000000000RA              38052229    000100162440001624400000000000NN  NNWL000   R                        
RDG11000011WATRL000000000K00000000000002497004908212001142446N000000000000N24/28    000440700K 00000000070000247300           
CUS110000110013376                JERRY PHIL HARMON   3149 MORNINGSIDE LAN                    000N     WS                     
MTR11000011001000000000000000RA                38052230  000100162450001624500000000000NN  NNWL000   L                        
RDG11000011WATRL000000000K00000000000009392004808212001142402N000000000000N24/28    000300700K 00000000070000932100           
CUS110000110013377                LARRY W GILLILAND   3148 MORNINGSIDE LAN                    000N     WS                     
MTR11000011001000000000000000RA                38052227  000100162460001624600000000000NN  NNWL000   R                        
RDG11000011WATRL000000000K00000000000005381005008212001142546N000000000000N24/28    000600700K 00000000070000523800           
CUS110000110011330                MARVIN ELLER, JR    3160 ROCKY ROAD                         000N     WS                     
MTR11000011001000000000000000RA              98043210    000100162470001624700000000000NN  NNWL000   R                        
RDG11000011WATRL000000000K00000000000001245005308212001142820N000000000000N24/28    000150700K 00000000070000122100           
CUS1100001100113405               LEONA SIMMONS       3173-A ROCKY ROAD                       000N     WS                     
MTR11000011001000000000000000RA              96099070    000100162480001624800000000000NN  NNWL000   L                        
RDG11000011WATRL000000000K00000000000000937005108212001142757N000000000000N24/28    001310700K 00000000070000089800           
CUS1100001100113818               WILLA DEAN BURGESS  3173-B ROCKY ROAD                       000N     WS                     
MTR11000011001000000000000000RA              42471008    000100162490001624900000000000NN  NNWL000   L                        
RDG11000011WATRL000000000K00000000000001045005208212001142805N000000000000N24/28    000080700K 00000000070000101700           
CUS110000110013379                HAYWOOD CLAY JR     3170 ROCKY ROAD                         000N     WS                     
MTR11000011001000000000000000RA              95102182    000100162500001625000000000000NN  NNWL000   R                        
RDG11000011WATRL000000000K00000000000000483005408212001142932N000300000010N24/28    000720700K 00000000070000045700           
CUS110000110019943                MARGARET PRITCHARD  3178 ROCKY ROAD                         000N     WS                     
MTR11000011001000000000000000RA                12755207  000100162510001625100000000001YN  NNWL000   R                        
MTS11000011  12755207  rds 11191                                                                                              
RDG11000011WATRL000000000K00000000000011215005508212001143039N000000000001N24/28    000670700K 00000000070001121500           
CUS1100001100110429               JAMES A HUFFHINES   3184 ROCKY ROAD                         000N     WS                     
MTR11000011001000000000000000RA                31465118  000100162520001625200000000000NN  NNWL000   R                        
RDG11000011WATRL000000000K00000000000002817005608212001143126N000000000000N24/28    000470700K 00000000070000276000           
CUS1100001100113763               DANIEL BROOKS       3190 ROCKY ROAD                         000N     WS                     
MTR11000011001000000000000000RA              37389004    000100162530001625300000000000NN  NNWL000   R                        
RDG11000011WATRL000000000K00000000000006989005708212001143153N000000000000N24/28    000270700K 00000000070000692800           
CUS110000110015062                JAMES EDGAR HOLLAR  3191 ROCKY ROAD                         000N     WS                     
MTR11000011001000000000000000CA                25828066  000100162540001625400000000000NN  NNWL000   L                        
RDG11000011WATRL000000000K00000000000020490005808212001143206N000000000000N24/28    000130700K 00000000070002040000           
CUS110000110013382                MRS E C CLAY        3204 ROCKY ROAD                         000N     WS                     
MTR11000011001000000000000000RA                12755641  000100162550001625500000000000NN  NNWL000   R                        
RDG11000011WATRL000000000K00000000000017313005908212001143303N000000000000N24/28    000570700K 00000000070001724000           
CUS110000110013383                DUANE L SPEARS      2471 CLAY DRIVE                         000N     WS                     
MTR11000011001000000000000000CA                25577691  000100162560001625600000000000NN  NNWL000   R                        
RDG11000011WATRL000000000K00000000000037441006008212001143423N000000000000N24/28    000800700K 00000000070003743200           
CUS110000110013384                RONALD S HOLLAR     3224 ROCKY ROAD                         000N     WS                     
MTR11000011001000000000000000RA                12755642  000100162570001625700000000000NN  NNWL000   R                        
RDG11000011WATRL000000000K00000000000021296006108212001143502N000000000000N24/28    000390700K 00000000070002129000           
CUS110000110014725                JIMMY A WARD        2434 GROGAN DRIVE                       000N     WS                     
MTR11000011001000000000000000RA                32536078  000100162580001625800000000000NN  NNWL000   R                        
RDG11000011WATRL000000000K00000000000007862006208212001143540N000000000000N24/28    000380700K 00000000070000779200           
CUS1100001100114614               NANCY J WATSON      3248 ROCKY ROAD                         000N     WS                     
MTR11000011001000000000000000RA              96053014    000100162590001625900000000000NN  NNWL000   R                        
RDG11000011WATRL000000000K00000000000001237006308212001143552N000000000000N24/28    000120700K 00000000070000120100           
CUS1100001100115496               JIMMY A WARD        2433 GROGAN DRIVE                       000N     WS                     
MTR11000011001000000000000000RA                30884372  000100162600001626000000000000NN  NNWL000   R                        
RDG11000011WATRL000000000K00000000000003593006408212001143702N000000000000N24/28    000700700K 00000000070000350900           
CUS110000110016787                J DENNIS CLAY       3254 ROCKY ROAD                         000N     WS                     
MTR11000011001000000000000000RA                15784772  000100162610001626100000000000NN  NNWL000   R                        
RDG11000011WATRL000000000K00000000000000452006508212001143826N000300000020N24/28    000840700K 00000000070000032500           
CUS1100001100110846               CHARLES R WINKLER   3263 ROCKY ROAD                         000N     WS                     
MTR11000011001000000000000000RA                93907547  000100162620001626200000000000NN  NNWL000   L                        
RDG11000011WATRL000000000K00000000000003446006608212001143857N000000000000N24/28    000310700K 00000000070000340700           
CUS1100001100116045               ROD CONWAY          3292 ROCKY ROAD                         000N     WS                     
MTR11000011001000000000000000RA              96434480    000100162630001626300000000000NN  NNWL000   R                        
RDG11000011WATRL000000000K00000000000004559006808212001144011N000000000000N24/28    000140700K 00000000070000446700           
CUS110000110013409                CLYDE DOUGLAS BENTLE3291 ROCKY ROAD                         000N     WS                     
MTR11000011001000000000000000CA                29924576  000100162640001626400000000000NN  NNWL000   L                        
RDG11000011WATRL000000000K00000000000002620006708212001143957N000000000000N24/28    000600700K 00000000070000257000           
CUS1100001100117510               VACANT              3314 ROCKY ROAD                         000N     WS MTR LOCKED 11-16    
MTR11000011001000000000000000RA                90764449  000100162650001626500000000000NN  NNWL000   R                        
RDG11000011WATRL000000000K00000000000005288006908212001144046N000000000000N24/28    000350700K 00000000070000528800           
CUS110000110013408                MRS GEORGE SUDDRETH 3313 ROCKY ROAD                         000N     WS                     
MTR11000011001000000000000000RA                12755639  000100162660001626600000000000NN  NNWL000   L                        
RDG11000011WATRL000000000K00000000000006911007008212001144112N000000000000N24/28    000260700K 00000000070000689500           
CUS110000110013389                MARGARET G ANDERSON 3318 ROCKY ROAD                         000N     WS                     
MTR11000011001000000000000000RA                12755691  000100162670001626700000000000NN  NNWL000   R                        
RDG11000011WATRL000000000K00000000000006190007108212001144138N000000000000N24/28    000260700K 00000000070000617900           
CUS110000110018582                ALVIN K KILLIAN     3322 ROCKY ROAD                         000N     WS                     
MTR11000011001000000000000000RA                92756983  000100162680001626800000000000NN  NNWL000   R                        
RDG11000011WATRL000000000K00000000000009222007208212001144203N000000000000N24/28    000250700K 00000000070000910200           
CUS110000110013407                HAROLD LEE HOLLAR   3321 ROCKY ROAD                         000N     WS                     
MTR11000011001000000000000000RA                32536232  000100162690001626900000000000NN  NNWL000   L                        
RDG11000011WATRL000000000K00000000000004209007308212001144227N000000000000N24/28    000240700K 00000000070000419600           
CUS110000110013406                GREGORY M SOOTS     3331 ROCKY ROAD                         000N     WS                     
MTR11000011001000000000000000RA                32536106  000100162700001627000000000000NN  NNWL000   L                        
RDG11000011WATRL000000000K00000000000009777007408212001144239N000000000000N24/28    000120700K 00000000070000971900           
CUS1100001100117738               BRYAN AVERY         2110 EAST FLAT CHURC                    000N     WS                     
MTR11000011001000000000000000RA                29486972  000100162710001627100000000000NN  NNWL000   L                        
RDG11000011WATRL000000000K00000000000006608007508212001144318N000000000000N24/28    000390700K 00000000070000652800           
CUS110000110013392                TREASURE ANN WHISNAN2104 EAST FLAT CHURC                    000N     WS                     
MTR11000011001000000000000000RA                32536109  000100162720001627200000000000NN  NNWL000   L                        
RDG11000011WATRL000000000K00000000000000846007608212001144345N000000000000N24/28    000270700K 00000000070000081800           
CUS110000110016680                JOE H CARDWELL      3485 CARDWELL PLACE                     000N     WS                     
MTR11000011001000000000000000RA                 G012393  000100162730001627300000000000NN  NNWL000   R                        
RDG11000011WATRL000000000K00000000000000000008208212001144925S005000000000N24/28    000830700K 00000000070000484200           
CUS110000110015052                RICHARD GENTRY      2090 EAST FLAT CHURC                    000N     WS                     
MTR11000011001000000000000000RA                37007161  000100162740001627400000000000NN  NNWL000   L                        
RDG11000011WATRL000000000K00000000000008347007708212001144434N000000000000N24/28    000490700K 00000000070000831800           
CUS1100001100115506               JENNIFER S. HOUCK   3488 EAST FLAT CHURC                    000N     WS                     
MTR11000011001000000000000000RA              99021212    000100162750001627500000000001YN  NNWL000   R                        
MTS1100001199021212    rds 680                                                                                                
RDG11000011WATRL000000000K00000000000000734007808212001144549N000300000010N24/28    000750700K 00000000070000073400           
CUS110000110017792                RONALD E MOSS       3496 CARDWELL PLACE                     000N     WS                     
MTR11000011001000000000000000RA                31464731  000100162760001627600000000000NN  NNWL000   R                        
RDG11000011WATRL000000000K00000000000009624008108212001144802N000000000000N24/28    000250700K 00000000070000959900           
CUS1100001100112546               JEFF BENFIELD       3150 ROCKY ROAD                         000N     WS                     
MTR11000011001000000000000000RA              95118567    000100162770001627700000000000NN  NNWL000   L                        
RDG11000011WATRL000000000K00000000000003175007908212001144709N000000000000N24/28    000800700K 00000000070000312500           
CUS110000110014342                BRENT N SWANSON     2099 EAST FLAT CHURC                    000N     WS                     
MTR11000011001000000000000000CA              9910487     000100162780001627800000000000NN  NNWL000   R                        
RDG11000011WATRL000000000K00000000000000882008008212001144737N000300000010N24/28    000280700K 00000000070000057900           
CUS110000110014875                JAMES L HARRISON    2093 EAST FLAT CHURC                    000N     WS                     
MTR11000011001000000000000000RA                12755251  000100162790001627900000000000NN  NNWL000   R                        
RDG11000011WATRL000000000K00000000000007966008308212001145018N000000000000N24/28    000530700K 00000000070000795000           
CUS1100001100118365               ALTON BOWERS        2089 EAST FLAT CHURC                    000N     WS                     
MTR11000011001000000000000000RA              90764498    000100162800001628000000000000NN  NNWL000   R                        
RDG11000011WATRL000000000K00000000000004808008408212001145056N000000000000N24/28    000380700K 00000000070000479000           
CUS110000110013396                EAST FLAT BAPTIST CH2085 EAST FLAT CHURC                    000N     WS                     
MTR11000011001000000000000000RA                 8945787  000100162810001628100000000000NN  NNWL000   R                        
RDG11000011WATRL000000000K00000000000003987008508212001145133N000000000000N24/28    000370700K 00000000070000395800           
CUS110000110013397                LONNIE HALL         2079 EAST FLAT CHURC                    000N     WS                     
MTR11000011001000000000000000RA                29924490  000100162820001628200000000000NN  NNWL000   R                        
RDG11000011WATRL000000000K00000000000002169008708212001145231N000000000000N24/28    000140700K 00000000070000211700           
CUS110000110019983                TIM WILSON          2078 EAST FLAT CHURC                    000N     WS                     
MTR11000011001000000000000000RA                92757049  000100162830001628300000000000NN  NNWL000   L                        
RDG11000011WATRL000000000K00000000000004369008608212001145217N000000000000N24/28    000440700K 00000000070000432500           
CUS110000110017931                ELVA S. HALL        2081 EAST FLAT CHURC                    000N     WS                     
MTR11000011001000000000000000RA                89227164  000100162840001628400000000000NN  NNWL000   R                        
RDG11000011WATRL000000000K00000000000003635008808212001145308N000000000000N24/28    000370700K 00000000070000353300           
CUS1100001100117108               CHUCK MCLEOD        2074 EAST FLAT CHURC                    000N     WS                     
MTR11000011001000000000000000RA              30022894    000100162850001628500000000000NN  NNWL000   L                        
RDG11000011WATRL000000000K00000000000000602008908212001145424N000300000021N24/28    000120700K 00000000070000055900           
CUS110000110018201                LEONARD A. GREENE   2060 EAST FLAT CHURC                    000N     WS                     
MTR11000011001000000000000000RA                38052236  000100162860001628600000000000NN  NNWL000   L                        
RDG11000011WATRL000000000K00000000000003474009008212001145515N000000000000N24/28    000510700K 00000000070000345200           
CUS110000110013400                MRS DAVID MCCALL    2063 EAST FLAT CHURC                    000N     WS                     
MTR11000011001000000000000000RA                90764474  000100162870001628700000000000NN  NNWL000   R                        
RDG11000011WATRL000000000K00000000000003031009108212001145540N000000000000N24/28    000250700K 00000000070000300300           
CUS1100001100116046               JEREMY B SULLIVAN   2057 EAST FLAT CHURC                    000N     WS                     
MTR11000011001000000000000000RA              96031806    000100162880001628800000000000NN  NNWL000   R                        
RDG11000011WATRL000000000K00000000000001311009208212001145611N000000000000N24/28    000310700K 00000000070000128700           
CUS1100001100112359               MICKEY JONES        2053 EAST FLAT CHURC                    000N     WS                     
MTR11000011001000000000000000RA              99011854    000100162890001628900000000000NN  NNWL000   R                        
RDG11000011WATRL000000000K00000000000000944009308212001145645N000000000000N24/28    000340700K 00000000070000091500           
CUS1100001100112217               DANNY L COFFEY      2045 EAST FLAT CHURC                    000N     WS                     
MTR11000011001000000000000000RA              93012862    000100162900001629000000000000NN  NNWL000   R                        
RDG11000011WATRL000000000K00000000000006994009408212001145711N000000000000N24/28    000260700K 00000000070000694700           
CUS110000110016043                CLAY SIMMONS        2031 EAST FLAT CHURC                    000N     WS                     
MTR11000011001000000000000000RA                38671719  000100162910001629100000000000NN  NNWL000   R                        
RDG11000011WATRL000000000K00000000000003152009508212001145752N000000000000N24/28    000410700K 00000000070000314300           
CUS110000110013403                KENNETH E GREER     2032 EAST FLAT CHURC                    000N     WS                     
MTR11000011001000000000000000RA                25042645  000100162920001629200000000000NN  NNWL000   L                        
RDG11000011WATRL000000000K00000000000008157009608212001145832N000000000000N24/28    000400700K 00000000070000812000           
CUS1100001100111881               THOMAS RASH         3336 ROCKY ROAD                         000N     WS                     
MTR11000011001000000000000000RA                94328107  000100162930001629300000000000NN  NNWL000   R                        
RDG11000011WATRL000000000K00000000000002741009708212001150116N000000000000N24/28    001640700K 00000000070000270900           
CUS1100001100112153               HENRY BECK          3337 ROCKY ROAD                         000N     WS                     
MTR11000011001000000000000000RA              94328101    000100162940001629400000000000NN  NNWL000   L                        
RDG11000011WATRL000000000K00000000000001560009808212001150154N000000000000N24/28    000380700K 00000000070000153100           
CUS110000110013405                JAKIE MCCALL        3346 ROCKY ROAD                         000N     WS                     
MTR11000011001000000000000000RA                39119812  000100162950001629500000000001YN  NNWL000   R                        
MTS11000011  39119812  94327887 rds 2496 rtb4                                                                                 
RDG11000011WATRL000000000K00000000000003592009908212001150417N000000000000N24/28    001430700K 00000000070000346100           
CUS110000110018376                JAY PENNELL         3355 ROCKY ROAD                         000N     WS                     
MTR11000011001000000000000000RA                12755208  000100162960001629600000000000NN  NNWL000   L                        
RDG11000011WATRL000000000K00000000000000000010008212001150551S003000000000N24/28    000940700K 00000000070000951700           
CUS110000110016431                J. C. BUTLER        3359 ROCKY ROAD                         000N     WS                     
MTR11000011001000000000000000RA                 8006441  000100162970001629700000000000NN  NNWL000   L                        
RDG11000011WATRL000000000K00000000000004889010108212001150627N000000000000N24/28    000360700K 00000000070000442400           
CUS1100001100116602               STEVE LARSON        1795 CARLTON DRIVE                      000N     WS                     
MTR11000011001000000000000000RA              99087945    000100162980001629800000000000NN  NNWL000   L                        
RDG11000011WATRL000000000K00000000000000558010508212001151054N000300000010N24/28    000860700K 00000000070000046900           
CUS1100001100110203               ROBY HOUCK          3356 ROCKY ROAD                         000N     WS                     
MTR11000011001000000000000000RA                92923674  000100162990001629900000000000NN  NNWL000   R                        
RDG11000011WATRL000000000K00000000000004542010208212001150758N000000000000N24/28    000910700K 00000000070000440100           
CUS110000110016419                DAVID W. CARLTON    1788 CARLTON DRIVE                      000N     WS                     
MTR11000011001000000000000000RA              99073484    000100163000001630000000000000NN  NNWL000   R                        
RDG11000011WATRL000000000K00000000000000817010408212001150928N000000000000N24/28    000270700K 00000000070000074600           
CUS1100001100111698               DANIEL HARTLEY      1774 CARLTON DRIVE                      000N     WS                     
MTR11000011001000000000000000RA              99073483    000100163010001630100000000000NN  NNWL000   R                        
RDG11000011WATRL000000000K00000000000000857010308212001150901N000300000010N24/28    000630700K 00000000070000070400           
CUS110000110016418                LYNN GREENE         3366 ROCKY ROAD                         000N     WS                     
MTR11000011001000000000000000RA                 8006449  000100163020001630200000000000NN  NNWL000   R                        
RDG11000011WATRL000000000K00000000000007746010608212001151135N000000000000N24/28    000410700K 00000000070000769900           
CUS1100001100113577               DAVID CHILDERS      2408 CHESTER ROAD                       000N     WS                     
MTR11000011001000000000000000RA              29713011    000100163030001630300000000000NN  NNWL000   R                        
RDG11000011WATRL000000000K00000000000005708010708212001151346N000000000000N24/28    001310700K 00000000070000566700           
CUS110000110013412                WILLIAM F ADKINS    3826 MCCALL ROAD                        000N     WS                     
MTR11000011001000000000000000RA                31464790  000100163040001630400000000000NN  NNWL000   L                        
RDG11000011WATRL000000000K00000000000005366010808212001151416N000000000000N24/28    000300700K 00000000070000532100           
CUS110000110013413                BETTY CARLTON       2421 CHESTER ROAD                       000N     WS                     
MTR11000011001000000000000000RA                94328225  000100163050001630500000000000NN  NNWL000   L                        
RDG11000011WATRL000000000K00000000000002785010908212001151447N000000000000N24/28    000310700K 00000000070000273900           
CUS110000110013414                T HUBERT CARLTON JR 2425 CHESTER ROAD                       000N     WS                     
MTR11000011001000000000000000RA                30981019  000100163060001630600000000000NN  NNWL000   L                        
RDG11000011WATRL000000000K00000000000000093011008212001151519N000300000010N24/28    000320700K 00000000070000003700           
CUS1100001100110419               BRUCE C BLANKENSHIP 2434 CHESTER ROAD                       000N     WS                     
MTR11000011001000000000000000RA                93012890  000100163070001630700000000000NN  NNWL000   R                        
RDG11000011WATRL000000000K00000000000003067011108212001151614N000000000000N24/28    000550700K 00000000070000305500           
CUS1100001100117404               ANGELA FOSTER       2437 CHESTER ROAD                       000N     WS                     
MTR11000011001000000000000000RA              30023026    000100163080001630800000000000NN  NNWL000   L                        
RDG11000011WATRL000000000K00000000000007234011208212001151645N000000000000N24/28    000310700K 00000000070000715400           
CUS1100001100110223               TED BLANKENSHIP     2450 CHESTER ROAD                       000N     WS                     
MTR11000011001000000000000000RA                92923755  000100163090001630900000000000NN  NNWL000   R                        
RDG11000011WATRL000000000K00000000000003345011308212001151714N000000000000N24/28    000290700K 00000000070000330000           
CUS1100001100113481               PATRICK DENNY       2461 CHESTER ROAD                       000N     WS                     
MTR11000011001000000000000000RA              94328269    000100163100001631000000000000NN  NNWL000   L                        
RDG11000011WATRL000000000K00000000000002709011408212001151835N000000000000N24/28    000810700K 00000000070000267800           
CUS1100001100113027               CLAYTON SCOTT ATKINS2464 CHESTER ROAD                       000N     WS                     
MTR11000011001000000000000000RA              96434474    000100163110001631100000000000NN  NNWL000   R                        
RDG11000011WATRL000000000K00000000000002642011508212001151907N000000000000N24/28    000320700K 00000000070000257300           
CUS1100001100112703               JERRY SHARPE        CHESTER ROAD                            000N     WS                     
MTR11000011001000000000000000RA              30981124    000100163120001631200000000000NN  NNWL000   L                        
RDG11000011WATRL000000000K00000000000006223011608212001151931N000000000000N24/28    000240700K 00000000070000618100           
CUS1100001100110607               JERRY SHARPE        CHESTER ROAD                            000N     WS                     
MTR11000011001000000000000000RA                31464736  000100163130001631300000000000NN  NNWL000   L                        
RDG11000011WATRL000000000K00000000000003812011708212001151942N000000000000N24/28    000110700K 00000000070000376100           
CUS110000110013422                MRS W A CHESTER     2474 CHESTER ROAD                       000N     WS                     
MTR11000011001000000000000000RA                31464737  000100163140001631400000000000NN  NNWL000   R                        
RDG11000011WATRL000000000K00000000000005070011808212001152008N000000000000N24/28    000260700K 00000000070000506600           
CUS110000110013423                ZEB V CHESTER       2478 CHESTER ROAD                       000N     WS                     
MTR11000011001000000000000000RA                31464738  000100163150001631500000000000NN  NNWL000   R                        
RDG11000011WATRL000000000K00000000000000009011908212001152023N000000000000N24/28    000150700K 00000000070000993500           
CUS1100001100113490               TONY LEE CHESTER    2491 CHESTER ROAD                       000N     WS                     
MTR11000011001000000000000000RA              42470940    000100163160001631600000000000NN  NNWL000   L                        
RDG11000011WATRL000000000K00000000000001414012008212001152035N000000000000N24/28    000120700K 00000000070000136900           
CUS110000110013425                ROGER LEWIS CARVER  2500 CHESTER ROAD                       000N     WS                     
MTR11000011001000000000000000RA                31464740  000100163170001631700000000000NN  NNWL000   R                        
RDG11000011WATRL000000000K00000000000006900012108212001152058N000000000000N24/28    000230700K 00000000070000689200           
CUS1100001100111176               DOUGLAS MOODY       3860 MCCALL ROAD                        000N     WS                     
MTR11000011001000000000000000RA                94327988  000100163180001631800000000000NN  NNWL000   R                        
RDG11000011WATRL000000000K00000000000008221012208212001152302N000000000000N24/28    001240700K 00000000070000808200           
CUS1100001100110156               DEBRA MARSHALL      3871 MCCALL ROAD                        000N     WS                     
MTR11000011001000000000000000RA                92923728  000100163190001631900000000000NN  NNWL000   L                        
RDG11000011WATRL000000000K00000000000005527012308212001152326N000000000000N24/28    000240700K 00000000070000546700           
CUS110000110013426                LEVIOLET MCCALL     3868 MCCALL ROAD                        000N     WS                     
MTR11000011001000000000000000RA                32663797  000100163200001632000000000000NN  NNWL000   R                        
RDG11000011WATRL000000000K00000000000004703012408212001152353N000000000000N24/28    000270700K 00000000070000468700           
CUS110000110013431                J BENGIE WATTS      3905 MCCALL ROAD                        000N     WS                     
MTR11000011001000000000000000RA                31465108  000100163210001632100000000000NN  NNWL000   L                        
RDG11000011WATRL000000000K00000000000005638012508212001152446N000000000000N24/28    000530700K 00000000070000561300           
CUS110000110016944                PEGGY M BRYANT      3955 MCCALL ROAD                        000N     WS                     
MTR11000011001000000000000000RA                40345900  000100163220001632200000000000NN  NNWL000   L                        
RDG11000011WATRL000000000K00000000000023362012708212001152622N000000000000N24/28    000070700K 00000000070002333400           
CUS110000110016945                HURLEY MAIN, JR     3969 MCCALL ROAD                        000N     WS                     
MTR11000011001000000000000000RA                40345901  000100163230001632300000000000NN  NNWL000   L                        
RDG11000011WATRL000000000K00000000000001377012608212001152615N000000000000N24/28    000890700K 00000000070000136800           
CUS110000110018475                RICHARD ORR         3966 MCCALL ROAD                        000N     WS                     
MTR11000011001000000000000000RA                40345902  000100163240001632400000000000NN  NNWL000   R                        
RDG11000011WATRL000000000K00000000000009666012808212001152654N000000000000N24/28    000320700K 00000000070000962200           
CUS110000110016947                HURLEY MAIN, SR     3969 MCCALL ROAD                        000N     WS                     
MTR11000011001000000000000000RA                40345903  000100163250001632500000000000NN  NNWL000   R                        
RDG11000011WATRL000000000K00000000000014096013008212001152730N000000000000N24/28    000150700K 00000000070001390900           
CUS1100001100115253               SHERRE W. ORR       3974 MCCALL RD                          000N     WS                     
MTR11000011001000000000000000RA              94327941    000100163260001632600000000000NN  NNWL000   R                        
RDG11000011WATRL000000000K00000000000003313012908212001152715N000000000000N24/28    000210700K 00000000070000325100           
CUS1100001100112127               RONDA ALLEN         2403 WINKLER STREET                     000N     WS                     
MTR11000011001000000000000000RA              94328178    000100163270001632700000000000NN  NNWL000   R                        
RDG11000011WATRL000000000K00000000000000492013108212001152957N000300000021N24/28    000150700K 00000000070000048500           
CUS1100001100115531               SHERRY ALLEN        2407  WINKLER STREET                    000N     WS                     
MTR11000011001000000000000000RA                29154025  000100163280001632800000000000NN  NNWL000   R                        
RDG11000011WATRL000000000K00000000000003714013208212001153027N000000000000N24/28    000300700K 00000000070000367300           
CUS110000110015533                EDWARD LAWS         ROCKY ROAD                              000N     WS                     
MTR11000011001000000000000000RA              00346582    000100163290001632900000000000NN  NNWL000   R                        
RDG11000011WATRL000000000K00000000000000890013308212001153036N000300000010N24/28    000090700K 00000000070000072700           
CUS1100001100112748               HAROLD KING         2421 WINKLER STREET                     000N     WS                     
MTR11000011001000000000000000RA              96031805    000100163300001633000000000000NN  NNWL000   R                        
RDG11000011WATRL000000000K00000000000001594013408212001153049N000000000000N24/28    000130700K 00000000070000157900           
CUS1100001100116565               NANCY ZIMMERMAN     2449 WINKLER ST.                        000N     WS                     
MTR11000011001000000000000000RA              00329627    000100163310001633100000000000NN  NNWL000   R                        
RDG11000011WATRL000000000K00000000000000937013508212001153106N000000000000N24/28    000170700K 00000000070000085500           
CUS1100001100111524               EUNICE MAIER        3139 ROCKY ROAD                         000N     WS                     
MTR11000011001000000000000000RA                39439723  000100163320001633200000000000NN  NNWL000   R                        
RDG11000011WATRL000000000K00000000000006818013608212001153306N000000000000N24/28    001200700K 00000000070000650300           
CUS110000110018438                NORMAN CURTIS       3135 ROCKY ROAD                         000N     WS                     
MTR11000011001000000000000000RA              00329524    000100163330001633300000000000NN  NNWL000   R                        
RDG11000011WATRL000000000K00000000000000027013708212001153344N000300000010N24/28    000380700K 00000000070000002600           
CUS110000110014733                NORMAN E CURTIS     4971 CALICO ROAD                        000N     WS                     
MTR11000011001000000000000000RA                12755697  000100163340001633400000000000NN  NNWL000   R                        
RDG11000011WATRL000000000K00000000000008578013808212001153512N000000000000N24/28    000880700K 00000000070000855000           
CUS1100001100112272               TONYA KIRBY         CALICO ROAD  (BROWN                     000N     WS                     
MTR11000011001000000000000000RA              94328312    000100163350001633500000000000NN  NNWL000   R                        
RDG11000011WATRL000000000K00000000000002551013908212001153548N000000000000N24/28    000360700K 00000000070000251300           
CUS1100001100114558               KENNY LEFEVER       4966 CALICO ROAD                        000N     WS                     
MTR11000011001000000000000000RA              98078072    000100163360001633600000000000NN  NNWL000   L                        
RDG11000011WATRL000000000K00000000000001813014008212001153637N000000000000N24/28    000490700K 00000000070000176200           
CUS110000110013436                KENNETH LEE BUMGARNE4957 CALICO RD                          000N     WS                     
MTR11000011001000000000000000RA                24534341  000100163370001633700000000000NN  NNWL000   R                        
RDG11000011WATRL000000000K00000000000009201014108212001153710N000000000000N24/28    000330700K 00000000070000916000           
CUS110000110019729                MANUEL E SETZER     4950 CALICO ROAD                        000N     WS                     
MTR11000011001000000000000000RA                92378394  000100163380001633800000000000NN  NNWL000   L                        
RDG11000011WATRL000000000K00000000000001068014208212001153740N000000000000N24/28    000300700K 00000000070000106200           
CUS1100001100112151               JENNIFER O STUBBS   2480 OAKLEAF LN (DWI                    000N     WS                     
MTR11000011001000000000000000RA              31465039    000100163390001633900000000000NN  NNWL000   R                        
RDG11000011WATRL000000000K00000000000000191014308212001153821N000300000010N24/28    000410700K 00000000070000013600           
CUS1100001100116123               PARKER LEE COX      2490 OAKLEAF LN (GAR                    000N     WS                     
MTR11000011001000000000000000RA                12755698  000100163400001634000000000000NN  NNWL000   R                        
RDG11000011WATRL000000000K00000000000010319014408212001153827N000000000000N24/28    000060700K 00000000070001028900           
CUS1100001100117755               LINDA TOWNSEND      2496 OAKLEAF LN (HOU                    000N     WS                     
MTR11000011001000000000000000RA              94083158    000100163410001634100000000000NN  NNWL000   R                        
RDG11000011WATRL000000000K00000000000003895014508212001153836N000000000000N24/28    000090700K 00000000070000384100           
CUS1100001100116166               CATHERINE ARNETT    4940 CALICO RD                          000N     WS                     
MTR11000011001000000000000000RA              99067977    000100163420001634200000000000NN  NNWL000   LT                       
RDG11000011WATRL000000000K00000000000001026014608212001153920N000000000000N24/28    000440700K 00000000070000102300           
CUS110000110013440                KENNETH SANDERS     4936 CALICO ROAD                        000N     WS                     
MTR11000011001000000000000000RA              97074741    000100163430001634300000000000NN  NNWL000   L                        
RDG11000011WATRL000000000K00000000000002207014708212001153946N000000000000N24/28    000260700K 00000000070000215000           
CUS110000110016956                DWAYNE SANDERS      4924 CALICO ROAD                        000N     WS                     
MTR11000011001000000000000000RA                40345916  000100163440001634400000000000NN  NNWL000   L                        
RDG11000011WATRL000000000K00000000000012476014808212001154011N000000000000N24/28    000250700K 00000000070001236300           
CUS110000110015055                CHARLES C MOODY     4929 CALICO ROAD                        000N     WS                     
MTR11000011001000000000000000RA                37104526  000100163450001634500000000000NN  NNWL000   R                        
RDG11000011WATRL000000000K00000000000006891014908212001154043N000000000000N24/28    000320700K 00000000070000687800           
CUS110000110013441                BOYD MAIN           4917 CALICO ROAD                        000N     WS                     
MTR11000011001000000000000000RA              94328054    000100163460001634600000000000NN  NNWL000   R                        
RDG11000011WATRL000000000K00000000000001564015008212001154218N000000000000N24/28    000950700K 00000000070000152100           
CUS110000110013442                BOYD E MAIN         2494 WALNUT DRIVE                       000N     WS                     
MTR11000011001000000000000000RA                91845800  000100163470001634700000000000NN  NNWL000   R                        
RDG11000011WATRL000000000K00000000000002336015208212001154318N000000000000N24/28    000140700K 00000000070000220100           
CUS110000110019288                DEBRA S. PAISLEY    2465 WALNUT DRIVE                       000N     WS                     
MTR11000011001000000000000000RA                25062038  000100163480001634800000000000NN  NNWL000   R                        
RDG11000011WATRL000000000K00000000000004811015308212001154327N000000000000N24/28    000090700K 00000000070000477100           
CUS1100001100110658               DAVID P CARR        2484 WALNUT DRIVE                       000N     WS                     
MTR11000011001000000000000000RA              42470982    000100163490001634900000000000NN  NNWL000   R                        
RDG11000011WATRL000000000K00000000000000712015108212001154304N000300000010N24/28    000460700K 00000000070000066300           
CUS110000110017570                FLOYD "LANCE" CARTER2475 WALNUT DRIVE                       000N     WS                     
MTR11000011001000000000000000RA                41526738  000100163500001635000000000000NN  NNWL000   R                        
RDG11000011WATRL000000000K00000000000001742015508212001154448N000000000000N24/28    000080700K 00000000070000170400           
CUS1100001100115127               EDWARD LAWS         CALICO AT WALNUT DR                     000N     WS                     
MTR11000011001000000000000000RA              98114992    000100163510001635100000000000NN  NNWL000   R                        
RDG11000011WATRL000000000K00000000000000000015608212001154450N000000000000N24/28    000020700K 00000000070000000000           
CUS110000110013443                GAY DILLARD         4906 CALICO ROAD                        000N     WS                     
MTR11000011001000000000000000RA                30023130  000100163520001635200000000000NN  NNWL000   L                        
RDG11000011WATRL000000000K00000000000001704017108212001155330N000000000000N24/28    000100700K 00000000070000169300           
CUS110000110015901                HERBERT S LEWIS     4897 CALICO ROAD                        000N     WS MTR IS ON GMLL HGTS 
MTR11000011001000000000000000RA                38671762  000100163530001635300000000000NN  NNWL000   R                        
RDG11000011WATRL000000000K00000000000003375015408212001154440N000000000000N24/28    000730700K 00000000070000336000           
CUS110000110018361                GREGORY W PENNINGTON3608 GAMEWELL HEIGHT                    000N     WS                     
MTR11000011001000000000000000RA                21050990  000100163540001635400000000000NN  NNWL000   R                        
RDG11000011WATRL000000000K00000000000003658015708212001154521N000000000000N24/28    000310700K 00000000070000363300           
CUS1100001100116778               FREDRICK FOSTER     3612 GAMEWELL HEIGHT                    000N     WS                     
MTR11000011001000000000000000RA                30021568  000100163550001635500000000000NN  NNWL000   R                        
RDG11000011WATRL000000000K00000000000003659015808212001154531N000000000000N24/28    000100700K 00000000070000358700           
CUS1100001100113091               RANDALL LEE HASH    3613 GAMEWELL HEIGHT                    000N     WS                     
MTR11000011001000000000000000RA              41239518    000100163560001635600000000000NN  NNWL000   L                        
RDG11000011WATRL000000000K00000000000000610015908212001154606N000300000010N24/28    000350700K 00000000070000056500           
CUS1100001100114178               JEFF NEWMAN         3619 GAMEWELL HEIGHT                    000N     WS                     
MTR11000011001000000000000000RA              38671758    000100163570001635700000000000NN  NNWL000   L                        
RDG11000011WATRL000000000K00000000000006655016008212001154614N000000000000N24/28    000080700K 00000000070000664000           
CUS110000110013445                PATRICIA PENNINGTON 3620 GAMEWELL HEIGHT                    000N     WS                     
MTR11000011001000000000000000RA                24534519  000100163580001635800000000000NN  NNWL000   R                        
RDG11000011WATRL000000000K00000000000001139016108212001154916N000000000000N24/28    001820700K 00000000070000109600           
CUS110000110013446                R THOMAS KEYES      3624 GAMEWELL HEIGHT                    000N     WS                     
MTR11000011001000000000000000RA                21352773  000100163590001635900000000000NN  NNWL000   R                        
RDG11000011WATRL000000000K00000000000020724016208212001154925N000000000000N24/28    000090700K 00000000070002066400           
CUS1100001100116039               DILLARD G. KIRBY    3625 GAMEWELL HEIGHT                    000N     WS                     
MTR11000011001000000000000000RA                90764477  000100163600001636000000000000NN  NNWL000   L                        
RDG11000011WATRL000000000K00000000000010721016308212001154951N000000000000N24/28    000260700K 00000000070001063500           
CUS1100001100115100               REBA M. TRIPLETT    GAMEWELL HEIGHTS #12                    000N     WS                     
MTR11000011001000000000000000RA              98103787    000100163610001636100000000000NN  NNWL000                            
RDG11000011WATRL000000000K00000000000000259016408212001154959N000300000010N24/28    000080700K 00000000070000025200           
CUS1100001100114683               CHAD J MCCALL       3628 GAMEWELL HEIGHT                    000N     WS                     
MTR11000011001000000000000000RA              35894987    000100163620001636200000000000NN  NNWL000   R                        
RDG11000011WATRL000000000K00000000000005252016508212001155030N000000000000N24/28    000310700K 00000000070000519400           
CUS110000110019660                KEN COLLINS         3632 GAMEWELL HEIGHT                    000N     WS                     
MTR11000011001000000000000000RA                35894854  000100163630001636300000000000NN  NNWL000   R                        
RDG11000011WATRL000000000K00000000000009382016608212001155038N000000000000N24/28    000080700K 00000000070000928200           
CUS1100001100115359               STEVEN MCMASTERS    3633 GAMEWELL HEIGHT                    000N     WS                     
MTR11000011001000000000000000RA              98114971    000100163640001636400000000000NN  NNWL000   L                        
RDG11000011WATRL000000000K00000000000001143016708212001155108N000000000000N24/28    000300700K 00000000070000107800           
CUS1100001100110535               WILLIAM D JOHNSON   GAMEWELL HEIGHTS                        000N     WS                     
MTR11000011001000000000000000RA                12755228  000100163650001636500000000000NN  NNWL000   L                        
RDG11000011WATRL000000000K00000000000012632016808212001155122N000000000000N24/28    000140700K 00000000070001250100           
CUS1100001100112053               CHAD E BENTLEY      3636 GAMEWELL HEIGHT                    000N     WS                     
MTR11000011001000000000000000RA                94328362  000100163660001636600000000000NN  NNWL000   R                        
RDG11000011WATRL000000000K00000000000002196016908212001155156N000000000000N24/28    000340700K 00000000070000216100           
CUS110000110014647                ALVIN SMITH         CALICO ROAD                             000N     WS                     
MTR11000011001000000000000000RA                36299654  000100163670001636700000000000NN  NNWL000   L                        
RDG11000011WATRL000000000K00000000000036520017008212001155320N000000000000N24/28    000840700K 00000000070003631000           
CUS1100001100112400               LARRY HILL          2612 PIPER PLACE                        000N     WS                     
MTR11000011001000000000000000RA              95102143    000100163680001636800000000000NN  NNWL000   L                        
RDG11000011WATRL000000000K00000000000003550017208212001155424N000000000000N24/28    000540700K 00000000070000352200           
CUS1100001100116450               VACANT              2714 EVERHARDT COURT                    000N     WS METER LOCKED        
MTR11000011001000000000000000RA              96031801    000100163690001636900000000000NN  NNWL000   L                        
RDG11000011WATRL000000000K00000000000003693017308212001155430N000000000000N24/28    000060700K 00000000070000369300           
CUS1100001100111832               FOSTER RENTALS      113 HIGHLAND WAY                        000N     WS                     
MTR11000011001000000000000000CA                94484302  000100163700001637000000000000NN  NNWL000   R                        
RDG11000011WATRL000000000K00000000000017697017408212001155511N000000000000N24/28    000410700K 00000000070001735700           
CUS1100001100111834               FOSTER RENTALS      113 HIGHLAND WAY                        000N     WS                     
MTR11000011001000000000000000CA                95012344  000100163710001637100000000000NN  NNWL000   R                        
RDG11000011WATRL000000000K00000000000022140017508212001155541N000000000000N24/28    000300700K 00000000070002174200           
CUS110000110018414                ANNA LEE KILLIAN    3510 HIGHLAND WAY                       000N     WS                     
MTR11000011001000000000000000RA                90434369  000100163720001637200000000000NN  NNWL000   R                        
RDG11000011WATRL000000000K00000000000003119017608212001155613N000000000000N24/28    000320700K 00000000070000305500           
CUS110000110015874                JOHN JENKINS        4890 CALICO ROAD                        000N     WS                     
MTR11000011001000000000000000RA              38671750    000100163730001637300000000000NN  NNWL000   L                        
RDG11000011WATRL000000000K00000000000001402017808212001155801N000000000000N24/28    000100700K 00000000070000136900           
CUS110000110013448                T LARRY ANDREWS     4883 CALICO ROAD                        000N     WS                     
MTR11000011001000000000000000RA                30903236  000100163740001637400000000000NN  NNWL000   R                        
RDG11000011WATRL000000000K00000000000010075017708212001155751N000000000000N24/28    000980700K 00000000070001003100           
CUS1100001100113337               JAMES HARRIS        4884 CALICO RD                          000N     WS                     
MTR11000011001000000000000000RA              35828083    000100163750001637500000000000NN  NNWL000   L                        
RDG11000011WATRL000000000K00000000000009962018008212001155916N000000000000N24/28    000340700K 00000000070000992600           
CUS110000110013449                W RAY HOOD JR       4876 CALICO ROAD                        000N     WS                     
MTR11000011001000000000000000RA                32536148  000100163760001637600000000000NN  NNWL000   L                        
RDG11000011WATRL000000000K00000000000005872017908212001155842N000000000000N24/28    000410700K 00000000070000571400           
CUS110000110013450                CARRIE P HOLLAR     4877 CALICO ROAD                        000N     WS                     
MTR11000011001000000000000000RA                12755192  000100163770001637700000000001YN  NNWL000   R                        
MTS11000011  12755192  rds 7040                                                                                               
RDG11000011WATRL000000000K00000000000000000018208212001160349N000000000000N24/28    000450700K 00000000070000000000           
CUS1100001100115553               JOHN S HALL SR.     3598 REDCLIFF DRIVE                     000N     WS                     
MTR11000011001000000000000000RA              99021173    000100163780001637800000000000NN  NNWL000   R                        
RDG11000011WATRL000000000K00000000000000770018108212001160304N000300000010N24/28    002280700K 00000000070000072700           
CUS1100001100115520               JOHN STERLING HALL S3594 REDCLIFF DR                        000N     WS                     
MTR11000011001000000000000000RA              98103243    000100163790001637900000000000NN  NNWL000   R                        
RDG11000011WATRL000000000K00000000000001604018308212001160416N000000000000N24/28    000270700K 00000000070000153700           
CUS110000110013451                WALTER A SUDDRETH   3588 REDCLIFF DRIVE                     000N     WS                     
MTR11000011001000000000000000RA                12755343  000100163800001638000000000000NN  NNWL000   R                        
RDG11000011WATRL000000000K00000000000019842018408212001160439N000000000000N24/28    000230700K 00000000070001976800           
CUS1100001100116937               SHIRLEY KEEVER      3585 REDCLIFF DRIVE                     000N     WS TR                  
MTR11000011001000000000000000RA              96053016    000100163810001638100000000000NN  NNWL000   L                        
RDG11000011WATRL000000000K00000000000002776018508212001160508N000000000000N24/28    000290700K 00000000070000274800           
CUS110000110014046                PATSY B PITTS       3582 REDCLIFF DRIVE                     000N     WS                     
MTR11000011001000000000000000RA                12755235  000100163820001638200000000000NN  NNWL000   R                        
RDG11000011WATRL000000000K00000000000009122018608212001160513N000000000000N24/28    000050700K 00000000070000910200           
CUS110000110014876                J GRANVILLE ROBBINS 3575 REDCLIFF DRIVE                     000N     WS                     
MTR11000011001000000000000000RA                37007210  000100163830001638300000000000NN  NNWL000   L                        
RDG11000011WATRL000000000K00000000000000775018708212001160539N000000000000N24/28    000260700K 00000000070000077500           
CUS110000110017885                KYLE PENNINGTON     3566 REDCLIFF DRIVE                     000N     WS                     
MTR11000011001000000000000000RA                89227217  000100163840001638400000000000NN  NNWL000   R                        
RDG11000011WATRL000000000K00000000000005541018808212001160618N000000000000N24/28    000390700K 00000000070000551100           
CUS1100001100112015               DENISE BARNES       3565 REDCLIFF DRIVE                     000N     WS                     
MTR11000011001000000000000000RA                41238450  000100163850001638500000000000NN  NNWL000   L                        
RDG11000011WATRL000000000K00000000000004175018908212001160620N000000000000N24/28    000020700K 00000000070000403900           
CUS110000110018222                JIM ATKINS          3560 REDCLIFF DRIVE                     000N     WS                     
MTR11000011001000000000000000RA                08945796  000100163860001638600000000000NN  NNWL000   R                        
RDG11000011WATRL000000000K00000000000008191019008212001160646N000000000000N24/28    000260700K 00000000070000813600           
CUS110000110015054                LEROY ROBBINS       3555 REDCLIFF DRIVE                     000N     WS                     
MTR11000011001000000000000000RA                37104738  000100163870001638700000000000NN  NNWL000   L                        
RDG11000011WATRL000000000K00000000000001537019108212001160719N000000000000N24/28    000330700K 00000000070000150600           
CUS110000110013456                D HAYDEN DAVIS      2663 TORRENCE LANE                      000N     WS                     
MTR11000011001000000000000000RA                30884302  000100163880001638800000000000NN  NNWL000   R                        
RDG11000011WATRL000000000K00000000000004518019208212001160754N000000000000N24/28    000350700K 00000000070000451100           
CUS110000110013458                SCOTT TORRENCE      2664 TORRENCE LANE                      000N     WS                     
MTR11000011001000000000000000RA                12755241  000100163890001638900000000000NN  NNWL000   L                        
RDG11000011WATRL000000000K00000000000013366019308212001160822N000000000000N24/28    000280700K 00000000070001331000           
CUS110000110013457                DAVID STAMEY        2669 TORRENCE LANE                      000N     WS                     
MTR11000011001000000000000000RA                12755242  000100163900001639000000000000NN  NNWL000   R                        
RDG11000011WATRL000000000K00000000000014776019408212001160848N000000000000N24/28    000260700K 00000000070001477200           
CUS110000110013459                LARRY ASHLEY        3548 REDCLIFF DRIVE                     000N     WS                     
MTR11000011001000000000000000RA                12755240  000100163910001639100000000000NN  NNWL000   R                        
RDG11000011WATRL000000000K00000000000002056019608212001161019N000000000000N24/28    000240700K 00000000070000205200           
CUS110000110013460                HAROLD D BAIN       3549 REDCLIFF DRIVE                     000N     WS                     
MTR11000011001000000000000000RA                90764482  000100163920001639200000000000NN  NNWL000   L                        
RDG11000011WATRL000000000K00000000000002557019508212001160955N000000000000N24/28    000670700K 00000000070000253100           
CUS110000110013461                BARBARA GENTRY      3452 REDCLIFF WAY                       000N     WS                     
MTR11000011001000000000000000RA                30022899  000100163930001639300000000000NN  NNWL000   R                        
RDG11000011WATRL000000000K00000000000007592019708212001161055N000000000000N24/28    000360700K 00000000070000757800           
CUS110000110013462                DEAN CARTER         3456 REDCLIFF WAY                       000N     WS                     
MTR11000011001000000000000000RA                12755346  000100163940001639400000000000NN  NNWL000   R                        
RDG11000011WATRL000000000K00000000000014364019808212001161114N000000000000N24/28    000190700K 00000000070001433500           
CUS110000110015677                THURMAN STATON      3460 REDCLIFF WAY                       000N     WS                     
MTR11000011001000000000000000RA                38052161  000100163950001639500000000000NN  NNWL000   R                        
RDG11000011WATRL000000000K00000000000006362019908212001161145N000000000000N24/28    000310700K 00000000070000633400           
CUS1100001100112804               PAIRLEE GREENE      3464 REDCLIFF WAY                       000N     WS                     
MTR11000011001000000000000000RA              96031840    000100163960001639600000000000NN  NNWL000   R                        
RDG11000011WATRL000000000K00000000000001861020008212001161153N000000000000N24/28    000080700K 00000000070000186000           
CUS110000110013463                HUBERT KELLER       3468 REDCLIFF WAY                       000N     WS                     
MTR11000011001000000000000000RA                24534505  000100163970001639700000000000NN  NNWL000   R                        
RDG11000011WATRL000000000K00000000000003854020108212001161234N000000000000N24/28    000410700K 00000000070000381800           
CUS1100001100110306               RUBY K. LAMKIN      3472 REDCLIFF WAY                       000N     WS                     
MTR11000011001000000000000000RA                92923733  000100163980001639800000000000NN  NNWL000   R                        
RDG11000011WATRL000000000K00000000000001374020208212001161240N000000000000N24/28    000060700K 00000000070000137200           
CUS110000110013464                ROGER E CALDWELL    3484 REDCLIFF WAY                       000N     WS                     
MTR11000011001000000000000000RA                12755246  000100163990001639900000000000NN  NNWL000   R                        
RDG11000011WATRL000000000K00000000000023278020308212001161345N000000000000N24/28    000650700K 00000000070002322900           
CUS110000110015053                MAMIE CURTIS        4856 CALICO RD                          000N     WS                     
MTR11000011001000000000000000RA                37104633  000100164000001640000000000000NN  NNWL000   L                        
RDG11000011WATRL000000000K00000000000002677020408212001161422N000000000000N24/28    000370700K 00000000070000266700           
CUS110000110014976                NORA DARLENE ABEL   4852 CALICO ROAD                        000N     WS                     
MTR11000011001000000000000000RA                12755196  000100164010001640100000000000NN  NNWL000   L                        
RDG11000011WATRL000000000K00000000000008088020508212001161504N000000000000N24/28    000420700K 00000000070000808500           
CUS110000110013466                JOHN E MAIN         4846 CALICO ROAD                        000N     WS                     
MTR11000011001000000000000000RA                12755209  000100164020001640200000000000NN  NNWL000   L                        
RDG11000011WATRL000000000K00000000000019188020608212001161538N000000000000N24/28    000340700K 00000000070001913100           
CUS1100001100111882               SUSAN O HARTLEY     4845 CALICO ROAD                        000N     WS                     
MTR11000011001000000000000000RA                29712961  000100164030001640300000000000NN  NNWL000   R                        
RDG11000011WATRL000000000K00000000000008995020708212001161556N000000000000N24/28    000180700K 00000000070000895100           
CUS110000110013468                D & J PROPERTIES    SMOKEHOUSE CT  (12 A                    000N     WS                     
MTR11000011001000000000000000CA                30158508  000100164040001640400000000000NN  NNWL000   L                        
RDG11000011WATRL000000000K00000000000123739020808212001161651N000400000010N24/28    000550700K 00000000070012332700           
CUS110000110013469                MORGANTON CHAIR CO  2929 MORGANTON BLVD                     000N     WS                     
MTR11000011001000000000000000CA                41239041  000100164050001640500000000000NN  NNWL000   R                        
RDG11000011WATRL000000000K00000000000002256000108222001094028N000000000000N24/28    000000700K 00000000070000225000           
CUS110000110013470                MORGANTON CHAIR CO  FRAME PLANT                             000N     WS                     
MTR11000011001000000000000000CA                39119801  000100164060001640600000000000NN  NNWL000   L                        
RDG11000011WATRL000000000K00000000000004109000208222001094123N000000000000N24/28    000550700K 00000000070000407900           
CUS110000110013471                TERRY LEE MORGAN    4818 CALICO ROAD                        000N     WS                     
MTR11000011001000000000000000RA                29924575  000100164070001640700000000000NN  NNWL000   R                        
RDG11000011WATRL000000000K00000000000001408000308222001094221N000000000000N24/28    000580700K 00000000070000136400           
CUS110000110018708                KATHERINE HOLMAN    4535 HARTLAND ROAD                      000N     WS                     
MTR11000011001000000000000000RA                90764428  000100164080001640800000000000NN  NNWL000   L                        
RDG11000011WATRL000000000K00000000000007067000408222001094310N000000000000N24/28    000490700K 00000000070000702800           
CUS110000110016245                BRIAN PRESNELL      4542 HARTLAND ROAD                      000N     WS                     
MTR11000011001000000000000000RA              98103784    000100164090001640900000000000NN  NNWL000   R                        
RDG11000011WATRL000000000K00000000000000732000508222001094353N000300000010N24/28    000430700K 00000000070000068900           
CUS110000110013473                RALPH L COFFEY      4564 HARTLAND ROAD                      000N     WS                     
MTR11000011001000000000000000RA                92378406  000100164100001641000000000000NN  NNWL000   R                        
RDG11000011WATRL000000000K00000000000006415000608222001094539N000000000000N24/28    001060700K 00000000070000633600           
CUS110000110018255                BYNUM L. PRESNELL   4570 HARTLAND ROAD                      000N     WS                     
MTR11000011001000000000000000RA                08945806  000100164110001641100000000001YN  NNWL000   R                        
MTS11000011  08945806  rds 12143                                                                                              
RDG11000011WATRL000000000K00000000000020942000708222001095016N000000000001N24/28    002770700K 00000000070002094200           
CUS110000110016955                DALLAS PRICE        4569 HARTLAND ROAD                      000N     WS                     
MTR11000011001000000000000000RA                40345914  000100164120001641200000000000NN  NNWL000   L                        
RDG11000011WATRL000000000K00000000000004679000808222001095046N000000000000N24/28    000300700K 00000000070000466400           
CUS110000110013474                GARY D WEST         4575 HARTLAND ROAD                      000N     WS                     
MTR11000011001000000000000000RA                12755553  000100164130001641300000000000NN  NNWL000   L                        
RDG11000011WATRL000000000K00000000000012722000908222001095123N000000000000N24/28    000370700K 00000000070001267700           
CUS1100001100118513               RUTH WHITEHEAD      4585 HARTLAND RD                        000N     WS                     
MTR11000011001000000000000000RA              91013604    000100164140001641400000000000NN  NNWL000   L                        
RDG11000011WATRL000000000K00000000000004375001008222001095207N000000000000N24/28    000440700K 00000000070000436200           
CUS1100001100115925               GREG BEACH          4591 HARTLAND RD                        000N     WS                     
MTR11000011001000000000000000RA              94328276    000100164150001641500000000000NN  NNWL000   L                        
RDG11000011WATRL000000000K00000000000005312001108222001095253N000000000000N24/28    000460700K 00000000070000512100           
CUS1100001100118490               LUCRETIA ROSEMAN    4594 HARTLAND RD                        000N     WS                     
MTR11000011001000000000000000RA              94328348    000100164160001641600000000000NN  NNWL000   R                        
RDG11000011WATRL000000000K00000000000004704001208222001095345N000000000000N24/28    000520700K 00000000070000466600           
CUS1100001100117762               BRENT LAWS          4595 HARTLAND ROAD                      000N     WS                     
MTR11000011001000000000000000RA              91013672    000100164170001641700000000000NN  NNWL000   L                        
RDG11000011WATRL000000000K00000000000004705001308222001095351N000000000000N24/28    000060700K 00000000070000467400           
CUS110000110016409                DOUGLAS BEACH       4095 LUKE LANE                          000N     WS                     
MTR11000011001000000000000000RA                39493525  000100164180001641800000000000NN  NNWL000   R                        
RDG11000011WATRL000000000K00000000000063266001408222001095506N000400000041N24/28    000130700K 00000000070006317800           
CUS110000110013511                THOMAS E PROFFITT IV4605 HARTLAND ROAD                      000N     WS                     
MTR11000011001000000000000000RA                12755605  000100164190001641900000000000NN  NNWL000   L                        
RDG11000011WATRL000000000K00000000000011379001508222001095603N000000000000N24/28    000570700K 00000000070001135500           
CUS1100001100110659               DONALD R ROSE       4609 HARTLAND ROAD                      000N     WS                     
MTR11000011001000000000000000RA                92756987  000100164200001642000000000000NN  NNWL000   L                        
RDG11000011WATRL000000000K00000000000007031001608222001095636N000000000000N24/28    000330700K 00000000070000696500           
CUS1100001100117073               AMY CHILDERS        4621 HARTLAND RD                        000N     WS                     
MTR11000011001000000000000000CA              00329569    000100164210001642100000000000NN  NNWL000   L                        
RDG11000011WATRL000000000K00000000000000479001708222001095712N000300000010N24/28    000360700K 00000000070000045100           
CUS110000110019925                GARY LEE GREER      4625 HARTLAND ROAD                      000N     WS                     
MTR11000011001000000000000000RA              92378412    000100164220001642200000000000NN  NNWL000   L                        
RDG11000011WATRL000000000K00000000000005317001808222001095804N000000000000N24/28    000520700K 00000000070000526600           
CUS110000110013492                PHILLIP DEAL        4631 HARTLAND RD                        000N     WS                     
MTR11000011001000000000000000RA                89579316  000100164230001642300000000000NN  NNWL000   L                        
RDG11000011WATRL000000000K00000000000005015001908222001095831N000000000000N24/28    000270700K 00000000070000498400           
CUS110000110016756                DEREICK AIKEN       4635 HARTLAND ROAD                      000N     WS                     
MTR11000011001000000000000000RA                G-012762  000100164240001642400000000000NN  NNWL000   L                        
RDG11000011WATRL000000000K00000000000027155002008222001100419N000000000000N24/28    003480700K 00000000070002704800           
CUS1100001100116683               VACANT              3338 CLAY COURT APT                     000N     WS METER LOCKED        
MTR11000011001000000000000000RA                37389484  000100164250001642500000000000NN  NNWL000   R                        
RDG11000011WATRL000000000K00000000000009439002108222001100634N000000000000N24/28    001350700K 00000000070000943900           
CUS110000110019737                FELIX HAMBY         3334 CLAY COURT APT                     000N     WS                     
MTR11000011001000000000000000RA                41239533  000100164260001642600000000000NN  NNWL000   R                        
RDG11000011WATRL000000000K00000000000008188002208222001100652N000000000000N24/28    000180700K 00000000070000812300           
CUS1100001100112228               LENA COFFEY         3342-1 CLAY APT CT                      000N     WS                     
MTR11000011001000000000000000RA              89579331    000100164270001642700000000000NN  NNWL000   R                        
RDG11000011WATRL000000000K00000000000004447002308222001100728N000000000000N24/28    000360700K 00000000070000442700           
CUS1100001100118368               SHERRY BURLESON     3342-2 CLAY APT CT                      000N     WS                     
MTR11000011001000000000000000RA              90764496    000100164280001642800000000000NN  NNWL000   R                        
RDG11000011WATRL000000000K00000000000004667002408222001100739N000000000000N24/28    000110700K 00000000070000466300           
CUS1100001100117727               RONALD SMITH        3346 CLAY APT CT #3                     000N     WS CHECK PREV RDING    
MTR11000011001000000000000000RA              93205189    000100164290001642900000000000NN  NNWL000   R                        
RDG11000011WATRL000000000K00000000000002890002508222001100820N000000000000N24/28    000410700K 00000000070000285100           
CUS110000110013497                RAYMOND HILDERBRAN  3346-4 CLAY APT CT                      000N     WS                     
MTR11000011001000000000000000RA              97016069    000100164300001643000000000000NN  NNWL000   R                        
RDG11000011WATRL000000000K00000000000001955002608222001100856N000000000000N24/28    000360700K 00000000070000191200           
CUS1100001100117089               LORI L SAINE        3350-5 CLAY APT CT                      000N     WS                     
MTR11000011001000000000000000RA              99021224    000100164310001643100000000000NN  NNWL000   R                        
RDG11000011WATRL000000000K00000000000001606002808222001100932N000000000000N24/28    000140700K 00000000070000155700           
CUS1100001100118222               MIKEAL HARMON       3351-13 CLAY APT CT                     000N     WS                     
MTR11000011001000000000000000RA              89579318    000100164320001643200000000000NN  NNWL000   L                        
RDG11000011WATRL000000000K00000000000005535002708222001100918N000000000000N24/28    000220700K 00000000070000549000           
CUS1100001100117581               LOURDES L LAINEZ    3350-6 CLAY APT CT                      000N     WS                     
MTR11000011001000000000000000RA              12755636    000100164330001643300000000000NN  NNWL000   R                        
RDG11000011WATRL000000000K00000000000015086003008222001101023N000000000000N24/28    000090700K 00000000070001506100           
CUS110000110017129                SHERRY K. SMITH     3351-14 CLAY APT CT                     000N     WS                     
MTR11000011001000000000000000RA                38052247  000100164340001643400000000000NN  NNWL000   L                        
RDG11000011WATRL000000000K00000000000007548002908222001101014N000000000000N24/28    000420700K 00000000070000752100           
CUS1100001100118078               BETTY EMORY         3354 CLAY APT CT  #7                    000N     WS                     
MTR11000011001000000000000000RA              96099089    000100164350001643500000000000NN  NNWL000   R                        
RDG11000011WATRL000000000K00000000000001829003208222001101123N000000000000N24/28    000190700K 00000000070000182900           
CUS1100001100117585               STACEY A TAYLOR     3356-8 CLAY APT CT                      000N     WS CHECK LOCATION      
MTR11000011001000000000000000RA              95102186    000100164360001643600000000001YN  NNWL000   R                        
MTS1100001195102186    b4 12755660 rt                                                                                         
RDG11000011WATRL000000000K00000000000004142003408222001101402N000000000001N24/28    000900700K 00000000070000412000           
CUS1100001100115618               VANESSA HORTON      3355-15 CLAY APT CT                     000N     WS                     
MTR11000011001000000000000000RA              37007218    000100164370001643700000000000NN  NNWL000   L                        
RDG11000011WATRL000000000K00000000000007947003108222001101104N000000000000N24/28    000410700K 00000000070000790200           
CUS1100001100113508               REBECCA MAIN        3355-16 CLAY APT CT                     000N     WS                     
MTR11000011001000000000000000RA              12755660    000100164380001643800000000000NN  NNWL000   L                        
RDG11000011WATRL000000000K00000000000013430003308222001101203N000000000000N24/28    000400700K 00000000070001337000           
CUS1100001100117286               ADDIE TUCKER        3358 CLAY APT #9                        000N     WS                     
MTR11000011001000000000000000RA              31465074    000100164390001643900000000000NN  NNWL000   R                        
RDG11000011WATRL000000000K00000000000000660003508222001101445N000300000010N24/28    000430700K 00000000070000063600           
CUS1100001100117442               LARRY PENNINGTON    3362 CLAY APT #10                       000N     WS                     
MTR11000011001000000000000000RA              12755601    000100164400001644000000000000NN  NNWL000   R                        
RDG11000011WATRL000000000K00000000000009687003608222001101524N000000000000N24/28    000390700K 00000000070000964300           
CUS1100001100117943               JAMES WITHERSPOON   3362 CLAY APT CT #11                    000N     WS                     
MTR11000011001000000000000000RA              31465257    000100164410001644100000000000NN  NNWL000   R                        
RDG11000011WATRL000000000K00000000000000646003708222001101552N000300000010N24/28    000280700K 00000000070000059300           
CUS1100001100117753               ERIC HRABOWSKIE     3364 CLAY APT #12                       000N     WS                     
MTR11000011001000000000000000RA              16659215    000100164420001644200000000000NN  NNWL000   R                        
RDG11000011WATRL000000000K00000000000000430003808222001101619N000300000010N24/28    000270700K 00000000070000032700           
CUS110000110013475                W D HIGHTOWER       3388 IVEY STINE RD                      000N     WS TL                  
MTR11000011001000000000000000RA                39119802  000100164430001644300000000000NN  NNWL000   R                        
RDG11000011WATRL000000000K00000000000001760003908222001101716N000000000000N24/28    000570700K 00000000070000174200           
CUS1100001100115486               BRANDY HUFFMAN      3377 IVEY STINE ROAD                    000N     WS                     
MTR11000011001000000000000000RA              08945765    000100164440001644400000000000NN  NNWL000   R                        
RDG11000011WATRL000000000K00000000000006670004008222001101758N000000000000N24/28    000420700K 00000000070000662700           
CUS1100001100115994               TRAVIS BRYAN        3372 IVEY STINE ROAD                    000N     WS                     
MTR11000011001000000000000000RA                93876500  000100164450001644500000000000NN  NNWL000   L                        
RDG11000011WATRL000000000K00000000000005047004208222001102007N000000000000N24/28    000270700K 00000000070000497500           
CUS1100001100116367               BARBARA PERRY       3373 IVEY STINE RD                      000N     WS                     
MTR11000011001000000000000000RA              90434350    000100164460001644600000000000NN  NNWL000   R                        
RDG11000011WATRL000000000K00000000000004966004108222001101940N000000000000N24/28    001020700K 00000000070000495000           
CUS110000110013476                JUNIOR E HENDRIX    3367 IVEY STINE ROAD                    000N     WS                     
MTR11000011001000000000000000RA                31465263  000100164470001644700000000000NN  NNWL000   R                        
RDG11000011WATRL000000000K00000000000000650004308222001102040N000300000010N24/28    000330700K 00000000070000062100           
CUS110000110013478                COLEN BEANE         3531 REDCLIFF DRIVE                     000N     WS                     
MTR11000011001000000000000000RA                92756976  000100164480001644800000000000NN  NNWL000   R                        
RDG11000011WATRL000000000K00000000000003131004408222001102123N000000000000N24/28    000430700K 00000000070000310200           
CUS110000110013477                MICHAEL GOULDS      3366 IVY STINE ROAD                     000N     WS                     
MTR11000011001000000000000000RA                12755329  000100164490001644900000000000NN  NNWL000   L                        
RDG11000011WATRL000000000K00000000000019181004508222001102204N000000000000N24/28    000410700K 00000000070001962800           
CUS1100001100112664               JIM SWANSON         3541 REDCLIFF DR                        000N     WS                     
MTR11000011001000000000000000RA              90434339    000100164500001645000000000000NN  NNWL000   R                        
RDG11000011WATRL000000000K00000000000005641004608222001102231N000000000000N24/28    000270700K 00000000070000561200           
CUS110000110016082                ROBERT F CLINE      3362 IVEY STINE ROAD                    000N     WS                     
MTR11000011001000000000000000RA                28877835  000100164510001645100000000000NN  NNWL000   L                        
RDG11000011WATRL000000000K00000000000006330004708222001102328N000000000000N24/28    000570700K 00000000070000629400           
CUS1100001100113483               PHILLIP E TEETERS   3001 OAKLAWN COURT                      000N     WS                     
MTR11000011001000000000000000RA              28897834    000100164520001645200000000000NN  NNWL000   L                        
RDG11000011WATRL000000000K00000000000000906004808222001102406N000000000000N24/28    000380700K 00000000070000085800           
CUS110000110013481                J W COLEMAN JR      3000 OAKLAWN COURT                      000N     WS                     
MTR11000011001000000000000000RA              43853912    000100164530001645300000000000NN  NNWL000   R                        
RDG11000011WATRL000000000K00000000000002589004908222001102416N000000000000N24/28    000100700K 00000000070000251600           
CUS110000110013482                KATHY PAUL          3004 OAKLAWN COURT                      000N     WS                     
MTR11000011001000000000000000RA                30903216  000100164540001645400000000000NN  NNWL000   R                        
RDG11000011WATRL000000000K00000000000002251005008222001102447N000000000000N24/28    000310700K 00000000070000219200           
CUS1100001100110044               NOLAN WARD          3005 OAKLAWN COURT                      000N     WS                     
MTR11000011001000000000000000RA                89579264  000100164550001645500000000000NN  NNWL000   L                        
RDG11000011WATRL000000000K00000000000008391005108222001102517N000000000000N24/28    000300700K 00000000070000835300           
CUS110000110016110                FRED CRESSON        OAKLAWN COURT                           000N     WS                     
MTR11000011001000000000000000RA                26301938  000100164560001645600000000000NN  NNWL000   L                        
